{
  "_format": "hh-sol-artifact-1",
  "contractName": "HamsterCharacterNFTs",
  "sourceName": "contracts/hamsterCharacterCollection.sol",
  "abi": [
    {
      "anonymous": false,
      "inputs": [
        {
          "indexed": true,
          "internalType": "address",
          "name": "owner",
          "type": "address"
        },
        {
          "indexed": true,
          "internalType": "address",
          "name": "approved",
          "type": "address"
        },
        {
          "indexed": true,
          "internalType": "uint256",
          "name": "tokenId",
          "type": "uint256"
        }
      ],
      "name": "Approval",
      "type": "event"
    },
    {
      "anonymous": false,
      "inputs": [
        {
          "indexed": true,
          "internalType": "address",
          "name": "owner",
          "type": "address"
        },
        {
          "indexed": true,
          "internalType": "address",
          "name": "operator",
          "type": "address"
        },
        {
          "indexed": false,
          "internalType": "bool",
          "name": "approved",
          "type": "bool"
        }
      ],
      "name": "ApprovalForAll",
      "type": "event"
    },
    {
      "anonymous": false,
      "inputs": [
        {
          "indexed": false,
          "internalType": "uint8",
          "name": "version",
          "type": "uint8"
        }
      ],
      "name": "Initialized",
      "type": "event"
    },
    {
      "anonymous": false,
      "inputs": [
        {
          "indexed": true,
          "internalType": "address",
          "name": "_to",
          "type": "address"
        },
        {
          "indexed": true,
          "internalType": "uint256",
          "name": "_tokenID",
          "type": "uint256"
        }
      ],
      "name": "MintNFTEvent",
      "type": "event"
    },
    {
      "anonymous": false,
      "inputs": [
        {
          "indexed": true,
          "internalType": "address",
          "name": "previousOwner",
          "type": "address"
        },
        {
          "indexed": true,
          "internalType": "address",
          "name": "newOwner",
          "type": "address"
        }
      ],
      "name": "OwnershipTransferred",
      "type": "event"
    },
    {
      "anonymous": false,
      "inputs": [
        {
          "indexed": true,
          "internalType": "address",
          "name": "from",
          "type": "address"
        },
        {
          "indexed": true,
          "internalType": "address",
          "name": "to",
          "type": "address"
        },
        {
          "indexed": true,
          "internalType": "uint256",
          "name": "tokenId",
          "type": "uint256"
        }
      ],
      "name": "Transfer",
      "type": "event"
    },
    {
      "inputs": [],
      "name": "COMMON_PRICE",
      "outputs": [
        {
          "internalType": "uint256",
          "name": "",
          "type": "uint256"
        }
      ],
      "stateMutability": "view",
      "type": "function"
    },
    {
      "inputs": [
        {
          "internalType": "uint256",
          "name": "id",
          "type": "uint256"
        }
      ],
      "name": "IsRare",
      "outputs": [
        {
          "internalType": "bool",
          "name": "",
          "type": "bool"
        }
      ],
      "stateMutability": "view",
      "type": "function"
    },
    {
      "inputs": [
        {
          "internalType": "uint256",
          "name": "id",
          "type": "uint256"
        }
      ],
      "name": "IsUltraRare",
      "outputs": [
        {
          "internalType": "bool",
          "name": "",
          "type": "bool"
        }
      ],
      "stateMutability": "view",
      "type": "function"
    },
    {
      "inputs": [
        {
          "internalType": "uint256",
          "name": "id",
          "type": "uint256"
        }
      ],
      "name": "IsValid",
      "outputs": [
        {
          "internalType": "bool",
          "name": "",
          "type": "bool"
        }
      ],
      "stateMutability": "pure",
      "type": "function"
    },
    {
      "inputs": [],
      "name": "MAX_COMMON_SUPPLY",
      "outputs": [
        {
          "internalType": "uint256",
          "name": "",
          "type": "uint256"
        }
      ],
      "stateMutability": "view",
      "type": "function"
    },
    {
      "inputs": [],
      "name": "MAX_RARE_SUPPLY",
      "outputs": [
        {
          "internalType": "uint256",
          "name": "",
          "type": "uint256"
        }
      ],
      "stateMutability": "view",
      "type": "function"
    },
    {
      "inputs": [],
      "name": "MAX_ULTRARARE_SUPPLY",
      "outputs": [
        {
          "internalType": "uint256",
          "name": "",
          "type": "uint256"
        }
      ],
      "stateMutability": "view",
      "type": "function"
    },
    {
      "inputs": [],
      "name": "RARE_PRICE",
      "outputs": [
        {
          "internalType": "uint256",
          "name": "",
          "type": "uint256"
        }
      ],
      "stateMutability": "view",
      "type": "function"
    },
    {
      "inputs": [
        {
          "internalType": "uint256",
          "name": "",
          "type": "uint256"
        }
      ],
      "name": "Rare",
      "outputs": [
        {
          "internalType": "uint256",
          "name": "",
          "type": "uint256"
        }
      ],
      "stateMutability": "view",
      "type": "function"
    },
    {
      "inputs": [
        {
          "internalType": "uint256",
          "name": "id",
          "type": "uint256"
        }
      ],
      "name": "TotalMinted",
      "outputs": [
        {
          "internalType": "uint256",
          "name": "",
          "type": "uint256"
        }
      ],
      "stateMutability": "view",
      "type": "function"
    },
    {
      "inputs": [],
      "name": "ULTRA_RARE_PRICE",
      "outputs": [
        {
          "internalType": "uint256",
          "name": "",
          "type": "uint256"
        }
      ],
      "stateMutability": "view",
      "type": "function"
    },
    {
      "inputs": [
        {
          "internalType": "uint256",
          "name": "",
          "type": "uint256"
        }
      ],
      "name": "UltraRare",
      "outputs": [
        {
          "internalType": "uint256",
          "name": "",
          "type": "uint256"
        }
      ],
      "stateMutability": "view",
      "type": "function"
    },
    {
      "inputs": [],
      "name": "_tokenIdCounter",
      "outputs": [
        {
          "internalType": "uint256",
          "name": "_value",
          "type": "uint256"
        }
      ],
      "stateMutability": "view",
      "type": "function"
    },
    {
      "inputs": [
        {
          "internalType": "address",
          "name": "to",
          "type": "address"
        },
        {
          "internalType": "uint256",
          "name": "tokenId",
          "type": "uint256"
        }
      ],
      "name": "approve",
      "outputs": [],
      "stateMutability": "nonpayable",
      "type": "function"
    },
    {
      "inputs": [
        {
          "internalType": "address",
          "name": "owner",
          "type": "address"
        }
      ],
      "name": "balanceOf",
      "outputs": [
        {
          "internalType": "uint256",
          "name": "",
          "type": "uint256"
        }
      ],
      "stateMutability": "view",
      "type": "function"
    },
    {
      "inputs": [],
      "name": "baseURI",
      "outputs": [
        {
          "internalType": "string",
          "name": "",
          "type": "string"
        }
      ],
      "stateMutability": "view",
      "type": "function"
    },
    {
      "inputs": [
        {
          "internalType": "uint256",
          "name": "tokenId",
          "type": "uint256"
        }
      ],
      "name": "getApproved",
      "outputs": [
        {
          "internalType": "address",
          "name": "",
          "type": "address"
        }
      ],
      "stateMutability": "view",
      "type": "function"
    },
    {
      "inputs": [
        {
          "internalType": "uint256[]",
          "name": "rareList",
          "type": "uint256[]"
        },
        {
          "internalType": "uint256[]",
          "name": "ultraRareList",
          "type": "uint256[]"
        },
        {
          "internalType": "string",
          "name": "BaseURI",
          "type": "string"
        },
        {
          "internalType": "address payable",
          "name": "payableAddress",
          "type": "address"
        }
      ],
      "name": "initialize",
      "outputs": [],
      "stateMutability": "nonpayable",
      "type": "function"
    },
    {
      "inputs": [
        {
          "internalType": "address",
          "name": "owner",
          "type": "address"
        },
        {
          "internalType": "address",
          "name": "operator",
          "type": "address"
        }
      ],
      "name": "isApprovedForAll",
      "outputs": [
        {
          "internalType": "bool",
          "name": "",
          "type": "bool"
        }
      ],
      "stateMutability": "view",
      "type": "function"
    },
    {
      "inputs": [],
      "name": "marketplaceAddress",
      "outputs": [
        {
          "internalType": "address",
          "name": "",
          "type": "address"
        }
      ],
      "stateMutability": "view",
      "type": "function"
    },
    {
      "inputs": [
        {
          "internalType": "uint256[]",
          "name": "ids",
          "type": "uint256[]"
        },
        {
          "internalType": "address",
          "name": "to",
          "type": "address"
        }
      ],
      "name": "mintBatchToAddress",
      "outputs": [],
      "stateMutability": "nonpayable",
      "type": "function"
    },
    {
      "inputs": [
        {
          "internalType": "uint256",
          "name": "id",
          "type": "uint256"
        }
      ],
      "name": "mintNFT",
      "outputs": [],
      "stateMutability": "payable",
      "type": "function"
    },
    {
      "inputs": [
        {
          "internalType": "address",
          "name": "to",
          "type": "address"
        },
        {
          "internalType": "uint256",
          "name": "id",
          "type": "uint256"
        }
      ],
      "name": "mintToAddress",
      "outputs": [],
      "stateMutability": "nonpayable",
      "type": "function"
    },
    {
      "inputs": [],
      "name": "name",
      "outputs": [
        {
          "internalType": "string",
          "name": "",
          "type": "string"
        }
      ],
      "stateMutability": "view",
      "type": "function"
    },
    {
      "inputs": [],
      "name": "owner",
      "outputs": [
        {
          "internalType": "address",
          "name": "",
          "type": "address"
        }
      ],
      "stateMutability": "view",
      "type": "function"
    },
    {
      "inputs": [
        {
          "internalType": "uint256",
          "name": "tokenId",
          "type": "uint256"
        }
      ],
      "name": "ownerOf",
      "outputs": [
        {
          "internalType": "address",
          "name": "",
          "type": "address"
        }
      ],
      "stateMutability": "view",
      "type": "function"
    },
    {
      "inputs": [],
      "name": "payable_address",
      "outputs": [
        {
          "internalType": "address payable",
          "name": "",
          "type": "address"
        }
      ],
      "stateMutability": "view",
      "type": "function"
    },
    {
      "inputs": [],
      "name": "renounceOwnership",
      "outputs": [],
      "stateMutability": "nonpayable",
      "type": "function"
    },
    {
      "inputs": [
        {
          "internalType": "address",
          "name": "from",
          "type": "address"
        },
        {
          "internalType": "address",
          "name": "to",
          "type": "address"
        },
        {
          "internalType": "uint256",
          "name": "tokenId",
          "type": "uint256"
        }
      ],
      "name": "safeTransferFrom",
      "outputs": [],
      "stateMutability": "nonpayable",
      "type": "function"
    },
    {
      "inputs": [
        {
          "internalType": "address",
          "name": "from",
          "type": "address"
        },
        {
          "internalType": "address",
          "name": "to",
          "type": "address"
        },
        {
          "internalType": "uint256",
          "name": "tokenId",
          "type": "uint256"
        },
        {
          "internalType": "bytes",
          "name": "data",
          "type": "bytes"
        }
      ],
      "name": "safeTransferFrom",
      "outputs": [],
      "stateMutability": "nonpayable",
      "type": "function"
    },
    {
      "inputs": [
        {
          "internalType": "address",
          "name": "operator",
          "type": "address"
        },
        {
          "internalType": "bool",
          "name": "approved",
          "type": "bool"
        }
      ],
      "name": "setApprovalForAll",
      "outputs": [],
      "stateMutability": "nonpayable",
      "type": "function"
    },
    {
      "inputs": [
        {
          "internalType": "address",
          "name": "_marketplaceAddress",
          "type": "address"
        }
      ],
      "name": "setMarketplace",
      "outputs": [],
      "stateMutability": "nonpayable",
      "type": "function"
    },
    {
      "inputs": [
        {
          "internalType": "bytes4",
          "name": "interfaceId",
          "type": "bytes4"
        }
      ],
      "name": "supportsInterface",
      "outputs": [
        {
          "internalType": "bool",
          "name": "",
          "type": "bool"
        }
      ],
      "stateMutability": "view",
      "type": "function"
    },
    {
      "inputs": [],
      "name": "symbol",
      "outputs": [
        {
          "internalType": "string",
          "name": "",
          "type": "string"
        }
      ],
      "stateMutability": "view",
      "type": "function"
    },
    {
      "inputs": [
        {
          "internalType": "uint256",
          "name": "index",
          "type": "uint256"
        }
      ],
      "name": "tokenByIndex",
      "outputs": [
        {
          "internalType": "uint256",
          "name": "",
          "type": "uint256"
        }
      ],
      "stateMutability": "view",
      "type": "function"
    },
    {
      "inputs": [
        {
          "internalType": "address",
          "name": "owner",
          "type": "address"
        },
        {
          "internalType": "uint256",
          "name": "index",
          "type": "uint256"
        }
      ],
      "name": "tokenOfOwnerByIndex",
      "outputs": [
        {
          "internalType": "uint256",
          "name": "",
          "type": "uint256"
        }
      ],
      "stateMutability": "view",
      "type": "function"
    },
    {
      "inputs": [
        {
          "internalType": "uint256",
          "name": "tokenId",
          "type": "uint256"
        }
      ],
      "name": "tokenURI",
      "outputs": [
        {
          "internalType": "string",
          "name": "",
          "type": "string"
        }
      ],
      "stateMutability": "view",
      "type": "function"
    },
    {
      "inputs": [],
      "name": "totalSupply",
      "outputs": [
        {
          "internalType": "uint256",
          "name": "",
          "type": "uint256"
        }
      ],
      "stateMutability": "view",
      "type": "function"
    },
    {
      "inputs": [
        {
          "internalType": "address",
          "name": "to",
          "type": "address"
        },
        {
          "internalType": "uint256",
          "name": "tokenId",
          "type": "uint256"
        }
      ],
      "name": "transfer",
      "outputs": [],
      "stateMutability": "nonpayable",
      "type": "function"
    },
    {
      "inputs": [
        {
          "internalType": "address",
          "name": "from",
          "type": "address"
        },
        {
          "internalType": "address",
          "name": "to",
          "type": "address"
        },
        {
          "internalType": "uint256",
          "name": "tokenId",
          "type": "uint256"
        }
      ],
      "name": "transferFrom",
      "outputs": [],
      "stateMutability": "nonpayable",
      "type": "function"
    },
    {
      "inputs": [
        {
          "internalType": "address",
          "name": "newOwner",
          "type": "address"
        }
      ],
      "name": "transferOwnership",
      "outputs": [],
      "stateMutability": "nonpayable",
      "type": "function"
    }
  ],
  "bytecode": "0x608060405234801561001057600080fd5b50612f27806100206000396000f3fe6080604052600436106102465760003560e01c806373ad6c2d11610139578063a78f06b5116100b6578063c9c0efa01161007a578063c9c0efa014610651578063d4266d0e14610671578063d519989914610691578063daa17f49146106ad578063e985e9c5146106ce578063f2fde38b1461071757600080fd5b8063a78f06b5146104fd578063a9059cbb146105d0578063b88d4fde146105f0578063c62f210314610610578063c87b56dd1461063157600080fd5b806389a746eb116100fd57806389a746eb1461054a5780638da5cb5b1461056a578063926427441461058857806395d89b411461059b578063a22cb465146105b057600080fd5b806373ad6c2d146104dd578063765a636b146104fd57806377b64d3f146104fd5780637aaf99211461051257806384c4bd4b1461053257600080fd5b80632e119c79116101c75780636352211e1161018b5780636352211e146104575780636613bcb0146104775780636c0360eb1461049357806370a08231146104a8578063715018a6146104c857600080fd5b80632e119c79146103bb5780632f745c59146103d75780633b056531146103f757806342842e0e146104175780634f6ccce71461043757600080fd5b8063158e6dad1161020e578063158e6dad1461031c57806318160ddd1461033c57806321ca42361461035b57806323b872dd1461037b57806328da959f1461039b57600080fd5b806301ffc9a71461024b57806306fdde0314610280578063081812fc146102a2578063095ea7b3146102da57806311281416146102fc575b600080fd5b34801561025757600080fd5b5061026b610266366004612652565b610737565b60405190151581526020015b60405180910390f35b34801561028c57600080fd5b50610295610762565b60405161027791906126bf565b3480156102ae57600080fd5b506102c26102bd3660046126d2565b6107f4565b6040516001600160a01b039091168152602001610277565b3480156102e657600080fd5b506102fa6102f5366004612700565b61081b565b005b34801561030857600080fd5b5061026b6103173660046126d2565b610935565b34801561032857600080fd5b506102fa61033736600461284b565b61094a565b34801561034857600080fd5b506099545b604051908152602001610277565b34801561036757600080fd5b506102fa610376366004612700565b610b65565b34801561038757600080fd5b506102fa6103963660046128fa565b610bfa565b3480156103a757600080fd5b5061034d6103b63660046126d2565b610c2b565b3480156103c757600080fd5b5061034d671158e460913d000081565b3480156103e357600080fd5b5061034d6103f2366004612700565b610c4d565b34801561040357600080fd5b5061034d6104123660046126d2565b610ce3565b34801561042357600080fd5b506102fa6104323660046128fa565b610cf4565b34801561044357600080fd5b5061034d6104523660046126d2565b610d0f565b34801561046357600080fd5b506102c26104723660046126d2565b610da2565b34801561048357600080fd5b5061034d6722b1c8c1227a000081565b34801561049f57600080fd5b50610295610e02565b3480156104b457600080fd5b5061034d6104c336600461293b565b610e91565b3480156104d457600080fd5b506102fa610f17565b3480156104e957600080fd5b506102fa6104f836600461293b565b610f2b565b34801561050957600080fd5b5061034d600181565b34801561051e57600080fd5b5061034d61052d3660046126d2565b610f56565b34801561053e57600080fd5b5061012e5461034d9081565b34801561055657600080fd5b506102fa610565366004612958565b610fb2565b34801561057657600080fd5b5060c9546001600160a01b03166102c2565b6102fa6105963660046126d2565b61112e565b3480156105a757600080fd5b506102956112a1565b3480156105bc57600080fd5b506102fa6105cb3660046129de565b6112b0565b3480156105dc57600080fd5b506102fa6105eb366004612700565b6112bb565b3480156105fc57600080fd5b506102fa61060b366004612a1c565b6112c6565b34801561061c57600080fd5b50610133546102c2906001600160a01b031681565b34801561063d57600080fd5b5061029561064c3660046126d2565b6112f8565b34801561065d57600080fd5b5061026b61066c3660046126d2565b611303565b34801561067d57600080fd5b5061026b61068c3660046126d2565b61135b565b34801561069d57600080fd5b5061034d670214e8348c4f000081565b3480156106b957600080fd5b50610130546102c2906001600160a01b031681565b3480156106da57600080fd5b5061026b6106e9366004612a9c565b6001600160a01b039182166000908152606a6020908152604080832093909416825291909152205460ff1690565b34801561072357600080fd5b506102fa61073236600461293b565b6113aa565b60006001600160e01b0319821663780e9d6360e01b148061075c575061075c82611420565b92915050565b60606065805461077190612aca565b80601f016020809104026020016040519081016040528092919081815260200182805461079d90612aca565b80156107ea5780601f106107bf576101008083540402835291602001916107ea565b820191906000526020600020905b8154815290600101906020018083116107cd57829003601f168201915b5050505050905090565b60006107ff82611470565b506000908152606960205260409020546001600160a01b031690565b600061082682610da2565b9050806001600160a01b0316836001600160a01b0316036108985760405162461bcd60e51b815260206004820152602160248201527f4552433732313a20617070726f76616c20746f2063757272656e74206f776e656044820152603960f91b60648201526084015b60405180910390fd5b336001600160a01b03821614806108b457506108b481336106e9565b6109265760405162461bcd60e51b815260206004820152603d60248201527f4552433732313a20617070726f76652063616c6c6572206973206e6f7420746f60448201527f6b656e206f776e6572206f7220617070726f76656420666f7220616c6c000000606482015260840161088f565b61093083836114cf565b505050565b6000808211801561075c575050611388101590565b600054610100900460ff161580801561096a5750600054600160ff909116105b806109845750303b158015610984575060005460ff166001145b6109e75760405162461bcd60e51b815260206004820152602e60248201527f496e697469616c697a61626c653a20636f6e747261637420697320616c72656160448201526d191e481a5b9a5d1a585b1a5e995960921b606482015260840161088f565b6000805460ff191660011790558015610a0a576000805461ff0019166101001790555b610a646040518060400160405280601a81526020017f48616d737465722047656e6573697320436861726163746572730000000000008152506040518060400160405280600381526020016248474360e81b81525061153d565b610a6c61156e565b610a74611595565b610a7c6115c4565b6001600160a01b038216610ac45760405162461bcd60e51b815260206004820152600f60248201526e496e76616c6964206164647265737360881b604482015260640161088f565b8451610ad8906101329060208801906125dc565b508351610aed906101319060208701906125dc565b5061012f610afb8482612b52565b5061013380546001600160a01b0319166001600160a01b0384161790558015610b5e576000805461ff0019169055604051600181527f7f26b83ff96e1f2b6a682f133852f6798a09c465da95921460cefb38474024989060200160405180910390a15b5050505050565b610b6d6115f3565b610b7681610935565b610b925760405162461bcd60e51b815260040161088f90612c12565b610b9b81611303565b15610bd6576001610bab82610f56565b10610bc85760405162461bcd60e51b815260040161088f90612c3e565b610bd2828261164d565b5050565b610bdf8161135b565b15610bef576001610bab82610f56565b6001610bab82610f56565b610c043382611713565b610c205760405162461bcd60e51b815260040161088f90612c75565b610930838383611792565b6101318181548110610c3c57600080fd5b600091825260209091200154905081565b6000610c5883610e91565b8210610cba5760405162461bcd60e51b815260206004820152602b60248201527f455243373231456e756d657261626c653a206f776e657220696e646578206f7560448201526a74206f6620626f756e647360a81b606482015260840161088f565b506001600160a01b03919091166000908152609760209081526040808320938352929052205490565b6101328181548110610c3c57600080fd5b610930838383604051806020016040528060008152506112c6565b6000610d1a60995490565b8210610d7d5760405162461bcd60e51b815260206004820152602c60248201527f455243373231456e756d657261626c653a20676c6f62616c20696e646578206f60448201526b7574206f6620626f756e647360a01b606482015260840161088f565b60998281548110610d9057610d90612cc2565b90600052602060002001549050919050565b6000818152606760205260408120546001600160a01b03168061075c5760405162461bcd60e51b8152602060048201526018602482015277115490cdcc8c4e881a5b9d985b1a59081d1bdad95b88125160421b604482015260640161088f565b61012f8054610e1090612aca565b80601f0160208091040260200160405190810160405280929190818152602001828054610e3c90612aca565b8015610e895780601f10610e5e57610100808354040283529160200191610e89565b820191906000526020600020905b815481529060010190602001808311610e6c57829003601f168201915b505050505081565b60006001600160a01b038216610efb5760405162461bcd60e51b815260206004820152602960248201527f4552433732313a2061646472657373207a65726f206973206e6f7420612076616044820152683634b21037bbb732b960b91b606482015260840161088f565b506001600160a01b031660009081526068602052604090205490565b610f1f6115f3565b610f296000611852565b565b610f336115f3565b61013080546001600160a01b0319166001600160a01b0392909216919091179055565b600080805b61012d54811015610fab578361012d8281548110610f7b57610f7b612cc2565b906000526020600020015403610f995781610f9581612cee565b9250505b80610fa381612cee565b915050610f5b565b5092915050565b610fba6115f3565b60005b8281101561112857610fe6848483818110610fda57610fda612cc2565b90506020020135610935565b6110025760405162461bcd60e51b815260040161088f90612c12565b61102384848381811061101757611017612cc2565b90506020020135611303565b1561108f57600161104b85858481811061103f5761103f612cc2565b90506020020135610f56565b106110685760405162461bcd60e51b815260040161088f90612c3e565b61108a8285858481811061107e5761107e612cc2565b9050602002013561164d565b611116565b6110b08484838181106110a4576110a4612cc2565b9050602002013561135b565b156110cc57600161104b85858481811061103f5761103f612cc2565b60016110e385858481811061103f5761103f612cc2565b106111005760405162461bcd60e51b815260040161088f90612c3e565b6111168285858481811061107e5761107e612cc2565b8061112081612cee565b915050610fbd565b50505050565b6111366118a4565b61113f81610935565b61115b5760405162461bcd60e51b815260040161088f90612c12565b61116481611303565b156111c757600161117482610f56565b106111915760405162461bcd60e51b815260040161088f90612c3e565b671158e460913d000034146111b85760405162461bcd60e51b815260040161088f90612d07565b6111c2338261164d565b61127d565b6111d08161135b565b156112245760016111e082610f56565b106111fd5760405162461bcd60e51b815260040161088f90612c3e565b6722b1c8c1227a000034146111b85760405162461bcd60e51b815260040161088f90612d07565b600161122f82610f56565b1061124c5760405162461bcd60e51b815260040161088f90612c3e565b670214e8348c4f000034146112735760405162461bcd60e51b815260040161088f90612d07565b61127d338261164d565b61013354611294906001600160a01b0316346118fd565b61129e600160fb55565b50565b60606066805461077190612aca565b610bd2338383611a1d565b610bd2338383611792565b6112d03383611713565b6112ec5760405162461bcd60e51b815260040161088f90612c75565b61112884848484611aeb565b606061075c82611b1e565b6000805b610132548110156113525782610132828154811061132757611327612cc2565b9060005260206000200154036113405750600192915050565b8061134a81612cee565b915050611307565b50600092915050565b6000805b610131548110156113525782610131828154811061137f5761137f612cc2565b9060005260206000200154036113985750600192915050565b806113a281612cee565b91505061135f565b6113b26115f3565b6001600160a01b0381166114175760405162461bcd60e51b815260206004820152602660248201527f4f776e61626c653a206e6577206f776e657220697320746865207a65726f206160448201526564647265737360d01b606482015260840161088f565b61129e81611852565b60006001600160e01b031982166380ac58cd60e01b148061145157506001600160e01b03198216635b5e139f60e01b145b8061075c57506301ffc9a760e01b6001600160e01b031983161461075c565b6000818152606760205260409020546001600160a01b031661129e5760405162461bcd60e51b8152602060048201526018602482015277115490cdcc8c4e881a5b9d985b1a59081d1bdad95b88125160421b604482015260640161088f565b600081815260696020526040902080546001600160a01b0319166001600160a01b038416908117909155819061150482610da2565b6001600160a01b03167f8c5be1e5ebec7d5bd14f71427d1e84f3dd0314c0f7b2291e5b200ac8c7c3b92560405160405180910390a45050565b600054610100900460ff166115645760405162461bcd60e51b815260040161088f90612d34565b610bd28282611b85565b600054610100900460ff16610f295760405162461bcd60e51b815260040161088f90612d34565b600054610100900460ff166115bc5760405162461bcd60e51b815260040161088f90612d34565b610f29611bc5565b600054610100900460ff166115eb5760405162461bcd60e51b815260040161088f90612d34565b610f29611bf5565b60c9546001600160a01b03163314610f295760405162461bcd60e51b815260206004820181905260248201527f4f776e61626c653a2063616c6c6572206973206e6f7420746865206f776e6572604482015260640161088f565b61165c61012e80546001019055565b600061166861012e5490565b90506116748382611c1c565b6116a58161168184611c36565b6040516020016116919190612d7f565b604051602081830303815290604052611cca565b61012d805460018101825560009182527f193a3ae4da5049eb74cee39e4cf5827f7ce7b1d1d1775ef1c6311eb60558e6d50183905560405182916001600160a01b038616917f4507e9be69171ee1abef2b7e97fd5360e96b2fa94c49ea029c8629da2de26ddf9190a3505050565b60008061171f83610da2565b9050806001600160a01b0316846001600160a01b0316148061176657506001600160a01b038082166000908152606a602090815260408083209388168352929052205460ff165b8061178a5750836001600160a01b031661177f846107f4565b6001600160a01b0316145b949350505050565b61179d838383611d5e565b6001600160a01b038316158015906117c75750816001600160a01b0316836001600160a01b031614155b80156117de5750610130546001600160a01b031615155b15610930576101305460405163c734f91760e01b81526001600160a01b0385811660048301526024820184905290911690819063c734f91790604401600060405180830381600087803b15801561183457600080fd5b505af1158015611848573d6000803e3d6000fd5b5050505050505050565b60c980546001600160a01b038381166001600160a01b0319831681179093556040519116919082907f8be0079c531659141344cd1fd0a4f28419497f9722a3daafe3b4186f6b6457e090600090a35050565b600260fb54036118f65760405162461bcd60e51b815260206004820152601f60248201527f5265656e7472616e637947756172643a207265656e7472616e742063616c6c00604482015260640161088f565b600260fb55565b8047101561194d5760405162461bcd60e51b815260206004820152601d60248201527f416464726573733a20696e73756666696369656e742062616c616e6365000000604482015260640161088f565b6000826001600160a01b03168260405160006040518083038185875af1925050503d806000811461199a576040519150601f19603f3d011682016040523d82523d6000602084013e61199f565b606091505b50509050806109305760405162461bcd60e51b815260206004820152603a60248201527f416464726573733a20756e61626c6520746f2073656e642076616c75652c207260448201527f6563697069656e74206d61792068617665207265766572746564000000000000606482015260840161088f565b600160fb55565b816001600160a01b0316836001600160a01b031603611a7e5760405162461bcd60e51b815260206004820152601960248201527f4552433732313a20617070726f766520746f2063616c6c657200000000000000604482015260640161088f565b6001600160a01b038381166000818152606a6020908152604080832094871680845294825291829020805460ff191686151590811790915591519182527f17307eab39ab6107e8899845ad3d59bd9653f200f220920489ca2b5937696c31910160405180910390a3505050565b611af6848484611792565b611b0284848484611ecf565b6111285760405162461bcd60e51b815260040161088f90612da8565b6060611b2982611470565b6000611b33611fd0565b90506000815111611b535760405180602001604052806000815250611b7e565b80611b5d84611fe0565b604051602001611b6e929190612dfa565b6040516020818303038152906040525b9392505050565b600054610100900460ff16611bac5760405162461bcd60e51b815260040161088f90612d34565b6065611bb88382612b52565b5060666109308282612b52565b600054610100900460ff16611bec5760405162461bcd60e51b815260040161088f90612d34565b610f2933611852565b600054610100900460ff16611a165760405162461bcd60e51b815260040161088f90612d34565b610bd2828260405180602001604052806000815250612071565b60606000611c43836120a4565b600101905060008167ffffffffffffffff811115611c6357611c6361272c565b6040519080825280601f01601f191660200182016040528015611c8d576020820181803683370190505b5090508181016020015b600019016f181899199a1a9b1b9c1cb0b131b232b360811b600a86061a8153600a8504945084611c97575b509392505050565b6000828152606760205260409020546001600160a01b0316611d455760405162461bcd60e51b815260206004820152602e60248201527f45524337323155524953746f726167653a2055524920736574206f66206e6f6e60448201526d32bc34b9ba32b73a103a37b5b2b760911b606482015260840161088f565b6000828152610134602052604090206109308282612b52565b826001600160a01b0316611d7182610da2565b6001600160a01b031614611d975760405162461bcd60e51b815260040161088f90612e29565b6001600160a01b038216611df95760405162461bcd60e51b8152602060048201526024808201527f4552433732313a207472616e7366657220746f20746865207a65726f206164646044820152637265737360e01b606482015260840161088f565b611e06838383600161217c565b826001600160a01b0316611e1982610da2565b6001600160a01b031614611e3f5760405162461bcd60e51b815260040161088f90612e29565b600081815260696020908152604080832080546001600160a01b03199081169091556001600160a01b0387811680865260688552838620805460001901905590871680865283862080546001019055868652606790945282852080549092168417909155905184937fddf252ad1be2c89b69c2b068fc378daa952ba7f163c4a11628f55a4df523b3ef91a4505050565b60006001600160a01b0384163b15611fc557604051630a85bd0160e11b81526001600160a01b0385169063150b7a0290611f13903390899088908890600401612e6e565b6020604051808303816000875af1925050508015611f4e575060408051601f3d908101601f19168201909252611f4b91810190612eab565b60015b611fab573d808015611f7c576040519150601f19603f3d011682016040523d82523d6000602084013e611f81565b606091505b508051600003611fa35760405162461bcd60e51b815260040161088f90612da8565b805181602001fd5b6001600160e01b031916630a85bd0160e11b14905061178a565b506001949350505050565b606061012f805461077190612aca565b60606000611fed836120a4565b600101905060008167ffffffffffffffff81111561200d5761200d61272c565b6040519080825280601f01601f191660200182016040528015612037576020820181803683370190505b5090508181016020015b600019016f181899199a1a9b1b9c1cb0b131b232b360811b600a86061a8153600a850494508415611cc257612041565b61207b83836122a9565b6120886000848484611ecf565b6109305760405162461bcd60e51b815260040161088f90612da8565b60008072184f03e93ff9f4daa797ed6e38ed64bf6a1f0160401b83106120e35772184f03e93ff9f4daa797ed6e38ed64bf6a1f0160401b830492506040015b6d04ee2d6d415b85acef8100000000831061210f576d04ee2d6d415b85acef8100000000830492506020015b662386f26fc10000831061212d57662386f26fc10000830492506010015b6305f5e1008310612145576305f5e100830492506008015b612710831061215957612710830492506004015b6064831061216b576064830492506002015b600a831061075c5760010192915050565b60018111156121eb5760405162461bcd60e51b815260206004820152603560248201527f455243373231456e756d657261626c653a20636f6e7365637574697665207472604482015274185b9cd9995c9cc81b9bdd081cdd5c1c1bdc9d1959605a1b606482015260840161088f565b816001600160a01b0385166122475761224281609980546000838152609a60205260408120829055600182018355919091527f72a152ddfb8e864297c917af52ea6c1c68aead0fee1a62673fcc7e0c94979d000155565b61226a565b836001600160a01b0316856001600160a01b03161461226a5761226a85826122b3565b6001600160a01b0384166122865761228181612350565b610b5e565b846001600160a01b0316846001600160a01b031614610b5e57610b5e84826123ff565b610bd28282612443565b600060016122c084610e91565b6122ca9190612ec8565b60008381526098602052604090205490915080821461231d576001600160a01b03841660009081526097602090815260408083208584528252808320548484528184208190558352609890915290208190555b5060009182526098602090815260408084208490556001600160a01b039094168352609781528383209183525290812055565b60995460009061236290600190612ec8565b6000838152609a60205260408120546099805493945090928490811061238a5761238a612cc2565b9060005260206000200154905080609983815481106123ab576123ab612cc2565b6000918252602080832090910192909255828152609a909152604080822084905585825281205560998054806123e3576123e3612edb565b6001900381819060005260206000200160009055905550505050565b600061240a83610e91565b6001600160a01b039093166000908152609760209081526040808320868452825280832085905593825260989052919091209190915550565b6001600160a01b0382166124995760405162461bcd60e51b815260206004820181905260248201527f4552433732313a206d696e7420746f20746865207a65726f2061646472657373604482015260640161088f565b6000818152606760205260409020546001600160a01b0316156124fe5760405162461bcd60e51b815260206004820152601c60248201527f4552433732313a20746f6b656e20616c7265616479206d696e74656400000000604482015260640161088f565b61250c60008383600161217c565b6000818152606760205260409020546001600160a01b0316156125715760405162461bcd60e51b815260206004820152601c60248201527f4552433732313a20746f6b656e20616c7265616479206d696e74656400000000604482015260640161088f565b6001600160a01b038216600081815260686020908152604080832080546001019055848352606790915280822080546001600160a01b0319168417905551839291907fddf252ad1be2c89b69c2b068fc378daa952ba7f163c4a11628f55a4df523b3ef908290a45050565b828054828255906000526020600020908101928215612617579160200282015b828111156126175782518255916020019190600101906125fc565b50612623929150612627565b5090565b5b808211156126235760008155600101612628565b6001600160e01b03198116811461129e57600080fd5b60006020828403121561266457600080fd5b8135611b7e8161263c565b60005b8381101561268a578181015183820152602001612672565b50506000910152565b600081518084526126ab81602086016020860161266f565b601f01601f19169290920160200192915050565b602081526000611b7e6020830184612693565b6000602082840312156126e457600080fd5b5035919050565b6001600160a01b038116811461129e57600080fd5b6000806040838503121561271357600080fd5b823561271e816126eb565b946020939093013593505050565b634e487b7160e01b600052604160045260246000fd5b604051601f8201601f1916810167ffffffffffffffff8111828210171561276b5761276b61272c565b604052919050565b600082601f83011261278457600080fd5b8135602067ffffffffffffffff8211156127a0576127a061272c565b8160051b6127af828201612742565b92835284810182019282810190878511156127c957600080fd5b83870192505b848310156127e8578235825291830191908301906127cf565b979650505050505050565b600067ffffffffffffffff83111561280d5761280d61272c565b612820601f8401601f1916602001612742565b905082815283838301111561283457600080fd5b828260208301376000602084830101529392505050565b6000806000806080858703121561286157600080fd5b843567ffffffffffffffff8082111561287957600080fd5b61288588838901612773565b9550602087013591508082111561289b57600080fd5b6128a788838901612773565b945060408701359150808211156128bd57600080fd5b508501601f810187136128cf57600080fd5b6128de878235602084016127f3565b92505060608501356128ef816126eb565b939692955090935050565b60008060006060848603121561290f57600080fd5b833561291a816126eb565b9250602084013561292a816126eb565b929592945050506040919091013590565b60006020828403121561294d57600080fd5b8135611b7e816126eb565b60008060006040848603121561296d57600080fd5b833567ffffffffffffffff8082111561298557600080fd5b818601915086601f83011261299957600080fd5b8135818111156129a857600080fd5b8760208260051b85010111156129bd57600080fd5b602092830195509350508401356129d3816126eb565b809150509250925092565b600080604083850312156129f157600080fd5b82356129fc816126eb565b915060208301358015158114612a1157600080fd5b809150509250929050565b60008060008060808587031215612a3257600080fd5b8435612a3d816126eb565b93506020850135612a4d816126eb565b925060408501359150606085013567ffffffffffffffff811115612a7057600080fd5b8501601f81018713612a8157600080fd5b612a90878235602084016127f3565b91505092959194509250565b60008060408385031215612aaf57600080fd5b8235612aba816126eb565b91506020830135612a11816126eb565b600181811c90821680612ade57607f821691505b602082108103612afe57634e487b7160e01b600052602260045260246000fd5b50919050565b601f82111561093057600081815260208120601f850160051c81016020861015612b2b5750805b601f850160051c820191505b81811015612b4a57828155600101612b37565b505050505050565b815167ffffffffffffffff811115612b6c57612b6c61272c565b612b8081612b7a8454612aca565b84612b04565b602080601f831160018114612bb55760008415612b9d5750858301515b600019600386901b1c1916600185901b178555612b4a565b600085815260208120601f198616915b82811015612be457888601518255948401946001909101908401612bc5565b5085821015612c025787850151600019600388901b60f8161c191681555b5050505050600190811b01905550565b602080825260129082015271139bdd0818481d985b1a5908139195081a5960721b604082015260600190565b60208082526019908201527f52656163686564204d6178206c696d697420616c726561647900000000000000604082015260600190565b6020808252602d908201527f4552433732313a2063616c6c6572206973206e6f7420746f6b656e206f776e6560408201526c1c881bdc88185c1c1c9bdd9959609a1b606082015260800190565b634e487b7160e01b600052603260045260246000fd5b634e487b7160e01b600052601160045260246000fd5b600060018201612d0057612d00612cd8565b5060010190565b6020808252601390820152720a0e4d2c6ca40c8d2c840dcdee840dac2e8c6d606b1b604082015260600190565b6020808252602b908201527f496e697469616c697a61626c653a20636f6e7472616374206973206e6f74206960408201526a6e697469616c697a696e6760a81b606082015260800190565b60008251612d9181846020870161266f565b64173539b7b760d91b920191825250600501919050565b60208082526032908201527f4552433732313a207472616e7366657220746f206e6f6e20455243373231526560408201527131b2b4bb32b91034b6b83632b6b2b73a32b960711b606082015260800190565b60008351612e0c81846020880161266f565b835190830190612e2081836020880161266f565b01949350505050565b60208082526025908201527f4552433732313a207472616e736665722066726f6d20696e636f72726563742060408201526437bbb732b960d91b606082015260800190565b6001600160a01b0385811682528416602082015260408101839052608060608201819052600090612ea190830184612693565b9695505050505050565b600060208284031215612ebd57600080fd5b8151611b7e8161263c565b8181038181111561075c5761075c612cd8565b634e487b7160e01b600052603160045260246000fdfea26469706673582212204b912436a2b52206739d143503978c696924515c10b3bb1a9928c9a6372c4af964736f6c63430008140033",
  "linkReferences": {},
  "deployedLinkReferences": {}
}