{
  "_format": "hh-sol-artifact-1",
  "contractName": "HamsterCharacterNFTs",
  "sourceName": "contracts/hamsterCharacterCollection.sol",
  "abi": [
    {
      "anonymous": false,
      "inputs": [
        {
          "indexed": true,
          "internalType": "address",
          "name": "owner",
          "type": "address"
        },
        {
          "indexed": true,
          "internalType": "address",
          "name": "approved",
          "type": "address"
        },
        {
          "indexed": true,
          "internalType": "uint256",
          "name": "tokenId",
          "type": "uint256"
        }
      ],
      "name": "Approval",
      "type": "event"
    },
    {
      "anonymous": false,
      "inputs": [
        {
          "indexed": true,
          "internalType": "address",
          "name": "owner",
          "type": "address"
        },
        {
          "indexed": true,
          "internalType": "address",
          "name": "operator",
          "type": "address"
        },
        {
          "indexed": false,
          "internalType": "bool",
          "name": "approved",
          "type": "bool"
        }
      ],
      "name": "ApprovalForAll",
      "type": "event"
    },
    {
      "anonymous": false,
      "inputs": [
        {
          "indexed": false,
          "internalType": "uint8",
          "name": "version",
          "type": "uint8"
        }
      ],
      "name": "Initialized",
      "type": "event"
    },
    {
      "anonymous": false,
      "inputs": [
        {
          "indexed": true,
          "internalType": "address",
          "name": "_to",
          "type": "address"
        },
        {
          "indexed": true,
          "internalType": "uint256",
          "name": "_tokenID",
          "type": "uint256"
        }
      ],
      "name": "MintNFTEvent",
      "type": "event"
    },
    {
      "anonymous": false,
      "inputs": [
        {
          "indexed": true,
          "internalType": "address",
          "name": "previousOwner",
          "type": "address"
        },
        {
          "indexed": true,
          "internalType": "address",
          "name": "newOwner",
          "type": "address"
        }
      ],
      "name": "OwnershipTransferred",
      "type": "event"
    },
    {
      "anonymous": false,
      "inputs": [
        {
          "indexed": true,
          "internalType": "address",
          "name": "from",
          "type": "address"
        },
        {
          "indexed": true,
          "internalType": "address",
          "name": "to",
          "type": "address"
        },
        {
          "indexed": true,
          "internalType": "uint256",
          "name": "tokenId",
          "type": "uint256"
        }
      ],
      "name": "Transfer",
      "type": "event"
    },
    {
      "inputs": [],
      "name": "COMMON_PRICE",
      "outputs": [
        {
          "internalType": "uint256",
          "name": "",
          "type": "uint256"
        }
      ],
      "stateMutability": "view",
      "type": "function"
    },
    {
      "inputs": [
        {
          "internalType": "uint256",
          "name": "id",
          "type": "uint256"
        }
      ],
      "name": "IsRare",
      "outputs": [
        {
          "internalType": "bool",
          "name": "",
          "type": "bool"
        }
      ],
      "stateMutability": "view",
      "type": "function"
    },
    {
      "inputs": [
        {
          "internalType": "uint256",
          "name": "id",
          "type": "uint256"
        }
      ],
      "name": "IsUltraRare",
      "outputs": [
        {
          "internalType": "bool",
          "name": "",
          "type": "bool"
        }
      ],
      "stateMutability": "view",
      "type": "function"
    },
    {
      "inputs": [
        {
          "internalType": "uint256",
          "name": "id",
          "type": "uint256"
        }
      ],
      "name": "IsValid",
      "outputs": [
        {
          "internalType": "bool",
          "name": "",
          "type": "bool"
        }
      ],
      "stateMutability": "pure",
      "type": "function"
    },
    {
      "inputs": [],
      "name": "MAX_COMMON_SUPPLY",
      "outputs": [
        {
          "internalType": "uint256",
          "name": "",
          "type": "uint256"
        }
      ],
      "stateMutability": "view",
      "type": "function"
    },
    {
      "inputs": [],
      "name": "MAX_RARE_SUPPLY",
      "outputs": [
        {
          "internalType": "uint256",
          "name": "",
          "type": "uint256"
        }
      ],
      "stateMutability": "view",
      "type": "function"
    },
    {
      "inputs": [],
      "name": "MAX_ULTRARARE_SUPPLY",
      "outputs": [
        {
          "internalType": "uint256",
          "name": "",
          "type": "uint256"
        }
      ],
      "stateMutability": "view",
      "type": "function"
    },
    {
      "inputs": [],
      "name": "RARE_PRICE",
      "outputs": [
        {
          "internalType": "uint256",
          "name": "",
          "type": "uint256"
        }
      ],
      "stateMutability": "view",
      "type": "function"
    },
    {
      "inputs": [
        {
          "internalType": "uint256",
          "name": "",
          "type": "uint256"
        }
      ],
      "name": "Rare",
      "outputs": [
        {
          "internalType": "uint256",
          "name": "",
          "type": "uint256"
        }
      ],
      "stateMutability": "view",
      "type": "function"
    },
    {
      "inputs": [
        {
          "internalType": "uint256",
          "name": "id",
          "type": "uint256"
        }
      ],
      "name": "TotalMinted",
      "outputs": [
        {
          "internalType": "uint256",
          "name": "",
          "type": "uint256"
        }
      ],
      "stateMutability": "view",
      "type": "function"
    },
    {
      "inputs": [],
      "name": "ULTRA_RARE_PRICE",
      "outputs": [
        {
          "internalType": "uint256",
          "name": "",
          "type": "uint256"
        }
      ],
      "stateMutability": "view",
      "type": "function"
    },
    {
      "inputs": [
        {
          "internalType": "uint256",
          "name": "",
          "type": "uint256"
        }
      ],
      "name": "UltraRare",
      "outputs": [
        {
          "internalType": "uint256",
          "name": "",
          "type": "uint256"
        }
      ],
      "stateMutability": "view",
      "type": "function"
    },
    {
      "inputs": [],
      "name": "_tokenIdCounter",
      "outputs": [
        {
          "internalType": "uint256",
          "name": "_value",
          "type": "uint256"
        }
      ],
      "stateMutability": "view",
      "type": "function"
    },
    {
      "inputs": [
        {
          "internalType": "address",
          "name": "to",
          "type": "address"
        },
        {
          "internalType": "uint256",
          "name": "tokenId",
          "type": "uint256"
        }
      ],
      "name": "approve",
      "outputs": [],
      "stateMutability": "nonpayable",
      "type": "function"
    },
    {
      "inputs": [
        {
          "internalType": "address",
          "name": "owner",
          "type": "address"
        }
      ],
      "name": "balanceOf",
      "outputs": [
        {
          "internalType": "uint256",
          "name": "",
          "type": "uint256"
        }
      ],
      "stateMutability": "view",
      "type": "function"
    },
    {
      "inputs": [],
      "name": "baseURI",
      "outputs": [
        {
          "internalType": "string",
          "name": "",
          "type": "string"
        }
      ],
      "stateMutability": "view",
      "type": "function"
    },
    {
      "inputs": [
        {
          "internalType": "uint256",
          "name": "tokenId",
          "type": "uint256"
        }
      ],
      "name": "getApproved",
      "outputs": [
        {
          "internalType": "address",
          "name": "",
          "type": "address"
        }
      ],
      "stateMutability": "view",
      "type": "function"
    },
    {
      "inputs": [
        {
          "internalType": "uint256[]",
          "name": "rareList",
          "type": "uint256[]"
        },
        {
          "internalType": "uint256[]",
          "name": "ultraRareList",
          "type": "uint256[]"
        },
        {
          "internalType": "string",
          "name": "BaseURI",
          "type": "string"
        },
        {
          "internalType": "address payable",
          "name": "payableAddress",
          "type": "address"
        }
      ],
      "name": "initialize",
      "outputs": [],
      "stateMutability": "nonpayable",
      "type": "function"
    },
    {
      "inputs": [
        {
          "internalType": "address",
          "name": "owner",
          "type": "address"
        },
        {
          "internalType": "address",
          "name": "operator",
          "type": "address"
        }
      ],
      "name": "isApprovedForAll",
      "outputs": [
        {
          "internalType": "bool",
          "name": "",
          "type": "bool"
        }
      ],
      "stateMutability": "view",
      "type": "function"
    },
    {
      "inputs": [],
      "name": "marketplaceAddress",
      "outputs": [
        {
          "internalType": "address",
          "name": "",
          "type": "address"
        }
      ],
      "stateMutability": "view",
      "type": "function"
    },
    {
      "inputs": [
        {
          "internalType": "uint256[]",
          "name": "ids",
          "type": "uint256[]"
        },
        {
          "internalType": "address",
          "name": "to",
          "type": "address"
        }
      ],
      "name": "mintBatchToAddress",
      "outputs": [],
      "stateMutability": "nonpayable",
      "type": "function"
    },
    {
      "inputs": [
        {
          "internalType": "uint256",
          "name": "id",
          "type": "uint256"
        }
      ],
      "name": "mintNFT",
      "outputs": [],
      "stateMutability": "payable",
      "type": "function"
    },
    {
      "inputs": [
        {
          "internalType": "address",
          "name": "to",
          "type": "address"
        },
        {
          "internalType": "uint256",
          "name": "id",
          "type": "uint256"
        }
      ],
      "name": "mintToAddress",
      "outputs": [],
      "stateMutability": "nonpayable",
      "type": "function"
    },
    {
      "inputs": [],
      "name": "name",
      "outputs": [
        {
          "internalType": "string",
          "name": "",
          "type": "string"
        }
      ],
      "stateMutability": "view",
      "type": "function"
    },
    {
      "inputs": [],
      "name": "owner",
      "outputs": [
        {
          "internalType": "address",
          "name": "",
          "type": "address"
        }
      ],
      "stateMutability": "view",
      "type": "function"
    },
    {
      "inputs": [
        {
          "internalType": "uint256",
          "name": "tokenId",
          "type": "uint256"
        }
      ],
      "name": "ownerOf",
      "outputs": [
        {
          "internalType": "address",
          "name": "",
          "type": "address"
        }
      ],
      "stateMutability": "view",
      "type": "function"
    },
    {
      "inputs": [],
      "name": "payable_address",
      "outputs": [
        {
          "internalType": "address payable",
          "name": "",
          "type": "address"
        }
      ],
      "stateMutability": "view",
      "type": "function"
    },
    {
      "inputs": [],
      "name": "renounceOwnership",
      "outputs": [],
      "stateMutability": "nonpayable",
      "type": "function"
    },
    {
      "inputs": [
        {
          "internalType": "address",
          "name": "from",
          "type": "address"
        },
        {
          "internalType": "address",
          "name": "to",
          "type": "address"
        },
        {
          "internalType": "uint256",
          "name": "tokenId",
          "type": "uint256"
        }
      ],
      "name": "safeTransferFrom",
      "outputs": [],
      "stateMutability": "nonpayable",
      "type": "function"
    },
    {
      "inputs": [
        {
          "internalType": "address",
          "name": "from",
          "type": "address"
        },
        {
          "internalType": "address",
          "name": "to",
          "type": "address"
        },
        {
          "internalType": "uint256",
          "name": "tokenId",
          "type": "uint256"
        },
        {
          "internalType": "bytes",
          "name": "data",
          "type": "bytes"
        }
      ],
      "name": "safeTransferFrom",
      "outputs": [],
      "stateMutability": "nonpayable",
      "type": "function"
    },
    {
      "inputs": [
        {
          "internalType": "address",
          "name": "operator",
          "type": "address"
        },
        {
          "internalType": "bool",
          "name": "approved",
          "type": "bool"
        }
      ],
      "name": "setApprovalForAll",
      "outputs": [],
      "stateMutability": "nonpayable",
      "type": "function"
    },
    {
      "inputs": [
        {
          "internalType": "address",
          "name": "_marketplaceAddress",
          "type": "address"
        }
      ],
      "name": "setMarketplace",
      "outputs": [],
      "stateMutability": "nonpayable",
      "type": "function"
    },
    {
      "inputs": [
        {
          "internalType": "bytes4",
          "name": "interfaceId",
          "type": "bytes4"
        }
      ],
      "name": "supportsInterface",
      "outputs": [
        {
          "internalType": "bool",
          "name": "",
          "type": "bool"
        }
      ],
      "stateMutability": "view",
      "type": "function"
    },
    {
      "inputs": [],
      "name": "symbol",
      "outputs": [
        {
          "internalType": "string",
          "name": "",
          "type": "string"
        }
      ],
      "stateMutability": "view",
      "type": "function"
    },
    {
      "inputs": [
        {
          "internalType": "uint256",
          "name": "index",
          "type": "uint256"
        }
      ],
      "name": "tokenByIndex",
      "outputs": [
        {
          "internalType": "uint256",
          "name": "",
          "type": "uint256"
        }
      ],
      "stateMutability": "view",
      "type": "function"
    },
    {
      "inputs": [
        {
          "internalType": "address",
          "name": "owner",
          "type": "address"
        },
        {
          "internalType": "uint256",
          "name": "index",
          "type": "uint256"
        }
      ],
      "name": "tokenOfOwnerByIndex",
      "outputs": [
        {
          "internalType": "uint256",
          "name": "",
          "type": "uint256"
        }
      ],
      "stateMutability": "view",
      "type": "function"
    },
    {
      "inputs": [
        {
          "internalType": "uint256",
          "name": "tokenId",
          "type": "uint256"
        }
      ],
      "name": "tokenURI",
      "outputs": [
        {
          "internalType": "string",
          "name": "",
          "type": "string"
        }
      ],
      "stateMutability": "view",
      "type": "function"
    },
    {
      "inputs": [],
      "name": "totalSupply",
      "outputs": [
        {
          "internalType": "uint256",
          "name": "",
          "type": "uint256"
        }
      ],
      "stateMutability": "view",
      "type": "function"
    },
    {
      "inputs": [
        {
          "internalType": "address",
          "name": "to",
          "type": "address"
        },
        {
          "internalType": "uint256",
          "name": "tokenId",
          "type": "uint256"
        }
      ],
      "name": "transfer",
      "outputs": [],
      "stateMutability": "nonpayable",
      "type": "function"
    },
    {
      "inputs": [
        {
          "internalType": "address",
          "name": "from",
          "type": "address"
        },
        {
          "internalType": "address",
          "name": "to",
          "type": "address"
        },
        {
          "internalType": "uint256",
          "name": "tokenId",
          "type": "uint256"
        }
      ],
      "name": "transferFrom",
      "outputs": [],
      "stateMutability": "nonpayable",
      "type": "function"
    },
    {
      "inputs": [
        {
          "internalType": "address",
          "name": "newOwner",
          "type": "address"
        }
      ],
      "name": "transferOwnership",
      "outputs": [],
      "stateMutability": "nonpayable",
      "type": "function"
    }
  ],
  "bytecode": "0x608060405234801561001057600080fd5b50612f6b806100206000396000f3fe6080604052600436106102465760003560e01c806373ad6c2d11610139578063a78f06b5116100b6578063c9c0efa01161007a578063c9c0efa014610651578063d4266d0e14610671578063d519989914610691578063daa17f49146106ad578063e985e9c5146106ce578063f2fde38b1461071757600080fd5b8063a78f06b5146104fd578063a9059cbb146105d0578063b88d4fde146105f0578063c62f210314610610578063c87b56dd1461063157600080fd5b806389a746eb116100fd57806389a746eb1461054a5780638da5cb5b1461056a578063926427441461058857806395d89b411461059b578063a22cb465146105b057600080fd5b806373ad6c2d146104dd578063765a636b146104fd57806377b64d3f146104fd5780637aaf99211461051257806384c4bd4b1461053257600080fd5b80632e119c79116101c75780636352211e1161018b5780636352211e146104575780636613bcb0146104775780636c0360eb1461049357806370a08231146104a8578063715018a6146104c857600080fd5b80632e119c79146103bb5780632f745c59146103d75780633b056531146103f757806342842e0e146104175780634f6ccce71461043757600080fd5b8063158e6dad1161020e578063158e6dad1461031c57806318160ddd1461033c57806321ca42361461035b57806323b872dd1461037b57806328da959f1461039b57600080fd5b806301ffc9a71461024b57806306fdde0314610280578063081812fc146102a2578063095ea7b3146102da57806311281416146102fc575b600080fd5b34801561025757600080fd5b5061026b610266366004612795565b610737565b60405190151581526020015b60405180910390f35b34801561028c57600080fd5b50610295610762565b604051610277919061280a565b3480156102ae57600080fd5b506102c26102bd36600461281d565b6107f4565b6040516001600160a01b039091168152602001610277565b3480156102e657600080fd5b506102fa6102f536600461284b565b61081b565b005b34801561030857600080fd5b5061026b61031736600461281d565b610936565b34801561032857600080fd5b506102fa610337366004612996565b61094b565b34801561034857600080fd5b506099545b604051908152602001610277565b34801561036757600080fd5b506102fa61037636600461284b565b610b6d565b34801561038757600080fd5b506102fa610396366004612a45565b610c02565b3480156103a757600080fd5b5061034d6103b636600461281d565b610c33565b3480156103c757600080fd5b5061034d671158e460913d000081565b3480156103e357600080fd5b5061034d6103f236600461284b565b610c55565b34801561040357600080fd5b5061034d61041236600461281d565b610ceb565b34801561042357600080fd5b506102fa610432366004612a45565b610cfc565b34801561044357600080fd5b5061034d61045236600461281d565b610d17565b34801561046357600080fd5b506102c261047236600461281d565b610daa565b34801561048357600080fd5b5061034d6722b1c8c1227a000081565b34801561049f57600080fd5b50610295610e0a565b3480156104b457600080fd5b5061034d6104c3366004612a86565b610e99565b3480156104d457600080fd5b506102fa610f1f565b3480156104e957600080fd5b506102fa6104f8366004612a86565b610f33565b34801561050957600080fd5b5061034d600181565b34801561051e57600080fd5b5061034d61052d36600461281d565b610f5e565b34801561053e57600080fd5b5061012e5461034d9081565b34801561055657600080fd5b506102fa610565366004612aa3565b610fbb565b34801561057657600080fd5b5060c9546001600160a01b03166102c2565b6102fa61059636600461281d565b611137565b3480156105a757600080fd5b506102956112aa565b3480156105bc57600080fd5b506102fa6105cb366004612b29565b6112b9565b3480156105dc57600080fd5b506102fa6105eb36600461284b565b6112c4565b3480156105fc57600080fd5b506102fa61060b366004612b67565b6112cf565b34801561061c57600080fd5b50610133546102c2906001600160a01b031681565b34801561063d57600080fd5b5061029561064c36600461281d565b611301565b34801561065d57600080fd5b5061026b61066c36600461281d565b61130c565b34801561067d57600080fd5b5061026b61068c36600461281d565b611365565b34801561069d57600080fd5b5061034d670214e8348c4f000081565b3480156106b957600080fd5b50610130546102c2906001600160a01b031681565b3480156106da57600080fd5b5061026b6106e9366004612be7565b6001600160a01b039182166000908152606a6020908152604080832093909416825291909152205460ff1690565b34801561072357600080fd5b506102fa610732366004612a86565b6113b5565b60006001600160e01b0319821663780e9d6360e01b148061075c575061075c8261142b565b92915050565b60606065805461077190612c15565b80601f016020809104026020016040519081016040528092919081815260200182805461079d90612c15565b80156107ea5780601f106107bf576101008083540402835291602001916107ea565b820191906000526020600020905b8154815290600101906020018083116107cd57829003601f168201915b5050505050905090565b60006107ff8261147b565b506000908152606960205260409020546001600160a01b031690565b600061082682610daa565b9050806001600160a01b0316836001600160a01b031614156108995760405162461bcd60e51b815260206004820152602160248201527f4552433732313a20617070726f76616c20746f2063757272656e74206f776e656044820152603960f91b60648201526084015b60405180910390fd5b336001600160a01b03821614806108b557506108b581336106e9565b6109275760405162461bcd60e51b815260206004820152603d60248201527f4552433732313a20617070726f76652063616c6c6572206973206e6f7420746f60448201527f6b656e206f776e6572206f7220617070726f76656420666f7220616c6c0000006064820152608401610890565b61093183836114da565b505050565b6000808211801561075c575050611388101590565b600054610100900460ff161580801561096b5750600054600160ff909116105b806109855750303b158015610985575060005460ff166001145b6109e85760405162461bcd60e51b815260206004820152602e60248201527f496e697469616c697a61626c653a20636f6e747261637420697320616c72656160448201526d191e481a5b9a5d1a585b1a5e995960921b6064820152608401610890565b6000805460ff191660011790558015610a0b576000805461ff0019166101001790555b610a656040518060400160405280601a81526020017f48616d737465722047656e6573697320436861726163746572730000000000008152506040518060400160405280600381526020016248474360e81b815250611548565b610a6d611579565b610a756115a0565b610a7d6115cf565b6001600160a01b038216610ac55760405162461bcd60e51b815260206004820152600f60248201526e496e76616c6964206164647265737360881b6044820152606401610890565b8451610ad9906101329060208801906126ac565b508351610aee906101319060208701906126ac565b508251610b039061012f9060208601906126f7565b5061013380546001600160a01b0319166001600160a01b0384161790558015610b66576000805461ff0019169055604051600181527f7f26b83ff96e1f2b6a682f133852f6798a09c465da95921460cefb38474024989060200160405180910390a15b5050505050565b610b756115fe565b610b7e81610936565b610b9a5760405162461bcd60e51b815260040161089090612c50565b610ba38161130c565b15610bde576001610bb382610f5e565b10610bd05760405162461bcd60e51b815260040161089090612c7c565b610bda8282611658565b5050565b610be781611365565b15610bf7576001610bb382610f5e565b6001610bb382610f5e565b610c0c338261171e565b610c285760405162461bcd60e51b815260040161089090612cb3565b61093183838361179d565b6101318181548110610c4457600080fd5b600091825260209091200154905081565b6000610c6083610e99565b8210610cc25760405162461bcd60e51b815260206004820152602b60248201527f455243373231456e756d657261626c653a206f776e657220696e646578206f7560448201526a74206f6620626f756e647360a81b6064820152608401610890565b506001600160a01b03919091166000908152609760209081526040808320938352929052205490565b6101328181548110610c4457600080fd5b610931838383604051806020016040528060008152506112cf565b6000610d2260995490565b8210610d855760405162461bcd60e51b815260206004820152602c60248201527f455243373231456e756d657261626c653a20676c6f62616c20696e646578206f60448201526b7574206f6620626f756e647360a01b6064820152608401610890565b60998281548110610d9857610d98612d00565b90600052602060002001549050919050565b6000818152606760205260408120546001600160a01b03168061075c5760405162461bcd60e51b8152602060048201526018602482015277115490cdcc8c4e881a5b9d985b1a59081d1bdad95b88125160421b6044820152606401610890565b61012f8054610e1890612c15565b80601f0160208091040260200160405190810160405280929190818152602001828054610e4490612c15565b8015610e915780601f10610e6657610100808354040283529160200191610e91565b820191906000526020600020905b815481529060010190602001808311610e7457829003601f168201915b505050505081565b60006001600160a01b038216610f035760405162461bcd60e51b815260206004820152602960248201527f4552433732313a2061646472657373207a65726f206973206e6f7420612076616044820152683634b21037bbb732b960b91b6064820152608401610890565b506001600160a01b031660009081526068602052604090205490565b610f276115fe565b610f31600061185d565b565b610f3b6115fe565b61013080546001600160a01b0319166001600160a01b0392909216919091179055565b600080805b61012d54811015610fb4578361012d8281548110610f8357610f83612d00565b90600052602060002001541415610fa25781610f9e81612d2c565b9250505b80610fac81612d2c565b915050610f63565b5092915050565b610fc36115fe565b60005b8281101561113157610fef848483818110610fe357610fe3612d00565b90506020020135610936565b61100b5760405162461bcd60e51b815260040161089090612c50565b61102c84848381811061102057611020612d00565b9050602002013561130c565b1561109857600161105485858481811061104857611048612d00565b90506020020135610f5e565b106110715760405162461bcd60e51b815260040161089090612c7c565b6110938285858481811061108757611087612d00565b90506020020135611658565b61111f565b6110b98484838181106110ad576110ad612d00565b90506020020135611365565b156110d557600161105485858481811061104857611048612d00565b60016110ec85858481811061104857611048612d00565b106111095760405162461bcd60e51b815260040161089090612c7c565b61111f8285858481811061108757611087612d00565b8061112981612d2c565b915050610fc6565b50505050565b61113f6118af565b61114881610936565b6111645760405162461bcd60e51b815260040161089090612c50565b61116d8161130c565b156111d057600161117d82610f5e565b1061119a5760405162461bcd60e51b815260040161089090612c7c565b671158e460913d000034146111c15760405162461bcd60e51b815260040161089090612d47565b6111cb3382611658565b611286565b6111d981611365565b1561122d5760016111e982610f5e565b106112065760405162461bcd60e51b815260040161089090612c7c565b6722b1c8c1227a000034146111c15760405162461bcd60e51b815260040161089090612d47565b600161123882610f5e565b106112555760405162461bcd60e51b815260040161089090612c7c565b670214e8348c4f0000341461127c5760405162461bcd60e51b815260040161089090612d47565b6112863382611658565b6101335461129d906001600160a01b031634611909565b6112a7600160fb55565b50565b60606066805461077190612c15565b610bda338383611a29565b610bda33838361179d565b6112d9338361171e565b6112f55760405162461bcd60e51b815260040161089090612cb3565b61113184848484611af8565b606061075c82611b2b565b6000805b6101325481101561135c5782610132828154811061133057611330612d00565b9060005260206000200154141561134a5750600192915050565b8061135481612d2c565b915050611310565b50600092915050565b6000805b6101315481101561135c5782610131828154811061138957611389612d00565b906000526020600020015414156113a35750600192915050565b806113ad81612d2c565b915050611369565b6113bd6115fe565b6001600160a01b0381166114225760405162461bcd60e51b815260206004820152602660248201527f4f776e61626c653a206e6577206f776e657220697320746865207a65726f206160448201526564647265737360d01b6064820152608401610890565b6112a78161185d565b60006001600160e01b031982166380ac58cd60e01b148061145c57506001600160e01b03198216635b5e139f60e01b145b8061075c57506301ffc9a760e01b6001600160e01b031983161461075c565b6000818152606760205260409020546001600160a01b03166112a75760405162461bcd60e51b8152602060048201526018602482015277115490cdcc8c4e881a5b9d985b1a59081d1bdad95b88125160421b6044820152606401610890565b600081815260696020526040902080546001600160a01b0319166001600160a01b038416908117909155819061150f82610daa565b6001600160a01b03167f8c5be1e5ebec7d5bd14f71427d1e84f3dd0314c0f7b2291e5b200ac8c7c3b92560405160405180910390a45050565b600054610100900460ff1661156f5760405162461bcd60e51b815260040161089090612d74565b610bda8282611b92565b600054610100900460ff16610f315760405162461bcd60e51b815260040161089090612d74565b600054610100900460ff166115c75760405162461bcd60e51b815260040161089090612d74565b610f31611be0565b600054610100900460ff166115f65760405162461bcd60e51b815260040161089090612d74565b610f31611c10565b60c9546001600160a01b03163314610f315760405162461bcd60e51b815260206004820181905260248201527f4f776e61626c653a2063616c6c6572206973206e6f7420746865206f776e65726044820152606401610890565b61166761012e80546001019055565b600061167361012e5490565b905061167f8382611c37565b6116b08161168c84611c51565b60405160200161169c9190612dbf565b604051602081830303815290604052611cee565b61012d805460018101825560009182527f193a3ae4da5049eb74cee39e4cf5827f7ce7b1d1d1775ef1c6311eb60558e6d50183905560405182916001600160a01b038616917f4507e9be69171ee1abef2b7e97fd5360e96b2fa94c49ea029c8629da2de26ddf9190a3505050565b60008061172a83610daa565b9050806001600160a01b0316846001600160a01b0316148061177157506001600160a01b038082166000908152606a602090815260408083209388168352929052205460ff165b806117955750836001600160a01b031661178a846107f4565b6001600160a01b0316145b949350505050565b6117a8838383611d89565b6001600160a01b038316158015906117d25750816001600160a01b0316836001600160a01b031614155b80156117e95750610130546001600160a01b031615155b15610931576101305460405163c734f91760e01b81526001600160a01b0385811660048301526024820184905290911690819063c734f91790604401600060405180830381600087803b15801561183f57600080fd5b505af1158015611853573d6000803e3d6000fd5b5050505050505050565b60c980546001600160a01b038381166001600160a01b0319831681179093556040519116919082907f8be0079c531659141344cd1fd0a4f28419497f9722a3daafe3b4186f6b6457e090600090a35050565b600260fb5414156119025760405162461bcd60e51b815260206004820152601f60248201527f5265656e7472616e637947756172643a207265656e7472616e742063616c6c006044820152606401610890565b600260fb55565b804710156119595760405162461bcd60e51b815260206004820152601d60248201527f416464726573733a20696e73756666696369656e742062616c616e63650000006044820152606401610890565b6000826001600160a01b03168260405160006040518083038185875af1925050503d80600081146119a6576040519150601f19603f3d011682016040523d82523d6000602084013e6119ab565b606091505b50509050806109315760405162461bcd60e51b815260206004820152603a60248201527f416464726573733a20756e61626c6520746f2073656e642076616c75652c207260448201527f6563697069656e74206d617920686176652072657665727465640000000000006064820152608401610890565b600160fb55565b816001600160a01b0316836001600160a01b03161415611a8b5760405162461bcd60e51b815260206004820152601960248201527f4552433732313a20617070726f766520746f2063616c6c6572000000000000006044820152606401610890565b6001600160a01b038381166000818152606a6020908152604080832094871680845294825291829020805460ff191686151590811790915591519182527f17307eab39ab6107e8899845ad3d59bd9653f200f220920489ca2b5937696c31910160405180910390a3505050565b611b0384848461179d565b611b0f84848484611efa565b6111315760405162461bcd60e51b815260040161089090612de8565b6060611b368261147b565b6000611b40612007565b90506000815111611b605760405180602001604052806000815250611b8b565b80611b6a84612017565b604051602001611b7b929190612e3a565b6040516020818303038152906040525b9392505050565b600054610100900460ff16611bb95760405162461bcd60e51b815260040161089090612d74565b8151611bcc9060659060208501906126f7565b5080516109319060669060208401906126f7565b600054610100900460ff16611c075760405162461bcd60e51b815260040161089090612d74565b610f313361185d565b600054610100900460ff16611a225760405162461bcd60e51b815260040161089090612d74565b610bda8282604051806020016040528060008152506120ac565b60606000611c5e836120df565b600101905060008167ffffffffffffffff811115611c7e57611c7e612877565b6040519080825280601f01601f191660200182016040528015611ca8576020820181803683370190505b5090508181016020015b600019016f181899199a1a9b1b9c1cb0b131b232b360811b600a86061a8153600a8504945084611ce157611ce6565b611cb2565b509392505050565b6000828152606760205260409020546001600160a01b0316611d695760405162461bcd60e51b815260206004820152602e60248201527f45524337323155524953746f726167653a2055524920736574206f66206e6f6e60448201526d32bc34b9ba32b73a103a37b5b2b760911b6064820152608401610890565b6000828152610134602090815260409091208251610931928401906126f7565b826001600160a01b0316611d9c82610daa565b6001600160a01b031614611dc25760405162461bcd60e51b815260040161089090612e69565b6001600160a01b038216611e245760405162461bcd60e51b8152602060048201526024808201527f4552433732313a207472616e7366657220746f20746865207a65726f206164646044820152637265737360e01b6064820152608401610890565b611e3183838360016121b7565b826001600160a01b0316611e4482610daa565b6001600160a01b031614611e6a5760405162461bcd60e51b815260040161089090612e69565b600081815260696020908152604080832080546001600160a01b03199081169091556001600160a01b0387811680865260688552838620805460001901905590871680865283862080546001019055868652606790945282852080549092168417909155905184937fddf252ad1be2c89b69c2b068fc378daa952ba7f163c4a11628f55a4df523b3ef91a4505050565b60006001600160a01b0384163b15611ffc57604051630a85bd0160e11b81526001600160a01b0385169063150b7a0290611f3e903390899088908890600401612eae565b602060405180830381600087803b158015611f5857600080fd5b505af1925050508015611f88575060408051601f3d908101601f19168201909252611f8591810190612eeb565b60015b611fe2573d808015611fb6576040519150601f19603f3d011682016040523d82523d6000602084013e611fbb565b606091505b508051611fda5760405162461bcd60e51b815260040161089090612de8565b805181602001fd5b6001600160e01b031916630a85bd0160e11b149050611795565b506001949350505050565b606061012f805461077190612c15565b60606000612024836120df565b600101905060008167ffffffffffffffff81111561204457612044612877565b6040519080825280601f01601f19166020018201604052801561206e576020820181803683370190505b5090508181016020015b600019016f181899199a1a9b1b9c1cb0b131b232b360811b600a86061a8153600a85049450846120a757611ce6565b612078565b6120b683836122e4565b6120c36000848484611efa565b6109315760405162461bcd60e51b815260040161089090612de8565b60008072184f03e93ff9f4daa797ed6e38ed64bf6a1f0160401b831061211e5772184f03e93ff9f4daa797ed6e38ed64bf6a1f0160401b830492506040015b6d04ee2d6d415b85acef8100000000831061214a576d04ee2d6d415b85acef8100000000830492506020015b662386f26fc10000831061216857662386f26fc10000830492506010015b6305f5e1008310612180576305f5e100830492506008015b612710831061219457612710830492506004015b606483106121a6576064830492506002015b600a831061075c5760010192915050565b60018111156122265760405162461bcd60e51b815260206004820152603560248201527f455243373231456e756d657261626c653a20636f6e7365637574697665207472604482015274185b9cd9995c9cc81b9bdd081cdd5c1c1bdc9d1959605a1b6064820152608401610890565b816001600160a01b0385166122825761227d81609980546000838152609a60205260408120829055600182018355919091527f72a152ddfb8e864297c917af52ea6c1c68aead0fee1a62673fcc7e0c94979d000155565b6122a5565b836001600160a01b0316856001600160a01b0316146122a5576122a58582612383565b6001600160a01b0384166122c1576122bc81612420565b610b66565b846001600160a01b0316846001600160a01b031614610b6657610b6684826124cf565b6122ee8282612513565b6001600160a01b038216158015906123115750610130546001600160a01b031615155b15610bda576101305460405163c734f91760e01b815260006004820152602481018390526001600160a01b0390911690819063c734f91790604401600060405180830381600087803b15801561236657600080fd5b505af115801561237a573d6000803e3d6000fd5b50505050505050565b6000600161239084610e99565b61239a9190612f08565b6000838152609860205260409020549091508082146123ed576001600160a01b03841660009081526097602090815260408083208584528252808320548484528184208190558352609890915290208190555b5060009182526098602090815260408084208490556001600160a01b039094168352609781528383209183525290812055565b60995460009061243290600190612f08565b6000838152609a60205260408120546099805493945090928490811061245a5761245a612d00565b90600052602060002001549050806099838154811061247b5761247b612d00565b6000918252602080832090910192909255828152609a909152604080822084905585825281205560998054806124b3576124b3612f1f565b6001900381819060005260206000200160009055905550505050565b60006124da83610e99565b6001600160a01b039093166000908152609760209081526040808320868452825280832085905593825260989052919091209190915550565b6001600160a01b0382166125695760405162461bcd60e51b815260206004820181905260248201527f4552433732313a206d696e7420746f20746865207a65726f20616464726573736044820152606401610890565b6000818152606760205260409020546001600160a01b0316156125ce5760405162461bcd60e51b815260206004820152601c60248201527f4552433732313a20746f6b656e20616c7265616479206d696e746564000000006044820152606401610890565b6125dc6000838360016121b7565b6000818152606760205260409020546001600160a01b0316156126415760405162461bcd60e51b815260206004820152601c60248201527f4552433732313a20746f6b656e20616c7265616479206d696e746564000000006044820152606401610890565b6001600160a01b038216600081815260686020908152604080832080546001019055848352606790915280822080546001600160a01b0319168417905551839291907fddf252ad1be2c89b69c2b068fc378daa952ba7f163c4a11628f55a4df523b3ef908290a45050565b8280548282559060005260206000209081019282156126e7579160200282015b828111156126e75782518255916020019190600101906126cc565b506126f392915061276a565b5090565b82805461270390612c15565b90600052602060002090601f01602090048101928261272557600085556126e7565b82601f1061273e57805160ff19168380011785556126e7565b828001600101855582156126e757918201828111156126e75782518255916020019190600101906126cc565b5b808211156126f3576000815560010161276b565b6001600160e01b0319811681146112a757600080fd5b6000602082840312156127a757600080fd5b8135611b8b8161277f565b60005b838110156127cd5781810151838201526020016127b5565b838111156111315750506000910152565b600081518084526127f68160208601602086016127b2565b601f01601f19169290920160200192915050565b602081526000611b8b60208301846127de565b60006020828403121561282f57600080fd5b5035919050565b6001600160a01b03811681146112a757600080fd5b6000806040838503121561285e57600080fd5b823561286981612836565b946020939093013593505050565b634e487b7160e01b600052604160045260246000fd5b604051601f8201601f1916810167ffffffffffffffff811182821017156128b6576128b6612877565b604052919050565b600082601f8301126128cf57600080fd5b8135602067ffffffffffffffff8211156128eb576128eb612877565b8160051b6128fa82820161288d565b928352848101820192828101908785111561291457600080fd5b83870192505b848310156129335782358252918301919083019061291a565b979650505050505050565b600067ffffffffffffffff83111561295857612958612877565b61296b601f8401601f191660200161288d565b905082815283838301111561297f57600080fd5b828260208301376000602084830101529392505050565b600080600080608085870312156129ac57600080fd5b843567ffffffffffffffff808211156129c457600080fd5b6129d0888389016128be565b955060208701359150808211156129e657600080fd5b6129f2888389016128be565b94506040870135915080821115612a0857600080fd5b508501601f81018713612a1a57600080fd5b612a298782356020840161293e565b9250506060850135612a3a81612836565b939692955090935050565b600080600060608486031215612a5a57600080fd5b8335612a6581612836565b92506020840135612a7581612836565b929592945050506040919091013590565b600060208284031215612a9857600080fd5b8135611b8b81612836565b600080600060408486031215612ab857600080fd5b833567ffffffffffffffff80821115612ad057600080fd5b818601915086601f830112612ae457600080fd5b813581811115612af357600080fd5b8760208260051b8501011115612b0857600080fd5b60209283019550935050840135612b1e81612836565b809150509250925092565b60008060408385031215612b3c57600080fd5b8235612b4781612836565b915060208301358015158114612b5c57600080fd5b809150509250929050565b60008060008060808587031215612b7d57600080fd5b8435612b8881612836565b93506020850135612b9881612836565b925060408501359150606085013567ffffffffffffffff811115612bbb57600080fd5b8501601f81018713612bcc57600080fd5b612bdb8782356020840161293e565b91505092959194509250565b60008060408385031215612bfa57600080fd5b8235612c0581612836565b91506020830135612b5c81612836565b600181811c90821680612c2957607f821691505b60208210811415612c4a57634e487b7160e01b600052602260045260246000fd5b50919050565b602080825260129082015271139bdd0818481d985b1a5908139195081a5960721b604082015260600190565b60208082526019908201527f52656163686564204d6178206c696d697420616c726561647900000000000000604082015260600190565b6020808252602d908201527f4552433732313a2063616c6c6572206973206e6f7420746f6b656e206f776e6560408201526c1c881bdc88185c1c1c9bdd9959609a1b606082015260800190565b634e487b7160e01b600052603260045260246000fd5b634e487b7160e01b600052601160045260246000fd5b6000600019821415612d4057612d40612d16565b5060010190565b6020808252601390820152720a0e4d2c6ca40c8d2c840dcdee840dac2e8c6d606b1b604082015260600190565b6020808252602b908201527f496e697469616c697a61626c653a20636f6e7472616374206973206e6f74206960408201526a6e697469616c697a696e6760a81b606082015260800190565b60008251612dd18184602087016127b2565b64173539b7b760d91b920191825250600501919050565b60208082526032908201527f4552433732313a207472616e7366657220746f206e6f6e20455243373231526560408201527131b2b4bb32b91034b6b83632b6b2b73a32b960711b606082015260800190565b60008351612e4c8184602088016127b2565b835190830190612e608183602088016127b2565b01949350505050565b60208082526025908201527f4552433732313a207472616e736665722066726f6d20696e636f72726563742060408201526437bbb732b960d91b606082015260800190565b6001600160a01b0385811682528416602082015260408101839052608060608201819052600090612ee1908301846127de565b9695505050505050565b600060208284031215612efd57600080fd5b8151611b8b8161277f565b600082821015612f1a57612f1a612d16565b500390565b634e487b7160e01b600052603160045260246000fdfea2646970667358221220ebf37ca9555d5a3fd8209a8d1dcedcf4f2724ac89de42aa08dd0e248cc50f40464736f6c63430008080033",
  "linkReferences": {},
  "deployedLinkReferences": {}
}