{
  "_format": "hh-sol-artifact-1",
  "contractName": "HamsterCharacterNFTs",
  "sourceName": "contracts/hamsterCharacterCollection.sol",
  "abi": [
    {
      "anonymous": false,
      "inputs": [
        {
          "indexed": true,
          "internalType": "address",
          "name": "owner",
          "type": "address"
        },
        {
          "indexed": true,
          "internalType": "address",
          "name": "approved",
          "type": "address"
        },
        {
          "indexed": true,
          "internalType": "uint256",
          "name": "tokenId",
          "type": "uint256"
        }
      ],
      "name": "Approval",
      "type": "event"
    },
    {
      "anonymous": false,
      "inputs": [
        {
          "indexed": true,
          "internalType": "address",
          "name": "owner",
          "type": "address"
        },
        {
          "indexed": true,
          "internalType": "address",
          "name": "operator",
          "type": "address"
        },
        {
          "indexed": false,
          "internalType": "bool",
          "name": "approved",
          "type": "bool"
        }
      ],
      "name": "ApprovalForAll",
      "type": "event"
    },
    {
      "anonymous": false,
      "inputs": [
        {
          "indexed": false,
          "internalType": "uint8",
          "name": "version",
          "type": "uint8"
        }
      ],
      "name": "Initialized",
      "type": "event"
    },
    {
      "anonymous": false,
      "inputs": [
        {
          "indexed": true,
          "internalType": "address",
          "name": "_to",
          "type": "address"
        },
        {
          "indexed": true,
          "internalType": "uint256",
          "name": "_tokenID",
          "type": "uint256"
        }
      ],
      "name": "MintNFTEvent",
      "type": "event"
    },
    {
      "anonymous": false,
      "inputs": [
        {
          "indexed": true,
          "internalType": "address",
          "name": "previousOwner",
          "type": "address"
        },
        {
          "indexed": true,
          "internalType": "address",
          "name": "newOwner",
          "type": "address"
        }
      ],
      "name": "OwnershipTransferred",
      "type": "event"
    },
    {
      "anonymous": false,
      "inputs": [
        {
          "indexed": true,
          "internalType": "address",
          "name": "from",
          "type": "address"
        },
        {
          "indexed": true,
          "internalType": "address",
          "name": "to",
          "type": "address"
        },
        {
          "indexed": true,
          "internalType": "uint256",
          "name": "tokenId",
          "type": "uint256"
        }
      ],
      "name": "Transfer",
      "type": "event"
    },
    {
      "inputs": [],
      "name": "COMMON_PRICE",
      "outputs": [
        {
          "internalType": "uint256",
          "name": "",
          "type": "uint256"
        }
      ],
      "stateMutability": "view",
      "type": "function"
    },
    {
      "inputs": [
        {
          "internalType": "uint256",
          "name": "id",
          "type": "uint256"
        }
      ],
      "name": "IsRare",
      "outputs": [
        {
          "internalType": "bool",
          "name": "",
          "type": "bool"
        }
      ],
      "stateMutability": "view",
      "type": "function"
    },
    {
      "inputs": [
        {
          "internalType": "uint256",
          "name": "id",
          "type": "uint256"
        }
      ],
      "name": "IsUltraRare",
      "outputs": [
        {
          "internalType": "bool",
          "name": "",
          "type": "bool"
        }
      ],
      "stateMutability": "view",
      "type": "function"
    },
    {
      "inputs": [
        {
          "internalType": "uint256",
          "name": "id",
          "type": "uint256"
        }
      ],
      "name": "IsValid",
      "outputs": [
        {
          "internalType": "bool",
          "name": "",
          "type": "bool"
        }
      ],
      "stateMutability": "pure",
      "type": "function"
    },
    {
      "inputs": [],
      "name": "MAX_COMMON_SUPPLY",
      "outputs": [
        {
          "internalType": "uint256",
          "name": "",
          "type": "uint256"
        }
      ],
      "stateMutability": "view",
      "type": "function"
    },
    {
      "inputs": [],
      "name": "MAX_RARE_SUPPLY",
      "outputs": [
        {
          "internalType": "uint256",
          "name": "",
          "type": "uint256"
        }
      ],
      "stateMutability": "view",
      "type": "function"
    },
    {
      "inputs": [],
      "name": "MAX_ULTRARARE_SUPPLY",
      "outputs": [
        {
          "internalType": "uint256",
          "name": "",
          "type": "uint256"
        }
      ],
      "stateMutability": "view",
      "type": "function"
    },
    {
      "inputs": [],
      "name": "RARE_PRICE",
      "outputs": [
        {
          "internalType": "uint256",
          "name": "",
          "type": "uint256"
        }
      ],
      "stateMutability": "view",
      "type": "function"
    },
    {
      "inputs": [
        {
          "internalType": "uint256",
          "name": "",
          "type": "uint256"
        }
      ],
      "name": "Rare",
      "outputs": [
        {
          "internalType": "uint256",
          "name": "",
          "type": "uint256"
        }
      ],
      "stateMutability": "view",
      "type": "function"
    },
    {
      "inputs": [
        {
          "internalType": "uint256",
          "name": "id",
          "type": "uint256"
        }
      ],
      "name": "TotalMinted",
      "outputs": [
        {
          "internalType": "uint256",
          "name": "",
          "type": "uint256"
        }
      ],
      "stateMutability": "view",
      "type": "function"
    },
    {
      "inputs": [],
      "name": "ULTRA_RARE_PRICE",
      "outputs": [
        {
          "internalType": "uint256",
          "name": "",
          "type": "uint256"
        }
      ],
      "stateMutability": "view",
      "type": "function"
    },
    {
      "inputs": [
        {
          "internalType": "uint256",
          "name": "",
          "type": "uint256"
        }
      ],
      "name": "UltraRare",
      "outputs": [
        {
          "internalType": "uint256",
          "name": "",
          "type": "uint256"
        }
      ],
      "stateMutability": "view",
      "type": "function"
    },
    {
      "inputs": [],
      "name": "_tokenIdCounter",
      "outputs": [
        {
          "internalType": "uint256",
          "name": "_value",
          "type": "uint256"
        }
      ],
      "stateMutability": "view",
      "type": "function"
    },
    {
      "inputs": [
        {
          "internalType": "address",
          "name": "to",
          "type": "address"
        },
        {
          "internalType": "uint256",
          "name": "tokenId",
          "type": "uint256"
        }
      ],
      "name": "approve",
      "outputs": [],
      "stateMutability": "nonpayable",
      "type": "function"
    },
    {
      "inputs": [
        {
          "internalType": "address",
          "name": "owner",
          "type": "address"
        }
      ],
      "name": "balanceOf",
      "outputs": [
        {
          "internalType": "uint256",
          "name": "",
          "type": "uint256"
        }
      ],
      "stateMutability": "view",
      "type": "function"
    },
    {
      "inputs": [],
      "name": "baseURI",
      "outputs": [
        {
          "internalType": "string",
          "name": "",
          "type": "string"
        }
      ],
      "stateMutability": "view",
      "type": "function"
    },
    {
      "inputs": [
        {
          "internalType": "uint256",
          "name": "tokenId",
          "type": "uint256"
        }
      ],
      "name": "getApproved",
      "outputs": [
        {
          "internalType": "address",
          "name": "",
          "type": "address"
        }
      ],
      "stateMutability": "view",
      "type": "function"
    },
    {
      "inputs": [
        {
          "internalType": "uint256[]",
          "name": "rareList",
          "type": "uint256[]"
        },
        {
          "internalType": "uint256[]",
          "name": "ultraRareList",
          "type": "uint256[]"
        },
        {
          "internalType": "string",
          "name": "BaseURI",
          "type": "string"
        },
        {
          "internalType": "address payable",
          "name": "payableAddress",
          "type": "address"
        }
      ],
      "name": "initialize",
      "outputs": [],
      "stateMutability": "nonpayable",
      "type": "function"
    },
    {
      "inputs": [
        {
          "internalType": "address",
          "name": "owner",
          "type": "address"
        },
        {
          "internalType": "address",
          "name": "operator",
          "type": "address"
        }
      ],
      "name": "isApprovedForAll",
      "outputs": [
        {
          "internalType": "bool",
          "name": "",
          "type": "bool"
        }
      ],
      "stateMutability": "view",
      "type": "function"
    },
    {
      "inputs": [],
      "name": "marketplaceAddress",
      "outputs": [
        {
          "internalType": "address",
          "name": "",
          "type": "address"
        }
      ],
      "stateMutability": "view",
      "type": "function"
    },
    {
      "inputs": [
        {
          "internalType": "uint256[]",
          "name": "ids",
          "type": "uint256[]"
        },
        {
          "internalType": "address",
          "name": "to",
          "type": "address"
        }
      ],
      "name": "mintBatchToAddress",
      "outputs": [],
      "stateMutability": "nonpayable",
      "type": "function"
    },
    {
      "inputs": [
        {
          "internalType": "uint256",
          "name": "id",
          "type": "uint256"
        }
      ],
      "name": "mintNFT",
      "outputs": [],
      "stateMutability": "payable",
      "type": "function"
    },
    {
      "inputs": [
        {
          "internalType": "address",
          "name": "to",
          "type": "address"
        },
        {
          "internalType": "uint256",
          "name": "id",
          "type": "uint256"
        }
      ],
      "name": "mintToAddress",
      "outputs": [],
      "stateMutability": "nonpayable",
      "type": "function"
    },
    {
      "inputs": [],
      "name": "name",
      "outputs": [
        {
          "internalType": "string",
          "name": "",
          "type": "string"
        }
      ],
      "stateMutability": "view",
      "type": "function"
    },
    {
      "inputs": [],
      "name": "owner",
      "outputs": [
        {
          "internalType": "address",
          "name": "",
          "type": "address"
        }
      ],
      "stateMutability": "view",
      "type": "function"
    },
    {
      "inputs": [
        {
          "internalType": "uint256",
          "name": "tokenId",
          "type": "uint256"
        }
      ],
      "name": "ownerOf",
      "outputs": [
        {
          "internalType": "address",
          "name": "",
          "type": "address"
        }
      ],
      "stateMutability": "view",
      "type": "function"
    },
    {
      "inputs": [],
      "name": "payable_address",
      "outputs": [
        {
          "internalType": "address payable",
          "name": "",
          "type": "address"
        }
      ],
      "stateMutability": "view",
      "type": "function"
    },
    {
      "inputs": [],
      "name": "renounceOwnership",
      "outputs": [],
      "stateMutability": "nonpayable",
      "type": "function"
    },
    {
      "inputs": [
        {
          "internalType": "address",
          "name": "from",
          "type": "address"
        },
        {
          "internalType": "address",
          "name": "to",
          "type": "address"
        },
        {
          "internalType": "uint256",
          "name": "tokenId",
          "type": "uint256"
        }
      ],
      "name": "safeTransferFrom",
      "outputs": [],
      "stateMutability": "nonpayable",
      "type": "function"
    },
    {
      "inputs": [
        {
          "internalType": "address",
          "name": "from",
          "type": "address"
        },
        {
          "internalType": "address",
          "name": "to",
          "type": "address"
        },
        {
          "internalType": "uint256",
          "name": "tokenId",
          "type": "uint256"
        },
        {
          "internalType": "bytes",
          "name": "data",
          "type": "bytes"
        }
      ],
      "name": "safeTransferFrom",
      "outputs": [],
      "stateMutability": "nonpayable",
      "type": "function"
    },
    {
      "inputs": [
        {
          "internalType": "address",
          "name": "operator",
          "type": "address"
        },
        {
          "internalType": "bool",
          "name": "approved",
          "type": "bool"
        }
      ],
      "name": "setApprovalForAll",
      "outputs": [],
      "stateMutability": "nonpayable",
      "type": "function"
    },
    {
      "inputs": [
        {
          "internalType": "address",
          "name": "_marketplaceAddress",
          "type": "address"
        }
      ],
      "name": "setMarketplace",
      "outputs": [],
      "stateMutability": "nonpayable",
      "type": "function"
    },
    {
      "inputs": [
        {
          "internalType": "bytes4",
          "name": "interfaceId",
          "type": "bytes4"
        }
      ],
      "name": "supportsInterface",
      "outputs": [
        {
          "internalType": "bool",
          "name": "",
          "type": "bool"
        }
      ],
      "stateMutability": "view",
      "type": "function"
    },
    {
      "inputs": [],
      "name": "symbol",
      "outputs": [
        {
          "internalType": "string",
          "name": "",
          "type": "string"
        }
      ],
      "stateMutability": "view",
      "type": "function"
    },
    {
      "inputs": [
        {
          "internalType": "uint256",
          "name": "index",
          "type": "uint256"
        }
      ],
      "name": "tokenByIndex",
      "outputs": [
        {
          "internalType": "uint256",
          "name": "",
          "type": "uint256"
        }
      ],
      "stateMutability": "view",
      "type": "function"
    },
    {
      "inputs": [
        {
          "internalType": "address",
          "name": "owner",
          "type": "address"
        },
        {
          "internalType": "uint256",
          "name": "index",
          "type": "uint256"
        }
      ],
      "name": "tokenOfOwnerByIndex",
      "outputs": [
        {
          "internalType": "uint256",
          "name": "",
          "type": "uint256"
        }
      ],
      "stateMutability": "view",
      "type": "function"
    },
    {
      "inputs": [
        {
          "internalType": "uint256",
          "name": "tokenId",
          "type": "uint256"
        }
      ],
      "name": "tokenURI",
      "outputs": [
        {
          "internalType": "string",
          "name": "",
          "type": "string"
        }
      ],
      "stateMutability": "view",
      "type": "function"
    },
    {
      "inputs": [],
      "name": "totalSupply",
      "outputs": [
        {
          "internalType": "uint256",
          "name": "",
          "type": "uint256"
        }
      ],
      "stateMutability": "view",
      "type": "function"
    },
    {
      "inputs": [
        {
          "internalType": "address",
          "name": "from",
          "type": "address"
        },
        {
          "internalType": "address",
          "name": "to",
          "type": "address"
        },
        {
          "internalType": "uint256",
          "name": "tokenId",
          "type": "uint256"
        }
      ],
      "name": "transferFrom",
      "outputs": [],
      "stateMutability": "nonpayable",
      "type": "function"
    },
    {
      "inputs": [
        {
          "internalType": "address",
          "name": "newOwner",
          "type": "address"
        }
      ],
      "name": "transferOwnership",
      "outputs": [],
      "stateMutability": "nonpayable",
      "type": "function"
    }
  ],
  "bytecode": "0x608060405234801561001057600080fd5b50612f35806100206000396000f3fe60806040526004361061023b5760003560e01c806373ad6c2d1161012e578063a78f06b5116100ab578063d4266d0e1161006f578063d4266d0e14610646578063d519989914610666578063daa17f4914610682578063e985e9c5146106a3578063f2fde38b146106ec57600080fd5b8063a78f06b5146104f2578063b88d4fde146105c5578063c62f2103146105e5578063c87b56dd14610606578063c9c0efa01461062657600080fd5b806389a746eb116100f257806389a746eb1461053f5780638da5cb5b1461055f578063926427441461057d57806395d89b4114610590578063a22cb465146105a557600080fd5b806373ad6c2d146104d2578063765a636b146104f257806377b64d3f146104f25780637aaf99211461050757806384c4bd4b1461052757600080fd5b80632e119c79116101bc5780636352211e116101805780636352211e1461044c5780636613bcb01461046c5780636c0360eb1461048857806370a082311461049d578063715018a6146104bd57600080fd5b80632e119c79146103b05780632f745c59146103cc5780633b056531146103ec57806342842e0e1461040c5780634f6ccce71461042c57600080fd5b8063158e6dad11610203578063158e6dad1461031157806318160ddd1461033157806321ca42361461035057806323b872dd1461037057806328da959f1461039057600080fd5b806301ffc9a71461024057806306fdde0314610275578063081812fc14610297578063095ea7b3146102cf57806311281416146102f1575b600080fd5b34801561024c57600080fd5b5061026061025b36600461275f565b61070c565b60405190151581526020015b60405180910390f35b34801561028157600080fd5b5061028a610737565b60405161026c91906127d4565b3480156102a357600080fd5b506102b76102b23660046127e7565b6107c9565b6040516001600160a01b03909116815260200161026c565b3480156102db57600080fd5b506102ef6102ea366004612815565b6107f0565b005b3480156102fd57600080fd5b5061026061030c3660046127e7565b61090b565b34801561031d57600080fd5b506102ef61032c366004612960565b610920565b34801561033d57600080fd5b506099545b60405190815260200161026c565b34801561035c57600080fd5b506102ef61036b366004612815565b610b42565b34801561037c57600080fd5b506102ef61038b366004612a0f565b610bd7565b34801561039c57600080fd5b506103426103ab3660046127e7565b610c08565b3480156103bc57600080fd5b50610342671158e460913d000081565b3480156103d857600080fd5b506103426103e7366004612815565b610c2a565b3480156103f857600080fd5b506103426104073660046127e7565b610cc0565b34801561041857600080fd5b506102ef610427366004612a0f565b610cd1565b34801561043857600080fd5b506103426104473660046127e7565b610cec565b34801561045857600080fd5b506102b76104673660046127e7565b610d7f565b34801561047857600080fd5b506103426722b1c8c1227a000081565b34801561049457600080fd5b5061028a610ddf565b3480156104a957600080fd5b506103426104b8366004612a50565b610e6e565b3480156104c957600080fd5b506102ef610ef4565b3480156104de57600080fd5b506102ef6104ed366004612a50565b610f08565b3480156104fe57600080fd5b50610342600181565b34801561051357600080fd5b506103426105223660046127e7565b610f33565b34801561053357600080fd5b5061012e546103429081565b34801561054b57600080fd5b506102ef61055a366004612a6d565b610f90565b34801561056b57600080fd5b5060c9546001600160a01b03166102b7565b6102ef61058b3660046127e7565b61110c565b34801561059c57600080fd5b5061028a61127f565b3480156105b157600080fd5b506102ef6105c0366004612af3565b61128e565b3480156105d157600080fd5b506102ef6105e0366004612b31565b611299565b3480156105f157600080fd5b50610133546102b7906001600160a01b031681565b34801561061257600080fd5b5061028a6106213660046127e7565b6112cb565b34801561063257600080fd5b506102606106413660046127e7565b6112d6565b34801561065257600080fd5b506102606106613660046127e7565b61132f565b34801561067257600080fd5b50610342670214e8348c4f000081565b34801561068e57600080fd5b50610130546102b7906001600160a01b031681565b3480156106af57600080fd5b506102606106be366004612bb1565b6001600160a01b039182166000908152606a6020908152604080832093909416825291909152205460ff1690565b3480156106f857600080fd5b506102ef610707366004612a50565b61137f565b60006001600160e01b0319821663780e9d6360e01b14806107315750610731826113f5565b92915050565b60606065805461074690612bdf565b80601f016020809104026020016040519081016040528092919081815260200182805461077290612bdf565b80156107bf5780601f10610794576101008083540402835291602001916107bf565b820191906000526020600020905b8154815290600101906020018083116107a257829003601f168201915b5050505050905090565b60006107d482611445565b506000908152606960205260409020546001600160a01b031690565b60006107fb82610d7f565b9050806001600160a01b0316836001600160a01b0316141561086e5760405162461bcd60e51b815260206004820152602160248201527f4552433732313a20617070726f76616c20746f2063757272656e74206f776e656044820152603960f91b60648201526084015b60405180910390fd5b336001600160a01b038216148061088a575061088a81336106be565b6108fc5760405162461bcd60e51b815260206004820152603d60248201527f4552433732313a20617070726f76652063616c6c6572206973206e6f7420746f60448201527f6b656e206f776e6572206f7220617070726f76656420666f7220616c6c0000006064820152608401610865565b61090683836114a4565b505050565b60008082118015610731575050611388101590565b600054610100900460ff16158080156109405750600054600160ff909116105b8061095a5750303b15801561095a575060005460ff166001145b6109bd5760405162461bcd60e51b815260206004820152602e60248201527f496e697469616c697a61626c653a20636f6e747261637420697320616c72656160448201526d191e481a5b9a5d1a585b1a5e995960921b6064820152608401610865565b6000805460ff1916600117905580156109e0576000805461ff0019166101001790555b610a3a6040518060400160405280601a81526020017f48616d737465722047656e6573697320436861726163746572730000000000008152506040518060400160405280600381526020016248474360e81b815250611512565b610a42611543565b610a4a61156a565b610a52611599565b6001600160a01b038216610a9a5760405162461bcd60e51b815260206004820152600f60248201526e496e76616c6964206164647265737360881b6044820152606401610865565b8451610aae90610132906020880190612676565b508351610ac390610131906020870190612676565b508251610ad89061012f9060208601906126c1565b5061013380546001600160a01b0319166001600160a01b0384161790558015610b3b576000805461ff0019169055604051600181527f7f26b83ff96e1f2b6a682f133852f6798a09c465da95921460cefb38474024989060200160405180910390a15b5050505050565b610b4a6115c8565b610b538161090b565b610b6f5760405162461bcd60e51b815260040161086590612c1a565b610b78816112d6565b15610bb3576001610b8882610f33565b10610ba55760405162461bcd60e51b815260040161086590612c46565b610baf8282611622565b5050565b610bbc8161132f565b15610bcc576001610b8882610f33565b6001610b8882610f33565b610be133826116e8565b610bfd5760405162461bcd60e51b815260040161086590612c7d565b610906838383611767565b6101318181548110610c1957600080fd5b600091825260209091200154905081565b6000610c3583610e6e565b8210610c975760405162461bcd60e51b815260206004820152602b60248201527f455243373231456e756d657261626c653a206f776e657220696e646578206f7560448201526a74206f6620626f756e647360a81b6064820152608401610865565b506001600160a01b03919091166000908152609760209081526040808320938352929052205490565b6101328181548110610c1957600080fd5b61090683838360405180602001604052806000815250611299565b6000610cf760995490565b8210610d5a5760405162461bcd60e51b815260206004820152602c60248201527f455243373231456e756d657261626c653a20676c6f62616c20696e646578206f60448201526b7574206f6620626f756e647360a01b6064820152608401610865565b60998281548110610d6d57610d6d612cca565b90600052602060002001549050919050565b6000818152606760205260408120546001600160a01b0316806107315760405162461bcd60e51b8152602060048201526018602482015277115490cdcc8c4e881a5b9d985b1a59081d1bdad95b88125160421b6044820152606401610865565b61012f8054610ded90612bdf565b80601f0160208091040260200160405190810160405280929190818152602001828054610e1990612bdf565b8015610e665780601f10610e3b57610100808354040283529160200191610e66565b820191906000526020600020905b815481529060010190602001808311610e4957829003601f168201915b505050505081565b60006001600160a01b038216610ed85760405162461bcd60e51b815260206004820152602960248201527f4552433732313a2061646472657373207a65726f206973206e6f7420612076616044820152683634b21037bbb732b960b91b6064820152608401610865565b506001600160a01b031660009081526068602052604090205490565b610efc6115c8565b610f066000611827565b565b610f106115c8565b61013080546001600160a01b0319166001600160a01b0392909216919091179055565b600080805b61012d54811015610f89578361012d8281548110610f5857610f58612cca565b90600052602060002001541415610f775781610f7381612cf6565b9250505b80610f8181612cf6565b915050610f38565b5092915050565b610f986115c8565b60005b8281101561110657610fc4848483818110610fb857610fb8612cca565b9050602002013561090b565b610fe05760405162461bcd60e51b815260040161086590612c1a565b611001848483818110610ff557610ff5612cca565b905060200201356112d6565b1561106d57600161102985858481811061101d5761101d612cca565b90506020020135610f33565b106110465760405162461bcd60e51b815260040161086590612c46565b6110688285858481811061105c5761105c612cca565b90506020020135611622565b6110f4565b61108e84848381811061108257611082612cca565b9050602002013561132f565b156110aa57600161102985858481811061101d5761101d612cca565b60016110c185858481811061101d5761101d612cca565b106110de5760405162461bcd60e51b815260040161086590612c46565b6110f48285858481811061105c5761105c612cca565b806110fe81612cf6565b915050610f9b565b50505050565b611114611879565b61111d8161090b565b6111395760405162461bcd60e51b815260040161086590612c1a565b611142816112d6565b156111a557600161115282610f33565b1061116f5760405162461bcd60e51b815260040161086590612c46565b671158e460913d000034146111965760405162461bcd60e51b815260040161086590612d11565b6111a03382611622565b61125b565b6111ae8161132f565b156112025760016111be82610f33565b106111db5760405162461bcd60e51b815260040161086590612c46565b6722b1c8c1227a000034146111965760405162461bcd60e51b815260040161086590612d11565b600161120d82610f33565b1061122a5760405162461bcd60e51b815260040161086590612c46565b670214e8348c4f000034146112515760405162461bcd60e51b815260040161086590612d11565b61125b3382611622565b61013354611272906001600160a01b0316346118d3565b61127c600160fb55565b50565b60606066805461074690612bdf565b610baf3383836119f3565b6112a333836116e8565b6112bf5760405162461bcd60e51b815260040161086590612c7d565b61110684848484611ac2565b606061073182611af5565b6000805b61013254811015611326578261013282815481106112fa576112fa612cca565b906000526020600020015414156113145750600192915050565b8061131e81612cf6565b9150506112da565b50600092915050565b6000805b610131548110156113265782610131828154811061135357611353612cca565b9060005260206000200154141561136d5750600192915050565b8061137781612cf6565b915050611333565b6113876115c8565b6001600160a01b0381166113ec5760405162461bcd60e51b815260206004820152602660248201527f4f776e61626c653a206e6577206f776e657220697320746865207a65726f206160448201526564647265737360d01b6064820152608401610865565b61127c81611827565b60006001600160e01b031982166380ac58cd60e01b148061142657506001600160e01b03198216635b5e139f60e01b145b8061073157506301ffc9a760e01b6001600160e01b0319831614610731565b6000818152606760205260409020546001600160a01b031661127c5760405162461bcd60e51b8152602060048201526018602482015277115490cdcc8c4e881a5b9d985b1a59081d1bdad95b88125160421b6044820152606401610865565b600081815260696020526040902080546001600160a01b0319166001600160a01b03841690811790915581906114d982610d7f565b6001600160a01b03167f8c5be1e5ebec7d5bd14f71427d1e84f3dd0314c0f7b2291e5b200ac8c7c3b92560405160405180910390a45050565b600054610100900460ff166115395760405162461bcd60e51b815260040161086590612d3e565b610baf8282611b5c565b600054610100900460ff16610f065760405162461bcd60e51b815260040161086590612d3e565b600054610100900460ff166115915760405162461bcd60e51b815260040161086590612d3e565b610f06611baa565b600054610100900460ff166115c05760405162461bcd60e51b815260040161086590612d3e565b610f06611bda565b60c9546001600160a01b03163314610f065760405162461bcd60e51b815260206004820181905260248201527f4f776e61626c653a2063616c6c6572206973206e6f7420746865206f776e65726044820152606401610865565b61163161012e80546001019055565b600061163d61012e5490565b90506116498382611c01565b61167a8161165684611c1b565b6040516020016116669190612d89565b604051602081830303815290604052611cb8565b61012d805460018101825560009182527f193a3ae4da5049eb74cee39e4cf5827f7ce7b1d1d1775ef1c6311eb60558e6d50183905560405182916001600160a01b038616917f4507e9be69171ee1abef2b7e97fd5360e96b2fa94c49ea029c8629da2de26ddf9190a3505050565b6000806116f483610d7f565b9050806001600160a01b0316846001600160a01b0316148061173b57506001600160a01b038082166000908152606a602090815260408083209388168352929052205460ff165b8061175f5750836001600160a01b0316611754846107c9565b6001600160a01b0316145b949350505050565b611772838383611d53565b6001600160a01b0383161580159061179c5750816001600160a01b0316836001600160a01b031614155b80156117b35750610130546001600160a01b031615155b15610906576101305460405163c734f91760e01b81526001600160a01b0385811660048301526024820184905290911690819063c734f91790604401600060405180830381600087803b15801561180957600080fd5b505af115801561181d573d6000803e3d6000fd5b5050505050505050565b60c980546001600160a01b038381166001600160a01b0319831681179093556040519116919082907f8be0079c531659141344cd1fd0a4f28419497f9722a3daafe3b4186f6b6457e090600090a35050565b600260fb5414156118cc5760405162461bcd60e51b815260206004820152601f60248201527f5265656e7472616e637947756172643a207265656e7472616e742063616c6c006044820152606401610865565b600260fb55565b804710156119235760405162461bcd60e51b815260206004820152601d60248201527f416464726573733a20696e73756666696369656e742062616c616e63650000006044820152606401610865565b6000826001600160a01b03168260405160006040518083038185875af1925050503d8060008114611970576040519150601f19603f3d011682016040523d82523d6000602084013e611975565b606091505b50509050806109065760405162461bcd60e51b815260206004820152603a60248201527f416464726573733a20756e61626c6520746f2073656e642076616c75652c207260448201527f6563697069656e74206d617920686176652072657665727465640000000000006064820152608401610865565b600160fb55565b816001600160a01b0316836001600160a01b03161415611a555760405162461bcd60e51b815260206004820152601960248201527f4552433732313a20617070726f766520746f2063616c6c6572000000000000006044820152606401610865565b6001600160a01b038381166000818152606a6020908152604080832094871680845294825291829020805460ff191686151590811790915591519182527f17307eab39ab6107e8899845ad3d59bd9653f200f220920489ca2b5937696c31910160405180910390a3505050565b611acd848484611767565b611ad984848484611ec4565b6111065760405162461bcd60e51b815260040161086590612db2565b6060611b0082611445565b6000611b0a611fd1565b90506000815111611b2a5760405180602001604052806000815250611b55565b80611b3484611fe1565b604051602001611b45929190612e04565b6040516020818303038152906040525b9392505050565b600054610100900460ff16611b835760405162461bcd60e51b815260040161086590612d3e565b8151611b969060659060208501906126c1565b5080516109069060669060208401906126c1565b600054610100900460ff16611bd15760405162461bcd60e51b815260040161086590612d3e565b610f0633611827565b600054610100900460ff166119ec5760405162461bcd60e51b815260040161086590612d3e565b610baf828260405180602001604052806000815250612076565b60606000611c28836120a9565b600101905060008167ffffffffffffffff811115611c4857611c48612841565b6040519080825280601f01601f191660200182016040528015611c72576020820181803683370190505b5090508181016020015b600019016f181899199a1a9b1b9c1cb0b131b232b360811b600a86061a8153600a8504945084611cab57611cb0565b611c7c565b509392505050565b6000828152606760205260409020546001600160a01b0316611d335760405162461bcd60e51b815260206004820152602e60248201527f45524337323155524953746f726167653a2055524920736574206f66206e6f6e60448201526d32bc34b9ba32b73a103a37b5b2b760911b6064820152608401610865565b6000828152610134602090815260409091208251610906928401906126c1565b826001600160a01b0316611d6682610d7f565b6001600160a01b031614611d8c5760405162461bcd60e51b815260040161086590612e33565b6001600160a01b038216611dee5760405162461bcd60e51b8152602060048201526024808201527f4552433732313a207472616e7366657220746f20746865207a65726f206164646044820152637265737360e01b6064820152608401610865565b611dfb8383836001612181565b826001600160a01b0316611e0e82610d7f565b6001600160a01b031614611e345760405162461bcd60e51b815260040161086590612e33565b600081815260696020908152604080832080546001600160a01b03199081169091556001600160a01b0387811680865260688552838620805460001901905590871680865283862080546001019055868652606790945282852080549092168417909155905184937fddf252ad1be2c89b69c2b068fc378daa952ba7f163c4a11628f55a4df523b3ef91a4505050565b60006001600160a01b0384163b15611fc657604051630a85bd0160e11b81526001600160a01b0385169063150b7a0290611f08903390899088908890600401612e78565b602060405180830381600087803b158015611f2257600080fd5b505af1925050508015611f52575060408051601f3d908101601f19168201909252611f4f91810190612eb5565b60015b611fac573d808015611f80576040519150601f19603f3d011682016040523d82523d6000602084013e611f85565b606091505b508051611fa45760405162461bcd60e51b815260040161086590612db2565b805181602001fd5b6001600160e01b031916630a85bd0160e11b14905061175f565b506001949350505050565b606061012f805461074690612bdf565b60606000611fee836120a9565b600101905060008167ffffffffffffffff81111561200e5761200e612841565b6040519080825280601f01601f191660200182016040528015612038576020820181803683370190505b5090508181016020015b600019016f181899199a1a9b1b9c1cb0b131b232b360811b600a86061a8153600a850494508461207157611cb0565b612042565b61208083836122ae565b61208d6000848484611ec4565b6109065760405162461bcd60e51b815260040161086590612db2565b60008072184f03e93ff9f4daa797ed6e38ed64bf6a1f0160401b83106120e85772184f03e93ff9f4daa797ed6e38ed64bf6a1f0160401b830492506040015b6d04ee2d6d415b85acef81000000008310612114576d04ee2d6d415b85acef8100000000830492506020015b662386f26fc10000831061213257662386f26fc10000830492506010015b6305f5e100831061214a576305f5e100830492506008015b612710831061215e57612710830492506004015b60648310612170576064830492506002015b600a83106107315760010192915050565b60018111156121f05760405162461bcd60e51b815260206004820152603560248201527f455243373231456e756d657261626c653a20636f6e7365637574697665207472604482015274185b9cd9995c9cc81b9bdd081cdd5c1c1bdc9d1959605a1b6064820152608401610865565b816001600160a01b03851661224c5761224781609980546000838152609a60205260408120829055600182018355919091527f72a152ddfb8e864297c917af52ea6c1c68aead0fee1a62673fcc7e0c94979d000155565b61226f565b836001600160a01b0316856001600160a01b03161461226f5761226f858261234d565b6001600160a01b03841661228b57612286816123ea565b610b3b565b846001600160a01b0316846001600160a01b031614610b3b57610b3b8482612499565b6122b882826124dd565b6001600160a01b038216158015906122db5750610130546001600160a01b031615155b15610baf576101305460405163c734f91760e01b815260006004820152602481018390526001600160a01b0390911690819063c734f91790604401600060405180830381600087803b15801561233057600080fd5b505af1158015612344573d6000803e3d6000fd5b50505050505050565b6000600161235a84610e6e565b6123649190612ed2565b6000838152609860205260409020549091508082146123b7576001600160a01b03841660009081526097602090815260408083208584528252808320548484528184208190558352609890915290208190555b5060009182526098602090815260408084208490556001600160a01b039094168352609781528383209183525290812055565b6099546000906123fc90600190612ed2565b6000838152609a60205260408120546099805493945090928490811061242457612424612cca565b90600052602060002001549050806099838154811061244557612445612cca565b6000918252602080832090910192909255828152609a9091526040808220849055858252812055609980548061247d5761247d612ee9565b6001900381819060005260206000200160009055905550505050565b60006124a483610e6e565b6001600160a01b039093166000908152609760209081526040808320868452825280832085905593825260989052919091209190915550565b6001600160a01b0382166125335760405162461bcd60e51b815260206004820181905260248201527f4552433732313a206d696e7420746f20746865207a65726f20616464726573736044820152606401610865565b6000818152606760205260409020546001600160a01b0316156125985760405162461bcd60e51b815260206004820152601c60248201527f4552433732313a20746f6b656e20616c7265616479206d696e746564000000006044820152606401610865565b6125a6600083836001612181565b6000818152606760205260409020546001600160a01b03161561260b5760405162461bcd60e51b815260206004820152601c60248201527f4552433732313a20746f6b656e20616c7265616479206d696e746564000000006044820152606401610865565b6001600160a01b038216600081815260686020908152604080832080546001019055848352606790915280822080546001600160a01b0319168417905551839291907fddf252ad1be2c89b69c2b068fc378daa952ba7f163c4a11628f55a4df523b3ef908290a45050565b8280548282559060005260206000209081019282156126b1579160200282015b828111156126b1578251825591602001919060010190612696565b506126bd929150612734565b5090565b8280546126cd90612bdf565b90600052602060002090601f0160209004810192826126ef57600085556126b1565b82601f1061270857805160ff19168380011785556126b1565b828001600101855582156126b157918201828111156126b1578251825591602001919060010190612696565b5b808211156126bd5760008155600101612735565b6001600160e01b03198116811461127c57600080fd5b60006020828403121561277157600080fd5b8135611b5581612749565b60005b8381101561279757818101518382015260200161277f565b838111156111065750506000910152565b600081518084526127c081602086016020860161277c565b601f01601f19169290920160200192915050565b602081526000611b5560208301846127a8565b6000602082840312156127f957600080fd5b5035919050565b6001600160a01b038116811461127c57600080fd5b6000806040838503121561282857600080fd5b823561283381612800565b946020939093013593505050565b634e487b7160e01b600052604160045260246000fd5b604051601f8201601f1916810167ffffffffffffffff8111828210171561288057612880612841565b604052919050565b600082601f83011261289957600080fd5b8135602067ffffffffffffffff8211156128b5576128b5612841565b8160051b6128c4828201612857565b92835284810182019282810190878511156128de57600080fd5b83870192505b848310156128fd578235825291830191908301906128e4565b979650505050505050565b600067ffffffffffffffff83111561292257612922612841565b612935601f8401601f1916602001612857565b905082815283838301111561294957600080fd5b828260208301376000602084830101529392505050565b6000806000806080858703121561297657600080fd5b843567ffffffffffffffff8082111561298e57600080fd5b61299a88838901612888565b955060208701359150808211156129b057600080fd5b6129bc88838901612888565b945060408701359150808211156129d257600080fd5b508501601f810187136129e457600080fd5b6129f387823560208401612908565b9250506060850135612a0481612800565b939692955090935050565b600080600060608486031215612a2457600080fd5b8335612a2f81612800565b92506020840135612a3f81612800565b929592945050506040919091013590565b600060208284031215612a6257600080fd5b8135611b5581612800565b600080600060408486031215612a8257600080fd5b833567ffffffffffffffff80821115612a9a57600080fd5b818601915086601f830112612aae57600080fd5b813581811115612abd57600080fd5b8760208260051b8501011115612ad257600080fd5b60209283019550935050840135612ae881612800565b809150509250925092565b60008060408385031215612b0657600080fd5b8235612b1181612800565b915060208301358015158114612b2657600080fd5b809150509250929050565b60008060008060808587031215612b4757600080fd5b8435612b5281612800565b93506020850135612b6281612800565b925060408501359150606085013567ffffffffffffffff811115612b8557600080fd5b8501601f81018713612b9657600080fd5b612ba587823560208401612908565b91505092959194509250565b60008060408385031215612bc457600080fd5b8235612bcf81612800565b91506020830135612b2681612800565b600181811c90821680612bf357607f821691505b60208210811415612c1457634e487b7160e01b600052602260045260246000fd5b50919050565b602080825260129082015271139bdd0818481d985b1a5908139195081a5960721b604082015260600190565b60208082526019908201527f52656163686564204d6178206c696d697420616c726561647900000000000000604082015260600190565b6020808252602d908201527f4552433732313a2063616c6c6572206973206e6f7420746f6b656e206f776e6560408201526c1c881bdc88185c1c1c9bdd9959609a1b606082015260800190565b634e487b7160e01b600052603260045260246000fd5b634e487b7160e01b600052601160045260246000fd5b6000600019821415612d0a57612d0a612ce0565b5060010190565b6020808252601390820152720a0e4d2c6ca40c8d2c840dcdee840dac2e8c6d606b1b604082015260600190565b6020808252602b908201527f496e697469616c697a61626c653a20636f6e7472616374206973206e6f74206960408201526a6e697469616c697a696e6760a81b606082015260800190565b60008251612d9b81846020870161277c565b64173539b7b760d91b920191825250600501919050565b60208082526032908201527f4552433732313a207472616e7366657220746f206e6f6e20455243373231526560408201527131b2b4bb32b91034b6b83632b6b2b73a32b960711b606082015260800190565b60008351612e1681846020880161277c565b835190830190612e2a81836020880161277c565b01949350505050565b60208082526025908201527f4552433732313a207472616e736665722066726f6d20696e636f72726563742060408201526437bbb732b960d91b606082015260800190565b6001600160a01b0385811682528416602082015260408101839052608060608201819052600090612eab908301846127a8565b9695505050505050565b600060208284031215612ec757600080fd5b8151611b5581612749565b600082821015612ee457612ee4612ce0565b500390565b634e487b7160e01b600052603160045260246000fdfea264697066735822122059c95c444c3c43f790a4e07865cda0aa72c7cbafed128bd9960c41227acd60b564736f6c63430008080033",
  "linkReferences": {},
  "deployedLinkReferences": {}
}