{
  "_format": "hh-sol-artifact-1",
  "contractName": "MetaVault",
  "sourceName": "contracts/EQX.sol",
  "abi": [
    {
      "anonymous": false,
      "inputs": [
        {
          "indexed": true,
          "internalType": "address",
          "name": "owner",
          "type": "address"
        },
        {
          "indexed": true,
          "internalType": "address",
          "name": "spender",
          "type": "address"
        },
        {
          "indexed": false,
          "internalType": "uint256",
          "name": "value",
          "type": "uint256"
        }
      ],
      "name": "Approval",
      "type": "event"
    },
    {
      "anonymous": false,
      "inputs": [
        {
          "indexed": false,
          "internalType": "uint8",
          "name": "version",
          "type": "uint8"
        }
      ],
      "name": "Initialized",
      "type": "event"
    },
    {
      "anonymous": false,
      "inputs": [
        {
          "indexed": true,
          "internalType": "address",
          "name": "from",
          "type": "address"
        },
        {
          "indexed": true,
          "internalType": "address",
          "name": "to",
          "type": "address"
        },
        {
          "indexed": false,
          "internalType": "uint256",
          "name": "value",
          "type": "uint256"
        }
      ],
      "name": "Transfer",
      "type": "event"
    },
    {
      "inputs": [],
      "name": "admin",
      "outputs": [
        {
          "internalType": "address",
          "name": "",
          "type": "address"
        }
      ],
      "stateMutability": "view",
      "type": "function"
    },
    {
      "inputs": [
        {
          "internalType": "address",
          "name": "",
          "type": "address"
        },
        {
          "internalType": "address",
          "name": "",
          "type": "address"
        }
      ],
      "name": "allowance",
      "outputs": [
        {
          "internalType": "uint256",
          "name": "",
          "type": "uint256"
        }
      ],
      "stateMutability": "view",
      "type": "function"
    },
    {
      "inputs": [
        {
          "internalType": "address",
          "name": "_spender",
          "type": "address"
        },
        {
          "internalType": "uint256",
          "name": "_value",
          "type": "uint256"
        }
      ],
      "name": "approve",
      "outputs": [
        {
          "internalType": "bool",
          "name": "",
          "type": "bool"
        }
      ],
      "stateMutability": "nonpayable",
      "type": "function"
    },
    {
      "inputs": [
        {
          "internalType": "address",
          "name": "",
          "type": "address"
        }
      ],
      "name": "balanceOf",
      "outputs": [
        {
          "internalType": "uint256",
          "name": "",
          "type": "uint256"
        }
      ],
      "stateMutability": "view",
      "type": "function"
    },
    {
      "inputs": [],
      "name": "decimals",
      "outputs": [
        {
          "internalType": "uint8",
          "name": "",
          "type": "uint8"
        }
      ],
      "stateMutability": "view",
      "type": "function"
    },
    {
      "inputs": [
        {
          "internalType": "string",
          "name": "_name",
          "type": "string"
        },
        {
          "internalType": "string",
          "name": "_symbol",
          "type": "string"
        },
        {
          "internalType": "uint8",
          "name": "_decimals",
          "type": "uint8"
        },
        {
          "internalType": "uint256",
          "name": "_taxPercentage",
          "type": "uint256"
        },
        {
          "internalType": "uint256",
          "name": "_maxSupply",
          "type": "uint256"
        },
        {
          "internalType": "uint256",
          "name": "_initialSupply",
          "type": "uint256"
        }
      ],
      "name": "initialize",
      "outputs": [],
      "stateMutability": "nonpayable",
      "type": "function"
    },
    {
      "inputs": [],
      "name": "maxSupply",
      "outputs": [
        {
          "internalType": "uint256",
          "name": "",
          "type": "uint256"
        }
      ],
      "stateMutability": "view",
      "type": "function"
    },
    {
      "inputs": [
        {
          "internalType": "uint256",
          "name": "_value",
          "type": "uint256"
        }
      ],
      "name": "mint",
      "outputs": [],
      "stateMutability": "nonpayable",
      "type": "function"
    },
    {
      "inputs": [],
      "name": "name",
      "outputs": [
        {
          "internalType": "string",
          "name": "",
          "type": "string"
        }
      ],
      "stateMutability": "view",
      "type": "function"
    },
    {
      "inputs": [],
      "name": "owner",
      "outputs": [
        {
          "internalType": "address",
          "name": "",
          "type": "address"
        }
      ],
      "stateMutability": "view",
      "type": "function"
    },
    {
      "inputs": [],
      "name": "redistributeTax",
      "outputs": [],
      "stateMutability": "nonpayable",
      "type": "function"
    },
    {
      "inputs": [],
      "name": "symbol",
      "outputs": [
        {
          "internalType": "string",
          "name": "",
          "type": "string"
        }
      ],
      "stateMutability": "view",
      "type": "function"
    },
    {
      "inputs": [
        {
          "internalType": "address",
          "name": "",
          "type": "address"
        }
      ],
      "name": "tokenHolderIndex",
      "outputs": [
        {
          "internalType": "uint256",
          "name": "",
          "type": "uint256"
        }
      ],
      "stateMutability": "view",
      "type": "function"
    },
    {
      "inputs": [
        {
          "internalType": "uint256",
          "name": "",
          "type": "uint256"
        }
      ],
      "name": "tokenHolders",
      "outputs": [
        {
          "internalType": "address",
          "name": "",
          "type": "address"
        }
      ],
      "stateMutability": "view",
      "type": "function"
    },
    {
      "inputs": [],
      "name": "totalSupply",
      "outputs": [
        {
          "internalType": "uint256",
          "name": "",
          "type": "uint256"
        }
      ],
      "stateMutability": "view",
      "type": "function"
    },
    {
      "inputs": [],
      "name": "totalTaxCollected",
      "outputs": [
        {
          "internalType": "uint256",
          "name": "",
          "type": "uint256"
        }
      ],
      "stateMutability": "view",
      "type": "function"
    },
    {
      "inputs": [
        {
          "internalType": "address",
          "name": "_to",
          "type": "address"
        },
        {
          "internalType": "uint256",
          "name": "_value",
          "type": "uint256"
        }
      ],
      "name": "transfer",
      "outputs": [
        {
          "internalType": "bool",
          "name": "",
          "type": "bool"
        }
      ],
      "stateMutability": "nonpayable",
      "type": "function"
    },
    {
      "inputs": [
        {
          "internalType": "address",
          "name": "_from",
          "type": "address"
        },
        {
          "internalType": "address",
          "name": "_to",
          "type": "address"
        },
        {
          "internalType": "uint256",
          "name": "_value",
          "type": "uint256"
        }
      ],
      "name": "transferFrom",
      "outputs": [
        {
          "internalType": "bool",
          "name": "",
          "type": "bool"
        }
      ],
      "stateMutability": "nonpayable",
      "type": "function"
    },
    {
      "inputs": [
        {
          "internalType": "address",
          "name": "_newAdmin",
          "type": "address"
        }
      ],
      "name": "updateAdmin",
      "outputs": [],
      "stateMutability": "nonpayable",
      "type": "function"
    }
  ],
  "bytecode": "0x608060405234801561001057600080fd5b50612d3e806100206000396000f3fe608060405234801561001057600080fd5b50600436106101215760003560e01c806395d89b41116100ad578063d5abeb0111610071578063d5abeb011461031e578063d8454a821461033c578063dd62ed3e1461035a578063e2f273bd1461038a578063f851a440146103a657610121565b806395d89b411461027a578063a0712d6814610298578063a795575c146102b4578063a9059cbb146102e4578063a9c404e31461031457610121565b80632b9a1d3c116100f45780632b9a1d3c146101c2578063313ce567146101de57806370a08231146101fc5780638da5cb5b1461022c578063923108d91461024a57610121565b806306fdde0314610126578063095ea7b31461014457806318160ddd1461017457806323b872dd14610192575b600080fd5b61012e6103c4565b60405161013b9190611e50565b60405180910390f35b61015e60048036038101906101599190611f1a565b610452565b60405161016b9190611f75565b60405180910390f35b61017c610544565b6040516101899190611f9f565b60405180910390f35b6101ac60048036038101906101a79190611fba565b61054a565b6040516101b99190611f75565b60405180910390f35b6101dc60048036038101906101d7919061217b565b610c81565b005b6101e6611041565b6040516101f3919061224f565b60405180910390f35b6102166004803603810190610211919061226a565b611054565b6040516102239190611f9f565b60405180910390f35b61023461106c565b60405161024191906122a6565b60405180910390f35b610264600480360381019061025f91906122c1565b611092565b60405161027191906122a6565b60405180910390f35b6102826110d1565b60405161028f9190611e50565b60405180910390f35b6102b260048036038101906102ad91906122c1565b61115f565b005b6102ce60048036038101906102c9919061226a565b6112e6565b6040516102db9190611f9f565b60405180910390f35b6102fe60048036038101906102f99190611f1a565b6112fe565b60405161030b9190611f75565b60405180910390f35b61031c6118e2565b005b610326611c72565b6040516103339190611f9f565b60405180910390f35b610344611c78565b6040516103519190611f9f565b60405180910390f35b610374600480360381019061036f91906122ee565b611c7e565b6040516103819190611f9f565b60405180910390f35b6103a4600480360381019061039f919061226a565b611ca3565b005b6103ae611d77565b6040516103bb91906122a6565b60405180910390f35b600180546103d19061235d565b80601f01602080910402602001604051908101604052809291908181526020018280546103fd9061235d565b801561044a5780601f1061041f5761010080835404028352916020019161044a565b820191906000526020600020905b81548152906001019060200180831161042d57829003601f168201915b505050505081565b600081600860003373ffffffffffffffffffffffffffffffffffffffff1673ffffffffffffffffffffffffffffffffffffffff16815260200190815260200160002060008573ffffffffffffffffffffffffffffffffffffffff1673ffffffffffffffffffffffffffffffffffffffff168152602001908152602001600020819055508273ffffffffffffffffffffffffffffffffffffffff163373ffffffffffffffffffffffffffffffffffffffff167f8c5be1e5ebec7d5bd14f71427d1e84f3dd0314c0f7b2291e5b200ac8c7c3b925846040516105329190611f9f565b60405180910390a36001905092915050565b60045481565b60008073ffffffffffffffffffffffffffffffffffffffff168373ffffffffffffffffffffffffffffffffffffffff16036105ba576040517f08c379a00000000000000000000000000000000000000000000000000000000081526004016105b1906123da565b60405180910390fd5b600082116105fd576040517f08c379a00000000000000000000000000000000000000000000000000000000081526004016105f490612446565b60405180910390fd5b81600760008673ffffffffffffffffffffffffffffffffffffffff1673ffffffffffffffffffffffffffffffffffffffff16815260200190815260200160002054101561067f576040517f08c379a0000000000000000000000000000000000000000000000000000000008152600401610676906124b2565b60405180910390fd5b81600860008673ffffffffffffffffffffffffffffffffffffffff1673ffffffffffffffffffffffffffffffffffffffff16815260200190815260200160002060003373ffffffffffffffffffffffffffffffffffffffff1673ffffffffffffffffffffffffffffffffffffffff16815260200190815260200160002054101561073e576040517f08c379a00000000000000000000000000000000000000000000000000000000081526004016107359061251e565b60405180910390fd5b6000606460095484610750919061256d565b61075a91906125de565b90506000818461076a919061260f565b905083600760008873ffffffffffffffffffffffffffffffffffffffff1673ffffffffffffffffffffffffffffffffffffffff16815260200190815260200160002060008282546107bb919061260f565b9250508190555080600760008773ffffffffffffffffffffffffffffffffffffffff1673ffffffffffffffffffffffffffffffffffffffff16815260200190815260200160002060008282546108119190612643565b9250508190555083600860008873ffffffffffffffffffffffffffffffffffffffff1673ffffffffffffffffffffffffffffffffffffffff16815260200190815260200160002060003373ffffffffffffffffffffffffffffffffffffffff1673ffffffffffffffffffffffffffffffffffffffff16815260200190815260200160002060008282546108a4919061260f565b925050819055506002826108b891906125de565b600d60008282546108c99190612643565b9250508190555080600760008773ffffffffffffffffffffffffffffffffffffffff1673ffffffffffffffffffffffffffffffffffffffff1681526020019081526020016000205414801561095d57506000600c60008773ffffffffffffffffffffffffffffffffffffffff1673ffffffffffffffffffffffffffffffffffffffff16815260200190815260200160002054145b15610a1b57600b859080600181540180825580915050600190039060005260206000200160009091909190916101000a81548173ffffffffffffffffffffffffffffffffffffffff021916908373ffffffffffffffffffffffffffffffffffffffff1602179055506001600b805490506109d7919061260f565b600c60008773ffffffffffffffffffffffffffffffffffffffff1673ffffffffffffffffffffffffffffffffffffffff168152602001908152602001600020819055505b8473ffffffffffffffffffffffffffffffffffffffff168673ffffffffffffffffffffffffffffffffffffffff167fddf252ad1be2c89b69c2b068fc378daa952ba7f163c4a11628f55a4df523b3ef83604051610a789190611f9f565b60405180910390a36000821115610c7457600282610a9691906125de565b60076000600a60009054906101000a900473ffffffffffffffffffffffffffffffffffffffff1673ffffffffffffffffffffffffffffffffffffffff1673ffffffffffffffffffffffffffffffffffffffff1681526020019081526020016000206000828254610b069190612643565b92505081905550600282610b1a91906125de565b600760003073ffffffffffffffffffffffffffffffffffffffff1673ffffffffffffffffffffffffffffffffffffffff1681526020019081526020016000206000828254610b689190612643565b925050819055503073ffffffffffffffffffffffffffffffffffffffff168673ffffffffffffffffffffffffffffffffffffffff167fddf252ad1be2c89b69c2b068fc378daa952ba7f163c4a11628f55a4df523b3ef600285610bcb91906125de565b604051610bd89190611f9f565b60405180910390a3600a60009054906101000a900473ffffffffffffffffffffffffffffffffffffffff1673ffffffffffffffffffffffffffffffffffffffff168673ffffffffffffffffffffffffffffffffffffffff167fddf252ad1be2c89b69c2b068fc378daa952ba7f163c4a11628f55a4df523b3ef600285610c5e91906125de565b604051610c6b9190611f9f565b60405180910390a35b6001925050509392505050565b60008060019054906101000a900460ff16159050808015610cb25750600160008054906101000a900460ff1660ff16105b80610cdf5750610cc130611d9d565b158015610cde5750600160008054906101000a900460ff1660ff16145b5b610d1e576040517f08c379a0000000000000000000000000000000000000000000000000000000008152600401610d15906126e9565b60405180910390fd5b60016000806101000a81548160ff021916908360ff1602179055508015610d5b576001600060016101000a81548160ff0219169083151502179055505b8660019081610d6a91906128b5565b508560029081610d7a91906128b5565b5084600360006101000a81548160ff021916908360ff160217905550678ac7230489e8000083610daa919061256d565b600581905550678ac7230489e8000082610dc4919061256d565b600481905550678ac7230489e80000600454610de0919061256d565b600760003373ffffffffffffffffffffffffffffffffffffffff1673ffffffffffffffffffffffffffffffffffffffff16815260200190815260200160002081905550836009819055503373ffffffffffffffffffffffffffffffffffffffff16600073ffffffffffffffffffffffffffffffffffffffff167fddf252ad1be2c89b69c2b068fc378daa952ba7f163c4a11628f55a4df523b3ef678ac7230489e80000600454610e90919061256d565b604051610e9d9190611f9f565b60405180910390a333600a60006101000a81548173ffffffffffffffffffffffffffffffffffffffff021916908373ffffffffffffffffffffffffffffffffffffffff16021790555033600660006101000a81548173ffffffffffffffffffffffffffffffffffffffff021916908373ffffffffffffffffffffffffffffffffffffffff160217905550600b339080600181540180825580915050600190039060005260206000200160009091909190916101000a81548173ffffffffffffffffffffffffffffffffffffffff021916908373ffffffffffffffffffffffffffffffffffffffff1602179055506001600b80549050610f9c919061260f565b600c60003373ffffffffffffffffffffffffffffffffffffffff1673ffffffffffffffffffffffffffffffffffffffff1681526020019081526020016000208190555080156110385760008060016101000a81548160ff0219169083151502179055507f7f26b83ff96e1f2b6a682f133852f6798a09c465da95921460cefb3847402498600160405161102f91906129c2565b60405180910390a15b50505050505050565b600360009054906101000a900460ff1681565b60076020528060005260406000206000915090505481565b600660009054906101000a900473ffffffffffffffffffffffffffffffffffffffff1681565b600b81815481106110a257600080fd5b906000526020600020016000915054906101000a900473ffffffffffffffffffffffffffffffffffffffff1681565b600280546110de9061235d565b80601f016020809104026020016040519081016040528092919081815260200182805461110a9061235d565b80156111575780601f1061112c57610100808354040283529160200191611157565b820191906000526020600020905b81548152906001019060200180831161113a57829003601f168201915b505050505081565b600660009054906101000a900473ffffffffffffffffffffffffffffffffffffffff1673ffffffffffffffffffffffffffffffffffffffff163373ffffffffffffffffffffffffffffffffffffffff16146111ef576040517f08c379a00000000000000000000000000000000000000000000000000000000081526004016111e690612a4f565b60405180910390fd5b600554816004546112009190612643565b1115611241576040517f08c379a000000000000000000000000000000000000000000000000000000000815260040161123890612abb565b60405180910390fd5b6004548161124f9190612643565b60048190555080600760003373ffffffffffffffffffffffffffffffffffffffff1673ffffffffffffffffffffffffffffffffffffffff168152602001908152602001600020546112a09190612643565b600760003373ffffffffffffffffffffffffffffffffffffffff1673ffffffffffffffffffffffffffffffffffffffff1681526020019081526020016000208190555050565b600c6020528060005260406000206000915090505481565b60008073ffffffffffffffffffffffffffffffffffffffff168373ffffffffffffffffffffffffffffffffffffffff160361136e576040517f08c379a0000000000000000000000000000000000000000000000000000000008152600401611365906123da565b60405180910390fd5b600082116113b1576040517f08c379a00000000000000000000000000000000000000000000000000000000081526004016113a890612446565b60405180910390fd5b81600760003373ffffffffffffffffffffffffffffffffffffffff1673ffffffffffffffffffffffffffffffffffffffff168152602001908152602001600020541015611433576040517f08c379a000000000000000000000000000000000000000000000000000000000815260040161142a906124b2565b60405180910390fd5b6000606460095484611445919061256d565b61144f91906125de565b90506000818461145f919061260f565b905083600760003373ffffffffffffffffffffffffffffffffffffffff1673ffffffffffffffffffffffffffffffffffffffff16815260200190815260200160002060008282546114b0919061260f565b9250508190555080600760008773ffffffffffffffffffffffffffffffffffffffff1673ffffffffffffffffffffffffffffffffffffffff16815260200190815260200160002060008282546115069190612643565b9250508190555060028261151a91906125de565b600d600082825461152b9190612643565b9250508190555080600760008773ffffffffffffffffffffffffffffffffffffffff1673ffffffffffffffffffffffffffffffffffffffff168152602001908152602001600020541480156115bf57506000600c60008773ffffffffffffffffffffffffffffffffffffffff1673ffffffffffffffffffffffffffffffffffffffff16815260200190815260200160002054145b1561167d57600b859080600181540180825580915050600190039060005260206000200160009091909190916101000a81548173ffffffffffffffffffffffffffffffffffffffff021916908373ffffffffffffffffffffffffffffffffffffffff1602179055506001600b80549050611639919061260f565b600c60008773ffffffffffffffffffffffffffffffffffffffff1673ffffffffffffffffffffffffffffffffffffffff168152602001908152602001600020819055505b8473ffffffffffffffffffffffffffffffffffffffff163373ffffffffffffffffffffffffffffffffffffffff167fddf252ad1be2c89b69c2b068fc378daa952ba7f163c4a11628f55a4df523b3ef836040516116da9190611f9f565b60405180910390a360008211156118d6576002826116f891906125de565b60076000600a60009054906101000a900473ffffffffffffffffffffffffffffffffffffffff1673ffffffffffffffffffffffffffffffffffffffff1673ffffffffffffffffffffffffffffffffffffffff16815260200190815260200160002060008282546117689190612643565b9250508190555060028261177c91906125de565b600760003073ffffffffffffffffffffffffffffffffffffffff1673ffffffffffffffffffffffffffffffffffffffff16815260200190815260200160002060008282546117ca9190612643565b925050819055503073ffffffffffffffffffffffffffffffffffffffff163373ffffffffffffffffffffffffffffffffffffffff167fddf252ad1be2c89b69c2b068fc378daa952ba7f163c4a11628f55a4df523b3ef60028561182d91906125de565b60405161183a9190611f9f565b60405180910390a3600a60009054906101000a900473ffffffffffffffffffffffffffffffffffffffff1673ffffffffffffffffffffffffffffffffffffffff163373ffffffffffffffffffffffffffffffffffffffff167fddf252ad1be2c89b69c2b068fc378daa952ba7f163c4a11628f55a4df523b3ef6002856118c091906125de565b6040516118cd9190611f9f565b60405180910390a35b60019250505092915050565b600660009054906101000a900473ffffffffffffffffffffffffffffffffffffffff1673ffffffffffffffffffffffffffffffffffffffff163373ffffffffffffffffffffffffffffffffffffffff1614611972576040517f08c379a000000000000000000000000000000000000000000000000000000000815260040161196990612a4f565b60405180910390fd5b6000600760003073ffffffffffffffffffffffffffffffffffffffff1673ffffffffffffffffffffffffffffffffffffffff16815260200190815260200160002054116119f4576040517f08c379a00000000000000000000000000000000000000000000000000000000081526004016119eb90612b4d565b60405180910390fd5b6000600b8054905011611a3c576040517f08c379a0000000000000000000000000000000000000000000000000000000008152600401611a3390612bdf565b60405180910390fd5b6000600760003073ffffffffffffffffffffffffffffffffffffffff1673ffffffffffffffffffffffffffffffffffffffff16815260200190815260200160002054905060005b600b80549050811015611bff576000600b8281548110611aa657611aa5612bff565b5b9060005260206000200160009054906101000a900473ffffffffffffffffffffffffffffffffffffffff169050600060045484600760008573ffffffffffffffffffffffffffffffffffffffff1673ffffffffffffffffffffffffffffffffffffffff16815260200190815260200160002054611b23919061256d565b611b2d91906125de565b905080600760008473ffffffffffffffffffffffffffffffffffffffff1673ffffffffffffffffffffffffffffffffffffffff1681526020019081526020016000206000828254611b7e9190612643565b925050819055508173ffffffffffffffffffffffffffffffffffffffff163073ffffffffffffffffffffffffffffffffffffffff167fddf252ad1be2c89b69c2b068fc378daa952ba7f163c4a11628f55a4df523b3ef83604051611be29190611f9f565b60405180910390a350508080611bf790612c2e565b915050611a83565b5080600760003073ffffffffffffffffffffffffffffffffffffffff1673ffffffffffffffffffffffffffffffffffffffff1681526020019081526020016000206000828254611c4f919061260f565b9250508190555080600d6000828254611c68919061260f565b9250508190555050565b60055481565b600d5481565b6008602052816000526040600020602052806000526040600020600091509150505481565b600660009054906101000a900473ffffffffffffffffffffffffffffffffffffffff1673ffffffffffffffffffffffffffffffffffffffff163373ffffffffffffffffffffffffffffffffffffffff1614611d33576040517f08c379a0000000000000000000000000000000000000000000000000000000008152600401611d2a90612ce8565b60405180910390fd5b80600a60006101000a81548173ffffffffffffffffffffffffffffffffffffffff021916908373ffffffffffffffffffffffffffffffffffffffff16021790555050565b600a60009054906101000a900473ffffffffffffffffffffffffffffffffffffffff1681565b6000808273ffffffffffffffffffffffffffffffffffffffff163b119050919050565b600081519050919050565b600082825260208201905092915050565b60005b83811015611dfa578082015181840152602081019050611ddf565b60008484015250505050565b6000601f19601f8301169050919050565b6000611e2282611dc0565b611e2c8185611dcb565b9350611e3c818560208601611ddc565b611e4581611e06565b840191505092915050565b60006020820190508181036000830152611e6a8184611e17565b905092915050565b6000604051905090565b600080fd5b600080fd5b600073ffffffffffffffffffffffffffffffffffffffff82169050919050565b6000611eb182611e86565b9050919050565b611ec181611ea6565b8114611ecc57600080fd5b50565b600081359050611ede81611eb8565b92915050565b6000819050919050565b611ef781611ee4565b8114611f0257600080fd5b50565b600081359050611f1481611eee565b92915050565b60008060408385031215611f3157611f30611e7c565b5b6000611f3f85828601611ecf565b9250506020611f5085828601611f05565b9150509250929050565b60008115159050919050565b611f6f81611f5a565b82525050565b6000602082019050611f8a6000830184611f66565b92915050565b611f9981611ee4565b82525050565b6000602082019050611fb46000830184611f90565b92915050565b600080600060608486031215611fd357611fd2611e7c565b5b6000611fe186828701611ecf565b9350506020611ff286828701611ecf565b925050604061200386828701611f05565b9150509250925092565b600080fd5b600080fd5b7f4e487b7100000000000000000000000000000000000000000000000000000000600052604160045260246000fd5b61204f82611e06565b810181811067ffffffffffffffff8211171561206e5761206d612017565b5b80604052505050565b6000612081611e72565b905061208d8282612046565b919050565b600067ffffffffffffffff8211156120ad576120ac612017565b5b6120b682611e06565b9050602081019050919050565b82818337600083830152505050565b60006120e56120e084612092565b612077565b90508281526020810184848401111561210157612100612012565b5b61210c8482856120c3565b509392505050565b600082601f8301126121295761212861200d565b5b81356121398482602086016120d2565b91505092915050565b600060ff82169050919050565b61215881612142565b811461216357600080fd5b50565b6000813590506121758161214f565b92915050565b60008060008060008060c0878903121561219857612197611e7c565b5b600087013567ffffffffffffffff8111156121b6576121b5611e81565b5b6121c289828a01612114565b965050602087013567ffffffffffffffff8111156121e3576121e2611e81565b5b6121ef89828a01612114565b955050604061220089828a01612166565b945050606061221189828a01611f05565b935050608061222289828a01611f05565b92505060a061223389828a01611f05565b9150509295509295509295565b61224981612142565b82525050565b60006020820190506122646000830184612240565b92915050565b6000602082840312156122805761227f611e7c565b5b600061228e84828501611ecf565b91505092915050565b6122a081611ea6565b82525050565b60006020820190506122bb6000830184612297565b92915050565b6000602082840312156122d7576122d6611e7c565b5b60006122e584828501611f05565b91505092915050565b6000806040838503121561230557612304611e7c565b5b600061231385828601611ecf565b925050602061232485828601611ecf565b9150509250929050565b7f4e487b7100000000000000000000000000000000000000000000000000000000600052602260045260246000fd5b6000600282049050600182168061237557607f821691505b6020821081036123885761238761232e565b5b50919050565b7f496e76616c696420726563697069656e74000000000000000000000000000000600082015250565b60006123c4601183611dcb565b91506123cf8261238e565b602082019050919050565b600060208201905081810360008301526123f3816123b7565b9050919050565b7f496e76616c6964207472616e7366657220616d6f756e74000000000000000000600082015250565b6000612430601783611dcb565b915061243b826123fa565b602082019050919050565b6000602082019050818103600083015261245f81612423565b9050919050565b7f496e73756666696369656e742062616c616e6365000000000000000000000000600082015250565b600061249c601483611dcb565b91506124a782612466565b602082019050919050565b600060208201905081810360008301526124cb8161248f565b9050919050565b7f496e73756666696369656e7420616c6c6f77616e636500000000000000000000600082015250565b6000612508601683611dcb565b9150612513826124d2565b602082019050919050565b60006020820190508181036000830152612537816124fb565b9050919050565b7f4e487b7100000000000000000000000000000000000000000000000000000000600052601160045260246000fd5b600061257882611ee4565b915061258383611ee4565b925082820261259181611ee4565b915082820484148315176125a8576125a761253e565b5b5092915050565b7f4e487b7100000000000000000000000000000000000000000000000000000000600052601260045260246000fd5b60006125e982611ee4565b91506125f483611ee4565b925082612604576126036125af565b5b828204905092915050565b600061261a82611ee4565b915061262583611ee4565b925082820390508181111561263d5761263c61253e565b5b92915050565b600061264e82611ee4565b915061265983611ee4565b92508282019050808211156126715761267061253e565b5b92915050565b7f496e697469616c697a61626c653a20636f6e747261637420697320616c72656160008201527f647920696e697469616c697a6564000000000000000000000000000000000000602082015250565b60006126d3602e83611dcb565b91506126de82612677565b604082019050919050565b60006020820190508181036000830152612702816126c6565b9050919050565b60008190508160005260206000209050919050565b60006020601f8301049050919050565b600082821b905092915050565b60006008830261276b7fffffffffffffffffffffffffffffffffffffffffffffffffffffffffffffffff8261272e565b612775868361272e565b95508019841693508086168417925050509392505050565b6000819050919050565b60006127b26127ad6127a884611ee4565b61278d565b611ee4565b9050919050565b6000819050919050565b6127cc83612797565b6127e06127d8826127b9565b84845461273b565b825550505050565b600090565b6127f56127e8565b6128008184846127c3565b505050565b5b81811015612824576128196000826127ed565b600181019050612806565b5050565b601f8211156128695761283a81612709565b6128438461271e565b81016020851015612852578190505b61286661285e8561271e565b830182612805565b50505b505050565b600082821c905092915050565b600061288c6000198460080261286e565b1980831691505092915050565b60006128a5838361287b565b9150826002028217905092915050565b6128be82611dc0565b67ffffffffffffffff8111156128d7576128d6612017565b5b6128e1825461235d565b6128ec828285612828565b600060209050601f83116001811461291f576000841561290d578287015190505b6129178582612899565b86555061297f565b601f19841661292d86612709565b60005b8281101561295557848901518255600182019150602085019450602081019050612930565b86831015612972578489015161296e601f89168261287b565b8355505b6001600288020188555050505b505050505050565b6000819050919050565b60006129ac6129a76129a284612987565b61278d565b612142565b9050919050565b6129bc81612991565b82525050565b60006020820190506129d760008301846129b3565b92915050565b7f4f6e6c79204f776e65722043616e2043616c6c20546869732046756e6374696f60008201527f6e00000000000000000000000000000000000000000000000000000000000000602082015250565b6000612a39602183611dcb565b9150612a44826129dd565b604082019050919050565b60006020820190508181036000830152612a6881612a2c565b9050919050565b7f416d6f756e7420457863656564206d6178696d6d756d20737570706c79000000600082015250565b6000612aa5601d83611dcb565b9150612ab082612a6f565b602082019050919050565b60006020820190508181036000830152612ad481612a98565b9050919050565b7f4e6f2074617820617661696c61626c6520666f7220726564697374726962757460008201527f696f6e0000000000000000000000000000000000000000000000000000000000602082015250565b6000612b37602383611dcb565b9150612b4282612adb565b604082019050919050565b60006020820190508181036000830152612b6681612b2a565b9050919050565b7f4e6f20746f6b656e20686f6c6465727320746f2072656469737472696275746560008201527f20746f0000000000000000000000000000000000000000000000000000000000602082015250565b6000612bc9602383611dcb565b9150612bd482612b6d565b604082019050919050565b60006020820190508181036000830152612bf881612bbc565b9050919050565b7f4e487b7100000000000000000000000000000000000000000000000000000000600052603260045260246000fd5b6000612c3982611ee4565b91507fffffffffffffffffffffffffffffffffffffffffffffffffffffffffffffffff8203612c6b57612c6a61253e565b5b600182019050919050565b7f4f6e6c79206f776e65722063616e2063616c6c20746869732066756e6374696f60008201527f6e00000000000000000000000000000000000000000000000000000000000000602082015250565b6000612cd2602183611dcb565b9150612cdd82612c76565b604082019050919050565b60006020820190508181036000830152612d0181612cc5565b905091905056fea264697066735822122094e49d4e000d0f3bb81c9f32e651c68aff582eb3b3cff1f298b94d12433203d164736f6c63430008120033",
  "linkReferences": {},
  "deployedLinkReferences": {}
}