{"contracts/hamsterMarketPlaceV2.sol":{"HamsterMarketPlaceV2":{"abi":[{"anonymous":false,"inputs":[{"indexed":true,"internalType":"address","name":"collection","type":"address"}],"name":"AddNewCollectionEvent","type":"event"},{"anonymous":false,"inputs":[{"indexed":true,"internalType":"address","name":"collection","type":"address"},{"indexed":true,"internalType":"address","name":"_from","type":"address"},{"indexed":true,"internalType":"address","name":"_to","type":"address"},{"indexed":false,"internalType":"uint256","name":"_tokenID","type":"uint256"},{"indexed":false,"internalType":"uint256","name":"_price","type":"uint256"}],"name":"BuyNFTEvent","type":"event"},{"anonymous":false,"inputs":[{"indexed":true,"internalType":"address","name":"collection","type":"address"},{"indexed":true,"internalType":"uint256","name":"_tokenID","type":"uint256"}],"name":"DelistNFTEvent","type":"event"},{"anonymous":false,"inputs":[{"indexed":true,"internalType":"address","name":"collection","type":"address"},{"indexed":true,"internalType":"uint256","name":"_tokenID","type":"uint256"},{"indexed":false,"internalType":"uint256","name":"_price","type":"uint256"}],"name":"EditNFTPriceEvent","type":"event"},{"anonymous":false,"inputs":[{"indexed":false,"internalType":"uint8","name":"version","type":"uint8"}],"name":"Initialized","type":"event"},{"anonymous":false,"inputs":[{"indexed":true,"internalType":"address","name":"collection","type":"address"},{"indexed":true,"internalType":"address","name":"_from","type":"address"},{"indexed":false,"internalType":"uint256","name":"_tokenID","type":"uint256"},{"indexed":false,"internalType":"uint256","name":"_price","type":"uint256"}],"name":"ListNFTEvent","type":"event"},{"anonymous":false,"inputs":[{"indexed":true,"internalType":"address","name":"previousOwner","type":"address"},{"indexed":true,"internalType":"address","name":"newOwner","type":"address"}],"name":"OwnershipTransferred","type":"event"},{"anonymous":false,"inputs":[{"indexed":false,"internalType":"string","name":"message","type":"string"}],"name":"TestingEvent","type":"event"},{"inputs":[{"internalType":"address","name":"_contractAddress","type":"address"},{"internalType":"uint256","name":"_tokenID","type":"uint256"}],"name":"BuyNFT","outputs":[],"stateMutability":"payable","type":"function"},{"inputs":[],"name":"COMMISSION","outputs":[{"internalType":"uint256","name":"","type":"uint256"}],"stateMutability":"view","type":"function"},{"inputs":[{"internalType":"address","name":"_contractAddress","type":"address"},{"internalType":"uint256","name":"_tokenID","type":"uint256"}],"name":"DelistNFT","outputs":[],"stateMutability":"nonpayable","type":"function"},{"inputs":[{"internalType":"address","name":"_contractAddress","type":"address"},{"internalType":"uint256","name":"_tokenID","type":"uint256"},{"internalType":"uint256","name":"_price","type":"uint256"}],"name":"EditNFtPrice","outputs":[],"stateMutability":"nonpayable","type":"function"},{"inputs":[{"internalType":"address","name":"_contractAddress","type":"address"},{"internalType":"uint256","name":"_tokenID","type":"uint256"},{"internalType":"uint256","name":"_price","type":"uint256"}],"name":"ListNFt","outputs":[],"stateMutability":"nonpayable","type":"function"},{"inputs":[{"internalType":"address","name":"_contractAddress","type":"address"}],"name":"addNFTCollection","outputs":[],"stateMutability":"nonpayable","type":"function"},{"inputs":[],"name":"getHistory","outputs":[{"components":[{"internalType":"address","name":"owner","type":"address"},{"internalType":"address","name":"contractAddress","type":"address"},{"internalType":"uint256","name":"tokenID","type":"uint256"},{"internalType":"uint256","name":"price","type":"uint256"},{"internalType":"string","name":"action","type":"string"}],"internalType":"struct HamsterMarketPlaceV2.Log[]","name":"","type":"tuple[]"}],"stateMutability":"view","type":"function"},{"inputs":[],"name":"getListed","outputs":[{"components":[{"internalType":"address","name":"contractAddress","type":"address"},{"internalType":"address","name":"owner","type":"address"},{"internalType":"bool","name":"isAvailable","type":"bool"},{"internalType":"uint256","name":"price","type":"uint256"},{"internalType":"uint256","name":"tokenID","type":"uint256"}],"internalType":"struct HamsterMarketPlaceV2.NFTListing[]","name":"","type":"tuple[]"}],"stateMutability":"view","type":"function"},{"inputs":[{"internalType":"address[]","name":"_validNFTContracts","type":"address[]"},{"internalType":"address payable","name":"_commissionAddress","type":"address"}],"name":"initialize","outputs":[],"stateMutability":"nonpayable","type":"function"},{"inputs":[{"internalType":"address","name":"contractAddress","type":"address"}],"name":"isValidNFTContracts","outputs":[{"internalType":"bool","name":"","type":"bool"}],"stateMutability":"view","type":"function"},{"inputs":[{"internalType":"address","name":"","type":"address"},{"internalType":"uint256","name":"","type":"uint256"}],"name":"marketPlaceListing","outputs":[{"internalType":"address","name":"contractAddress","type":"address"},{"internalType":"address","name":"owner","type":"address"},{"internalType":"bool","name":"isAvailable","type":"bool"},{"internalType":"uint256","name":"price","type":"uint256"},{"internalType":"uint256","name":"tokenID","type":"uint256"}],"stateMutability":"view","type":"function"},{"inputs":[],"name":"owner","outputs":[{"internalType":"address","name":"","type":"address"}],"stateMutability":"view","type":"function"},{"inputs":[],"name":"renounceOwnership","outputs":[],"stateMutability":"nonpayable","type":"function"},{"inputs":[],"name":"testingFunction","outputs":[],"stateMutability":"nonpayable","type":"function"},{"inputs":[{"internalType":"address","name":"newOwner","type":"address"}],"name":"transferOwnership","outputs":[],"stateMutability":"nonpayable","type":"function"}],"evm":{"bytecode":{"linkReferences":{},"object":"608060405234801561001057600080fd5b506127a9806100206000396000f3fe6080604052600436106100e85760003560e01c806377b3cc9a1161008a578063aa15efc811610059578063aa15efc8146102da578063bb14a4a7146102fc578063ccc0714a1461031c578063f2fde38b1461032f57600080fd5b806377b3cc9a146102505780638773e08c146102725780638da5cb5b14610292578063a12e5a46146102ba57600080fd5b8063562df3d5116100c6578063562df3d5146101d3578063623b2c66146101f65780636e763f7b14610226578063715018a61461023b57600080fd5b806330002eef146100ed5780633068ec7b1461010f578063462d0b2e146101b3575b600080fd5b3480156100f957600080fd5b5061010d610108366004612263565b61034f565b005b34801561011b57600080fd5b5061017561012a366004612287565b609860209081526000928352604080842090915290825290208054600182015460028301546003909301546001600160a01b039283169392821692600160a01b90920460ff16919085565b604080516001600160a01b039687168152959094166020860152911515928401929092526060830191909152608082015260a0015b60405180910390f35b3480156101bf57600080fd5b5061010d6101ce3660046122c9565b610472565b3480156101df57600080fd5b506101e8600581565b6040519081526020016101aa565b34801561020257600080fd5b50610216610211366004612263565b6106e8565b60405190151581526020016101aa565b34801561023257600080fd5b5061010d610752565b34801561024757600080fd5b5061010d6107bb565b34801561025c57600080fd5b506102656107cf565b6040516101aa91906123a0565b34801561027e57600080fd5b5061010d61028d36600461241c565b610870565b34801561029e57600080fd5b506033546040516001600160a01b0390911681526020016101aa565b3480156102c657600080fd5b5061010d6102d5366004612287565b610e68565b3480156102e657600080fd5b506102ef611154565b6040516101aa9190612451565b34801561030857600080fd5b5061010d61031736600461241c565b611274565b61010d61032a366004612287565b611711565b34801561033b57600080fd5b5061010d61034a366004612263565b611ca3565b610357611d1c565b6001600160a01b0381166103a45760405162461bcd60e51b815260206004820152600f60248201526e496e76616c6964206164647265737360881b60448201526064015b60405180910390fd5b6103ad816106e8565b156103fa5760405162461bcd60e51b815260206004820152601e60248201527f436f6e747261637420616c726561647920616464656420696e206c6973740000604482015260640161039b565b609b805460018101825560009182527fbba9db4cdbea0a37c207bbb83e20f828cd4441c49891101dc94fd20dc8efc3490180546001600160a01b0319166001600160a01b03841690811790915560405190917f346170e17c5503e2745c300363be112f4023be046f20d3b0e51fbe552827d47191a250565b600054610100900460ff16158080156104925750600054600160ff909116105b806104ac5750303b1580156104ac575060005460ff166001145b61050f5760405162461bcd60e51b815260206004820152602e60248201527f496e697469616c697a61626c653a20636f6e747261637420697320616c72656160448201526d191e481a5b9a5d1a585b1a5e995960921b606482015260840161039b565b6000805460ff191660011790558015610532576000805461ff0019166101001790555b61053a611d76565b610542611da5565b6001600160a01b0382166105985760405162461bcd60e51b815260206004820152601a60248201527f496e76616c696420636f6d6d697373696f6e2061646472657373000000000000604482015260640161039b565b609780546001600160a01b0319166001600160a01b03841617905560005b835181101561069c5760006001600160a01b03168482815181106105dc576105dc61252f565b60200260200101516001600160a01b0316141561063b5760405162461bcd60e51b815260206004820152601860248201527f496e76616c696420636f6e747261637420616464726573730000000000000000604482015260640161039b565b609b84828151811061064f5761064f61252f565b60209081029190910181015182546001810184556000938452919092200180546001600160a01b0319166001600160a01b03909216919091179055806106948161255b565b9150506105b6565b5080156106e3576000805461ff0019169055604051600181527f7f26b83ff96e1f2b6a682f133852f6798a09c465da95921460cefb38474024989060200160405180910390a15b505050565b6000805b609b5481101561074957826001600160a01b0316609b82815481106107135761071361252f565b6000918252602090912001546001600160a01b031614156107375750600192915050565b806107418161255b565b9150506106ec565b50600092915050565b7f18b6ba345500d989da5f5decc99fd8dead5c03cd82593405684084be05a8d1786040516107b1906020808252601d908201527f54686973206973206120746573742066756e6374696f6e20696e205632000000604082015260600190565b60405180910390a1565b6107c3611d1c565b6107cd6000611dd4565b565b60606099805480602002602001604051908101604052809291908181526020016000905b828210156108675760008481526020908190206040805160a0810182526004860290920180546001600160a01b03908116845260018083015491821685870152600160a01b90910460ff161515928401929092526002810154606084015260030154608083015290835290920191016107f3565b50505050905090565b610878611e26565b6001600160a01b0383166000908152609860209081526040808320858452909152902060010154600160a01b900460ff16156108f65760405162461bcd60e51b815260206004820152601a60248201527f54686973204e465420697320616c7265616479206c6973746564000000000000604482015260640161039b565b82610900816106e8565b61091c5760405162461bcd60e51b815260040161039b90612576565b6040516331a9108f60e11b81526004810184905233906001600160a01b03831690636352211e9060240160206040518083038186803b15801561095e57600080fd5b505afa158015610972573d6000803e3d6000fd5b505050506040513d601f19601f8201168201806040525081019061099691906125c6565b6001600160a01b0316146109bc5760405162461bcd60e51b815260040161039b906125e3565b60405163020604bf60e21b81526004810184905230906001600160a01b0383169063081812fc9060240160206040518083038186803b1580156109fe57600080fd5b505afa158015610a12573d6000803e3d6000fd5b505050506040513d601f19601f82011682018060405250810190610a3691906125c6565b6001600160a01b031614610a5c5760405162461bcd60e51b815260040161039b90612612565b8360986000866001600160a01b03166001600160a01b03168152602001908152602001600020600085815260200190815260200160002060000160006101000a8154816001600160a01b0302191690836001600160a01b03160217905550600160986000866001600160a01b03166001600160a01b03168152602001908152602001600020600085815260200190815260200160002060010160146101000a81548160ff0219169083151502179055503360986000866001600160a01b03166001600160a01b03168152602001908152602001600020600085815260200190815260200160002060010160006101000a8154816001600160a01b0302191690836001600160a01b031602179055508160986000866001600160a01b03166001600160a01b031681526020019081526020016000206000858152602001908152602001600020600201819055508260986000866001600160a01b03166001600160a01b03168152602001908152602001600020600085815260200190815260200160002060030181905550609960986000866001600160a01b03166001600160a01b03168152602001908152602001600020600085815260200190815260200160002090806001815401808255809150506001900390600052602060002090600402016000909190919091506000820160009054906101000a90046001600160a01b03168160000160006101000a8154816001600160a01b0302191690836001600160a01b031602179055506001820160009054906101000a90046001600160a01b03168160010160006101000a8154816001600160a01b0302191690836001600160a01b031602179055506001820160149054906101000a900460ff168160010160146101000a81548160ff02191690831515021790555060028201548160020155600382015481600301555050609a6040518060a00160405280336001600160a01b03168152602001866001600160a01b0316815260200185815260200184815260200160405180604001604052806004815260200163131a5cdd60e21b815250815250908060018154018082558091505060019003906000526020600020906005020160009091909190915060008201518160000160006101000a8154816001600160a01b0302191690836001600160a01b0316021790555060208201518160010160006101000a8154816001600160a01b0302191690836001600160a01b0316021790555060408201518160020155606082015181600301556080820151816004019080519060200190610e149291906121a5565b505060408051858152602081018590523392506001600160a01b038716917f355c67a44a9e7ad44dbeb878463f794aec6b06c2c96c3f44526cd977acef500e910160405180910390a3506106e36001606555565b610e70611e26565b81610e7a816106e8565b610e965760405162461bcd60e51b815260040161039b90612576565b6040516331a9108f60e11b81526004810183905233906001600160a01b03831690636352211e9060240160206040518083038186803b158015610ed857600080fd5b505afa158015610eec573d6000803e3d6000fd5b505050506040513d601f19601f82011682018060405250810190610f1091906125c6565b6001600160a01b031614610f365760405162461bcd60e51b815260040161039b906125e3565b6001600160a01b0383166000908152609860209081526040808320858452909152902060010154600160a01b900460ff16610f835760405162461bcd60e51b815260040161039b90612656565b6000610f8f8484611e87565b9050610f9a81611f24565b6001600160a01b03808516600081815260986020908152604080832088845282528083206001908101805460ff60a01b19169055815160a0810183523381528084019586528083018a815260608201868152845180860190955260068552651119531a5cdd60d21b8587015260808301948552609a80549485018155909652815160059093027f44da158ba27f9252712a74ff6a55c5d531f69609f1f6e7f17c4443a8e2089be481018054948a166001600160a01b031995861617815597517f44da158ba27f9252712a74ff6a55c5d531f69609f1f6e7f17c4443a8e2089be58201805491909a1694169390931790975595517f44da158ba27f9252712a74ff6a55c5d531f69609f1f6e7f17c4443a8e2089be682015592517f44da158ba27f9252712a74ff6a55c5d531f69609f1f6e7f17c4443a8e2089be784015551805161110b937f44da158ba27f9252712a74ff6a55c5d531f69609f1f6e7f17c4443a8e2089be8019291909101906121a5565b50506040518491506001600160a01b038616907fb13b3fa5a495ffbc07fa282fd9a34e3a9f4f7184ef7e89c47d83a38894f2c2cd90600090a350506111506001606555565b5050565b6060609a805480602002602001604051908101604052809291908181526020016000905b828210156108675760008481526020908190206040805160a0810182526005860290920180546001600160a01b03908116845260018201541693830193909352600283015490820152600382015460608201526004820180549192916080840191906111e39061267f565b80601f016020809104026020016040519081016040528092919081815260200182805461120f9061267f565b801561125c5780601f106112315761010080835404028352916020019161125c565b820191906000526020600020905b81548152906001019060200180831161123f57829003601f168201915b50505050508152505081526020019060010190611178565b61127c611e26565b82611286816106e8565b6112a25760405162461bcd60e51b815260040161039b90612576565b6040516331a9108f60e11b81526004810184905233906001600160a01b03831690636352211e9060240160206040518083038186803b1580156112e457600080fd5b505afa1580156112f8573d6000803e3d6000fd5b505050506040513d601f19601f8201168201806040525081019061131c91906125c6565b6001600160a01b0316146113425760405162461bcd60e51b815260040161039b906125e3565b60405163020604bf60e21b81526004810184905230906001600160a01b0383169063081812fc9060240160206040518083038186803b15801561138457600080fd5b505afa158015611398573d6000803e3d6000fd5b505050506040513d601f19601f820116820180604052508101906113bc91906125c6565b6001600160a01b0316146113e25760405162461bcd60e51b815260040161039b90612612565b6001600160a01b0384166000908152609860209081526040808320868452909152902060010154600160a01b900460ff1661142f5760405162461bcd60e51b815260040161039b90612656565b6001600160a01b038416600090815260986020908152604080832086845290915281206002018390556114628585611e87565b905061146d81611f24565b6001600160a01b038581166000818152609860209081526040808320898452825280832060998054600180820190925582547f72a152ddfb8e864297c917af52ea6c1c68aead0fee1a62673fcc7e0c94979d0060049283029081018054928b166001600160a01b031993841617905583850180547f72a152ddfb8e864297c917af52ea6c1c68aead0fee1a62673fcc7e0c94979d0183018054918d168286168117825592546001600160a81b0319909216909217600160a01b9182900460ff16151590910217905560028501547f72a152ddfb8e864297c917af52ea6c1c68aead0fee1a62673fcc7e0c94979d028201556003909401547f72a152ddfb8e864297c917af52ea6c1c68aead0fee1a62673fcc7e0c94979d0390940193909355835160a0810185523381528086019788528085018d8152606082018d815286518088019097529286526311591a5d60e21b8688015260808201958652609a8054948501815590975280517f44da158ba27f9252712a74ff6a55c5d531f69609f1f6e7f17c4443a8e2089be4600590940293840180548616918b1691909117815597517f44da158ba27f9252712a74ff6a55c5d531f69609f1f6e7f17c4443a8e2089be58401805490951699169890981790925593517f44da158ba27f9252712a74ff6a55c5d531f69609f1f6e7f17c4443a8e2089be6850155517f44da158ba27f9252712a74ff6a55c5d531f69609f1f6e7f17c4443a8e2089be78401555180516116be937f44da158ba27f9252712a74ff6a55c5d531f69609f1f6e7f17c4443a8e2089be8019291909101906121a5565b50505083856001600160a01b03167fd4891e98fa502cb701c2f331397901a048f15a7385581f955ee5f7e1bd59e507856040516116fd91815260200190565b60405180910390a350506106e36001606555565b611719611e26565b6001600160a01b038281166000818152609860209081526040808320868452909152908190206001015490516331a9108f60e11b815260048101859052859391909116918291636352211e9060240160206040518083038186803b15801561178057600080fd5b505afa158015611794573d6000803e3d6000fd5b505050506040513d601f19601f820116820180604052508101906117b891906125c6565b6001600160a01b0316146118035760405162461bcd60e51b81526020600482015260126024820152716e6f74206f776e657220616e79206d6f726560701b604482015260640161039b565b61180c846106e8565b6118285760405162461bcd60e51b815260040161039b90612576565b60405163020604bf60e21b81526004810184905230906001600160a01b0384169063081812fc9060240160206040518083038186803b15801561186a57600080fd5b505afa15801561187e573d6000803e3d6000fd5b505050506040513d601f19601f820116820180604052508101906118a291906125c6565b6001600160a01b0316146118f85760405162461bcd60e51b815260206004820152601c60248201527f4e4654206973206e6f7420617070726f766564206279206f776e657200000000604482015260640161039b565b6001600160a01b0384166000908152609860209081526040808320868452909152902060010154600160a01b900460ff166119455760405162461bcd60e51b815260040161039b90612656565b6001600160a01b038416600090815260986020908152604080832086845290915290206002015434146119cd5760405162461bcd60e51b815260206004820152602a60248201527f596f7520646f6e74206861766520656e6f7567682066756e647320746f2062756044820152691e481d1a1a5cc813919560b21b606482015260840161039b565b600060646119dc6005346126ba565b6119e691906126d9565b905060006119f482346126fb565b6001600160a01b0380881660009081526098602090815260408083208a8452909152902060010154919250611a2a911682612035565b609754611a40906001600160a01b031683612035565b6001600160a01b0386811660009081526098602090815260408083208984529091529081902060010180546001600160a81b031916339081179091559051632142170760e11b81528583166004820152602481019190915260448101879052908516906342842e0e90606401600060405180830381600087803b158015611ac657600080fd5b505af1158015611ada573d6000803e3d6000fd5b505050506000611aea8787611e87565b9050611af581611f24565b6040805160a0810182523381526001600160a01b0389811660208084019182528385018b815234606086019081528651808801909752600387526242757960e81b8784015260808601968752609a8054600181018255600091909152865160059091027f44da158ba27f9252712a74ff6a55c5d531f69609f1f6e7f17c4443a8e2089be4810180549288166001600160a01b031993841617815595517f44da158ba27f9252712a74ff6a55c5d531f69609f1f6e7f17c4443a8e2089be5820180549190981692169190911790955590517f44da158ba27f9252712a74ff6a55c5d531f69609f1f6e7f17c4443a8e2089be6850155517f44da158ba27f9252712a74ff6a55c5d531f69609f1f6e7f17c4443a8e2089be78401559351805193949193611c47937f44da158ba27f9252712a74ff6a55c5d531f69609f1f6e7f17c4443a8e2089be8019291909101906121a5565b5050604080518881523460208201523392506001600160a01b0387811692908b16917f53f27bbbbe2791e943dac89f644e5d8f5b16152644f5111604390f09f5f8ba40910160405180910390a450505050506111506001606555565b611cab611d1c565b6001600160a01b038116611d105760405162461bcd60e51b815260206004820152602660248201527f4f776e61626c653a206e6577206f776e657220697320746865207a65726f206160448201526564647265737360d01b606482015260840161039b565b611d1981611dd4565b50565b6033546001600160a01b031633146107cd5760405162461bcd60e51b815260206004820181905260248201527f4f776e61626c653a2063616c6c6572206973206e6f7420746865206f776e6572604482015260640161039b565b600054610100900460ff16611d9d5760405162461bcd60e51b815260040161039b90612712565b6107cd61214e565b600054610100900460ff16611dcc5760405162461bcd60e51b815260040161039b90612712565b6107cd61217e565b603380546001600160a01b038381166001600160a01b0319831681179093556040519116919082907f8be0079c531659141344cd1fd0a4f28419497f9722a3daafe3b4186f6b6457e090600090a35050565b60026065541415611e795760405162461bcd60e51b815260206004820152601f60248201527f5265656e7472616e637947756172643a207265656e7472616e742063616c6c00604482015260640161039b565b6002606555565b6001606555565b600080805b609954811015611f1c57846001600160a01b031660998281548110611eb357611eb361252f565b60009182526020909120600490910201546001600160a01b0316148015611efd57508360998281548110611ee957611ee961252f565b906000526020600020906004020160030154145b15611f0a57809150611f1c565b80611f148161255b565b915050611e8c565b509392505050565b60998054611f34906001906126fb565b81548110611f4457611f4461252f565b906000526020600020906004020160998281548110611f6557611f6561252f565b60009182526020909120825460049092020180546001600160a01b03199081166001600160a01b039384161782556001808501805491840180549384169290951691821785555460ff600160a01b91829004161515026001600160a81b03199092161717909155600280830154908201556003918201549101556099805480611ff057611ff061275d565b60008281526020812060046000199093019283020180546001600160a01b03191681556001810180546001600160a81b03191690556002810182905560030155905550565b804710156120855760405162461bcd60e51b815260206004820152601d60248201527f416464726573733a20696e73756666696369656e742062616c616e6365000000604482015260640161039b565b6000826001600160a01b03168260405160006040518083038185875af1925050503d80600081146120d2576040519150601f19603f3d011682016040523d82523d6000602084013e6120d7565b606091505b50509050806106e35760405162461bcd60e51b815260206004820152603a60248201527f416464726573733a20756e61626c6520746f2073656e642076616c75652c207260448201527f6563697069656e74206d61792068617665207265766572746564000000000000606482015260840161039b565b600054610100900460ff166121755760405162461bcd60e51b815260040161039b90612712565b6107cd33611dd4565b600054610100900460ff16611e805760405162461bcd60e51b815260040161039b90612712565b8280546121b19061267f565b90600052602060002090601f0160209004810192826121d35760008555612219565b82601f106121ec57805160ff1916838001178555612219565b82800160010185558215612219579182015b828111156122195782518255916020019190600101906121fe565b50612225929150612229565b5090565b5b80821115612225576000815560010161222a565b6001600160a01b0381168114611d1957600080fd5b803561225e8161223e565b919050565b60006020828403121561227557600080fd5b81356122808161223e565b9392505050565b6000806040838503121561229a57600080fd5b82356122a58161223e565b946020939093013593505050565b634e487b7160e01b600052604160045260246000fd5b600080604083850312156122dc57600080fd5b823567ffffffffffffffff808211156122f457600080fd5b818501915085601f83011261230857600080fd5b813560208282111561231c5761231c6122b3565b8160051b604051601f19603f83011681018181108682111715612341576123416122b3565b60405292835281830193508481018201928984111561235f57600080fd5b948201945b838610156123845761237586612253565b85529482019493820193612364565b96506123939050878201612253565b9450505050509250929050565b602080825282518282018190526000919060409081850190868401855b8281101561240f57815180516001600160a01b03908116865287820151168786015285810151151586860152606080820151908601526080908101519085015260a090930192908501906001016123bd565b5091979650505050505050565b60008060006060848603121561243157600080fd5b833561243c8161223e565b95602085013595506040909401359392505050565b60006020808301818452808551808352604092508286019150828160051b8701018488016000805b8481101561252057898403603f19018652825180516001600160a01b03908116865289820151168986015287810151888601526060808201519086015260809081015160a091860182905280519186018290529083905b808210156124ee578282018b015187830160c00152908a01906124d0565b808211156124ff578460c082890101525b978a0197601f01601f19169590950160c00194505091870191600101612479565b50919998505050505050505050565b634e487b7160e01b600052603260045260246000fd5b634e487b7160e01b600052601160045260246000fd5b600060001982141561256f5761256f612545565b5060010190565b60208082526030908201527f5468697320636f6c6c656374696f6e2063616e7420626520736f6c64206f6e2060408201526f74686973206d61726b6574706c61636560801b606082015260800190565b6000602082840312156125d857600080fd5b81516122808161223e565b6020808252601590820152742cb7ba9030b932903737ba103a34329037bbb732b960591b604082015260600190565b60208082526024908201527f506c6561736520617070726f7665204e465420666f72207468697320636f6e746040820152631c9858dd60e21b606082015260800190565b6020808252600f908201526e4e4654206e6f74206f6e2073616c6560881b604082015260600190565b600181811c9082168061269357607f821691505b602082108114156126b457634e487b7160e01b600052602260045260246000fd5b50919050565b60008160001904831182151516156126d4576126d4612545565b500290565b6000826126f657634e487b7160e01b600052601260045260246000fd5b500490565b60008282101561270d5761270d612545565b500390565b6020808252602b908201527f496e697469616c697a61626c653a20636f6e7472616374206973206e6f74206960408201526a6e697469616c697a696e6760a81b606082015260800190565b634e487b7160e01b600052603160045260246000fdfea26469706673582212208192ddd338ec2199e4c6939202377d0aa1cd0d0e9e4f1d50012276e95f4fa5fb64736f6c63430008080033","opcodes":"PUSH1 0x80 PUSH1 0x40 MSTORE CALLVALUE DUP1 ISZERO PUSH2 0x10 JUMPI PUSH1 0x0 DUP1 REVERT JUMPDEST POP PUSH2 0x27A9 DUP1 PUSH2 0x20 PUSH1 0x0 CODECOPY PUSH1 0x0 RETURN INVALID PUSH1 0x80 PUSH1 0x40 MSTORE PUSH1 0x4 CALLDATASIZE LT PUSH2 0xE8 JUMPI PUSH1 0x0 CALLDATALOAD PUSH1 0xE0 SHR DUP1 PUSH4 0x77B3CC9A GT PUSH2 0x8A JUMPI DUP1 PUSH4 0xAA15EFC8 GT PUSH2 0x59 JUMPI DUP1 PUSH4 0xAA15EFC8 EQ PUSH2 0x2DA JUMPI DUP1 PUSH4 0xBB14A4A7 EQ PUSH2 0x2FC JUMPI DUP1 PUSH4 0xCCC0714A EQ PUSH2 0x31C JUMPI DUP1 PUSH4 0xF2FDE38B EQ PUSH2 0x32F JUMPI PUSH1 0x0 DUP1 REVERT JUMPDEST DUP1 PUSH4 0x77B3CC9A EQ PUSH2 0x250 JUMPI DUP1 PUSH4 0x8773E08C EQ PUSH2 0x272 JUMPI DUP1 PUSH4 0x8DA5CB5B EQ PUSH2 0x292 JUMPI DUP1 PUSH4 0xA12E5A46 EQ PUSH2 0x2BA JUMPI PUSH1 0x0 DUP1 REVERT JUMPDEST DUP1 PUSH4 0x562DF3D5 GT PUSH2 0xC6 JUMPI DUP1 PUSH4 0x562DF3D5 EQ PUSH2 0x1D3 JUMPI DUP1 PUSH4 0x623B2C66 EQ PUSH2 0x1F6 JUMPI DUP1 PUSH4 0x6E763F7B EQ PUSH2 0x226 JUMPI DUP1 PUSH4 0x715018A6 EQ PUSH2 0x23B JUMPI PUSH1 0x0 DUP1 REVERT JUMPDEST DUP1 PUSH4 0x30002EEF EQ PUSH2 0xED JUMPI DUP1 PUSH4 0x3068EC7B EQ PUSH2 0x10F JUMPI DUP1 PUSH4 0x462D0B2E EQ PUSH2 0x1B3 JUMPI JUMPDEST PUSH1 0x0 DUP1 REVERT JUMPDEST CALLVALUE DUP1 ISZERO PUSH2 0xF9 JUMPI PUSH1 0x0 DUP1 REVERT JUMPDEST POP PUSH2 0x10D PUSH2 0x108 CALLDATASIZE PUSH1 0x4 PUSH2 0x2263 JUMP JUMPDEST PUSH2 0x34F JUMP JUMPDEST STOP JUMPDEST CALLVALUE DUP1 ISZERO PUSH2 0x11B JUMPI PUSH1 0x0 DUP1 REVERT JUMPDEST POP PUSH2 0x175 PUSH2 0x12A CALLDATASIZE PUSH1 0x4 PUSH2 0x2287 JUMP JUMPDEST PUSH1 0x98 PUSH1 0x20 SWAP1 DUP2 MSTORE PUSH1 0x0 SWAP3 DUP4 MSTORE PUSH1 0x40 DUP1 DUP5 KECCAK256 SWAP1 SWAP2 MSTORE SWAP1 DUP3 MSTORE SWAP1 KECCAK256 DUP1 SLOAD PUSH1 0x1 DUP3 ADD SLOAD PUSH1 0x2 DUP4 ADD SLOAD PUSH1 0x3 SWAP1 SWAP4 ADD SLOAD PUSH1 0x1 PUSH1 0x1 PUSH1 0xA0 SHL SUB SWAP3 DUP4 AND SWAP4 SWAP3 DUP3 AND SWAP3 PUSH1 0x1 PUSH1 0xA0 SHL SWAP1 SWAP3 DIV PUSH1 0xFF AND SWAP2 SWAP1 DUP6 JUMP JUMPDEST PUSH1 0x40 DUP1 MLOAD PUSH1 0x1 PUSH1 0x1 PUSH1 0xA0 SHL SUB SWAP7 DUP8 AND DUP2 MSTORE SWAP6 SWAP1 SWAP5 AND PUSH1 0x20 DUP7 ADD MSTORE SWAP2 ISZERO ISZERO SWAP3 DUP5 ADD SWAP3 SWAP1 SWAP3 MSTORE PUSH1 0x60 DUP4 ADD SWAP2 SWAP1 SWAP2 MSTORE PUSH1 0x80 DUP3 ADD MSTORE PUSH1 0xA0 ADD JUMPDEST PUSH1 0x40 MLOAD DUP1 SWAP2 SUB SWAP1 RETURN JUMPDEST CALLVALUE DUP1 ISZERO PUSH2 0x1BF JUMPI PUSH1 0x0 DUP1 REVERT JUMPDEST POP PUSH2 0x10D PUSH2 0x1CE CALLDATASIZE PUSH1 0x4 PUSH2 0x22C9 JUMP JUMPDEST PUSH2 0x472 JUMP JUMPDEST CALLVALUE DUP1 ISZERO PUSH2 0x1DF JUMPI PUSH1 0x0 DUP1 REVERT JUMPDEST POP PUSH2 0x1E8 PUSH1 0x5 DUP2 JUMP JUMPDEST PUSH1 0x40 MLOAD SWAP1 DUP2 MSTORE PUSH1 0x20 ADD PUSH2 0x1AA JUMP JUMPDEST CALLVALUE DUP1 ISZERO PUSH2 0x202 JUMPI PUSH1 0x0 DUP1 REVERT JUMPDEST POP PUSH2 0x216 PUSH2 0x211 CALLDATASIZE PUSH1 0x4 PUSH2 0x2263 JUMP JUMPDEST PUSH2 0x6E8 JUMP JUMPDEST PUSH1 0x40 MLOAD SWAP1 ISZERO ISZERO DUP2 MSTORE PUSH1 0x20 ADD PUSH2 0x1AA JUMP JUMPDEST CALLVALUE DUP1 ISZERO PUSH2 0x232 JUMPI PUSH1 0x0 DUP1 REVERT JUMPDEST POP PUSH2 0x10D PUSH2 0x752 JUMP JUMPDEST CALLVALUE DUP1 ISZERO PUSH2 0x247 JUMPI PUSH1 0x0 DUP1 REVERT JUMPDEST POP PUSH2 0x10D PUSH2 0x7BB JUMP JUMPDEST CALLVALUE DUP1 ISZERO PUSH2 0x25C JUMPI PUSH1 0x0 DUP1 REVERT JUMPDEST POP PUSH2 0x265 PUSH2 0x7CF JUMP JUMPDEST PUSH1 0x40 MLOAD PUSH2 0x1AA SWAP2 SWAP1 PUSH2 0x23A0 JUMP JUMPDEST CALLVALUE DUP1 ISZERO PUSH2 0x27E JUMPI PUSH1 0x0 DUP1 REVERT JUMPDEST POP PUSH2 0x10D PUSH2 0x28D CALLDATASIZE PUSH1 0x4 PUSH2 0x241C JUMP JUMPDEST PUSH2 0x870 JUMP JUMPDEST CALLVALUE DUP1 ISZERO PUSH2 0x29E JUMPI PUSH1 0x0 DUP1 REVERT JUMPDEST POP PUSH1 0x33 SLOAD PUSH1 0x40 MLOAD PUSH1 0x1 PUSH1 0x1 PUSH1 0xA0 SHL SUB SWAP1 SWAP2 AND DUP2 MSTORE PUSH1 0x20 ADD PUSH2 0x1AA JUMP JUMPDEST CALLVALUE DUP1 ISZERO PUSH2 0x2C6 JUMPI PUSH1 0x0 DUP1 REVERT JUMPDEST POP PUSH2 0x10D PUSH2 0x2D5 CALLDATASIZE PUSH1 0x4 PUSH2 0x2287 JUMP JUMPDEST PUSH2 0xE68 JUMP JUMPDEST CALLVALUE DUP1 ISZERO PUSH2 0x2E6 JUMPI PUSH1 0x0 DUP1 REVERT JUMPDEST POP PUSH2 0x2EF PUSH2 0x1154 JUMP JUMPDEST PUSH1 0x40 MLOAD PUSH2 0x1AA SWAP2 SWAP1 PUSH2 0x2451 JUMP JUMPDEST CALLVALUE DUP1 ISZERO PUSH2 0x308 JUMPI PUSH1 0x0 DUP1 REVERT JUMPDEST POP PUSH2 0x10D PUSH2 0x317 CALLDATASIZE PUSH1 0x4 PUSH2 0x241C JUMP JUMPDEST PUSH2 0x1274 JUMP JUMPDEST PUSH2 0x10D PUSH2 0x32A CALLDATASIZE PUSH1 0x4 PUSH2 0x2287 JUMP JUMPDEST PUSH2 0x1711 JUMP JUMPDEST CALLVALUE DUP1 ISZERO PUSH2 0x33B JUMPI PUSH1 0x0 DUP1 REVERT JUMPDEST POP PUSH2 0x10D PUSH2 0x34A CALLDATASIZE PUSH1 0x4 PUSH2 0x2263 JUMP JUMPDEST PUSH2 0x1CA3 JUMP JUMPDEST PUSH2 0x357 PUSH2 0x1D1C JUMP JUMPDEST PUSH1 0x1 PUSH1 0x1 PUSH1 0xA0 SHL SUB DUP2 AND PUSH2 0x3A4 JUMPI PUSH1 0x40 MLOAD PUSH3 0x461BCD PUSH1 0xE5 SHL DUP2 MSTORE PUSH1 0x20 PUSH1 0x4 DUP3 ADD MSTORE PUSH1 0xF PUSH1 0x24 DUP3 ADD MSTORE PUSH15 0x496E76616C69642061646472657373 PUSH1 0x88 SHL PUSH1 0x44 DUP3 ADD MSTORE PUSH1 0x64 ADD JUMPDEST PUSH1 0x40 MLOAD DUP1 SWAP2 SUB SWAP1 REVERT JUMPDEST PUSH2 0x3AD DUP2 PUSH2 0x6E8 JUMP JUMPDEST ISZERO PUSH2 0x3FA JUMPI PUSH1 0x40 MLOAD PUSH3 0x461BCD PUSH1 0xE5 SHL DUP2 MSTORE PUSH1 0x20 PUSH1 0x4 DUP3 ADD MSTORE PUSH1 0x1E PUSH1 0x24 DUP3 ADD MSTORE PUSH32 0x436F6E747261637420616C726561647920616464656420696E206C6973740000 PUSH1 0x44 DUP3 ADD MSTORE PUSH1 0x64 ADD PUSH2 0x39B JUMP JUMPDEST PUSH1 0x9B DUP1 SLOAD PUSH1 0x1 DUP2 ADD DUP3 SSTORE PUSH1 0x0 SWAP2 DUP3 MSTORE PUSH32 0xBBA9DB4CDBEA0A37C207BBB83E20F828CD4441C49891101DC94FD20DC8EFC349 ADD DUP1 SLOAD PUSH1 0x1 PUSH1 0x1 PUSH1 0xA0 SHL SUB NOT AND PUSH1 0x1 PUSH1 0x1 PUSH1 0xA0 SHL SUB DUP5 AND SWAP1 DUP2 OR SWAP1 SWAP2 SSTORE PUSH1 0x40 MLOAD SWAP1 SWAP2 PUSH32 0x346170E17C5503E2745C300363BE112F4023BE046F20D3B0E51FBE552827D471 SWAP2 LOG2 POP JUMP JUMPDEST PUSH1 0x0 SLOAD PUSH2 0x100 SWAP1 DIV PUSH1 0xFF AND ISZERO DUP1 DUP1 ISZERO PUSH2 0x492 JUMPI POP PUSH1 0x0 SLOAD PUSH1 0x1 PUSH1 0xFF SWAP1 SWAP2 AND LT JUMPDEST DUP1 PUSH2 0x4AC JUMPI POP ADDRESS EXTCODESIZE ISZERO DUP1 ISZERO PUSH2 0x4AC JUMPI POP PUSH1 0x0 SLOAD PUSH1 0xFF AND PUSH1 0x1 EQ JUMPDEST PUSH2 0x50F JUMPI PUSH1 0x40 MLOAD PUSH3 0x461BCD PUSH1 0xE5 SHL DUP2 MSTORE PUSH1 0x20 PUSH1 0x4 DUP3 ADD MSTORE PUSH1 0x2E PUSH1 0x24 DUP3 ADD MSTORE PUSH32 0x496E697469616C697A61626C653A20636F6E747261637420697320616C726561 PUSH1 0x44 DUP3 ADD MSTORE PUSH14 0x191E481A5B9A5D1A585B1A5E9959 PUSH1 0x92 SHL PUSH1 0x64 DUP3 ADD MSTORE PUSH1 0x84 ADD PUSH2 0x39B JUMP JUMPDEST PUSH1 0x0 DUP1 SLOAD PUSH1 0xFF NOT AND PUSH1 0x1 OR SWAP1 SSTORE DUP1 ISZERO PUSH2 0x532 JUMPI PUSH1 0x0 DUP1 SLOAD PUSH2 0xFF00 NOT AND PUSH2 0x100 OR SWAP1 SSTORE JUMPDEST PUSH2 0x53A PUSH2 0x1D76 JUMP JUMPDEST PUSH2 0x542 PUSH2 0x1DA5 JUMP JUMPDEST PUSH1 0x1 PUSH1 0x1 PUSH1 0xA0 SHL SUB DUP3 AND PUSH2 0x598 JUMPI PUSH1 0x40 MLOAD PUSH3 0x461BCD PUSH1 0xE5 SHL DUP2 MSTORE PUSH1 0x20 PUSH1 0x4 DUP3 ADD MSTORE PUSH1 0x1A PUSH1 0x24 DUP3 ADD MSTORE PUSH32 0x496E76616C696420636F6D6D697373696F6E2061646472657373000000000000 PUSH1 0x44 DUP3 ADD MSTORE PUSH1 0x64 ADD PUSH2 0x39B JUMP JUMPDEST PUSH1 0x97 DUP1 SLOAD PUSH1 0x1 PUSH1 0x1 PUSH1 0xA0 SHL SUB NOT AND PUSH1 0x1 PUSH1 0x1 PUSH1 0xA0 SHL SUB DUP5 AND OR SWAP1 SSTORE PUSH1 0x0 JUMPDEST DUP4 MLOAD DUP2 LT ISZERO PUSH2 0x69C JUMPI PUSH1 0x0 PUSH1 0x1 PUSH1 0x1 PUSH1 0xA0 SHL SUB AND DUP5 DUP3 DUP2 MLOAD DUP2 LT PUSH2 0x5DC JUMPI PUSH2 0x5DC PUSH2 0x252F JUMP JUMPDEST PUSH1 0x20 MUL PUSH1 0x20 ADD ADD MLOAD PUSH1 0x1 PUSH1 0x1 PUSH1 0xA0 SHL SUB AND EQ ISZERO PUSH2 0x63B JUMPI PUSH1 0x40 MLOAD PUSH3 0x461BCD PUSH1 0xE5 SHL DUP2 MSTORE PUSH1 0x20 PUSH1 0x4 DUP3 ADD MSTORE PUSH1 0x18 PUSH1 0x24 DUP3 ADD MSTORE PUSH32 0x496E76616C696420636F6E747261637420616464726573730000000000000000 PUSH1 0x44 DUP3 ADD MSTORE PUSH1 0x64 ADD PUSH2 0x39B JUMP JUMPDEST PUSH1 0x9B DUP5 DUP3 DUP2 MLOAD DUP2 LT PUSH2 0x64F JUMPI PUSH2 0x64F PUSH2 0x252F JUMP JUMPDEST PUSH1 0x20 SWAP1 DUP2 MUL SWAP2 SWAP1 SWAP2 ADD DUP2 ADD MLOAD DUP3 SLOAD PUSH1 0x1 DUP2 ADD DUP5 SSTORE PUSH1 0x0 SWAP4 DUP5 MSTORE SWAP2 SWAP1 SWAP3 KECCAK256 ADD DUP1 SLOAD PUSH1 0x1 PUSH1 0x1 PUSH1 0xA0 SHL SUB NOT AND PUSH1 0x1 PUSH1 0x1 PUSH1 0xA0 SHL SUB SWAP1 SWAP3 AND SWAP2 SWAP1 SWAP2 OR SWAP1 SSTORE DUP1 PUSH2 0x694 DUP2 PUSH2 0x255B JUMP JUMPDEST SWAP2 POP POP PUSH2 0x5B6 JUMP JUMPDEST POP DUP1 ISZERO PUSH2 0x6E3 JUMPI PUSH1 0x0 DUP1 SLOAD PUSH2 0xFF00 NOT AND SWAP1 SSTORE PUSH1 0x40 MLOAD PUSH1 0x1 DUP2 MSTORE PUSH32 0x7F26B83FF96E1F2B6A682F133852F6798A09C465DA95921460CEFB3847402498 SWAP1 PUSH1 0x20 ADD PUSH1 0x40 MLOAD DUP1 SWAP2 SUB SWAP1 LOG1 JUMPDEST POP POP POP JUMP JUMPDEST PUSH1 0x0 DUP1 JUMPDEST PUSH1 0x9B SLOAD DUP2 LT ISZERO PUSH2 0x749 JUMPI DUP3 PUSH1 0x1 PUSH1 0x1 PUSH1 0xA0 SHL SUB AND PUSH1 0x9B DUP3 DUP2 SLOAD DUP2 LT PUSH2 0x713 JUMPI PUSH2 0x713 PUSH2 0x252F JUMP JUMPDEST PUSH1 0x0 SWAP2 DUP3 MSTORE PUSH1 0x20 SWAP1 SWAP2 KECCAK256 ADD SLOAD PUSH1 0x1 PUSH1 0x1 PUSH1 0xA0 SHL SUB AND EQ ISZERO PUSH2 0x737 JUMPI POP PUSH1 0x1 SWAP3 SWAP2 POP POP JUMP JUMPDEST DUP1 PUSH2 0x741 DUP2 PUSH2 0x255B JUMP JUMPDEST SWAP2 POP POP PUSH2 0x6EC JUMP JUMPDEST POP PUSH1 0x0 SWAP3 SWAP2 POP POP JUMP JUMPDEST PUSH32 0x18B6BA345500D989DA5F5DECC99FD8DEAD5C03CD82593405684084BE05A8D178 PUSH1 0x40 MLOAD PUSH2 0x7B1 SWAP1 PUSH1 0x20 DUP1 DUP3 MSTORE PUSH1 0x1D SWAP1 DUP3 ADD MSTORE PUSH32 0x54686973206973206120746573742066756E6374696F6E20696E205632000000 PUSH1 0x40 DUP3 ADD MSTORE PUSH1 0x60 ADD SWAP1 JUMP JUMPDEST PUSH1 0x40 MLOAD DUP1 SWAP2 SUB SWAP1 LOG1 JUMP JUMPDEST PUSH2 0x7C3 PUSH2 0x1D1C JUMP JUMPDEST PUSH2 0x7CD PUSH1 0x0 PUSH2 0x1DD4 JUMP JUMPDEST JUMP JUMPDEST PUSH1 0x60 PUSH1 0x99 DUP1 SLOAD DUP1 PUSH1 0x20 MUL PUSH1 0x20 ADD PUSH1 0x40 MLOAD SWAP1 DUP2 ADD PUSH1 0x40 MSTORE DUP1 SWAP3 SWAP2 SWAP1 DUP2 DUP2 MSTORE PUSH1 0x20 ADD PUSH1 0x0 SWAP1 JUMPDEST DUP3 DUP3 LT ISZERO PUSH2 0x867 JUMPI PUSH1 0x0 DUP5 DUP2 MSTORE PUSH1 0x20 SWAP1 DUP2 SWAP1 KECCAK256 PUSH1 0x40 DUP1 MLOAD PUSH1 0xA0 DUP2 ADD DUP3 MSTORE PUSH1 0x4 DUP7 MUL SWAP1 SWAP3 ADD DUP1 SLOAD PUSH1 0x1 PUSH1 0x1 PUSH1 0xA0 SHL SUB SWAP1 DUP2 AND DUP5 MSTORE PUSH1 0x1 DUP1 DUP4 ADD SLOAD SWAP2 DUP3 AND DUP6 DUP8 ADD MSTORE PUSH1 0x1 PUSH1 0xA0 SHL SWAP1 SWAP2 DIV PUSH1 0xFF AND ISZERO ISZERO SWAP3 DUP5 ADD SWAP3 SWAP1 SWAP3 MSTORE PUSH1 0x2 DUP2 ADD SLOAD PUSH1 0x60 DUP5 ADD MSTORE PUSH1 0x3 ADD SLOAD PUSH1 0x80 DUP4 ADD MSTORE SWAP1 DUP4 MSTORE SWAP1 SWAP3 ADD SWAP2 ADD PUSH2 0x7F3 JUMP JUMPDEST POP POP POP POP SWAP1 POP SWAP1 JUMP JUMPDEST PUSH2 0x878 PUSH2 0x1E26 JUMP JUMPDEST PUSH1 0x1 PUSH1 0x1 PUSH1 0xA0 SHL SUB DUP4 AND PUSH1 0x0 SWAP1 DUP2 MSTORE PUSH1 0x98 PUSH1 0x20 SWAP1 DUP2 MSTORE PUSH1 0x40 DUP1 DUP4 KECCAK256 DUP6 DUP5 MSTORE SWAP1 SWAP2 MSTORE SWAP1 KECCAK256 PUSH1 0x1 ADD SLOAD PUSH1 0x1 PUSH1 0xA0 SHL SWAP1 DIV PUSH1 0xFF AND ISZERO PUSH2 0x8F6 JUMPI PUSH1 0x40 MLOAD PUSH3 0x461BCD PUSH1 0xE5 SHL DUP2 MSTORE PUSH1 0x20 PUSH1 0x4 DUP3 ADD MSTORE PUSH1 0x1A PUSH1 0x24 DUP3 ADD MSTORE PUSH32 0x54686973204E465420697320616C7265616479206C6973746564000000000000 PUSH1 0x44 DUP3 ADD MSTORE PUSH1 0x64 ADD PUSH2 0x39B JUMP JUMPDEST DUP3 PUSH2 0x900 DUP2 PUSH2 0x6E8 JUMP JUMPDEST PUSH2 0x91C JUMPI PUSH1 0x40 MLOAD PUSH3 0x461BCD PUSH1 0xE5 SHL DUP2 MSTORE PUSH1 0x4 ADD PUSH2 0x39B SWAP1 PUSH2 0x2576 JUMP JUMPDEST PUSH1 0x40 MLOAD PUSH4 0x31A9108F PUSH1 0xE1 SHL DUP2 MSTORE PUSH1 0x4 DUP2 ADD DUP5 SWAP1 MSTORE CALLER SWAP1 PUSH1 0x1 PUSH1 0x1 PUSH1 0xA0 SHL SUB DUP4 AND SWAP1 PUSH4 0x6352211E SWAP1 PUSH1 0x24 ADD PUSH1 0x20 PUSH1 0x40 MLOAD DUP1 DUP4 SUB DUP2 DUP7 DUP1 EXTCODESIZE ISZERO DUP1 ISZERO PUSH2 0x95E JUMPI PUSH1 0x0 DUP1 REVERT JUMPDEST POP GAS STATICCALL ISZERO DUP1 ISZERO PUSH2 0x972 JUMPI RETURNDATASIZE PUSH1 0x0 DUP1 RETURNDATACOPY RETURNDATASIZE PUSH1 0x0 REVERT JUMPDEST POP POP POP POP PUSH1 0x40 MLOAD RETURNDATASIZE PUSH1 0x1F NOT PUSH1 0x1F DUP3 ADD AND DUP3 ADD DUP1 PUSH1 0x40 MSTORE POP DUP2 ADD SWAP1 PUSH2 0x996 SWAP2 SWAP1 PUSH2 0x25C6 JUMP JUMPDEST PUSH1 0x1 PUSH1 0x1 PUSH1 0xA0 SHL SUB AND EQ PUSH2 0x9BC JUMPI PUSH1 0x40 MLOAD PUSH3 0x461BCD PUSH1 0xE5 SHL DUP2 MSTORE PUSH1 0x4 ADD PUSH2 0x39B SWAP1 PUSH2 0x25E3 JUMP JUMPDEST PUSH1 0x40 MLOAD PUSH4 0x20604BF PUSH1 0xE2 SHL DUP2 MSTORE PUSH1 0x4 DUP2 ADD DUP5 SWAP1 MSTORE ADDRESS SWAP1 PUSH1 0x1 PUSH1 0x1 PUSH1 0xA0 SHL SUB DUP4 AND SWAP1 PUSH4 0x81812FC SWAP1 PUSH1 0x24 ADD PUSH1 0x20 PUSH1 0x40 MLOAD DUP1 DUP4 SUB DUP2 DUP7 DUP1 EXTCODESIZE ISZERO DUP1 ISZERO PUSH2 0x9FE JUMPI PUSH1 0x0 DUP1 REVERT JUMPDEST POP GAS STATICCALL ISZERO DUP1 ISZERO PUSH2 0xA12 JUMPI RETURNDATASIZE PUSH1 0x0 DUP1 RETURNDATACOPY RETURNDATASIZE PUSH1 0x0 REVERT JUMPDEST POP POP POP POP PUSH1 0x40 MLOAD RETURNDATASIZE PUSH1 0x1F NOT PUSH1 0x1F DUP3 ADD AND DUP3 ADD DUP1 PUSH1 0x40 MSTORE POP DUP2 ADD SWAP1 PUSH2 0xA36 SWAP2 SWAP1 PUSH2 0x25C6 JUMP JUMPDEST PUSH1 0x1 PUSH1 0x1 PUSH1 0xA0 SHL SUB AND EQ PUSH2 0xA5C JUMPI PUSH1 0x40 MLOAD PUSH3 0x461BCD PUSH1 0xE5 SHL DUP2 MSTORE PUSH1 0x4 ADD PUSH2 0x39B SWAP1 PUSH2 0x2612 JUMP JUMPDEST DUP4 PUSH1 0x98 PUSH1 0x0 DUP7 PUSH1 0x1 PUSH1 0x1 PUSH1 0xA0 SHL SUB AND PUSH1 0x1 PUSH1 0x1 PUSH1 0xA0 SHL SUB AND DUP2 MSTORE PUSH1 0x20 ADD SWAP1 DUP2 MSTORE PUSH1 0x20 ADD PUSH1 0x0 KECCAK256 PUSH1 0x0 DUP6 DUP2 MSTORE PUSH1 0x20 ADD SWAP1 DUP2 MSTORE PUSH1 0x20 ADD PUSH1 0x0 KECCAK256 PUSH1 0x0 ADD PUSH1 0x0 PUSH2 0x100 EXP DUP2 SLOAD DUP2 PUSH1 0x1 PUSH1 0x1 PUSH1 0xA0 SHL SUB MUL NOT AND SWAP1 DUP4 PUSH1 0x1 PUSH1 0x1 PUSH1 0xA0 SHL SUB AND MUL OR SWAP1 SSTORE POP PUSH1 0x1 PUSH1 0x98 PUSH1 0x0 DUP7 PUSH1 0x1 PUSH1 0x1 PUSH1 0xA0 SHL SUB AND PUSH1 0x1 PUSH1 0x1 PUSH1 0xA0 SHL SUB AND DUP2 MSTORE PUSH1 0x20 ADD SWAP1 DUP2 MSTORE PUSH1 0x20 ADD PUSH1 0x0 KECCAK256 PUSH1 0x0 DUP6 DUP2 MSTORE PUSH1 0x20 ADD SWAP1 DUP2 MSTORE PUSH1 0x20 ADD PUSH1 0x0 KECCAK256 PUSH1 0x1 ADD PUSH1 0x14 PUSH2 0x100 EXP DUP2 SLOAD DUP2 PUSH1 0xFF MUL NOT AND SWAP1 DUP4 ISZERO ISZERO MUL OR SWAP1 SSTORE POP CALLER PUSH1 0x98 PUSH1 0x0 DUP7 PUSH1 0x1 PUSH1 0x1 PUSH1 0xA0 SHL SUB AND PUSH1 0x1 PUSH1 0x1 PUSH1 0xA0 SHL SUB AND DUP2 MSTORE PUSH1 0x20 ADD SWAP1 DUP2 MSTORE PUSH1 0x20 ADD PUSH1 0x0 KECCAK256 PUSH1 0x0 DUP6 DUP2 MSTORE PUSH1 0x20 ADD SWAP1 DUP2 MSTORE PUSH1 0x20 ADD PUSH1 0x0 KECCAK256 PUSH1 0x1 ADD PUSH1 0x0 PUSH2 0x100 EXP DUP2 SLOAD DUP2 PUSH1 0x1 PUSH1 0x1 PUSH1 0xA0 SHL SUB MUL NOT AND SWAP1 DUP4 PUSH1 0x1 PUSH1 0x1 PUSH1 0xA0 SHL SUB AND MUL OR SWAP1 SSTORE POP DUP2 PUSH1 0x98 PUSH1 0x0 DUP7 PUSH1 0x1 PUSH1 0x1 PUSH1 0xA0 SHL SUB AND PUSH1 0x1 PUSH1 0x1 PUSH1 0xA0 SHL SUB AND DUP2 MSTORE PUSH1 0x20 ADD SWAP1 DUP2 MSTORE PUSH1 0x20 ADD PUSH1 0x0 KECCAK256 PUSH1 0x0 DUP6 DUP2 MSTORE PUSH1 0x20 ADD SWAP1 DUP2 MSTORE PUSH1 0x20 ADD PUSH1 0x0 KECCAK256 PUSH1 0x2 ADD DUP2 SWAP1 SSTORE POP DUP3 PUSH1 0x98 PUSH1 0x0 DUP7 PUSH1 0x1 PUSH1 0x1 PUSH1 0xA0 SHL SUB AND PUSH1 0x1 PUSH1 0x1 PUSH1 0xA0 SHL SUB AND DUP2 MSTORE PUSH1 0x20 ADD SWAP1 DUP2 MSTORE PUSH1 0x20 ADD PUSH1 0x0 KECCAK256 PUSH1 0x0 DUP6 DUP2 MSTORE PUSH1 0x20 ADD SWAP1 DUP2 MSTORE PUSH1 0x20 ADD PUSH1 0x0 KECCAK256 PUSH1 0x3 ADD DUP2 SWAP1 SSTORE POP PUSH1 0x99 PUSH1 0x98 PUSH1 0x0 DUP7 PUSH1 0x1 PUSH1 0x1 PUSH1 0xA0 SHL SUB AND PUSH1 0x1 PUSH1 0x1 PUSH1 0xA0 SHL SUB AND DUP2 MSTORE PUSH1 0x20 ADD SWAP1 DUP2 MSTORE PUSH1 0x20 ADD PUSH1 0x0 KECCAK256 PUSH1 0x0 DUP6 DUP2 MSTORE PUSH1 0x20 ADD SWAP1 DUP2 MSTORE PUSH1 0x20 ADD PUSH1 0x0 KECCAK256 SWAP1 DUP1 PUSH1 0x1 DUP2 SLOAD ADD DUP1 DUP3 SSTORE DUP1 SWAP2 POP POP PUSH1 0x1 SWAP1 SUB SWAP1 PUSH1 0x0 MSTORE PUSH1 0x20 PUSH1 0x0 KECCAK256 SWAP1 PUSH1 0x4 MUL ADD PUSH1 0x0 SWAP1 SWAP2 SWAP1 SWAP2 SWAP1 SWAP2 POP PUSH1 0x0 DUP3 ADD PUSH1 0x0 SWAP1 SLOAD SWAP1 PUSH2 0x100 EXP SWAP1 DIV PUSH1 0x1 PUSH1 0x1 PUSH1 0xA0 SHL SUB AND DUP2 PUSH1 0x0 ADD PUSH1 0x0 PUSH2 0x100 EXP DUP2 SLOAD DUP2 PUSH1 0x1 PUSH1 0x1 PUSH1 0xA0 SHL SUB MUL NOT AND SWAP1 DUP4 PUSH1 0x1 PUSH1 0x1 PUSH1 0xA0 SHL SUB AND MUL OR SWAP1 SSTORE POP PUSH1 0x1 DUP3 ADD PUSH1 0x0 SWAP1 SLOAD SWAP1 PUSH2 0x100 EXP SWAP1 DIV PUSH1 0x1 PUSH1 0x1 PUSH1 0xA0 SHL SUB AND DUP2 PUSH1 0x1 ADD PUSH1 0x0 PUSH2 0x100 EXP DUP2 SLOAD DUP2 PUSH1 0x1 PUSH1 0x1 PUSH1 0xA0 SHL SUB MUL NOT AND SWAP1 DUP4 PUSH1 0x1 PUSH1 0x1 PUSH1 0xA0 SHL SUB AND MUL OR SWAP1 SSTORE POP PUSH1 0x1 DUP3 ADD PUSH1 0x14 SWAP1 SLOAD SWAP1 PUSH2 0x100 EXP SWAP1 DIV PUSH1 0xFF AND DUP2 PUSH1 0x1 ADD PUSH1 0x14 PUSH2 0x100 EXP DUP2 SLOAD DUP2 PUSH1 0xFF MUL NOT AND SWAP1 DUP4 ISZERO ISZERO MUL OR SWAP1 SSTORE POP PUSH1 0x2 DUP3 ADD SLOAD DUP2 PUSH1 0x2 ADD SSTORE PUSH1 0x3 DUP3 ADD SLOAD DUP2 PUSH1 0x3 ADD SSTORE POP POP PUSH1 0x9A PUSH1 0x40 MLOAD DUP1 PUSH1 0xA0 ADD PUSH1 0x40 MSTORE DUP1 CALLER PUSH1 0x1 PUSH1 0x1 PUSH1 0xA0 SHL SUB AND DUP2 MSTORE PUSH1 0x20 ADD DUP7 PUSH1 0x1 PUSH1 0x1 PUSH1 0xA0 SHL SUB AND DUP2 MSTORE PUSH1 0x20 ADD DUP6 DUP2 MSTORE PUSH1 0x20 ADD DUP5 DUP2 MSTORE PUSH1 0x20 ADD PUSH1 0x40 MLOAD DUP1 PUSH1 0x40 ADD PUSH1 0x40 MSTORE DUP1 PUSH1 0x4 DUP2 MSTORE PUSH1 0x20 ADD PUSH4 0x131A5CDD PUSH1 0xE2 SHL DUP2 MSTORE POP DUP2 MSTORE POP SWAP1 DUP1 PUSH1 0x1 DUP2 SLOAD ADD DUP1 DUP3 SSTORE DUP1 SWAP2 POP POP PUSH1 0x1 SWAP1 SUB SWAP1 PUSH1 0x0 MSTORE PUSH1 0x20 PUSH1 0x0 KECCAK256 SWAP1 PUSH1 0x5 MUL ADD PUSH1 0x0 SWAP1 SWAP2 SWAP1 SWAP2 SWAP1 SWAP2 POP PUSH1 0x0 DUP3 ADD MLOAD DUP2 PUSH1 0x0 ADD PUSH1 0x0 PUSH2 0x100 EXP DUP2 SLOAD DUP2 PUSH1 0x1 PUSH1 0x1 PUSH1 0xA0 SHL SUB MUL NOT AND SWAP1 DUP4 PUSH1 0x1 PUSH1 0x1 PUSH1 0xA0 SHL SUB AND MUL OR SWAP1 SSTORE POP PUSH1 0x20 DUP3 ADD MLOAD DUP2 PUSH1 0x1 ADD PUSH1 0x0 PUSH2 0x100 EXP DUP2 SLOAD DUP2 PUSH1 0x1 PUSH1 0x1 PUSH1 0xA0 SHL SUB MUL NOT AND SWAP1 DUP4 PUSH1 0x1 PUSH1 0x1 PUSH1 0xA0 SHL SUB AND MUL OR SWAP1 SSTORE POP PUSH1 0x40 DUP3 ADD MLOAD DUP2 PUSH1 0x2 ADD SSTORE PUSH1 0x60 DUP3 ADD MLOAD DUP2 PUSH1 0x3 ADD SSTORE PUSH1 0x80 DUP3 ADD MLOAD DUP2 PUSH1 0x4 ADD SWAP1 DUP1 MLOAD SWAP1 PUSH1 0x20 ADD SWAP1 PUSH2 0xE14 SWAP3 SWAP2 SWAP1 PUSH2 0x21A5 JUMP JUMPDEST POP POP PUSH1 0x40 DUP1 MLOAD DUP6 DUP2 MSTORE PUSH1 0x20 DUP2 ADD DUP6 SWAP1 MSTORE CALLER SWAP3 POP PUSH1 0x1 PUSH1 0x1 PUSH1 0xA0 SHL SUB DUP8 AND SWAP2 PUSH32 0x355C67A44A9E7AD44DBEB878463F794AEC6B06C2C96C3F44526CD977ACEF500E SWAP2 ADD PUSH1 0x40 MLOAD DUP1 SWAP2 SUB SWAP1 LOG3 POP PUSH2 0x6E3 PUSH1 0x1 PUSH1 0x65 SSTORE JUMP JUMPDEST PUSH2 0xE70 PUSH2 0x1E26 JUMP JUMPDEST DUP2 PUSH2 0xE7A DUP2 PUSH2 0x6E8 JUMP JUMPDEST PUSH2 0xE96 JUMPI PUSH1 0x40 MLOAD PUSH3 0x461BCD PUSH1 0xE5 SHL DUP2 MSTORE PUSH1 0x4 ADD PUSH2 0x39B SWAP1 PUSH2 0x2576 JUMP JUMPDEST PUSH1 0x40 MLOAD PUSH4 0x31A9108F PUSH1 0xE1 SHL DUP2 MSTORE PUSH1 0x4 DUP2 ADD DUP4 SWAP1 MSTORE CALLER SWAP1 PUSH1 0x1 PUSH1 0x1 PUSH1 0xA0 SHL SUB DUP4 AND SWAP1 PUSH4 0x6352211E SWAP1 PUSH1 0x24 ADD PUSH1 0x20 PUSH1 0x40 MLOAD DUP1 DUP4 SUB DUP2 DUP7 DUP1 EXTCODESIZE ISZERO DUP1 ISZERO PUSH2 0xED8 JUMPI PUSH1 0x0 DUP1 REVERT JUMPDEST POP GAS STATICCALL ISZERO DUP1 ISZERO PUSH2 0xEEC JUMPI RETURNDATASIZE PUSH1 0x0 DUP1 RETURNDATACOPY RETURNDATASIZE PUSH1 0x0 REVERT JUMPDEST POP POP POP POP PUSH1 0x40 MLOAD RETURNDATASIZE PUSH1 0x1F NOT PUSH1 0x1F DUP3 ADD AND DUP3 ADD DUP1 PUSH1 0x40 MSTORE POP DUP2 ADD SWAP1 PUSH2 0xF10 SWAP2 SWAP1 PUSH2 0x25C6 JUMP JUMPDEST PUSH1 0x1 PUSH1 0x1 PUSH1 0xA0 SHL SUB AND EQ PUSH2 0xF36 JUMPI PUSH1 0x40 MLOAD PUSH3 0x461BCD PUSH1 0xE5 SHL DUP2 MSTORE PUSH1 0x4 ADD PUSH2 0x39B SWAP1 PUSH2 0x25E3 JUMP JUMPDEST PUSH1 0x1 PUSH1 0x1 PUSH1 0xA0 SHL SUB DUP4 AND PUSH1 0x0 SWAP1 DUP2 MSTORE PUSH1 0x98 PUSH1 0x20 SWAP1 DUP2 MSTORE PUSH1 0x40 DUP1 DUP4 KECCAK256 DUP6 DUP5 MSTORE SWAP1 SWAP2 MSTORE SWAP1 KECCAK256 PUSH1 0x1 ADD SLOAD PUSH1 0x1 PUSH1 0xA0 SHL SWAP1 DIV PUSH1 0xFF AND PUSH2 0xF83 JUMPI PUSH1 0x40 MLOAD PUSH3 0x461BCD PUSH1 0xE5 SHL DUP2 MSTORE PUSH1 0x4 ADD PUSH2 0x39B SWAP1 PUSH2 0x2656 JUMP JUMPDEST PUSH1 0x0 PUSH2 0xF8F DUP5 DUP5 PUSH2 0x1E87 JUMP JUMPDEST SWAP1 POP PUSH2 0xF9A DUP2 PUSH2 0x1F24 JUMP JUMPDEST PUSH1 0x1 PUSH1 0x1 PUSH1 0xA0 SHL SUB DUP1 DUP6 AND PUSH1 0x0 DUP2 DUP2 MSTORE PUSH1 0x98 PUSH1 0x20 SWAP1 DUP2 MSTORE PUSH1 0x40 DUP1 DUP4 KECCAK256 DUP9 DUP5 MSTORE DUP3 MSTORE DUP1 DUP4 KECCAK256 PUSH1 0x1 SWAP1 DUP2 ADD DUP1 SLOAD PUSH1 0xFF PUSH1 0xA0 SHL NOT AND SWAP1 SSTORE DUP2 MLOAD PUSH1 0xA0 DUP2 ADD DUP4 MSTORE CALLER DUP2 MSTORE DUP1 DUP5 ADD SWAP6 DUP7 MSTORE DUP1 DUP4 ADD DUP11 DUP2 MSTORE PUSH1 0x60 DUP3 ADD DUP7 DUP2 MSTORE DUP5 MLOAD DUP1 DUP7 ADD SWAP1 SWAP6 MSTORE PUSH1 0x6 DUP6 MSTORE PUSH6 0x1119531A5CDD PUSH1 0xD2 SHL DUP6 DUP8 ADD MSTORE PUSH1 0x80 DUP4 ADD SWAP5 DUP6 MSTORE PUSH1 0x9A DUP1 SLOAD SWAP5 DUP6 ADD DUP2 SSTORE SWAP1 SWAP7 MSTORE DUP2 MLOAD PUSH1 0x5 SWAP1 SWAP4 MUL PUSH32 0x44DA158BA27F9252712A74FF6A55C5D531F69609F1F6E7F17C4443A8E2089BE4 DUP2 ADD DUP1 SLOAD SWAP5 DUP11 AND PUSH1 0x1 PUSH1 0x1 PUSH1 0xA0 SHL SUB NOT SWAP6 DUP7 AND OR DUP2 SSTORE SWAP8 MLOAD PUSH32 0x44DA158BA27F9252712A74FF6A55C5D531F69609F1F6E7F17C4443A8E2089BE5 DUP3 ADD DUP1 SLOAD SWAP2 SWAP1 SWAP11 AND SWAP5 AND SWAP4 SWAP1 SWAP4 OR SWAP1 SWAP8 SSTORE SWAP6 MLOAD PUSH32 0x44DA158BA27F9252712A74FF6A55C5D531F69609F1F6E7F17C4443A8E2089BE6 DUP3 ADD SSTORE SWAP3 MLOAD PUSH32 0x44DA158BA27F9252712A74FF6A55C5D531F69609F1F6E7F17C4443A8E2089BE7 DUP5 ADD SSTORE MLOAD DUP1 MLOAD PUSH2 0x110B SWAP4 PUSH32 0x44DA158BA27F9252712A74FF6A55C5D531F69609F1F6E7F17C4443A8E2089BE8 ADD SWAP3 SWAP2 SWAP1 SWAP2 ADD SWAP1 PUSH2 0x21A5 JUMP JUMPDEST POP POP PUSH1 0x40 MLOAD DUP5 SWAP2 POP PUSH1 0x1 PUSH1 0x1 PUSH1 0xA0 SHL SUB DUP7 AND SWAP1 PUSH32 0xB13B3FA5A495FFBC07FA282FD9A34E3A9F4F7184EF7E89C47D83A38894F2C2CD SWAP1 PUSH1 0x0 SWAP1 LOG3 POP POP PUSH2 0x1150 PUSH1 0x1 PUSH1 0x65 SSTORE JUMP JUMPDEST POP POP JUMP JUMPDEST PUSH1 0x60 PUSH1 0x9A DUP1 SLOAD DUP1 PUSH1 0x20 MUL PUSH1 0x20 ADD PUSH1 0x40 MLOAD SWAP1 DUP2 ADD PUSH1 0x40 MSTORE DUP1 SWAP3 SWAP2 SWAP1 DUP2 DUP2 MSTORE PUSH1 0x20 ADD PUSH1 0x0 SWAP1 JUMPDEST DUP3 DUP3 LT ISZERO PUSH2 0x867 JUMPI PUSH1 0x0 DUP5 DUP2 MSTORE PUSH1 0x20 SWAP1 DUP2 SWAP1 KECCAK256 PUSH1 0x40 DUP1 MLOAD PUSH1 0xA0 DUP2 ADD DUP3 MSTORE PUSH1 0x5 DUP7 MUL SWAP1 SWAP3 ADD DUP1 SLOAD PUSH1 0x1 PUSH1 0x1 PUSH1 0xA0 SHL SUB SWAP1 DUP2 AND DUP5 MSTORE PUSH1 0x1 DUP3 ADD SLOAD AND SWAP4 DUP4 ADD SWAP4 SWAP1 SWAP4 MSTORE PUSH1 0x2 DUP4 ADD SLOAD SWAP1 DUP3 ADD MSTORE PUSH1 0x3 DUP3 ADD SLOAD PUSH1 0x60 DUP3 ADD MSTORE PUSH1 0x4 DUP3 ADD DUP1 SLOAD SWAP2 SWAP3 SWAP2 PUSH1 0x80 DUP5 ADD SWAP2 SWAP1 PUSH2 0x11E3 SWAP1 PUSH2 0x267F JUMP JUMPDEST DUP1 PUSH1 0x1F ADD PUSH1 0x20 DUP1 SWAP2 DIV MUL PUSH1 0x20 ADD PUSH1 0x40 MLOAD SWAP1 DUP2 ADD PUSH1 0x40 MSTORE DUP1 SWAP3 SWAP2 SWAP1 DUP2 DUP2 MSTORE PUSH1 0x20 ADD DUP3 DUP1 SLOAD PUSH2 0x120F SWAP1 PUSH2 0x267F JUMP JUMPDEST DUP1 ISZERO PUSH2 0x125C JUMPI DUP1 PUSH1 0x1F LT PUSH2 0x1231 JUMPI PUSH2 0x100 DUP1 DUP4 SLOAD DIV MUL DUP4 MSTORE SWAP2 PUSH1 0x20 ADD SWAP2 PUSH2 0x125C JUMP JUMPDEST DUP3 ADD SWAP2 SWAP1 PUSH1 0x0 MSTORE PUSH1 0x20 PUSH1 0x0 KECCAK256 SWAP1 JUMPDEST DUP2 SLOAD DUP2 MSTORE SWAP1 PUSH1 0x1 ADD SWAP1 PUSH1 0x20 ADD DUP1 DUP4 GT PUSH2 0x123F JUMPI DUP3 SWAP1 SUB PUSH1 0x1F AND DUP3 ADD SWAP2 JUMPDEST POP POP POP POP POP DUP2 MSTORE POP POP DUP2 MSTORE PUSH1 0x20 ADD SWAP1 PUSH1 0x1 ADD SWAP1 PUSH2 0x1178 JUMP JUMPDEST PUSH2 0x127C PUSH2 0x1E26 JUMP JUMPDEST DUP3 PUSH2 0x1286 DUP2 PUSH2 0x6E8 JUMP JUMPDEST PUSH2 0x12A2 JUMPI PUSH1 0x40 MLOAD PUSH3 0x461BCD PUSH1 0xE5 SHL DUP2 MSTORE PUSH1 0x4 ADD PUSH2 0x39B SWAP1 PUSH2 0x2576 JUMP JUMPDEST PUSH1 0x40 MLOAD PUSH4 0x31A9108F PUSH1 0xE1 SHL DUP2 MSTORE PUSH1 0x4 DUP2 ADD DUP5 SWAP1 MSTORE CALLER SWAP1 PUSH1 0x1 PUSH1 0x1 PUSH1 0xA0 SHL SUB DUP4 AND SWAP1 PUSH4 0x6352211E SWAP1 PUSH1 0x24 ADD PUSH1 0x20 PUSH1 0x40 MLOAD DUP1 DUP4 SUB DUP2 DUP7 DUP1 EXTCODESIZE ISZERO DUP1 ISZERO PUSH2 0x12E4 JUMPI PUSH1 0x0 DUP1 REVERT JUMPDEST POP GAS STATICCALL ISZERO DUP1 ISZERO PUSH2 0x12F8 JUMPI RETURNDATASIZE PUSH1 0x0 DUP1 RETURNDATACOPY RETURNDATASIZE PUSH1 0x0 REVERT JUMPDEST POP POP POP POP PUSH1 0x40 MLOAD RETURNDATASIZE PUSH1 0x1F NOT PUSH1 0x1F DUP3 ADD AND DUP3 ADD DUP1 PUSH1 0x40 MSTORE POP DUP2 ADD SWAP1 PUSH2 0x131C SWAP2 SWAP1 PUSH2 0x25C6 JUMP JUMPDEST PUSH1 0x1 PUSH1 0x1 PUSH1 0xA0 SHL SUB AND EQ PUSH2 0x1342 JUMPI PUSH1 0x40 MLOAD PUSH3 0x461BCD PUSH1 0xE5 SHL DUP2 MSTORE PUSH1 0x4 ADD PUSH2 0x39B SWAP1 PUSH2 0x25E3 JUMP JUMPDEST PUSH1 0x40 MLOAD PUSH4 0x20604BF PUSH1 0xE2 SHL DUP2 MSTORE PUSH1 0x4 DUP2 ADD DUP5 SWAP1 MSTORE ADDRESS SWAP1 PUSH1 0x1 PUSH1 0x1 PUSH1 0xA0 SHL SUB DUP4 AND SWAP1 PUSH4 0x81812FC SWAP1 PUSH1 0x24 ADD PUSH1 0x20 PUSH1 0x40 MLOAD DUP1 DUP4 SUB DUP2 DUP7 DUP1 EXTCODESIZE ISZERO DUP1 ISZERO PUSH2 0x1384 JUMPI PUSH1 0x0 DUP1 REVERT JUMPDEST POP GAS STATICCALL ISZERO DUP1 ISZERO PUSH2 0x1398 JUMPI RETURNDATASIZE PUSH1 0x0 DUP1 RETURNDATACOPY RETURNDATASIZE PUSH1 0x0 REVERT JUMPDEST POP POP POP POP PUSH1 0x40 MLOAD RETURNDATASIZE PUSH1 0x1F NOT PUSH1 0x1F DUP3 ADD AND DUP3 ADD DUP1 PUSH1 0x40 MSTORE POP DUP2 ADD SWAP1 PUSH2 0x13BC SWAP2 SWAP1 PUSH2 0x25C6 JUMP JUMPDEST PUSH1 0x1 PUSH1 0x1 PUSH1 0xA0 SHL SUB AND EQ PUSH2 0x13E2 JUMPI PUSH1 0x40 MLOAD PUSH3 0x461BCD PUSH1 0xE5 SHL DUP2 MSTORE PUSH1 0x4 ADD PUSH2 0x39B SWAP1 PUSH2 0x2612 JUMP JUMPDEST PUSH1 0x1 PUSH1 0x1 PUSH1 0xA0 SHL SUB DUP5 AND PUSH1 0x0 SWAP1 DUP2 MSTORE PUSH1 0x98 PUSH1 0x20 SWAP1 DUP2 MSTORE PUSH1 0x40 DUP1 DUP4 KECCAK256 DUP7 DUP5 MSTORE SWAP1 SWAP2 MSTORE SWAP1 KECCAK256 PUSH1 0x1 ADD SLOAD PUSH1 0x1 PUSH1 0xA0 SHL SWAP1 DIV PUSH1 0xFF AND PUSH2 0x142F JUMPI PUSH1 0x40 MLOAD PUSH3 0x461BCD PUSH1 0xE5 SHL DUP2 MSTORE PUSH1 0x4 ADD PUSH2 0x39B SWAP1 PUSH2 0x2656 JUMP JUMPDEST PUSH1 0x1 PUSH1 0x1 PUSH1 0xA0 SHL SUB DUP5 AND PUSH1 0x0 SWAP1 DUP2 MSTORE PUSH1 0x98 PUSH1 0x20 SWAP1 DUP2 MSTORE PUSH1 0x40 DUP1 DUP4 KECCAK256 DUP7 DUP5 MSTORE SWAP1 SWAP2 MSTORE DUP2 KECCAK256 PUSH1 0x2 ADD DUP4 SWAP1 SSTORE PUSH2 0x1462 DUP6 DUP6 PUSH2 0x1E87 JUMP JUMPDEST SWAP1 POP PUSH2 0x146D DUP2 PUSH2 0x1F24 JUMP JUMPDEST PUSH1 0x1 PUSH1 0x1 PUSH1 0xA0 SHL SUB DUP6 DUP2 AND PUSH1 0x0 DUP2 DUP2 MSTORE PUSH1 0x98 PUSH1 0x20 SWAP1 DUP2 MSTORE PUSH1 0x40 DUP1 DUP4 KECCAK256 DUP10 DUP5 MSTORE DUP3 MSTORE DUP1 DUP4 KECCAK256 PUSH1 0x99 DUP1 SLOAD PUSH1 0x1 DUP1 DUP3 ADD SWAP1 SWAP3 SSTORE DUP3 SLOAD PUSH32 0x72A152DDFB8E864297C917AF52EA6C1C68AEAD0FEE1A62673FCC7E0C94979D00 PUSH1 0x4 SWAP3 DUP4 MUL SWAP1 DUP2 ADD DUP1 SLOAD SWAP3 DUP12 AND PUSH1 0x1 PUSH1 0x1 PUSH1 0xA0 SHL SUB NOT SWAP4 DUP5 AND OR SWAP1 SSTORE DUP4 DUP6 ADD DUP1 SLOAD PUSH32 0x72A152DDFB8E864297C917AF52EA6C1C68AEAD0FEE1A62673FCC7E0C94979D01 DUP4 ADD DUP1 SLOAD SWAP2 DUP14 AND DUP3 DUP7 AND DUP2 OR DUP3 SSTORE SWAP3 SLOAD PUSH1 0x1 PUSH1 0x1 PUSH1 0xA8 SHL SUB NOT SWAP1 SWAP3 AND SWAP1 SWAP3 OR PUSH1 0x1 PUSH1 0xA0 SHL SWAP2 DUP3 SWAP1 DIV PUSH1 0xFF AND ISZERO ISZERO SWAP1 SWAP2 MUL OR SWAP1 SSTORE PUSH1 0x2 DUP6 ADD SLOAD PUSH32 0x72A152DDFB8E864297C917AF52EA6C1C68AEAD0FEE1A62673FCC7E0C94979D02 DUP3 ADD SSTORE PUSH1 0x3 SWAP1 SWAP5 ADD SLOAD PUSH32 0x72A152DDFB8E864297C917AF52EA6C1C68AEAD0FEE1A62673FCC7E0C94979D03 SWAP1 SWAP5 ADD SWAP4 SWAP1 SWAP4 SSTORE DUP4 MLOAD PUSH1 0xA0 DUP2 ADD DUP6 MSTORE CALLER DUP2 MSTORE DUP1 DUP7 ADD SWAP8 DUP9 MSTORE DUP1 DUP6 ADD DUP14 DUP2 MSTORE PUSH1 0x60 DUP3 ADD DUP14 DUP2 MSTORE DUP7 MLOAD DUP1 DUP9 ADD SWAP1 SWAP8 MSTORE SWAP3 DUP7 MSTORE PUSH4 0x11591A5D PUSH1 0xE2 SHL DUP7 DUP9 ADD MSTORE PUSH1 0x80 DUP3 ADD SWAP6 DUP7 MSTORE PUSH1 0x9A DUP1 SLOAD SWAP5 DUP6 ADD DUP2 SSTORE SWAP1 SWAP8 MSTORE DUP1 MLOAD PUSH32 0x44DA158BA27F9252712A74FF6A55C5D531F69609F1F6E7F17C4443A8E2089BE4 PUSH1 0x5 SWAP1 SWAP5 MUL SWAP4 DUP5 ADD DUP1 SLOAD DUP7 AND SWAP2 DUP12 AND SWAP2 SWAP1 SWAP2 OR DUP2 SSTORE SWAP8 MLOAD PUSH32 0x44DA158BA27F9252712A74FF6A55C5D531F69609F1F6E7F17C4443A8E2089BE5 DUP5 ADD DUP1 SLOAD SWAP1 SWAP6 AND SWAP10 AND SWAP9 SWAP1 SWAP9 OR SWAP1 SWAP3 SSTORE SWAP4 MLOAD PUSH32 0x44DA158BA27F9252712A74FF6A55C5D531F69609F1F6E7F17C4443A8E2089BE6 DUP6 ADD SSTORE MLOAD PUSH32 0x44DA158BA27F9252712A74FF6A55C5D531F69609F1F6E7F17C4443A8E2089BE7 DUP5 ADD SSTORE MLOAD DUP1 MLOAD PUSH2 0x16BE SWAP4 PUSH32 0x44DA158BA27F9252712A74FF6A55C5D531F69609F1F6E7F17C4443A8E2089BE8 ADD SWAP3 SWAP2 SWAP1 SWAP2 ADD SWAP1 PUSH2 0x21A5 JUMP JUMPDEST POP POP POP DUP4 DUP6 PUSH1 0x1 PUSH1 0x1 PUSH1 0xA0 SHL SUB AND PUSH32 0xD4891E98FA502CB701C2F331397901A048F15A7385581F955EE5F7E1BD59E507 DUP6 PUSH1 0x40 MLOAD PUSH2 0x16FD SWAP2 DUP2 MSTORE PUSH1 0x20 ADD SWAP1 JUMP JUMPDEST PUSH1 0x40 MLOAD DUP1 SWAP2 SUB SWAP1 LOG3 POP POP PUSH2 0x6E3 PUSH1 0x1 PUSH1 0x65 SSTORE JUMP JUMPDEST PUSH2 0x1719 PUSH2 0x1E26 JUMP JUMPDEST PUSH1 0x1 PUSH1 0x1 PUSH1 0xA0 SHL SUB DUP3 DUP2 AND PUSH1 0x0 DUP2 DUP2 MSTORE PUSH1 0x98 PUSH1 0x20 SWAP1 DUP2 MSTORE PUSH1 0x40 DUP1 DUP4 KECCAK256 DUP7 DUP5 MSTORE SWAP1 SWAP2 MSTORE SWAP1 DUP2 SWAP1 KECCAK256 PUSH1 0x1 ADD SLOAD SWAP1 MLOAD PUSH4 0x31A9108F PUSH1 0xE1 SHL DUP2 MSTORE PUSH1 0x4 DUP2 ADD DUP6 SWAP1 MSTORE DUP6 SWAP4 SWAP2 SWAP1 SWAP2 AND SWAP2 DUP3 SWAP2 PUSH4 0x6352211E SWAP1 PUSH1 0x24 ADD PUSH1 0x20 PUSH1 0x40 MLOAD DUP1 DUP4 SUB DUP2 DUP7 DUP1 EXTCODESIZE ISZERO DUP1 ISZERO PUSH2 0x1780 JUMPI PUSH1 0x0 DUP1 REVERT JUMPDEST POP GAS STATICCALL ISZERO DUP1 ISZERO PUSH2 0x1794 JUMPI RETURNDATASIZE PUSH1 0x0 DUP1 RETURNDATACOPY RETURNDATASIZE PUSH1 0x0 REVERT JUMPDEST POP POP POP POP PUSH1 0x40 MLOAD RETURNDATASIZE PUSH1 0x1F NOT PUSH1 0x1F DUP3 ADD AND DUP3 ADD DUP1 PUSH1 0x40 MSTORE POP DUP2 ADD SWAP1 PUSH2 0x17B8 SWAP2 SWAP1 PUSH2 0x25C6 JUMP JUMPDEST PUSH1 0x1 PUSH1 0x1 PUSH1 0xA0 SHL SUB AND EQ PUSH2 0x1803 JUMPI PUSH1 0x40 MLOAD PUSH3 0x461BCD PUSH1 0xE5 SHL DUP2 MSTORE PUSH1 0x20 PUSH1 0x4 DUP3 ADD MSTORE PUSH1 0x12 PUSH1 0x24 DUP3 ADD MSTORE PUSH18 0x6E6F74206F776E657220616E79206D6F7265 PUSH1 0x70 SHL PUSH1 0x44 DUP3 ADD MSTORE PUSH1 0x64 ADD PUSH2 0x39B JUMP JUMPDEST PUSH2 0x180C DUP5 PUSH2 0x6E8 JUMP JUMPDEST PUSH2 0x1828 JUMPI PUSH1 0x40 MLOAD PUSH3 0x461BCD PUSH1 0xE5 SHL DUP2 MSTORE PUSH1 0x4 ADD PUSH2 0x39B SWAP1 PUSH2 0x2576 JUMP JUMPDEST PUSH1 0x40 MLOAD PUSH4 0x20604BF PUSH1 0xE2 SHL DUP2 MSTORE PUSH1 0x4 DUP2 ADD DUP5 SWAP1 MSTORE ADDRESS SWAP1 PUSH1 0x1 PUSH1 0x1 PUSH1 0xA0 SHL SUB DUP5 AND SWAP1 PUSH4 0x81812FC SWAP1 PUSH1 0x24 ADD PUSH1 0x20 PUSH1 0x40 MLOAD DUP1 DUP4 SUB DUP2 DUP7 DUP1 EXTCODESIZE ISZERO DUP1 ISZERO PUSH2 0x186A JUMPI PUSH1 0x0 DUP1 REVERT JUMPDEST POP GAS STATICCALL ISZERO DUP1 ISZERO PUSH2 0x187E JUMPI RETURNDATASIZE PUSH1 0x0 DUP1 RETURNDATACOPY RETURNDATASIZE PUSH1 0x0 REVERT JUMPDEST POP POP POP POP PUSH1 0x40 MLOAD RETURNDATASIZE PUSH1 0x1F NOT PUSH1 0x1F DUP3 ADD AND DUP3 ADD DUP1 PUSH1 0x40 MSTORE POP DUP2 ADD SWAP1 PUSH2 0x18A2 SWAP2 SWAP1 PUSH2 0x25C6 JUMP JUMPDEST PUSH1 0x1 PUSH1 0x1 PUSH1 0xA0 SHL SUB AND EQ PUSH2 0x18F8 JUMPI PUSH1 0x40 MLOAD PUSH3 0x461BCD PUSH1 0xE5 SHL DUP2 MSTORE PUSH1 0x20 PUSH1 0x4 DUP3 ADD MSTORE PUSH1 0x1C PUSH1 0x24 DUP3 ADD MSTORE PUSH32 0x4E4654206973206E6F7420617070726F766564206279206F776E657200000000 PUSH1 0x44 DUP3 ADD MSTORE PUSH1 0x64 ADD PUSH2 0x39B JUMP JUMPDEST PUSH1 0x1 PUSH1 0x1 PUSH1 0xA0 SHL SUB DUP5 AND PUSH1 0x0 SWAP1 DUP2 MSTORE PUSH1 0x98 PUSH1 0x20 SWAP1 DUP2 MSTORE PUSH1 0x40 DUP1 DUP4 KECCAK256 DUP7 DUP5 MSTORE SWAP1 SWAP2 MSTORE SWAP1 KECCAK256 PUSH1 0x1 ADD SLOAD PUSH1 0x1 PUSH1 0xA0 SHL SWAP1 DIV PUSH1 0xFF AND PUSH2 0x1945 JUMPI PUSH1 0x40 MLOAD PUSH3 0x461BCD PUSH1 0xE5 SHL DUP2 MSTORE PUSH1 0x4 ADD PUSH2 0x39B SWAP1 PUSH2 0x2656 JUMP JUMPDEST PUSH1 0x1 PUSH1 0x1 PUSH1 0xA0 SHL SUB DUP5 AND PUSH1 0x0 SWAP1 DUP2 MSTORE PUSH1 0x98 PUSH1 0x20 SWAP1 DUP2 MSTORE PUSH1 0x40 DUP1 DUP4 KECCAK256 DUP7 DUP5 MSTORE SWAP1 SWAP2 MSTORE SWAP1 KECCAK256 PUSH1 0x2 ADD SLOAD CALLVALUE EQ PUSH2 0x19CD JUMPI PUSH1 0x40 MLOAD PUSH3 0x461BCD PUSH1 0xE5 SHL DUP2 MSTORE PUSH1 0x20 PUSH1 0x4 DUP3 ADD MSTORE PUSH1 0x2A PUSH1 0x24 DUP3 ADD MSTORE PUSH32 0x596F7520646F6E74206861766520656E6F7567682066756E647320746F206275 PUSH1 0x44 DUP3 ADD MSTORE PUSH10 0x1E481D1A1A5CC8139195 PUSH1 0xB2 SHL PUSH1 0x64 DUP3 ADD MSTORE PUSH1 0x84 ADD PUSH2 0x39B JUMP JUMPDEST PUSH1 0x0 PUSH1 0x64 PUSH2 0x19DC PUSH1 0x5 CALLVALUE PUSH2 0x26BA JUMP JUMPDEST PUSH2 0x19E6 SWAP2 SWAP1 PUSH2 0x26D9 JUMP JUMPDEST SWAP1 POP PUSH1 0x0 PUSH2 0x19F4 DUP3 CALLVALUE PUSH2 0x26FB JUMP JUMPDEST PUSH1 0x1 PUSH1 0x1 PUSH1 0xA0 SHL SUB DUP1 DUP9 AND PUSH1 0x0 SWAP1 DUP2 MSTORE PUSH1 0x98 PUSH1 0x20 SWAP1 DUP2 MSTORE PUSH1 0x40 DUP1 DUP4 KECCAK256 DUP11 DUP5 MSTORE SWAP1 SWAP2 MSTORE SWAP1 KECCAK256 PUSH1 0x1 ADD SLOAD SWAP2 SWAP3 POP PUSH2 0x1A2A SWAP2 AND DUP3 PUSH2 0x2035 JUMP JUMPDEST PUSH1 0x97 SLOAD PUSH2 0x1A40 SWAP1 PUSH1 0x1 PUSH1 0x1 PUSH1 0xA0 SHL SUB AND DUP4 PUSH2 0x2035 JUMP JUMPDEST PUSH1 0x1 PUSH1 0x1 PUSH1 0xA0 SHL SUB DUP7 DUP2 AND PUSH1 0x0 SWAP1 DUP2 MSTORE PUSH1 0x98 PUSH1 0x20 SWAP1 DUP2 MSTORE PUSH1 0x40 DUP1 DUP4 KECCAK256 DUP10 DUP5 MSTORE SWAP1 SWAP2 MSTORE SWAP1 DUP2 SWAP1 KECCAK256 PUSH1 0x1 ADD DUP1 SLOAD PUSH1 0x1 PUSH1 0x1 PUSH1 0xA8 SHL SUB NOT AND CALLER SWAP1 DUP2 OR SWAP1 SWAP2 SSTORE SWAP1 MLOAD PUSH4 0x21421707 PUSH1 0xE1 SHL DUP2 MSTORE DUP6 DUP4 AND PUSH1 0x4 DUP3 ADD MSTORE PUSH1 0x24 DUP2 ADD SWAP2 SWAP1 SWAP2 MSTORE PUSH1 0x44 DUP2 ADD DUP8 SWAP1 MSTORE SWAP1 DUP6 AND SWAP1 PUSH4 0x42842E0E SWAP1 PUSH1 0x64 ADD PUSH1 0x0 PUSH1 0x40 MLOAD DUP1 DUP4 SUB DUP2 PUSH1 0x0 DUP8 DUP1 EXTCODESIZE ISZERO DUP1 ISZERO PUSH2 0x1AC6 JUMPI PUSH1 0x0 DUP1 REVERT JUMPDEST POP GAS CALL ISZERO DUP1 ISZERO PUSH2 0x1ADA JUMPI RETURNDATASIZE PUSH1 0x0 DUP1 RETURNDATACOPY RETURNDATASIZE PUSH1 0x0 REVERT JUMPDEST POP POP POP POP PUSH1 0x0 PUSH2 0x1AEA DUP8 DUP8 PUSH2 0x1E87 JUMP JUMPDEST SWAP1 POP PUSH2 0x1AF5 DUP2 PUSH2 0x1F24 JUMP JUMPDEST PUSH1 0x40 DUP1 MLOAD PUSH1 0xA0 DUP2 ADD DUP3 MSTORE CALLER DUP2 MSTORE PUSH1 0x1 PUSH1 0x1 PUSH1 0xA0 SHL SUB DUP10 DUP2 AND PUSH1 0x20 DUP1 DUP5 ADD SWAP2 DUP3 MSTORE DUP4 DUP6 ADD DUP12 DUP2 MSTORE CALLVALUE PUSH1 0x60 DUP7 ADD SWAP1 DUP2 MSTORE DUP7 MLOAD DUP1 DUP9 ADD SWAP1 SWAP8 MSTORE PUSH1 0x3 DUP8 MSTORE PUSH3 0x427579 PUSH1 0xE8 SHL DUP8 DUP5 ADD MSTORE PUSH1 0x80 DUP7 ADD SWAP7 DUP8 MSTORE PUSH1 0x9A DUP1 SLOAD PUSH1 0x1 DUP2 ADD DUP3 SSTORE PUSH1 0x0 SWAP2 SWAP1 SWAP2 MSTORE DUP7 MLOAD PUSH1 0x5 SWAP1 SWAP2 MUL PUSH32 0x44DA158BA27F9252712A74FF6A55C5D531F69609F1F6E7F17C4443A8E2089BE4 DUP2 ADD DUP1 SLOAD SWAP3 DUP9 AND PUSH1 0x1 PUSH1 0x1 PUSH1 0xA0 SHL SUB NOT SWAP4 DUP5 AND OR DUP2 SSTORE SWAP6 MLOAD PUSH32 0x44DA158BA27F9252712A74FF6A55C5D531F69609F1F6E7F17C4443A8E2089BE5 DUP3 ADD DUP1 SLOAD SWAP2 SWAP1 SWAP9 AND SWAP3 AND SWAP2 SWAP1 SWAP2 OR SWAP1 SWAP6 SSTORE SWAP1 MLOAD PUSH32 0x44DA158BA27F9252712A74FF6A55C5D531F69609F1F6E7F17C4443A8E2089BE6 DUP6 ADD SSTORE MLOAD PUSH32 0x44DA158BA27F9252712A74FF6A55C5D531F69609F1F6E7F17C4443A8E2089BE7 DUP5 ADD SSTORE SWAP4 MLOAD DUP1 MLOAD SWAP4 SWAP5 SWAP2 SWAP4 PUSH2 0x1C47 SWAP4 PUSH32 0x44DA158BA27F9252712A74FF6A55C5D531F69609F1F6E7F17C4443A8E2089BE8 ADD SWAP3 SWAP2 SWAP1 SWAP2 ADD SWAP1 PUSH2 0x21A5 JUMP JUMPDEST POP POP PUSH1 0x40 DUP1 MLOAD DUP9 DUP2 MSTORE CALLVALUE PUSH1 0x20 DUP3 ADD MSTORE CALLER SWAP3 POP PUSH1 0x1 PUSH1 0x1 PUSH1 0xA0 SHL SUB DUP8 DUP2 AND SWAP3 SWAP1 DUP12 AND SWAP2 PUSH32 0x53F27BBBBE2791E943DAC89F644E5D8F5B16152644F5111604390F09F5F8BA40 SWAP2 ADD PUSH1 0x40 MLOAD DUP1 SWAP2 SUB SWAP1 LOG4 POP POP POP POP POP PUSH2 0x1150 PUSH1 0x1 PUSH1 0x65 SSTORE JUMP JUMPDEST PUSH2 0x1CAB PUSH2 0x1D1C JUMP JUMPDEST PUSH1 0x1 PUSH1 0x1 PUSH1 0xA0 SHL SUB DUP2 AND PUSH2 0x1D10 JUMPI PUSH1 0x40 MLOAD PUSH3 0x461BCD PUSH1 0xE5 SHL DUP2 MSTORE PUSH1 0x20 PUSH1 0x4 DUP3 ADD MSTORE PUSH1 0x26 PUSH1 0x24 DUP3 ADD MSTORE PUSH32 0x4F776E61626C653A206E6577206F776E657220697320746865207A65726F2061 PUSH1 0x44 DUP3 ADD MSTORE PUSH6 0x646472657373 PUSH1 0xD0 SHL PUSH1 0x64 DUP3 ADD MSTORE PUSH1 0x84 ADD PUSH2 0x39B JUMP JUMPDEST PUSH2 0x1D19 DUP2 PUSH2 0x1DD4 JUMP JUMPDEST POP JUMP JUMPDEST PUSH1 0x33 SLOAD PUSH1 0x1 PUSH1 0x1 PUSH1 0xA0 SHL SUB AND CALLER EQ PUSH2 0x7CD JUMPI PUSH1 0x40 MLOAD PUSH3 0x461BCD PUSH1 0xE5 SHL DUP2 MSTORE PUSH1 0x20 PUSH1 0x4 DUP3 ADD DUP2 SWAP1 MSTORE PUSH1 0x24 DUP3 ADD MSTORE PUSH32 0x4F776E61626C653A2063616C6C6572206973206E6F7420746865206F776E6572 PUSH1 0x44 DUP3 ADD MSTORE PUSH1 0x64 ADD PUSH2 0x39B JUMP JUMPDEST PUSH1 0x0 SLOAD PUSH2 0x100 SWAP1 DIV PUSH1 0xFF AND PUSH2 0x1D9D JUMPI PUSH1 0x40 MLOAD PUSH3 0x461BCD PUSH1 0xE5 SHL DUP2 MSTORE PUSH1 0x4 ADD PUSH2 0x39B SWAP1 PUSH2 0x2712 JUMP JUMPDEST PUSH2 0x7CD PUSH2 0x214E JUMP JUMPDEST PUSH1 0x0 SLOAD PUSH2 0x100 SWAP1 DIV PUSH1 0xFF AND PUSH2 0x1DCC JUMPI PUSH1 0x40 MLOAD PUSH3 0x461BCD PUSH1 0xE5 SHL DUP2 MSTORE PUSH1 0x4 ADD PUSH2 0x39B SWAP1 PUSH2 0x2712 JUMP JUMPDEST PUSH2 0x7CD PUSH2 0x217E JUMP JUMPDEST PUSH1 0x33 DUP1 SLOAD PUSH1 0x1 PUSH1 0x1 PUSH1 0xA0 SHL SUB DUP4 DUP2 AND PUSH1 0x1 PUSH1 0x1 PUSH1 0xA0 SHL SUB NOT DUP4 AND DUP2 OR SWAP1 SWAP4 SSTORE PUSH1 0x40 MLOAD SWAP2 AND SWAP2 SWAP1 DUP3 SWAP1 PUSH32 0x8BE0079C531659141344CD1FD0A4F28419497F9722A3DAAFE3B4186F6B6457E0 SWAP1 PUSH1 0x0 SWAP1 LOG3 POP POP JUMP JUMPDEST PUSH1 0x2 PUSH1 0x65 SLOAD EQ ISZERO PUSH2 0x1E79 JUMPI PUSH1 0x40 MLOAD PUSH3 0x461BCD PUSH1 0xE5 SHL DUP2 MSTORE PUSH1 0x20 PUSH1 0x4 DUP3 ADD MSTORE PUSH1 0x1F PUSH1 0x24 DUP3 ADD MSTORE PUSH32 0x5265656E7472616E637947756172643A207265656E7472616E742063616C6C00 PUSH1 0x44 DUP3 ADD MSTORE PUSH1 0x64 ADD PUSH2 0x39B JUMP JUMPDEST PUSH1 0x2 PUSH1 0x65 SSTORE JUMP JUMPDEST PUSH1 0x1 PUSH1 0x65 SSTORE JUMP JUMPDEST PUSH1 0x0 DUP1 DUP1 JUMPDEST PUSH1 0x99 SLOAD DUP2 LT ISZERO PUSH2 0x1F1C JUMPI DUP5 PUSH1 0x1 PUSH1 0x1 PUSH1 0xA0 SHL SUB AND PUSH1 0x99 DUP3 DUP2 SLOAD DUP2 LT PUSH2 0x1EB3 JUMPI PUSH2 0x1EB3 PUSH2 0x252F JUMP JUMPDEST PUSH1 0x0 SWAP2 DUP3 MSTORE PUSH1 0x20 SWAP1 SWAP2 KECCAK256 PUSH1 0x4 SWAP1 SWAP2 MUL ADD SLOAD PUSH1 0x1 PUSH1 0x1 PUSH1 0xA0 SHL SUB AND EQ DUP1 ISZERO PUSH2 0x1EFD JUMPI POP DUP4 PUSH1 0x99 DUP3 DUP2 SLOAD DUP2 LT PUSH2 0x1EE9 JUMPI PUSH2 0x1EE9 PUSH2 0x252F JUMP JUMPDEST SWAP1 PUSH1 0x0 MSTORE PUSH1 0x20 PUSH1 0x0 KECCAK256 SWAP1 PUSH1 0x4 MUL ADD PUSH1 0x3 ADD SLOAD EQ JUMPDEST ISZERO PUSH2 0x1F0A JUMPI DUP1 SWAP2 POP PUSH2 0x1F1C JUMP JUMPDEST DUP1 PUSH2 0x1F14 DUP2 PUSH2 0x255B JUMP JUMPDEST SWAP2 POP POP PUSH2 0x1E8C JUMP JUMPDEST POP SWAP4 SWAP3 POP POP POP JUMP JUMPDEST PUSH1 0x99 DUP1 SLOAD PUSH2 0x1F34 SWAP1 PUSH1 0x1 SWAP1 PUSH2 0x26FB JUMP JUMPDEST DUP2 SLOAD DUP2 LT PUSH2 0x1F44 JUMPI PUSH2 0x1F44 PUSH2 0x252F JUMP JUMPDEST SWAP1 PUSH1 0x0 MSTORE PUSH1 0x20 PUSH1 0x0 KECCAK256 SWAP1 PUSH1 0x4 MUL ADD PUSH1 0x99 DUP3 DUP2 SLOAD DUP2 LT PUSH2 0x1F65 JUMPI PUSH2 0x1F65 PUSH2 0x252F JUMP JUMPDEST PUSH1 0x0 SWAP2 DUP3 MSTORE PUSH1 0x20 SWAP1 SWAP2 KECCAK256 DUP3 SLOAD PUSH1 0x4 SWAP1 SWAP3 MUL ADD DUP1 SLOAD PUSH1 0x1 PUSH1 0x1 PUSH1 0xA0 SHL SUB NOT SWAP1 DUP2 AND PUSH1 0x1 PUSH1 0x1 PUSH1 0xA0 SHL SUB SWAP4 DUP5 AND OR DUP3 SSTORE PUSH1 0x1 DUP1 DUP6 ADD DUP1 SLOAD SWAP2 DUP5 ADD DUP1 SLOAD SWAP4 DUP5 AND SWAP3 SWAP1 SWAP6 AND SWAP2 DUP3 OR DUP6 SSTORE SLOAD PUSH1 0xFF PUSH1 0x1 PUSH1 0xA0 SHL SWAP2 DUP3 SWAP1 DIV AND ISZERO ISZERO MUL PUSH1 0x1 PUSH1 0x1 PUSH1 0xA8 SHL SUB NOT SWAP1 SWAP3 AND OR OR SWAP1 SWAP2 SSTORE PUSH1 0x2 DUP1 DUP4 ADD SLOAD SWAP1 DUP3 ADD SSTORE PUSH1 0x3 SWAP2 DUP3 ADD SLOAD SWAP2 ADD SSTORE PUSH1 0x99 DUP1 SLOAD DUP1 PUSH2 0x1FF0 JUMPI PUSH2 0x1FF0 PUSH2 0x275D JUMP JUMPDEST PUSH1 0x0 DUP3 DUP2 MSTORE PUSH1 0x20 DUP2 KECCAK256 PUSH1 0x4 PUSH1 0x0 NOT SWAP1 SWAP4 ADD SWAP3 DUP4 MUL ADD DUP1 SLOAD PUSH1 0x1 PUSH1 0x1 PUSH1 0xA0 SHL SUB NOT AND DUP2 SSTORE PUSH1 0x1 DUP2 ADD DUP1 SLOAD PUSH1 0x1 PUSH1 0x1 PUSH1 0xA8 SHL SUB NOT AND SWAP1 SSTORE PUSH1 0x2 DUP2 ADD DUP3 SWAP1 SSTORE PUSH1 0x3 ADD SSTORE SWAP1 SSTORE POP JUMP JUMPDEST DUP1 SELFBALANCE LT ISZERO PUSH2 0x2085 JUMPI PUSH1 0x40 MLOAD PUSH3 0x461BCD PUSH1 0xE5 SHL DUP2 MSTORE PUSH1 0x20 PUSH1 0x4 DUP3 ADD MSTORE PUSH1 0x1D PUSH1 0x24 DUP3 ADD MSTORE PUSH32 0x416464726573733A20696E73756666696369656E742062616C616E6365000000 PUSH1 0x44 DUP3 ADD MSTORE PUSH1 0x64 ADD PUSH2 0x39B JUMP JUMPDEST PUSH1 0x0 DUP3 PUSH1 0x1 PUSH1 0x1 PUSH1 0xA0 SHL SUB AND DUP3 PUSH1 0x40 MLOAD PUSH1 0x0 PUSH1 0x40 MLOAD DUP1 DUP4 SUB DUP2 DUP6 DUP8 GAS CALL SWAP3 POP POP POP RETURNDATASIZE DUP1 PUSH1 0x0 DUP2 EQ PUSH2 0x20D2 JUMPI PUSH1 0x40 MLOAD SWAP2 POP PUSH1 0x1F NOT PUSH1 0x3F RETURNDATASIZE ADD AND DUP3 ADD PUSH1 0x40 MSTORE RETURNDATASIZE DUP3 MSTORE RETURNDATASIZE PUSH1 0x0 PUSH1 0x20 DUP5 ADD RETURNDATACOPY PUSH2 0x20D7 JUMP JUMPDEST PUSH1 0x60 SWAP2 POP JUMPDEST POP POP SWAP1 POP DUP1 PUSH2 0x6E3 JUMPI PUSH1 0x40 MLOAD PUSH3 0x461BCD PUSH1 0xE5 SHL DUP2 MSTORE PUSH1 0x20 PUSH1 0x4 DUP3 ADD MSTORE PUSH1 0x3A PUSH1 0x24 DUP3 ADD MSTORE PUSH32 0x416464726573733A20756E61626C6520746F2073656E642076616C75652C2072 PUSH1 0x44 DUP3 ADD MSTORE PUSH32 0x6563697069656E74206D61792068617665207265766572746564000000000000 PUSH1 0x64 DUP3 ADD MSTORE PUSH1 0x84 ADD PUSH2 0x39B JUMP JUMPDEST PUSH1 0x0 SLOAD PUSH2 0x100 SWAP1 DIV PUSH1 0xFF AND PUSH2 0x2175 JUMPI PUSH1 0x40 MLOAD PUSH3 0x461BCD PUSH1 0xE5 SHL DUP2 MSTORE PUSH1 0x4 ADD PUSH2 0x39B SWAP1 PUSH2 0x2712 JUMP JUMPDEST PUSH2 0x7CD CALLER PUSH2 0x1DD4 JUMP JUMPDEST PUSH1 0x0 SLOAD PUSH2 0x100 SWAP1 DIV PUSH1 0xFF AND PUSH2 0x1E80 JUMPI PUSH1 0x40 MLOAD PUSH3 0x461BCD PUSH1 0xE5 SHL DUP2 MSTORE PUSH1 0x4 ADD PUSH2 0x39B SWAP1 PUSH2 0x2712 JUMP JUMPDEST DUP3 DUP1 SLOAD PUSH2 0x21B1 SWAP1 PUSH2 0x267F JUMP JUMPDEST SWAP1 PUSH1 0x0 MSTORE PUSH1 0x20 PUSH1 0x0 KECCAK256 SWAP1 PUSH1 0x1F ADD PUSH1 0x20 SWAP1 DIV DUP2 ADD SWAP3 DUP3 PUSH2 0x21D3 JUMPI PUSH1 0x0 DUP6 SSTORE PUSH2 0x2219 JUMP JUMPDEST DUP3 PUSH1 0x1F LT PUSH2 0x21EC JUMPI DUP1 MLOAD PUSH1 0xFF NOT AND DUP4 DUP1 ADD OR DUP6 SSTORE PUSH2 0x2219 JUMP JUMPDEST DUP3 DUP1 ADD PUSH1 0x1 ADD DUP6 SSTORE DUP3 ISZERO PUSH2 0x2219 JUMPI SWAP2 DUP3 ADD JUMPDEST DUP3 DUP2 GT ISZERO PUSH2 0x2219 JUMPI DUP3 MLOAD DUP3 SSTORE SWAP2 PUSH1 0x20 ADD SWAP2 SWAP1 PUSH1 0x1 ADD SWAP1 PUSH2 0x21FE JUMP JUMPDEST POP PUSH2 0x2225 SWAP3 SWAP2 POP PUSH2 0x2229 JUMP JUMPDEST POP SWAP1 JUMP JUMPDEST JUMPDEST DUP1 DUP3 GT ISZERO PUSH2 0x2225 JUMPI PUSH1 0x0 DUP2 SSTORE PUSH1 0x1 ADD PUSH2 0x222A JUMP JUMPDEST PUSH1 0x1 PUSH1 0x1 PUSH1 0xA0 SHL SUB DUP2 AND DUP2 EQ PUSH2 0x1D19 JUMPI PUSH1 0x0 DUP1 REVERT JUMPDEST DUP1 CALLDATALOAD PUSH2 0x225E DUP2 PUSH2 0x223E JUMP JUMPDEST SWAP2 SWAP1 POP JUMP JUMPDEST PUSH1 0x0 PUSH1 0x20 DUP3 DUP5 SUB SLT ISZERO PUSH2 0x2275 JUMPI PUSH1 0x0 DUP1 REVERT JUMPDEST DUP2 CALLDATALOAD PUSH2 0x2280 DUP2 PUSH2 0x223E JUMP JUMPDEST SWAP4 SWAP3 POP POP POP JUMP JUMPDEST PUSH1 0x0 DUP1 PUSH1 0x40 DUP4 DUP6 SUB SLT ISZERO PUSH2 0x229A JUMPI PUSH1 0x0 DUP1 REVERT JUMPDEST DUP3 CALLDATALOAD PUSH2 0x22A5 DUP2 PUSH2 0x223E JUMP JUMPDEST SWAP5 PUSH1 0x20 SWAP4 SWAP1 SWAP4 ADD CALLDATALOAD SWAP4 POP POP POP JUMP JUMPDEST PUSH4 0x4E487B71 PUSH1 0xE0 SHL PUSH1 0x0 MSTORE PUSH1 0x41 PUSH1 0x4 MSTORE PUSH1 0x24 PUSH1 0x0 REVERT JUMPDEST PUSH1 0x0 DUP1 PUSH1 0x40 DUP4 DUP6 SUB SLT ISZERO PUSH2 0x22DC JUMPI PUSH1 0x0 DUP1 REVERT JUMPDEST DUP3 CALLDATALOAD PUSH8 0xFFFFFFFFFFFFFFFF DUP1 DUP3 GT ISZERO PUSH2 0x22F4 JUMPI PUSH1 0x0 DUP1 REVERT JUMPDEST DUP2 DUP6 ADD SWAP2 POP DUP6 PUSH1 0x1F DUP4 ADD SLT PUSH2 0x2308 JUMPI PUSH1 0x0 DUP1 REVERT JUMPDEST DUP2 CALLDATALOAD PUSH1 0x20 DUP3 DUP3 GT ISZERO PUSH2 0x231C JUMPI PUSH2 0x231C PUSH2 0x22B3 JUMP JUMPDEST DUP2 PUSH1 0x5 SHL PUSH1 0x40 MLOAD PUSH1 0x1F NOT PUSH1 0x3F DUP4 ADD AND DUP2 ADD DUP2 DUP2 LT DUP7 DUP3 GT OR ISZERO PUSH2 0x2341 JUMPI PUSH2 0x2341 PUSH2 0x22B3 JUMP JUMPDEST PUSH1 0x40 MSTORE SWAP3 DUP4 MSTORE DUP2 DUP4 ADD SWAP4 POP DUP5 DUP2 ADD DUP3 ADD SWAP3 DUP10 DUP5 GT ISZERO PUSH2 0x235F JUMPI PUSH1 0x0 DUP1 REVERT JUMPDEST SWAP5 DUP3 ADD SWAP5 JUMPDEST DUP4 DUP7 LT ISZERO PUSH2 0x2384 JUMPI PUSH2 0x2375 DUP7 PUSH2 0x2253 JUMP JUMPDEST DUP6 MSTORE SWAP5 DUP3 ADD SWAP5 SWAP4 DUP3 ADD SWAP4 PUSH2 0x2364 JUMP JUMPDEST SWAP7 POP PUSH2 0x2393 SWAP1 POP DUP8 DUP3 ADD PUSH2 0x2253 JUMP JUMPDEST SWAP5 POP POP POP POP POP SWAP3 POP SWAP3 SWAP1 POP JUMP JUMPDEST PUSH1 0x20 DUP1 DUP3 MSTORE DUP3 MLOAD DUP3 DUP3 ADD DUP2 SWAP1 MSTORE PUSH1 0x0 SWAP2 SWAP1 PUSH1 0x40 SWAP1 DUP2 DUP6 ADD SWAP1 DUP7 DUP5 ADD DUP6 JUMPDEST DUP3 DUP2 LT ISZERO PUSH2 0x240F JUMPI DUP2 MLOAD DUP1 MLOAD PUSH1 0x1 PUSH1 0x1 PUSH1 0xA0 SHL SUB SWAP1 DUP2 AND DUP7 MSTORE DUP8 DUP3 ADD MLOAD AND DUP8 DUP7 ADD MSTORE DUP6 DUP2 ADD MLOAD ISZERO ISZERO DUP7 DUP7 ADD MSTORE PUSH1 0x60 DUP1 DUP3 ADD MLOAD SWAP1 DUP7 ADD MSTORE PUSH1 0x80 SWAP1 DUP2 ADD MLOAD SWAP1 DUP6 ADD MSTORE PUSH1 0xA0 SWAP1 SWAP4 ADD SWAP3 SWAP1 DUP6 ADD SWAP1 PUSH1 0x1 ADD PUSH2 0x23BD JUMP JUMPDEST POP SWAP2 SWAP8 SWAP7 POP POP POP POP POP POP POP JUMP JUMPDEST PUSH1 0x0 DUP1 PUSH1 0x0 PUSH1 0x60 DUP5 DUP7 SUB SLT ISZERO PUSH2 0x2431 JUMPI PUSH1 0x0 DUP1 REVERT JUMPDEST DUP4 CALLDATALOAD PUSH2 0x243C DUP2 PUSH2 0x223E JUMP JUMPDEST SWAP6 PUSH1 0x20 DUP6 ADD CALLDATALOAD SWAP6 POP PUSH1 0x40 SWAP1 SWAP5 ADD CALLDATALOAD SWAP4 SWAP3 POP POP POP JUMP JUMPDEST PUSH1 0x0 PUSH1 0x20 DUP1 DUP4 ADD DUP2 DUP5 MSTORE DUP1 DUP6 MLOAD DUP1 DUP4 MSTORE PUSH1 0x40 SWAP3 POP DUP3 DUP7 ADD SWAP2 POP DUP3 DUP2 PUSH1 0x5 SHL DUP8 ADD ADD DUP5 DUP9 ADD PUSH1 0x0 DUP1 JUMPDEST DUP5 DUP2 LT ISZERO PUSH2 0x2520 JUMPI DUP10 DUP5 SUB PUSH1 0x3F NOT ADD DUP7 MSTORE DUP3 MLOAD DUP1 MLOAD PUSH1 0x1 PUSH1 0x1 PUSH1 0xA0 SHL SUB SWAP1 DUP2 AND DUP7 MSTORE DUP10 DUP3 ADD MLOAD AND DUP10 DUP7 ADD MSTORE DUP8 DUP2 ADD MLOAD DUP9 DUP7 ADD MSTORE PUSH1 0x60 DUP1 DUP3 ADD MLOAD SWAP1 DUP7 ADD MSTORE PUSH1 0x80 SWAP1 DUP2 ADD MLOAD PUSH1 0xA0 SWAP2 DUP7 ADD DUP3 SWAP1 MSTORE DUP1 MLOAD SWAP2 DUP7 ADD DUP3 SWAP1 MSTORE SWAP1 DUP4 SWAP1 JUMPDEST DUP1 DUP3 LT ISZERO PUSH2 0x24EE JUMPI DUP3 DUP3 ADD DUP12 ADD MLOAD DUP8 DUP4 ADD PUSH1 0xC0 ADD MSTORE SWAP1 DUP11 ADD SWAP1 PUSH2 0x24D0 JUMP JUMPDEST DUP1 DUP3 GT ISZERO PUSH2 0x24FF JUMPI DUP5 PUSH1 0xC0 DUP3 DUP10 ADD ADD MSTORE JUMPDEST SWAP8 DUP11 ADD SWAP8 PUSH1 0x1F ADD PUSH1 0x1F NOT AND SWAP6 SWAP1 SWAP6 ADD PUSH1 0xC0 ADD SWAP5 POP POP SWAP2 DUP8 ADD SWAP2 PUSH1 0x1 ADD PUSH2 0x2479 JUMP JUMPDEST POP SWAP2 SWAP10 SWAP9 POP POP POP POP POP POP POP POP POP JUMP JUMPDEST PUSH4 0x4E487B71 PUSH1 0xE0 SHL PUSH1 0x0 MSTORE PUSH1 0x32 PUSH1 0x4 MSTORE PUSH1 0x24 PUSH1 0x0 REVERT JUMPDEST PUSH4 0x4E487B71 PUSH1 0xE0 SHL PUSH1 0x0 MSTORE PUSH1 0x11 PUSH1 0x4 MSTORE PUSH1 0x24 PUSH1 0x0 REVERT JUMPDEST PUSH1 0x0 PUSH1 0x0 NOT DUP3 EQ ISZERO PUSH2 0x256F JUMPI PUSH2 0x256F PUSH2 0x2545 JUMP JUMPDEST POP PUSH1 0x1 ADD SWAP1 JUMP JUMPDEST PUSH1 0x20 DUP1 DUP3 MSTORE PUSH1 0x30 SWAP1 DUP3 ADD MSTORE PUSH32 0x5468697320636F6C6C656374696F6E2063616E7420626520736F6C64206F6E20 PUSH1 0x40 DUP3 ADD MSTORE PUSH16 0x74686973206D61726B6574706C616365 PUSH1 0x80 SHL PUSH1 0x60 DUP3 ADD MSTORE PUSH1 0x80 ADD SWAP1 JUMP JUMPDEST PUSH1 0x0 PUSH1 0x20 DUP3 DUP5 SUB SLT ISZERO PUSH2 0x25D8 JUMPI PUSH1 0x0 DUP1 REVERT JUMPDEST DUP2 MLOAD PUSH2 0x2280 DUP2 PUSH2 0x223E JUMP JUMPDEST PUSH1 0x20 DUP1 DUP3 MSTORE PUSH1 0x15 SWAP1 DUP3 ADD MSTORE PUSH21 0x2CB7BA9030B932903737BA103A34329037BBB732B9 PUSH1 0x59 SHL PUSH1 0x40 DUP3 ADD MSTORE PUSH1 0x60 ADD SWAP1 JUMP JUMPDEST PUSH1 0x20 DUP1 DUP3 MSTORE PUSH1 0x24 SWAP1 DUP3 ADD MSTORE PUSH32 0x506C6561736520617070726F7665204E465420666F72207468697320636F6E74 PUSH1 0x40 DUP3 ADD MSTORE PUSH4 0x1C9858DD PUSH1 0xE2 SHL PUSH1 0x60 DUP3 ADD MSTORE PUSH1 0x80 ADD SWAP1 JUMP JUMPDEST PUSH1 0x20 DUP1 DUP3 MSTORE PUSH1 0xF SWAP1 DUP3 ADD MSTORE PUSH15 0x4E4654206E6F74206F6E2073616C65 PUSH1 0x88 SHL PUSH1 0x40 DUP3 ADD MSTORE PUSH1 0x60 ADD SWAP1 JUMP JUMPDEST PUSH1 0x1 DUP2 DUP2 SHR SWAP1 DUP3 AND DUP1 PUSH2 0x2693 JUMPI PUSH1 0x7F DUP3 AND SWAP2 POP JUMPDEST PUSH1 0x20 DUP3 LT DUP2 EQ ISZERO PUSH2 0x26B4 JUMPI PUSH4 0x4E487B71 PUSH1 0xE0 SHL PUSH1 0x0 MSTORE PUSH1 0x22 PUSH1 0x4 MSTORE PUSH1 0x24 PUSH1 0x0 REVERT JUMPDEST POP SWAP2 SWAP1 POP JUMP JUMPDEST PUSH1 0x0 DUP2 PUSH1 0x0 NOT DIV DUP4 GT DUP3 ISZERO ISZERO AND ISZERO PUSH2 0x26D4 JUMPI PUSH2 0x26D4 PUSH2 0x2545 JUMP JUMPDEST POP MUL SWAP1 JUMP JUMPDEST PUSH1 0x0 DUP3 PUSH2 0x26F6 JUMPI PUSH4 0x4E487B71 PUSH1 0xE0 SHL PUSH1 0x0 MSTORE PUSH1 0x12 PUSH1 0x4 MSTORE PUSH1 0x24 PUSH1 0x0 REVERT JUMPDEST POP DIV SWAP1 JUMP JUMPDEST PUSH1 0x0 DUP3 DUP3 LT ISZERO PUSH2 0x270D JUMPI PUSH2 0x270D PUSH2 0x2545 JUMP JUMPDEST POP SUB SWAP1 JUMP JUMPDEST PUSH1 0x20 DUP1 DUP3 MSTORE PUSH1 0x2B SWAP1 DUP3 ADD MSTORE PUSH32 0x496E697469616C697A61626C653A20636F6E7472616374206973206E6F742069 PUSH1 0x40 DUP3 ADD MSTORE PUSH11 0x6E697469616C697A696E67 PUSH1 0xA8 SHL PUSH1 0x60 DUP3 ADD MSTORE PUSH1 0x80 ADD SWAP1 JUMP JUMPDEST PUSH4 0x4E487B71 PUSH1 0xE0 SHL PUSH1 0x0 MSTORE PUSH1 0x31 PUSH1 0x4 MSTORE PUSH1 0x24 PUSH1 0x0 REVERT INVALID LOG2 PUSH5 0x6970667358 0x22 SLT KECCAK256 DUP2 SWAP3 0xDD 0xD3 CODESIZE 0xEC 0x21 SWAP10 0xE4 0xC6 SWAP4 SWAP3 MUL CALLDATACOPY PUSH30 0xAA1CD0D0E9E4F1D50012276E95F4FA5FB64736F6C634300080800330000 "},"methodIdentifiers":{"BuyNFT(address,uint256)":"ccc0714a","COMMISSION()":"562df3d5","DelistNFT(address,uint256)":"a12e5a46","EditNFtPrice(address,uint256,uint256)":"bb14a4a7","ListNFt(address,uint256,uint256)":"8773e08c","addNFTCollection(address)":"30002eef","getHistory()":"aa15efc8","getListed()":"77b3cc9a","initialize(address[],address)":"462d0b2e","isValidNFTContracts(address)":"623b2c66","marketPlaceListing(address,uint256)":"3068ec7b","owner()":"8da5cb5b","renounceOwnership()":"715018a6","testingFunction()":"6e763f7b","transferOwnership(address)":"f2fde38b"}},"storageLayout":{"storage":[{"astId":166,"contract":"contracts/hamsterMarketPlaceV2.sol:HamsterMarketPlaceV2","label":"_initialized","offset":0,"slot":"0","type":"t_uint8"},{"astId":169,"contract":"contracts/hamsterMarketPlaceV2.sol:HamsterMarketPlaceV2","label":"_initializing","offset":1,"slot":"0","type":"t_bool"},{"astId":2477,"contract":"contracts/hamsterMarketPlaceV2.sol:HamsterMarketPlaceV2","label":"__gap","offset":0,"slot":"1","type":"t_array(t_uint256)50_storage"},{"astId":10,"contract":"contracts/hamsterMarketPlaceV2.sol:HamsterMarketPlaceV2","label":"_owner","offset":0,"slot":"51","type":"t_address"},{"astId":130,"contract":"contracts/hamsterMarketPlaceV2.sol:HamsterMarketPlaceV2","label":"__gap","offset":0,"slot":"52","type":"t_array(t_uint256)49_storage"},{"astId":342,"contract":"contracts/hamsterMarketPlaceV2.sol:HamsterMarketPlaceV2","label":"_status","offset":0,"slot":"101","type":"t_uint256"},{"astId":411,"contract":"contracts/hamsterMarketPlaceV2.sol:HamsterMarketPlaceV2","label":"__gap","offset":0,"slot":"102","type":"t_array(t_uint256)49_storage"},{"astId":6781,"contract":"contracts/hamsterMarketPlaceV2.sol:HamsterMarketPlaceV2","label":"commissionAddress","offset":0,"slot":"151","type":"t_address_payable"},{"astId":6813,"contract":"contracts/hamsterMarketPlaceV2.sol:HamsterMarketPlaceV2","label":"marketPlaceListing","offset":0,"slot":"152","type":"t_mapping(t_address,t_mapping(t_uint256,t_struct(NFTListing)6806_storage))"},{"astId":6817,"contract":"contracts/hamsterMarketPlaceV2.sol:HamsterMarketPlaceV2","label":"listed","offset":0,"slot":"153","type":"t_array(t_struct(NFTListing)6806_storage)dyn_storage"},{"astId":6821,"contract":"contracts/hamsterMarketPlaceV2.sol:HamsterMarketPlaceV2","label":"history","offset":0,"slot":"154","type":"t_array(t_struct(Log)6795_storage)dyn_storage"},{"astId":6824,"contract":"contracts/hamsterMarketPlaceV2.sol:HamsterMarketPlaceV2","label":"validNFTContracts","offset":0,"slot":"155","type":"t_array(t_address)dyn_storage"}],"types":{"t_address":{"encoding":"inplace","label":"address","numberOfBytes":"20"},"t_address_payable":{"encoding":"inplace","label":"address payable","numberOfBytes":"20"},"t_array(t_address)dyn_storage":{"base":"t_address","encoding":"dynamic_array","label":"address[]","numberOfBytes":"32"},"t_array(t_struct(Log)6795_storage)dyn_storage":{"base":"t_struct(Log)6795_storage","encoding":"dynamic_array","label":"struct HamsterMarketPlaceV2.Log[]","numberOfBytes":"32"},"t_array(t_struct(NFTListing)6806_storage)dyn_storage":{"base":"t_struct(NFTListing)6806_storage","encoding":"dynamic_array","label":"struct HamsterMarketPlaceV2.NFTListing[]","numberOfBytes":"32"},"t_array(t_uint256)49_storage":{"base":"t_uint256","encoding":"inplace","label":"uint256[49]","numberOfBytes":"1568"},"t_array(t_uint256)50_storage":{"base":"t_uint256","encoding":"inplace","label":"uint256[50]","numberOfBytes":"1600"},"t_bool":{"encoding":"inplace","label":"bool","numberOfBytes":"1"},"t_mapping(t_address,t_mapping(t_uint256,t_struct(NFTListing)6806_storage))":{"encoding":"mapping","key":"t_address","label":"mapping(address => mapping(uint256 => struct HamsterMarketPlaceV2.NFTListing))","numberOfBytes":"32","value":"t_mapping(t_uint256,t_struct(NFTListing)6806_storage)"},"t_mapping(t_uint256,t_struct(NFTListing)6806_storage)":{"encoding":"mapping","key":"t_uint256","label":"mapping(uint256 => struct HamsterMarketPlaceV2.NFTListing)","numberOfBytes":"32","value":"t_struct(NFTListing)6806_storage"},"t_string_storage":{"encoding":"bytes","label":"string","numberOfBytes":"32"},"t_struct(Log)6795_storage":{"encoding":"inplace","label":"struct HamsterMarketPlaceV2.Log","members":[{"astId":6786,"contract":"contracts/hamsterMarketPlaceV2.sol:HamsterMarketPlaceV2","label":"owner","offset":0,"slot":"0","type":"t_address"},{"astId":6788,"contract":"contracts/hamsterMarketPlaceV2.sol:HamsterMarketPlaceV2","label":"contractAddress","offset":0,"slot":"1","type":"t_address"},{"astId":6790,"contract":"contracts/hamsterMarketPlaceV2.sol:HamsterMarketPlaceV2","label":"tokenID","offset":0,"slot":"2","type":"t_uint256"},{"astId":6792,"contract":"contracts/hamsterMarketPlaceV2.sol:HamsterMarketPlaceV2","label":"price","offset":0,"slot":"3","type":"t_uint256"},{"astId":6794,"contract":"contracts/hamsterMarketPlaceV2.sol:HamsterMarketPlaceV2","label":"action","offset":0,"slot":"4","type":"t_string_storage"}],"numberOfBytes":"160"},"t_struct(NFTListing)6806_storage":{"encoding":"inplace","label":"struct HamsterMarketPlaceV2.NFTListing","members":[{"astId":6797,"contract":"contracts/hamsterMarketPlaceV2.sol:HamsterMarketPlaceV2","label":"contractAddress","offset":0,"slot":"0","type":"t_address"},{"astId":6799,"contract":"contracts/hamsterMarketPlaceV2.sol:HamsterMarketPlaceV2","label":"owner","offset":0,"slot":"1","type":"t_address"},{"astId":6801,"contract":"contracts/hamsterMarketPlaceV2.sol:HamsterMarketPlaceV2","label":"isAvailable","offset":20,"slot":"1","type":"t_bool"},{"astId":6803,"contract":"contracts/hamsterMarketPlaceV2.sol:HamsterMarketPlaceV2","label":"price","offset":0,"slot":"2","type":"t_uint256"},{"astId":6805,"contract":"contracts/hamsterMarketPlaceV2.sol:HamsterMarketPlaceV2","label":"tokenID","offset":0,"slot":"3","type":"t_uint256"}],"numberOfBytes":"128"},"t_uint256":{"encoding":"inplace","label":"uint256","numberOfBytes":"32"},"t_uint8":{"encoding":"inplace","label":"uint8","numberOfBytes":"1"}}}}}}