{
  "_format": "hh-sol-artifact-1",
  "contractName": "HamsterMarketPlaceV1",
  "sourceName": "contracts/hamsterMarketPlace.sol",
  "abi": [
    {
      "anonymous": false,
      "inputs": [
        {
          "indexed": true,
          "internalType": "address",
          "name": "collection",
          "type": "address"
        }
      ],
      "name": "AddNewCollectionEvent",
      "type": "event"
    },
    {
      "anonymous": false,
      "inputs": [
        {
          "indexed": true,
          "internalType": "address",
          "name": "collection",
          "type": "address"
        },
        {
          "indexed": true,
          "internalType": "address",
          "name": "_from",
          "type": "address"
        },
        {
          "indexed": true,
          "internalType": "address",
          "name": "_to",
          "type": "address"
        },
        {
          "indexed": false,
          "internalType": "uint256",
          "name": "_tokenID",
          "type": "uint256"
        },
        {
          "indexed": false,
          "internalType": "uint256",
          "name": "_price",
          "type": "uint256"
        }
      ],
      "name": "BuyNFTEvent",
      "type": "event"
    },
    {
      "anonymous": false,
      "inputs": [
        {
          "indexed": true,
          "internalType": "address",
          "name": "collection",
          "type": "address"
        },
        {
          "indexed": true,
          "internalType": "uint256",
          "name": "_tokenID",
          "type": "uint256"
        }
      ],
      "name": "DelistNFTEvent",
      "type": "event"
    },
    {
      "anonymous": false,
      "inputs": [
        {
          "indexed": true,
          "internalType": "address",
          "name": "collection",
          "type": "address"
        },
        {
          "indexed": true,
          "internalType": "uint256",
          "name": "_tokenID",
          "type": "uint256"
        },
        {
          "indexed": false,
          "internalType": "uint256",
          "name": "_price",
          "type": "uint256"
        }
      ],
      "name": "EditNFTPriceEvent",
      "type": "event"
    },
    {
      "anonymous": false,
      "inputs": [
        {
          "indexed": false,
          "internalType": "uint8",
          "name": "version",
          "type": "uint8"
        }
      ],
      "name": "Initialized",
      "type": "event"
    },
    {
      "anonymous": false,
      "inputs": [
        {
          "indexed": true,
          "internalType": "address",
          "name": "collection",
          "type": "address"
        },
        {
          "indexed": true,
          "internalType": "address",
          "name": "_from",
          "type": "address"
        },
        {
          "indexed": false,
          "internalType": "uint256",
          "name": "_tokenID",
          "type": "uint256"
        },
        {
          "indexed": false,
          "internalType": "uint256",
          "name": "_price",
          "type": "uint256"
        }
      ],
      "name": "ListNFTEvent",
      "type": "event"
    },
    {
      "anonymous": false,
      "inputs": [
        {
          "indexed": true,
          "internalType": "address",
          "name": "previousOwner",
          "type": "address"
        },
        {
          "indexed": true,
          "internalType": "address",
          "name": "newOwner",
          "type": "address"
        }
      ],
      "name": "OwnershipTransferred",
      "type": "event"
    },
    {
      "inputs": [
        {
          "internalType": "address",
          "name": "_contractAddress",
          "type": "address"
        },
        {
          "internalType": "uint256",
          "name": "_tokenID",
          "type": "uint256"
        }
      ],
      "name": "BuyNFT",
      "outputs": [],
      "stateMutability": "payable",
      "type": "function"
    },
    {
      "inputs": [],
      "name": "COMMISSION",
      "outputs": [
        {
          "internalType": "uint256",
          "name": "",
          "type": "uint256"
        }
      ],
      "stateMutability": "view",
      "type": "function"
    },
    {
      "inputs": [
        {
          "internalType": "address",
          "name": "_contractAddress",
          "type": "address"
        },
        {
          "internalType": "uint256",
          "name": "_tokenID",
          "type": "uint256"
        }
      ],
      "name": "DelistNFT",
      "outputs": [],
      "stateMutability": "nonpayable",
      "type": "function"
    },
    {
      "inputs": [
        {
          "internalType": "address",
          "name": "_contractAddress",
          "type": "address"
        },
        {
          "internalType": "uint256",
          "name": "_tokenID",
          "type": "uint256"
        },
        {
          "internalType": "uint256",
          "name": "_price",
          "type": "uint256"
        }
      ],
      "name": "EditNFtPrice",
      "outputs": [],
      "stateMutability": "nonpayable",
      "type": "function"
    },
    {
      "inputs": [
        {
          "internalType": "address",
          "name": "_contractAddress",
          "type": "address"
        },
        {
          "internalType": "uint256",
          "name": "_tokenID",
          "type": "uint256"
        },
        {
          "internalType": "uint256",
          "name": "_price",
          "type": "uint256"
        }
      ],
      "name": "ListNFt",
      "outputs": [],
      "stateMutability": "nonpayable",
      "type": "function"
    },
    {
      "inputs": [
        {
          "internalType": "address",
          "name": "_contractAddress",
          "type": "address"
        }
      ],
      "name": "addNFTCollection",
      "outputs": [],
      "stateMutability": "nonpayable",
      "type": "function"
    },
    {
      "inputs": [],
      "name": "getHistory",
      "outputs": [
        {
          "components": [
            {
              "internalType": "address",
              "name": "owner",
              "type": "address"
            },
            {
              "internalType": "address",
              "name": "contractAddress",
              "type": "address"
            },
            {
              "internalType": "uint256",
              "name": "tokenID",
              "type": "uint256"
            },
            {
              "internalType": "uint256",
              "name": "price",
              "type": "uint256"
            },
            {
              "internalType": "string",
              "name": "action",
              "type": "string"
            }
          ],
          "internalType": "struct HamsterMarketPlaceV1.Log[]",
          "name": "",
          "type": "tuple[]"
        }
      ],
      "stateMutability": "view",
      "type": "function"
    },
    {
      "inputs": [],
      "name": "getListed",
      "outputs": [
        {
          "components": [
            {
              "internalType": "address",
              "name": "contractAddress",
              "type": "address"
            },
            {
              "internalType": "address",
              "name": "owner",
              "type": "address"
            },
            {
              "internalType": "bool",
              "name": "isAvailable",
              "type": "bool"
            },
            {
              "internalType": "uint256",
              "name": "price",
              "type": "uint256"
            },
            {
              "internalType": "uint256",
              "name": "tokenID",
              "type": "uint256"
            }
          ],
          "internalType": "struct HamsterMarketPlaceV1.NFTListing[]",
          "name": "",
          "type": "tuple[]"
        }
      ],
      "stateMutability": "view",
      "type": "function"
    },
    {
      "inputs": [
        {
          "internalType": "address[]",
          "name": "_validNFTContracts",
          "type": "address[]"
        },
        {
          "internalType": "address payable",
          "name": "_commissionAddress",
          "type": "address"
        }
      ],
      "name": "initialize",
      "outputs": [],
      "stateMutability": "nonpayable",
      "type": "function"
    },
    {
      "inputs": [
        {
          "internalType": "address",
          "name": "contractAddress",
          "type": "address"
        }
      ],
      "name": "isValidNFTContracts",
      "outputs": [
        {
          "internalType": "bool",
          "name": "",
          "type": "bool"
        }
      ],
      "stateMutability": "view",
      "type": "function"
    },
    {
      "inputs": [
        {
          "internalType": "address",
          "name": "",
          "type": "address"
        },
        {
          "internalType": "uint256",
          "name": "",
          "type": "uint256"
        }
      ],
      "name": "marketPlaceListing",
      "outputs": [
        {
          "internalType": "address",
          "name": "contractAddress",
          "type": "address"
        },
        {
          "internalType": "address",
          "name": "owner",
          "type": "address"
        },
        {
          "internalType": "bool",
          "name": "isAvailable",
          "type": "bool"
        },
        {
          "internalType": "uint256",
          "name": "price",
          "type": "uint256"
        },
        {
          "internalType": "uint256",
          "name": "tokenID",
          "type": "uint256"
        }
      ],
      "stateMutability": "view",
      "type": "function"
    },
    {
      "inputs": [
        {
          "internalType": "address",
          "name": "from",
          "type": "address"
        },
        {
          "internalType": "uint256",
          "name": "_tokenID",
          "type": "uint256"
        }
      ],
      "name": "onTokenTransfer",
      "outputs": [],
      "stateMutability": "nonpayable",
      "type": "function"
    },
    {
      "inputs": [],
      "name": "owner",
      "outputs": [
        {
          "internalType": "address",
          "name": "",
          "type": "address"
        }
      ],
      "stateMutability": "view",
      "type": "function"
    },
    {
      "inputs": [],
      "name": "renounceOwnership",
      "outputs": [],
      "stateMutability": "nonpayable",
      "type": "function"
    },
    {
      "inputs": [
        {
          "internalType": "address",
          "name": "newOwner",
          "type": "address"
        }
      ],
      "name": "transferOwnership",
      "outputs": [],
      "stateMutability": "nonpayable",
      "type": "function"
    }
  ],
  "bytecode": "0x608060405234801561001057600080fd5b50612860806100206000396000f3fe6080604052600436106100e85760003560e01c80638773e08c1161008a578063bb14a4a711610059578063bb14a4a7146102e7578063c734f91714610307578063ccc0714a14610327578063f2fde38b1461033a57600080fd5b80638773e08c1461025d5780638da5cb5b1461027d578063a12e5a46146102a5578063aa15efc8146102c557600080fd5b8063562df3d5116100c6578063562df3d5146101d3578063623b2c66146101f6578063715018a61461022657806377b3cc9a1461023b57600080fd5b806330002eef146100ed5780633068ec7b1461010f578063462d0b2e146101b3575b600080fd5b3480156100f957600080fd5b5061010d610108366004612180565b61035a565b005b34801561011b57600080fd5b5061017561012a3660046121a4565b609860209081526000928352604080842090915290825290208054600182015460028301546003909301546001600160a01b039283169392821692600160a01b90920460ff16919085565b604080516001600160a01b039687168152959094166020860152911515928401929092526060830191909152608082015260a0015b60405180910390f35b3480156101bf57600080fd5b5061010d6101ce3660046121e6565b61047d565b3480156101df57600080fd5b506101e8600581565b6040519081526020016101aa565b34801561020257600080fd5b50610216610211366004612180565b6106f2565b60405190151581526020016101aa565b34801561023257600080fd5b5061010d61075b565b34801561024757600080fd5b5061025061076f565b6040516101aa91906122bd565b34801561026957600080fd5b5061010d610278366004612339565b610810565b34801561028957600080fd5b506033546040516001600160a01b0390911681526020016101aa565b3480156102b157600080fd5b5061010d6102c03660046121a4565b610de3565b3480156102d157600080fd5b506102da611065565b6040516101aa919061236e565b3480156102f357600080fd5b5061010d610302366004612339565b611185565b34801561031357600080fd5b5061010d6103223660046121a4565b6115ab565b61010d6103353660046121a4565b611741565b34801561034657600080fd5b5061010d610355366004612180565b611c58565b610362611cd1565b6001600160a01b0381166103af5760405162461bcd60e51b815260206004820152600f60248201526e496e76616c6964206164647265737360881b60448201526064015b60405180910390fd5b6103b8816106f2565b156104055760405162461bcd60e51b815260206004820152601e60248201527f436f6e747261637420616c726561647920616464656420696e206c697374000060448201526064016103a6565b609b805460018101825560009182527fbba9db4cdbea0a37c207bbb83e20f828cd4441c49891101dc94fd20dc8efc3490180546001600160a01b0319166001600160a01b03841690811790915560405190917f346170e17c5503e2745c300363be112f4023be046f20d3b0e51fbe552827d47191a250565b600054610100900460ff161580801561049d5750600054600160ff909116105b806104b75750303b1580156104b7575060005460ff166001145b61051a5760405162461bcd60e51b815260206004820152602e60248201527f496e697469616c697a61626c653a20636f6e747261637420697320616c72656160448201526d191e481a5b9a5d1a585b1a5e995960921b60648201526084016103a6565b6000805460ff19166001179055801561053d576000805461ff0019166101001790555b610545611d2b565b61054d611d5a565b6001600160a01b0382166105a35760405162461bcd60e51b815260206004820152601a60248201527f496e76616c696420636f6d6d697373696f6e206164647265737300000000000060448201526064016103a6565b609780546001600160a01b0319166001600160a01b03841617905560005b83518110156106a65760006001600160a01b03168482815181106105e7576105e7612447565b60200260200101516001600160a01b0316036106455760405162461bcd60e51b815260206004820152601860248201527f496e76616c696420636f6e74726163742061646472657373000000000000000060448201526064016103a6565b609b84828151811061065957610659612447565b60209081029190910181015182546001810184556000938452919092200180546001600160a01b0319166001600160a01b039092169190911790558061069e81612473565b9150506105c1565b5080156106ed576000805461ff0019169055604051600181527f7f26b83ff96e1f2b6a682f133852f6798a09c465da95921460cefb38474024989060200160405180910390a15b505050565b6000805b609b5481101561075257826001600160a01b0316609b828154811061071d5761071d612447565b6000918252602090912001546001600160a01b0316036107405750600192915050565b8061074a81612473565b9150506106f6565b50600092915050565b610763611cd1565b61076d6000611d89565b565b60606099805480602002602001604051908101604052809291908181526020016000905b828210156108075760008481526020908190206040805160a0810182526004860290920180546001600160a01b03908116845260018083015491821685870152600160a01b90910460ff16151592840192909252600281015460608401526003015460808301529083529092019101610793565b50505050905090565b610818611ddb565b6001600160a01b0383166000908152609860209081526040808320858452909152902060010154600160a01b900460ff16156108965760405162461bcd60e51b815260206004820152601a60248201527f54686973204e465420697320616c7265616479206c697374656400000000000060448201526064016103a6565b826108a0816106f2565b6108bc5760405162461bcd60e51b81526004016103a69061248c565b6040516331a9108f60e11b81526004810184905233906001600160a01b03831690636352211e90602401602060405180830381865afa158015610903573d6000803e3d6000fd5b505050506040513d601f19601f8201168201806040525081019061092791906124dc565b6001600160a01b03161461094d5760405162461bcd60e51b81526004016103a6906124f9565b60405163020604bf60e21b81526004810184905230906001600160a01b0383169063081812fc90602401602060405180830381865afa158015610994573d6000803e3d6000fd5b505050506040513d601f19601f820116820180604052508101906109b891906124dc565b6001600160a01b0316146109de5760405162461bcd60e51b81526004016103a690612528565b8360986000866001600160a01b03166001600160a01b03168152602001908152602001600020600085815260200190815260200160002060000160006101000a8154816001600160a01b0302191690836001600160a01b03160217905550600160986000866001600160a01b03166001600160a01b03168152602001908152602001600020600085815260200190815260200160002060010160146101000a81548160ff0219169083151502179055503360986000866001600160a01b03166001600160a01b03168152602001908152602001600020600085815260200190815260200160002060010160006101000a8154816001600160a01b0302191690836001600160a01b031602179055508160986000866001600160a01b03166001600160a01b031681526020019081526020016000206000858152602001908152602001600020600201819055508260986000866001600160a01b03166001600160a01b03168152602001908152602001600020600085815260200190815260200160002060030181905550609960986000866001600160a01b03166001600160a01b03168152602001908152602001600020600085815260200190815260200160002090806001815401808255809150506001900390600052602060002090600402016000909190919091506000820160009054906101000a90046001600160a01b03168160000160006101000a8154816001600160a01b0302191690836001600160a01b031602179055506001820160009054906101000a90046001600160a01b03168160010160006101000a8154816001600160a01b0302191690836001600160a01b031602179055506001820160149054906101000a900460ff168160010160146101000a81548160ff02191690831515021790555060028201548160020155600382015481600301555050609a6040518060a00160405280336001600160a01b03168152602001866001600160a01b0316815260200185815260200184815260200160405180604001604052806004815260200163131a5cdd60e21b815250815250908060018154018082558091505060019003906000526020600020906005020160009091909190915060008201518160000160006101000a8154816001600160a01b0302191690836001600160a01b0316021790555060208201518160010160006101000a8154816001600160a01b0302191690836001600160a01b0316021790555060408201518160020155606082015181600301556080820151816004019081610d8f91906125f4565b505060408051858152602081018590523392506001600160a01b038716917f355c67a44a9e7ad44dbeb878463f794aec6b06c2c96c3f44526cd977acef500e910160405180910390a3506106ed6001606555565b610deb611ddb565b81610df5816106f2565b610e115760405162461bcd60e51b81526004016103a69061248c565b6040516331a9108f60e11b81526004810183905233906001600160a01b03831690636352211e90602401602060405180830381865afa158015610e58573d6000803e3d6000fd5b505050506040513d601f19601f82011682018060405250810190610e7c91906124dc565b6001600160a01b031614610ea25760405162461bcd60e51b81526004016103a6906124f9565b6001600160a01b0383166000908152609860209081526040808320858452909152902060010154600160a01b900460ff16610eef5760405162461bcd60e51b81526004016103a6906126b4565b6000610efb8484611e3b565b9050610f0681611eda565b6001600160a01b03808516600081815260986020908152604080832088845282528083206001908101805460ff60a01b19169055815160a0810183523381528084019586528083018a815260608201868152845180860190955260068552651119531a5cdd60d21b9585019590955260808201938452609a80549384018155909552805160059092026000805160206127ab833981519152810180549389166001600160a01b0319948516178155965160008051602061278b833981519152820180549190991693169290921790965592516000805160206127eb833981519152840155905160008051602061280b833981519152830155516000805160206127cb8339815191529091019061101c90826125f4565b50506040518491506001600160a01b038616907fb13b3fa5a495ffbc07fa282fd9a34e3a9f4f7184ef7e89c47d83a38894f2c2cd90600090a350506110616001606555565b5050565b6060609a805480602002602001604051908101604052809291908181526020016000905b828210156108075760008481526020908190206040805160a0810182526005860290920180546001600160a01b03908116845260018201541693830193909352600283015490820152600382015460608201526004820180549192916080840191906110f49061256c565b80601f01602080910402602001604051908101604052809291908181526020018280546111209061256c565b801561116d5780601f106111425761010080835404028352916020019161116d565b820191906000526020600020905b81548152906001019060200180831161115057829003601f168201915b50505050508152505081526020019060010190611089565b61118d611ddb565b82611197816106f2565b6111b35760405162461bcd60e51b81526004016103a69061248c565b6040516331a9108f60e11b81526004810184905233906001600160a01b03831690636352211e90602401602060405180830381865afa1580156111fa573d6000803e3d6000fd5b505050506040513d601f19601f8201168201806040525081019061121e91906124dc565b6001600160a01b0316146112445760405162461bcd60e51b81526004016103a6906124f9565b60405163020604bf60e21b81526004810184905230906001600160a01b0383169063081812fc90602401602060405180830381865afa15801561128b573d6000803e3d6000fd5b505050506040513d601f19601f820116820180604052508101906112af91906124dc565b6001600160a01b0316146112d55760405162461bcd60e51b81526004016103a690612528565b6001600160a01b0384166000908152609860209081526040808320868452909152902060010154600160a01b900460ff166113225760405162461bcd60e51b81526004016103a6906126b4565b6001600160a01b038416600090815260986020908152604080832086845290915281206002018390556113558585611e3b565b905061136081611eda565b6001600160a01b038581166000818152609860209081526040808320898452825280832060998054600180820190925582547f72a152ddfb8e864297c917af52ea6c1c68aead0fee1a62673fcc7e0c94979d0060049283029081018054928b166001600160a01b031993841617905583850180547f72a152ddfb8e864297c917af52ea6c1c68aead0fee1a62673fcc7e0c94979d0183018054918d168286168117825592546001600160a81b0319909216909217600160a01b9182900460ff16151590910217905560028501547f72a152ddfb8e864297c917af52ea6c1c68aead0fee1a62673fcc7e0c94979d028201556003909401547f72a152ddfb8e864297c917af52ea6c1c68aead0fee1a62673fcc7e0c94979d0390940193909355835160a0810185523381528086019788528085018d8152606082018d815286518088019097529286526311591a5d60e21b9686019690965260808101948552609a8054938401815590965285516000805160206127ab833981519152600590930292830180548516918a16919091178155965160008051602061278b8339815191528301805490941698169790971790915591516000805160206127eb833981519152830155935160008051602061280b833981519152820155925190926000805160206127cb833981519152019061155890826125f4565b50505083856001600160a01b03167fd4891e98fa502cb701c2f331397901a048f15a7385581f955ee5f7e1bd59e5078560405161159791815260200190565b60405180910390a350506106ed6001606555565b6115b4336106f2565b6115f55760405162461bcd60e51b815260206004820152601260248201527124b73b30b634b21031b7b63632b1ba34b7b760711b60448201526064016103a6565b33600081815260986020908152604080832085845282528083206001908101805460ff60a01b19169055815160a0810183526001600160a01b03888116825281850196875281840188815260608301878152855180870190965260068652651119531a5cdd60d21b9686019690965260808301948552609a80549485018155909652815160059093026000805160206127ab833981519152810180549483166001600160a01b0319958616178155975160008051602061278b8339815191528201805491909316941693909317905593516000805160206127eb833981519152820155915160008051602061280b833981519152830155519192916000805160206127cb8339815191529091019061170d90826125f4565b505060405182915033907fb13b3fa5a495ffbc07fa282fd9a34e3a9f4f7184ef7e89c47d83a38894f2c2cd90600090a35050565b611749611ddb565b6001600160a01b038281166000818152609860209081526040808320868452909152908190206001015490516331a9108f60e11b815260048101859052859391909116918291636352211e90602401602060405180830381865afa1580156117b5573d6000803e3d6000fd5b505050506040513d601f19601f820116820180604052508101906117d991906124dc565b6001600160a01b0316146118245760405162461bcd60e51b81526020600482015260126024820152716e6f74206f776e657220616e79206d6f726560701b60448201526064016103a6565b61182d846106f2565b6118495760405162461bcd60e51b81526004016103a69061248c565b60405163020604bf60e21b81526004810184905230906001600160a01b0384169063081812fc90602401602060405180830381865afa158015611890573d6000803e3d6000fd5b505050506040513d601f19601f820116820180604052508101906118b491906124dc565b6001600160a01b03161461190a5760405162461bcd60e51b815260206004820152601c60248201527f4e4654206973206e6f7420617070726f766564206279206f776e65720000000060448201526064016103a6565b6001600160a01b0384166000908152609860209081526040808320868452909152902060010154600160a01b900460ff166119575760405162461bcd60e51b81526004016103a6906126b4565b6001600160a01b038416600090815260986020908152604080832086845290915290206002015434146119df5760405162461bcd60e51b815260206004820152602a60248201527f596f7520646f6e74206861766520656e6f7567682066756e647320746f2062756044820152691e481d1a1a5cc813919560b21b60648201526084016103a6565b600060646119ee6005346126dd565b6119f891906126f4565b90506000611a068234612716565b6001600160a01b0380881660009081526098602090815260408083208a8452909152902060010154919250611a3c911682611feb565b609754611a52906001600160a01b031683611feb565b6001600160a01b0386811660009081526098602090815260408083208984529091529081902060010180546001600160a81b031916339081179091559051632142170760e11b81528583166004820152602481019190915260448101879052908516906342842e0e90606401600060405180830381600087803b158015611ad857600080fd5b505af1158015611aec573d6000803e3d6000fd5b505050506000611afc8787611e3b565b9050611b0781611eda565b6040805160a0810182523381526001600160a01b0389811660208084019182528385018b815234606086019081528651808801909752600387526242757960e81b9287019290925260808501958652609a8054600181018255600091909152855160059091026000805160206127ab833981519152810180549287166001600160a01b0319938416178155945160008051602061278b8339815191528201805491909716921691909117909455516000805160206127eb8339815191528401555160008051602061280b83398151915283015592519192916000805160206127cb83398151915290910190611bfc90826125f4565b5050604080518881523460208201523392506001600160a01b0387811692908b16917f53f27bbbbe2791e943dac89f644e5d8f5b16152644f5111604390f09f5f8ba40910160405180910390a450505050506110616001606555565b611c60611cd1565b6001600160a01b038116611cc55760405162461bcd60e51b815260206004820152602660248201527f4f776e61626c653a206e6577206f776e657220697320746865207a65726f206160448201526564647265737360d01b60648201526084016103a6565b611cce81611d89565b50565b6033546001600160a01b0316331461076d5760405162461bcd60e51b815260206004820181905260248201527f4f776e61626c653a2063616c6c6572206973206e6f7420746865206f776e657260448201526064016103a6565b600054610100900460ff16611d525760405162461bcd60e51b81526004016103a690612729565b61076d612104565b600054610100900460ff16611d815760405162461bcd60e51b81526004016103a690612729565b61076d612134565b603380546001600160a01b038381166001600160a01b0319831681179093556040519116919082907f8be0079c531659141344cd1fd0a4f28419497f9722a3daafe3b4186f6b6457e090600090a35050565b600260655403611e2d5760405162461bcd60e51b815260206004820152601f60248201527f5265656e7472616e637947756172643a207265656e7472616e742063616c6c0060448201526064016103a6565b6002606555565b6001606555565b600080805b609954811015611ed057846001600160a01b031660998281548110611e6757611e67612447565b60009182526020909120600490910201546001600160a01b0316148015611eb157508360998281548110611e9d57611e9d612447565b906000526020600020906004020160030154145b15611ebe57809150611ed0565b80611ec881612473565b915050611e40565b5090505b92915050565b60998054611eea90600190612716565b81548110611efa57611efa612447565b906000526020600020906004020160998281548110611f1b57611f1b612447565b60009182526020909120825460049092020180546001600160a01b03199081166001600160a01b039384161782556001808501805491840180549384169290951691821785555460ff600160a01b91829004161515026001600160a81b03199092161717909155600280830154908201556003918201549101556099805480611fa657611fa6612774565b60008281526020812060046000199093019283020180546001600160a01b03191681556001810180546001600160a81b03191690556002810182905560030155905550565b8047101561203b5760405162461bcd60e51b815260206004820152601d60248201527f416464726573733a20696e73756666696369656e742062616c616e636500000060448201526064016103a6565b6000826001600160a01b03168260405160006040518083038185875af1925050503d8060008114612088576040519150601f19603f3d011682016040523d82523d6000602084013e61208d565b606091505b50509050806106ed5760405162461bcd60e51b815260206004820152603a60248201527f416464726573733a20756e61626c6520746f2073656e642076616c75652c207260448201527f6563697069656e74206d6179206861766520726576657274656400000000000060648201526084016103a6565b600054610100900460ff1661212b5760405162461bcd60e51b81526004016103a690612729565b61076d33611d89565b600054610100900460ff16611e345760405162461bcd60e51b81526004016103a690612729565b6001600160a01b0381168114611cce57600080fd5b803561217b8161215b565b919050565b60006020828403121561219257600080fd5b813561219d8161215b565b9392505050565b600080604083850312156121b757600080fd5b82356121c28161215b565b946020939093013593505050565b634e487b7160e01b600052604160045260246000fd5b600080604083850312156121f957600080fd5b823567ffffffffffffffff8082111561221157600080fd5b818501915085601f83011261222557600080fd5b8135602082821115612239576122396121d0565b8160051b604051601f19603f8301168101818110868211171561225e5761225e6121d0565b60405292835281830193508481018201928984111561227c57600080fd5b948201945b838610156122a15761229286612170565b85529482019493820193612281565b96506122b09050878201612170565b9450505050509250929050565b602080825282518282018190526000919060409081850190868401855b8281101561232c57815180516001600160a01b03908116865287820151168786015285810151151586860152606080820151908601526080908101519085015260a090930192908501906001016122da565b5091979650505050505050565b60008060006060848603121561234e57600080fd5b83356123598161215b565b95602085013595506040909401359392505050565b60006020808301818452808551808352604092508286019150828160051b8701018488016000805b8481101561243857898403603f19018652825180516001600160a01b03908116865289820151168986015287810151888601526060808201519086015260809081015160a091860182905280519186018290529083905b8082101561240b578282018b015187830160c00152908a01906123ed565b86810160c0908101869052988b0198601f909101601f191690960190950194505091870191600101612396565b50919998505050505050505050565b634e487b7160e01b600052603260045260246000fd5b634e487b7160e01b600052601160045260246000fd5b6000600182016124855761248561245d565b5060010190565b60208082526030908201527f5468697320636f6c6c656374696f6e2063616e7420626520736f6c64206f6e2060408201526f74686973206d61726b6574706c61636560801b606082015260800190565b6000602082840312156124ee57600080fd5b815161219d8161215b565b6020808252601590820152742cb7ba9030b932903737ba103a34329037bbb732b960591b604082015260600190565b60208082526024908201527f506c6561736520617070726f7665204e465420666f72207468697320636f6e746040820152631c9858dd60e21b606082015260800190565b600181811c9082168061258057607f821691505b6020821081036125a057634e487b7160e01b600052602260045260246000fd5b50919050565b601f8211156106ed57600081815260208120601f850160051c810160208610156125cd5750805b601f850160051c820191505b818110156125ec578281556001016125d9565b505050505050565b815167ffffffffffffffff81111561260e5761260e6121d0565b6126228161261c845461256c565b846125a6565b602080601f831160018114612657576000841561263f5750858301515b600019600386901b1c1916600185901b1785556125ec565b600085815260208120601f198616915b8281101561268657888601518255948401946001909101908401612667565b50858210156126a45787850151600019600388901b60f8161c191681555b5050505050600190811b01905550565b6020808252600f908201526e4e4654206e6f74206f6e2073616c6560881b604082015260600190565b8082028115828204841417611ed457611ed461245d565b60008261271157634e487b7160e01b600052601260045260246000fd5b500490565b81810381811115611ed457611ed461245d565b6020808252602b908201527f496e697469616c697a61626c653a20636f6e7472616374206973206e6f74206960408201526a6e697469616c697a696e6760a81b606082015260800190565b634e487b7160e01b600052603160045260246000fdfe44da158ba27f9252712a74ff6a55c5d531f69609f1f6e7f17c4443a8e2089be544da158ba27f9252712a74ff6a55c5d531f69609f1f6e7f17c4443a8e2089be444da158ba27f9252712a74ff6a55c5d531f69609f1f6e7f17c4443a8e2089be844da158ba27f9252712a74ff6a55c5d531f69609f1f6e7f17c4443a8e2089be644da158ba27f9252712a74ff6a55c5d531f69609f1f6e7f17c4443a8e2089be7a2646970667358221220bf427b44e75ad2db2bbd347224ab6e3772f3e62f543dbc4ba2d0c8226d40940e64736f6c63430008140033",
  "linkReferences": {},
  "deployedLinkReferences": {}
}