{
  "_format": "hh-sol-artifact-1",
  "contractName": "HamsterMarketPlaceV1",
  "sourceName": "contracts/hamsterMarketPlace.sol",
  "abi": [
    {
      "anonymous": false,
      "inputs": [
        {
          "indexed": true,
          "internalType": "address",
          "name": "collection",
          "type": "address"
        }
      ],
      "name": "AddNewCollectionEvent",
      "type": "event"
    },
    {
      "anonymous": false,
      "inputs": [
        {
          "indexed": true,
          "internalType": "address",
          "name": "collection",
          "type": "address"
        },
        {
          "indexed": true,
          "internalType": "address",
          "name": "_from",
          "type": "address"
        },
        {
          "indexed": true,
          "internalType": "address",
          "name": "_to",
          "type": "address"
        },
        {
          "indexed": false,
          "internalType": "uint256",
          "name": "_tokenID",
          "type": "uint256"
        },
        {
          "indexed": false,
          "internalType": "uint256",
          "name": "_price",
          "type": "uint256"
        }
      ],
      "name": "BuyNFTEvent",
      "type": "event"
    },
    {
      "anonymous": false,
      "inputs": [
        {
          "indexed": true,
          "internalType": "address",
          "name": "collection",
          "type": "address"
        },
        {
          "indexed": true,
          "internalType": "uint256",
          "name": "_tokenID",
          "type": "uint256"
        }
      ],
      "name": "DelistNFTEvent",
      "type": "event"
    },
    {
      "anonymous": false,
      "inputs": [
        {
          "indexed": true,
          "internalType": "address",
          "name": "collection",
          "type": "address"
        },
        {
          "indexed": true,
          "internalType": "uint256",
          "name": "_tokenID",
          "type": "uint256"
        },
        {
          "indexed": false,
          "internalType": "uint256",
          "name": "_price",
          "type": "uint256"
        }
      ],
      "name": "EditNFTPriceEvent",
      "type": "event"
    },
    {
      "anonymous": false,
      "inputs": [
        {
          "indexed": false,
          "internalType": "uint8",
          "name": "version",
          "type": "uint8"
        }
      ],
      "name": "Initialized",
      "type": "event"
    },
    {
      "anonymous": false,
      "inputs": [
        {
          "indexed": true,
          "internalType": "address",
          "name": "collection",
          "type": "address"
        },
        {
          "indexed": true,
          "internalType": "address",
          "name": "_from",
          "type": "address"
        },
        {
          "indexed": false,
          "internalType": "uint256",
          "name": "_tokenID",
          "type": "uint256"
        },
        {
          "indexed": false,
          "internalType": "uint256",
          "name": "_price",
          "type": "uint256"
        }
      ],
      "name": "ListNFTEvent",
      "type": "event"
    },
    {
      "anonymous": false,
      "inputs": [
        {
          "indexed": true,
          "internalType": "address",
          "name": "previousOwner",
          "type": "address"
        },
        {
          "indexed": true,
          "internalType": "address",
          "name": "newOwner",
          "type": "address"
        }
      ],
      "name": "OwnershipTransferred",
      "type": "event"
    },
    {
      "inputs": [
        {
          "internalType": "address",
          "name": "_contractAddress",
          "type": "address"
        },
        {
          "internalType": "uint256",
          "name": "_tokenID",
          "type": "uint256"
        }
      ],
      "name": "BuyNFT",
      "outputs": [],
      "stateMutability": "payable",
      "type": "function"
    },
    {
      "inputs": [],
      "name": "COMMISSION",
      "outputs": [
        {
          "internalType": "uint256",
          "name": "",
          "type": "uint256"
        }
      ],
      "stateMutability": "view",
      "type": "function"
    },
    {
      "inputs": [
        {
          "internalType": "address",
          "name": "_contractAddress",
          "type": "address"
        },
        {
          "internalType": "uint256",
          "name": "_tokenID",
          "type": "uint256"
        }
      ],
      "name": "DelistNFT",
      "outputs": [],
      "stateMutability": "nonpayable",
      "type": "function"
    },
    {
      "inputs": [
        {
          "internalType": "address",
          "name": "_contractAddress",
          "type": "address"
        },
        {
          "internalType": "uint256",
          "name": "_tokenID",
          "type": "uint256"
        },
        {
          "internalType": "uint256",
          "name": "_price",
          "type": "uint256"
        }
      ],
      "name": "EditNFtPrice",
      "outputs": [],
      "stateMutability": "nonpayable",
      "type": "function"
    },
    {
      "inputs": [
        {
          "internalType": "address",
          "name": "_contractAddress",
          "type": "address"
        },
        {
          "internalType": "uint256",
          "name": "_tokenID",
          "type": "uint256"
        },
        {
          "internalType": "uint256",
          "name": "_price",
          "type": "uint256"
        }
      ],
      "name": "ListNFt",
      "outputs": [],
      "stateMutability": "nonpayable",
      "type": "function"
    },
    {
      "inputs": [
        {
          "internalType": "address",
          "name": "_contractAddress",
          "type": "address"
        }
      ],
      "name": "addNFTCollection",
      "outputs": [],
      "stateMutability": "nonpayable",
      "type": "function"
    },
    {
      "inputs": [],
      "name": "getHistory",
      "outputs": [
        {
          "components": [
            {
              "internalType": "address",
              "name": "owner",
              "type": "address"
            },
            {
              "internalType": "address",
              "name": "contractAddress",
              "type": "address"
            },
            {
              "internalType": "uint256",
              "name": "tokenID",
              "type": "uint256"
            },
            {
              "internalType": "uint256",
              "name": "price",
              "type": "uint256"
            },
            {
              "internalType": "string",
              "name": "action",
              "type": "string"
            }
          ],
          "internalType": "struct HamsterMarketPlaceV1.Log[]",
          "name": "",
          "type": "tuple[]"
        }
      ],
      "stateMutability": "view",
      "type": "function"
    },
    {
      "inputs": [],
      "name": "getListed",
      "outputs": [
        {
          "components": [
            {
              "internalType": "address",
              "name": "contractAddress",
              "type": "address"
            },
            {
              "internalType": "address",
              "name": "owner",
              "type": "address"
            },
            {
              "internalType": "bool",
              "name": "isAvailable",
              "type": "bool"
            },
            {
              "internalType": "uint256",
              "name": "price",
              "type": "uint256"
            },
            {
              "internalType": "uint256",
              "name": "tokenID",
              "type": "uint256"
            }
          ],
          "internalType": "struct HamsterMarketPlaceV1.NFTListing[]",
          "name": "",
          "type": "tuple[]"
        }
      ],
      "stateMutability": "view",
      "type": "function"
    },
    {
      "inputs": [
        {
          "internalType": "address[]",
          "name": "_validNFTContracts",
          "type": "address[]"
        },
        {
          "internalType": "address payable",
          "name": "_commissionAddress",
          "type": "address"
        }
      ],
      "name": "initialize",
      "outputs": [],
      "stateMutability": "nonpayable",
      "type": "function"
    },
    {
      "inputs": [
        {
          "internalType": "address",
          "name": "contractAddress",
          "type": "address"
        }
      ],
      "name": "isValidNFTContracts",
      "outputs": [
        {
          "internalType": "bool",
          "name": "",
          "type": "bool"
        }
      ],
      "stateMutability": "view",
      "type": "function"
    },
    {
      "inputs": [
        {
          "internalType": "address",
          "name": "",
          "type": "address"
        },
        {
          "internalType": "uint256",
          "name": "",
          "type": "uint256"
        }
      ],
      "name": "marketPlaceListing",
      "outputs": [
        {
          "internalType": "address",
          "name": "contractAddress",
          "type": "address"
        },
        {
          "internalType": "address",
          "name": "owner",
          "type": "address"
        },
        {
          "internalType": "bool",
          "name": "isAvailable",
          "type": "bool"
        },
        {
          "internalType": "uint256",
          "name": "price",
          "type": "uint256"
        },
        {
          "internalType": "uint256",
          "name": "tokenID",
          "type": "uint256"
        }
      ],
      "stateMutability": "view",
      "type": "function"
    },
    {
      "inputs": [],
      "name": "owner",
      "outputs": [
        {
          "internalType": "address",
          "name": "",
          "type": "address"
        }
      ],
      "stateMutability": "view",
      "type": "function"
    },
    {
      "inputs": [],
      "name": "renounceOwnership",
      "outputs": [],
      "stateMutability": "nonpayable",
      "type": "function"
    },
    {
      "inputs": [
        {
          "internalType": "address",
          "name": "newOwner",
          "type": "address"
        }
      ],
      "name": "transferOwnership",
      "outputs": [],
      "stateMutability": "nonpayable",
      "type": "function"
    }
  ],
  "bytecode": "0x608060405234801561001057600080fd5b50612720806100206000396000f3fe6080604052600436106100dd5760003560e01c80638773e08c1161007f578063aa15efc811610059578063aa15efc8146102ba578063bb14a4a7146102dc578063ccc0714a146102fc578063f2fde38b1461030f57600080fd5b80638773e08c146102525780638da5cb5b14610272578063a12e5a461461029a57600080fd5b8063562df3d5116100bb578063562df3d5146101c8578063623b2c66146101eb578063715018a61461021b57806377b3cc9a1461023057600080fd5b806330002eef146100e25780633068ec7b14610104578063462d0b2e146101a8575b600080fd5b3480156100ee57600080fd5b506101026100fd3660046121da565b61032f565b005b34801561011057600080fd5b5061016a61011f3660046121fe565b609860209081526000928352604080842090915290825290208054600182015460028301546003909301546001600160a01b039283169392821692600160a01b90920460ff16919085565b604080516001600160a01b039687168152959094166020860152911515928401929092526060830191909152608082015260a0015b60405180910390f35b3480156101b457600080fd5b506101026101c3366004612240565b610452565b3480156101d457600080fd5b506101dd600581565b60405190815260200161019f565b3480156101f757600080fd5b5061020b6102063660046121da565b6106c8565b604051901515815260200161019f565b34801561022757600080fd5b50610102610732565b34801561023c57600080fd5b50610245610746565b60405161019f9190612317565b34801561025e57600080fd5b5061010261026d366004612393565b6107e7565b34801561027e57600080fd5b506033546040516001600160a01b03909116815260200161019f565b3480156102a657600080fd5b506101026102b53660046121fe565b610ddf565b3480156102c657600080fd5b506102cf6110cb565b60405161019f91906123c8565b3480156102e857600080fd5b506101026102f7366004612393565b6111eb565b61010261030a3660046121fe565b611688565b34801561031b57600080fd5b5061010261032a3660046121da565b611c1a565b610337611c93565b6001600160a01b0381166103845760405162461bcd60e51b815260206004820152600f60248201526e496e76616c6964206164647265737360881b60448201526064015b60405180910390fd5b61038d816106c8565b156103da5760405162461bcd60e51b815260206004820152601e60248201527f436f6e747261637420616c726561647920616464656420696e206c6973740000604482015260640161037b565b609b805460018101825560009182527fbba9db4cdbea0a37c207bbb83e20f828cd4441c49891101dc94fd20dc8efc3490180546001600160a01b0319166001600160a01b03841690811790915560405190917f346170e17c5503e2745c300363be112f4023be046f20d3b0e51fbe552827d47191a250565b600054610100900460ff16158080156104725750600054600160ff909116105b8061048c5750303b15801561048c575060005460ff166001145b6104ef5760405162461bcd60e51b815260206004820152602e60248201527f496e697469616c697a61626c653a20636f6e747261637420697320616c72656160448201526d191e481a5b9a5d1a585b1a5e995960921b606482015260840161037b565b6000805460ff191660011790558015610512576000805461ff0019166101001790555b61051a611ced565b610522611d1c565b6001600160a01b0382166105785760405162461bcd60e51b815260206004820152601a60248201527f496e76616c696420636f6d6d697373696f6e2061646472657373000000000000604482015260640161037b565b609780546001600160a01b0319166001600160a01b03841617905560005b835181101561067c5760006001600160a01b03168482815181106105bc576105bc6124a6565b60200260200101516001600160a01b0316141561061b5760405162461bcd60e51b815260206004820152601860248201527f496e76616c696420636f6e747261637420616464726573730000000000000000604482015260640161037b565b609b84828151811061062f5761062f6124a6565b60209081029190910181015182546001810184556000938452919092200180546001600160a01b0319166001600160a01b0390921691909117905580610674816124d2565b915050610596565b5080156106c3576000805461ff0019169055604051600181527f7f26b83ff96e1f2b6a682f133852f6798a09c465da95921460cefb38474024989060200160405180910390a15b505050565b6000805b609b5481101561072957826001600160a01b0316609b82815481106106f3576106f36124a6565b6000918252602090912001546001600160a01b031614156107175750600192915050565b80610721816124d2565b9150506106cc565b50600092915050565b61073a611c93565b6107446000611d4b565b565b60606099805480602002602001604051908101604052809291908181526020016000905b828210156107de5760008481526020908190206040805160a0810182526004860290920180546001600160a01b03908116845260018083015491821685870152600160a01b90910460ff1615159284019290925260028101546060840152600301546080830152908352909201910161076a565b50505050905090565b6107ef611d9d565b6001600160a01b0383166000908152609860209081526040808320858452909152902060010154600160a01b900460ff161561086d5760405162461bcd60e51b815260206004820152601a60248201527f54686973204e465420697320616c7265616479206c6973746564000000000000604482015260640161037b565b82610877816106c8565b6108935760405162461bcd60e51b815260040161037b906124ed565b6040516331a9108f60e11b81526004810184905233906001600160a01b03831690636352211e9060240160206040518083038186803b1580156108d557600080fd5b505afa1580156108e9573d6000803e3d6000fd5b505050506040513d601f19601f8201168201806040525081019061090d919061253d565b6001600160a01b0316146109335760405162461bcd60e51b815260040161037b9061255a565b60405163020604bf60e21b81526004810184905230906001600160a01b0383169063081812fc9060240160206040518083038186803b15801561097557600080fd5b505afa158015610989573d6000803e3d6000fd5b505050506040513d601f19601f820116820180604052508101906109ad919061253d565b6001600160a01b0316146109d35760405162461bcd60e51b815260040161037b90612589565b8360986000866001600160a01b03166001600160a01b03168152602001908152602001600020600085815260200190815260200160002060000160006101000a8154816001600160a01b0302191690836001600160a01b03160217905550600160986000866001600160a01b03166001600160a01b03168152602001908152602001600020600085815260200190815260200160002060010160146101000a81548160ff0219169083151502179055503360986000866001600160a01b03166001600160a01b03168152602001908152602001600020600085815260200190815260200160002060010160006101000a8154816001600160a01b0302191690836001600160a01b031602179055508160986000866001600160a01b03166001600160a01b031681526020019081526020016000206000858152602001908152602001600020600201819055508260986000866001600160a01b03166001600160a01b03168152602001908152602001600020600085815260200190815260200160002060030181905550609960986000866001600160a01b03166001600160a01b03168152602001908152602001600020600085815260200190815260200160002090806001815401808255809150506001900390600052602060002090600402016000909190919091506000820160009054906101000a90046001600160a01b03168160000160006101000a8154816001600160a01b0302191690836001600160a01b031602179055506001820160009054906101000a90046001600160a01b03168160010160006101000a8154816001600160a01b0302191690836001600160a01b031602179055506001820160149054906101000a900460ff168160010160146101000a81548160ff02191690831515021790555060028201548160020155600382015481600301555050609a6040518060a00160405280336001600160a01b03168152602001866001600160a01b0316815260200185815260200184815260200160405180604001604052806004815260200163131a5cdd60e21b815250815250908060018154018082558091505060019003906000526020600020906005020160009091909190915060008201518160000160006101000a8154816001600160a01b0302191690836001600160a01b0316021790555060208201518160010160006101000a8154816001600160a01b0302191690836001600160a01b0316021790555060408201518160020155606082015181600301556080820151816004019080519060200190610d8b92919061211c565b505060408051858152602081018590523392506001600160a01b038716917f355c67a44a9e7ad44dbeb878463f794aec6b06c2c96c3f44526cd977acef500e910160405180910390a3506106c36001606555565b610de7611d9d565b81610df1816106c8565b610e0d5760405162461bcd60e51b815260040161037b906124ed565b6040516331a9108f60e11b81526004810183905233906001600160a01b03831690636352211e9060240160206040518083038186803b158015610e4f57600080fd5b505afa158015610e63573d6000803e3d6000fd5b505050506040513d601f19601f82011682018060405250810190610e87919061253d565b6001600160a01b031614610ead5760405162461bcd60e51b815260040161037b9061255a565b6001600160a01b0383166000908152609860209081526040808320858452909152902060010154600160a01b900460ff16610efa5760405162461bcd60e51b815260040161037b906125cd565b6000610f068484611dfe565b9050610f1181611e9b565b6001600160a01b03808516600081815260986020908152604080832088845282528083206001908101805460ff60a01b19169055815160a0810183523381528084019586528083018a815260608201868152845180860190955260068552651119531a5cdd60d21b8587015260808301948552609a80549485018155909652815160059093027f44da158ba27f9252712a74ff6a55c5d531f69609f1f6e7f17c4443a8e2089be481018054948a166001600160a01b031995861617815597517f44da158ba27f9252712a74ff6a55c5d531f69609f1f6e7f17c4443a8e2089be58201805491909a1694169390931790975595517f44da158ba27f9252712a74ff6a55c5d531f69609f1f6e7f17c4443a8e2089be682015592517f44da158ba27f9252712a74ff6a55c5d531f69609f1f6e7f17c4443a8e2089be7840155518051611082937f44da158ba27f9252712a74ff6a55c5d531f69609f1f6e7f17c4443a8e2089be80192919091019061211c565b50506040518491506001600160a01b038616907fb13b3fa5a495ffbc07fa282fd9a34e3a9f4f7184ef7e89c47d83a38894f2c2cd90600090a350506110c76001606555565b5050565b6060609a805480602002602001604051908101604052809291908181526020016000905b828210156107de5760008481526020908190206040805160a0810182526005860290920180546001600160a01b039081168452600182015416938301939093526002830154908201526003820154606082015260048201805491929160808401919061115a906125f6565b80601f0160208091040260200160405190810160405280929190818152602001828054611186906125f6565b80156111d35780601f106111a8576101008083540402835291602001916111d3565b820191906000526020600020905b8154815290600101906020018083116111b657829003601f168201915b505050505081525050815260200190600101906110ef565b6111f3611d9d565b826111fd816106c8565b6112195760405162461bcd60e51b815260040161037b906124ed565b6040516331a9108f60e11b81526004810184905233906001600160a01b03831690636352211e9060240160206040518083038186803b15801561125b57600080fd5b505afa15801561126f573d6000803e3d6000fd5b505050506040513d601f19601f82011682018060405250810190611293919061253d565b6001600160a01b0316146112b95760405162461bcd60e51b815260040161037b9061255a565b60405163020604bf60e21b81526004810184905230906001600160a01b0383169063081812fc9060240160206040518083038186803b1580156112fb57600080fd5b505afa15801561130f573d6000803e3d6000fd5b505050506040513d601f19601f82011682018060405250810190611333919061253d565b6001600160a01b0316146113595760405162461bcd60e51b815260040161037b90612589565b6001600160a01b0384166000908152609860209081526040808320868452909152902060010154600160a01b900460ff166113a65760405162461bcd60e51b815260040161037b906125cd565b6001600160a01b038416600090815260986020908152604080832086845290915281206002018390556113d98585611dfe565b90506113e481611e9b565b6001600160a01b038581166000818152609860209081526040808320898452825280832060998054600180820190925582547f72a152ddfb8e864297c917af52ea6c1c68aead0fee1a62673fcc7e0c94979d0060049283029081018054928b166001600160a01b031993841617905583850180547f72a152ddfb8e864297c917af52ea6c1c68aead0fee1a62673fcc7e0c94979d0183018054918d168286168117825592546001600160a81b0319909216909217600160a01b9182900460ff16151590910217905560028501547f72a152ddfb8e864297c917af52ea6c1c68aead0fee1a62673fcc7e0c94979d028201556003909401547f72a152ddfb8e864297c917af52ea6c1c68aead0fee1a62673fcc7e0c94979d0390940193909355835160a0810185523381528086019788528085018d8152606082018d815286518088019097529286526311591a5d60e21b8688015260808201958652609a8054948501815590975280517f44da158ba27f9252712a74ff6a55c5d531f69609f1f6e7f17c4443a8e2089be4600590940293840180548616918b1691909117815597517f44da158ba27f9252712a74ff6a55c5d531f69609f1f6e7f17c4443a8e2089be58401805490951699169890981790925593517f44da158ba27f9252712a74ff6a55c5d531f69609f1f6e7f17c4443a8e2089be6850155517f44da158ba27f9252712a74ff6a55c5d531f69609f1f6e7f17c4443a8e2089be7840155518051611635937f44da158ba27f9252712a74ff6a55c5d531f69609f1f6e7f17c4443a8e2089be80192919091019061211c565b50505083856001600160a01b03167fd4891e98fa502cb701c2f331397901a048f15a7385581f955ee5f7e1bd59e5078560405161167491815260200190565b60405180910390a350506106c36001606555565b611690611d9d565b6001600160a01b038281166000818152609860209081526040808320868452909152908190206001015490516331a9108f60e11b815260048101859052859391909116918291636352211e9060240160206040518083038186803b1580156116f757600080fd5b505afa15801561170b573d6000803e3d6000fd5b505050506040513d601f19601f8201168201806040525081019061172f919061253d565b6001600160a01b03161461177a5760405162461bcd60e51b81526020600482015260126024820152716e6f74206f776e657220616e79206d6f726560701b604482015260640161037b565b611783846106c8565b61179f5760405162461bcd60e51b815260040161037b906124ed565b60405163020604bf60e21b81526004810184905230906001600160a01b0384169063081812fc9060240160206040518083038186803b1580156117e157600080fd5b505afa1580156117f5573d6000803e3d6000fd5b505050506040513d601f19601f82011682018060405250810190611819919061253d565b6001600160a01b03161461186f5760405162461bcd60e51b815260206004820152601c60248201527f4e4654206973206e6f7420617070726f766564206279206f776e657200000000604482015260640161037b565b6001600160a01b0384166000908152609860209081526040808320868452909152902060010154600160a01b900460ff166118bc5760405162461bcd60e51b815260040161037b906125cd565b6001600160a01b038416600090815260986020908152604080832086845290915290206002015434146119445760405162461bcd60e51b815260206004820152602a60248201527f596f7520646f6e74206861766520656e6f7567682066756e647320746f2062756044820152691e481d1a1a5cc813919560b21b606482015260840161037b565b60006064611953600534612631565b61195d9190612650565b9050600061196b8234612672565b6001600160a01b0380881660009081526098602090815260408083208a84529091529020600101549192506119a1911682611fac565b6097546119b7906001600160a01b031683611fac565b6001600160a01b0386811660009081526098602090815260408083208984529091529081902060010180546001600160a81b031916339081179091559051632142170760e11b81528583166004820152602481019190915260448101879052908516906342842e0e90606401600060405180830381600087803b158015611a3d57600080fd5b505af1158015611a51573d6000803e3d6000fd5b505050506000611a618787611dfe565b9050611a6c81611e9b565b6040805160a0810182523381526001600160a01b0389811660208084019182528385018b815234606086019081528651808801909752600387526242757960e81b8784015260808601968752609a8054600181018255600091909152865160059091027f44da158ba27f9252712a74ff6a55c5d531f69609f1f6e7f17c4443a8e2089be4810180549288166001600160a01b031993841617815595517f44da158ba27f9252712a74ff6a55c5d531f69609f1f6e7f17c4443a8e2089be5820180549190981692169190911790955590517f44da158ba27f9252712a74ff6a55c5d531f69609f1f6e7f17c4443a8e2089be6850155517f44da158ba27f9252712a74ff6a55c5d531f69609f1f6e7f17c4443a8e2089be78401559351805193949193611bbe937f44da158ba27f9252712a74ff6a55c5d531f69609f1f6e7f17c4443a8e2089be80192919091019061211c565b5050604080518881523460208201523392506001600160a01b0387811692908b16917f53f27bbbbe2791e943dac89f644e5d8f5b16152644f5111604390f09f5f8ba40910160405180910390a450505050506110c76001606555565b611c22611c93565b6001600160a01b038116611c875760405162461bcd60e51b815260206004820152602660248201527f4f776e61626c653a206e6577206f776e657220697320746865207a65726f206160448201526564647265737360d01b606482015260840161037b565b611c9081611d4b565b50565b6033546001600160a01b031633146107445760405162461bcd60e51b815260206004820181905260248201527f4f776e61626c653a2063616c6c6572206973206e6f7420746865206f776e6572604482015260640161037b565b600054610100900460ff16611d145760405162461bcd60e51b815260040161037b90612689565b6107446120c5565b600054610100900460ff16611d435760405162461bcd60e51b815260040161037b90612689565b6107446120f5565b603380546001600160a01b038381166001600160a01b0319831681179093556040519116919082907f8be0079c531659141344cd1fd0a4f28419497f9722a3daafe3b4186f6b6457e090600090a35050565b60026065541415611df05760405162461bcd60e51b815260206004820152601f60248201527f5265656e7472616e637947756172643a207265656e7472616e742063616c6c00604482015260640161037b565b6002606555565b6001606555565b600080805b609954811015611e9357846001600160a01b031660998281548110611e2a57611e2a6124a6565b60009182526020909120600490910201546001600160a01b0316148015611e7457508360998281548110611e6057611e606124a6565b906000526020600020906004020160030154145b15611e8157809150611e93565b80611e8b816124d2565b915050611e03565b509392505050565b60998054611eab90600190612672565b81548110611ebb57611ebb6124a6565b906000526020600020906004020160998281548110611edc57611edc6124a6565b60009182526020909120825460049092020180546001600160a01b03199081166001600160a01b039384161782556001808501805491840180549384169290951691821785555460ff600160a01b91829004161515026001600160a81b03199092161717909155600280830154908201556003918201549101556099805480611f6757611f676126d4565b60008281526020812060046000199093019283020180546001600160a01b03191681556001810180546001600160a81b03191690556002810182905560030155905550565b80471015611ffc5760405162461bcd60e51b815260206004820152601d60248201527f416464726573733a20696e73756666696369656e742062616c616e6365000000604482015260640161037b565b6000826001600160a01b03168260405160006040518083038185875af1925050503d8060008114612049576040519150601f19603f3d011682016040523d82523d6000602084013e61204e565b606091505b50509050806106c35760405162461bcd60e51b815260206004820152603a60248201527f416464726573733a20756e61626c6520746f2073656e642076616c75652c207260448201527f6563697069656e74206d61792068617665207265766572746564000000000000606482015260840161037b565b600054610100900460ff166120ec5760405162461bcd60e51b815260040161037b90612689565b61074433611d4b565b600054610100900460ff16611df75760405162461bcd60e51b815260040161037b90612689565b828054612128906125f6565b90600052602060002090601f01602090048101928261214a5760008555612190565b82601f1061216357805160ff1916838001178555612190565b82800160010185558215612190579182015b82811115612190578251825591602001919060010190612175565b5061219c9291506121a0565b5090565b5b8082111561219c57600081556001016121a1565b6001600160a01b0381168114611c9057600080fd5b80356121d5816121b5565b919050565b6000602082840312156121ec57600080fd5b81356121f7816121b5565b9392505050565b6000806040838503121561221157600080fd5b823561221c816121b5565b946020939093013593505050565b634e487b7160e01b600052604160045260246000fd5b6000806040838503121561225357600080fd5b823567ffffffffffffffff8082111561226b57600080fd5b818501915085601f83011261227f57600080fd5b81356020828211156122935761229361222a565b8160051b604051601f19603f830116810181811086821117156122b8576122b861222a565b6040529283528183019350848101820192898411156122d657600080fd5b948201945b838610156122fb576122ec866121ca565b855294820194938201936122db565b965061230a90508782016121ca565b9450505050509250929050565b602080825282518282018190526000919060409081850190868401855b8281101561238657815180516001600160a01b03908116865287820151168786015285810151151586860152606080820151908601526080908101519085015260a09093019290850190600101612334565b5091979650505050505050565b6000806000606084860312156123a857600080fd5b83356123b3816121b5565b95602085013595506040909401359392505050565b60006020808301818452808551808352604092508286019150828160051b8701018488016000805b8481101561249757898403603f19018652825180516001600160a01b03908116865289820151168986015287810151888601526060808201519086015260809081015160a091860182905280519186018290529083905b80821015612465578282018b015187830160c00152908a0190612447565b80821115612476578460c082890101525b978a0197601f01601f19169590950160c001945050918701916001016123f0565b50919998505050505050505050565b634e487b7160e01b600052603260045260246000fd5b634e487b7160e01b600052601160045260246000fd5b60006000198214156124e6576124e66124bc565b5060010190565b60208082526030908201527f5468697320636f6c6c656374696f6e2063616e7420626520736f6c64206f6e2060408201526f74686973206d61726b6574706c61636560801b606082015260800190565b60006020828403121561254f57600080fd5b81516121f7816121b5565b6020808252601590820152742cb7ba9030b932903737ba103a34329037bbb732b960591b604082015260600190565b60208082526024908201527f506c6561736520617070726f7665204e465420666f72207468697320636f6e746040820152631c9858dd60e21b606082015260800190565b6020808252600f908201526e4e4654206e6f74206f6e2073616c6560881b604082015260600190565b600181811c9082168061260a57607f821691505b6020821081141561262b57634e487b7160e01b600052602260045260246000fd5b50919050565b600081600019048311821515161561264b5761264b6124bc565b500290565b60008261266d57634e487b7160e01b600052601260045260246000fd5b500490565b600082821015612684576126846124bc565b500390565b6020808252602b908201527f496e697469616c697a61626c653a20636f6e7472616374206973206e6f74206960408201526a6e697469616c697a696e6760a81b606082015260800190565b634e487b7160e01b600052603160045260246000fdfea264697066735822122067e855f1e332348a56891ce185722cf8e358f3eaf9fbfd0fc382c47ee2e6c37f64736f6c63430008080033",
  "linkReferences": {},
  "deployedLinkReferences": {}
}