{
  "_format": "hh-sol-artifact-1",
  "contractName": "HamsterMarketPlaceV1",
  "sourceName": "contracts/hamsterMarketPlace.sol",
  "abi": [
    {
      "anonymous": false,
      "inputs": [
        {
          "indexed": true,
          "internalType": "address",
          "name": "collection",
          "type": "address"
        }
      ],
      "name": "AddNewCollectionEvent",
      "type": "event"
    },
    {
      "anonymous": false,
      "inputs": [
        {
          "indexed": true,
          "internalType": "address",
          "name": "collection",
          "type": "address"
        },
        {
          "indexed": true,
          "internalType": "address",
          "name": "_from",
          "type": "address"
        },
        {
          "indexed": true,
          "internalType": "address",
          "name": "_to",
          "type": "address"
        },
        {
          "indexed": false,
          "internalType": "uint256",
          "name": "_tokenID",
          "type": "uint256"
        },
        {
          "indexed": false,
          "internalType": "uint256",
          "name": "_price",
          "type": "uint256"
        }
      ],
      "name": "BuyNFTEvent",
      "type": "event"
    },
    {
      "anonymous": false,
      "inputs": [
        {
          "indexed": true,
          "internalType": "address",
          "name": "collection",
          "type": "address"
        },
        {
          "indexed": true,
          "internalType": "uint256",
          "name": "_tokenID",
          "type": "uint256"
        }
      ],
      "name": "DelistNFTEvent",
      "type": "event"
    },
    {
      "anonymous": false,
      "inputs": [
        {
          "indexed": true,
          "internalType": "address",
          "name": "collection",
          "type": "address"
        },
        {
          "indexed": true,
          "internalType": "uint256",
          "name": "_tokenID",
          "type": "uint256"
        },
        {
          "indexed": false,
          "internalType": "uint256",
          "name": "_price",
          "type": "uint256"
        }
      ],
      "name": "EditNFTPriceEvent",
      "type": "event"
    },
    {
      "anonymous": false,
      "inputs": [
        {
          "indexed": false,
          "internalType": "uint8",
          "name": "version",
          "type": "uint8"
        }
      ],
      "name": "Initialized",
      "type": "event"
    },
    {
      "anonymous": false,
      "inputs": [
        {
          "indexed": true,
          "internalType": "address",
          "name": "collection",
          "type": "address"
        },
        {
          "indexed": true,
          "internalType": "address",
          "name": "_from",
          "type": "address"
        },
        {
          "indexed": false,
          "internalType": "uint256",
          "name": "_tokenID",
          "type": "uint256"
        },
        {
          "indexed": false,
          "internalType": "uint256",
          "name": "_price",
          "type": "uint256"
        }
      ],
      "name": "ListNFTEvent",
      "type": "event"
    },
    {
      "anonymous": false,
      "inputs": [
        {
          "indexed": true,
          "internalType": "address",
          "name": "previousOwner",
          "type": "address"
        },
        {
          "indexed": true,
          "internalType": "address",
          "name": "newOwner",
          "type": "address"
        }
      ],
      "name": "OwnershipTransferred",
      "type": "event"
    },
    {
      "inputs": [
        {
          "internalType": "address",
          "name": "_contractAddress",
          "type": "address"
        },
        {
          "internalType": "uint256",
          "name": "_tokenID",
          "type": "uint256"
        }
      ],
      "name": "BuyNFT",
      "outputs": [],
      "stateMutability": "payable",
      "type": "function"
    },
    {
      "inputs": [],
      "name": "COMMISSION",
      "outputs": [
        {
          "internalType": "uint256",
          "name": "",
          "type": "uint256"
        }
      ],
      "stateMutability": "view",
      "type": "function"
    },
    {
      "inputs": [
        {
          "internalType": "address",
          "name": "_contractAddress",
          "type": "address"
        },
        {
          "internalType": "uint256",
          "name": "_tokenID",
          "type": "uint256"
        }
      ],
      "name": "DelistNFT",
      "outputs": [],
      "stateMutability": "nonpayable",
      "type": "function"
    },
    {
      "inputs": [
        {
          "internalType": "address",
          "name": "_contractAddress",
          "type": "address"
        },
        {
          "internalType": "uint256",
          "name": "_tokenID",
          "type": "uint256"
        },
        {
          "internalType": "uint256",
          "name": "_price",
          "type": "uint256"
        }
      ],
      "name": "EditNFtPrice",
      "outputs": [],
      "stateMutability": "nonpayable",
      "type": "function"
    },
    {
      "inputs": [
        {
          "internalType": "address",
          "name": "_contractAddress",
          "type": "address"
        },
        {
          "internalType": "uint256",
          "name": "_tokenID",
          "type": "uint256"
        },
        {
          "internalType": "uint256",
          "name": "_price",
          "type": "uint256"
        }
      ],
      "name": "ListNFt",
      "outputs": [],
      "stateMutability": "nonpayable",
      "type": "function"
    },
    {
      "inputs": [
        {
          "internalType": "address",
          "name": "_contractAddress",
          "type": "address"
        }
      ],
      "name": "addNFTCollection",
      "outputs": [],
      "stateMutability": "nonpayable",
      "type": "function"
    },
    {
      "inputs": [],
      "name": "getHistory",
      "outputs": [
        {
          "components": [
            {
              "internalType": "address",
              "name": "owner",
              "type": "address"
            },
            {
              "internalType": "address",
              "name": "contractAddress",
              "type": "address"
            },
            {
              "internalType": "uint256",
              "name": "tokenID",
              "type": "uint256"
            },
            {
              "internalType": "uint256",
              "name": "price",
              "type": "uint256"
            },
            {
              "internalType": "string",
              "name": "action",
              "type": "string"
            }
          ],
          "internalType": "struct HamsterMarketPlaceV1.Log[]",
          "name": "",
          "type": "tuple[]"
        }
      ],
      "stateMutability": "view",
      "type": "function"
    },
    {
      "inputs": [],
      "name": "getListed",
      "outputs": [
        {
          "components": [
            {
              "internalType": "address",
              "name": "contractAddress",
              "type": "address"
            },
            {
              "internalType": "address",
              "name": "owner",
              "type": "address"
            },
            {
              "internalType": "bool",
              "name": "isAvailable",
              "type": "bool"
            },
            {
              "internalType": "uint256",
              "name": "price",
              "type": "uint256"
            },
            {
              "internalType": "uint256",
              "name": "tokenID",
              "type": "uint256"
            }
          ],
          "internalType": "struct HamsterMarketPlaceV1.NFTListing[]",
          "name": "",
          "type": "tuple[]"
        }
      ],
      "stateMutability": "view",
      "type": "function"
    },
    {
      "inputs": [
        {
          "internalType": "address[]",
          "name": "_validNFTContracts",
          "type": "address[]"
        },
        {
          "internalType": "address payable",
          "name": "_commissionAddress",
          "type": "address"
        }
      ],
      "name": "initialize",
      "outputs": [],
      "stateMutability": "nonpayable",
      "type": "function"
    },
    {
      "inputs": [
        {
          "internalType": "address",
          "name": "contractAddress",
          "type": "address"
        }
      ],
      "name": "isValidNFTContracts",
      "outputs": [
        {
          "internalType": "bool",
          "name": "",
          "type": "bool"
        }
      ],
      "stateMutability": "view",
      "type": "function"
    },
    {
      "inputs": [
        {
          "internalType": "address",
          "name": "",
          "type": "address"
        },
        {
          "internalType": "uint256",
          "name": "",
          "type": "uint256"
        }
      ],
      "name": "marketPlaceListing",
      "outputs": [
        {
          "internalType": "address",
          "name": "contractAddress",
          "type": "address"
        },
        {
          "internalType": "address",
          "name": "owner",
          "type": "address"
        },
        {
          "internalType": "bool",
          "name": "isAvailable",
          "type": "bool"
        },
        {
          "internalType": "uint256",
          "name": "price",
          "type": "uint256"
        },
        {
          "internalType": "uint256",
          "name": "tokenID",
          "type": "uint256"
        }
      ],
      "stateMutability": "view",
      "type": "function"
    },
    {
      "inputs": [
        {
          "internalType": "address",
          "name": "from",
          "type": "address"
        },
        {
          "internalType": "uint256",
          "name": "_tokenID",
          "type": "uint256"
        }
      ],
      "name": "onTokenTransfer",
      "outputs": [],
      "stateMutability": "nonpayable",
      "type": "function"
    },
    {
      "inputs": [],
      "name": "owner",
      "outputs": [
        {
          "internalType": "address",
          "name": "",
          "type": "address"
        }
      ],
      "stateMutability": "view",
      "type": "function"
    },
    {
      "inputs": [],
      "name": "renounceOwnership",
      "outputs": [],
      "stateMutability": "nonpayable",
      "type": "function"
    },
    {
      "inputs": [
        {
          "internalType": "address",
          "name": "newOwner",
          "type": "address"
        }
      ],
      "name": "transferOwnership",
      "outputs": [],
      "stateMutability": "nonpayable",
      "type": "function"
    }
  ],
  "bytecode": "0x608060405234801561001057600080fd5b506128e8806100206000396000f3fe6080604052600436106100e85760003560e01c80638773e08c1161008a578063bb14a4a711610059578063bb14a4a7146102e7578063c734f91714610307578063ccc0714a14610327578063f2fde38b1461033a57600080fd5b80638773e08c1461025d5780638da5cb5b1461027d578063a12e5a46146102a5578063aa15efc8146102c557600080fd5b8063562df3d5116100c6578063562df3d5146101d3578063623b2c66146101f6578063715018a61461022657806377b3cc9a1461023b57600080fd5b806330002eef146100ed5780633068ec7b1461010f578063462d0b2e146101b3575b600080fd5b3480156100f957600080fd5b5061010d610108366004612302565b61035a565b005b34801561011b57600080fd5b5061017561012a366004612326565b609860209081526000928352604080842090915290825290208054600182015460028301546003909301546001600160a01b039283169392821692600160a01b90920460ff16919085565b604080516001600160a01b039687168152959094166020860152911515928401929092526060830191909152608082015260a0015b60405180910390f35b3480156101bf57600080fd5b5061010d6101ce366004612368565b61047d565b3480156101df57600080fd5b506101e8600581565b6040519081526020016101aa565b34801561020257600080fd5b50610216610211366004612302565b6106f3565b60405190151581526020016101aa565b34801561023257600080fd5b5061010d61075d565b34801561024757600080fd5b50610250610771565b6040516101aa919061243f565b34801561026957600080fd5b5061010d6102783660046124bb565b610812565b34801561028957600080fd5b506033546040516001600160a01b0390911681526020016101aa565b3480156102b157600080fd5b5061010d6102c0366004612326565b610e0a565b3480156102d157600080fd5b506102da61109c565b6040516101aa91906124f0565b3480156102f357600080fd5b5061010d6103023660046124bb565b6111bc565b34801561031357600080fd5b5061010d610322366004612326565b6115ff565b61010d610335366004612326565b61180a565b34801561034657600080fd5b5061010d610355366004612302565b611d42565b610362611dbb565b6001600160a01b0381166103af5760405162461bcd60e51b815260206004820152600f60248201526e496e76616c6964206164647265737360881b60448201526064015b60405180910390fd5b6103b8816106f3565b156104055760405162461bcd60e51b815260206004820152601e60248201527f436f6e747261637420616c726561647920616464656420696e206c697374000060448201526064016103a6565b609b805460018101825560009182527fbba9db4cdbea0a37c207bbb83e20f828cd4441c49891101dc94fd20dc8efc3490180546001600160a01b0319166001600160a01b03841690811790915560405190917f346170e17c5503e2745c300363be112f4023be046f20d3b0e51fbe552827d47191a250565b600054610100900460ff161580801561049d5750600054600160ff909116105b806104b75750303b1580156104b7575060005460ff166001145b61051a5760405162461bcd60e51b815260206004820152602e60248201527f496e697469616c697a61626c653a20636f6e747261637420697320616c72656160448201526d191e481a5b9a5d1a585b1a5e995960921b60648201526084016103a6565b6000805460ff19166001179055801561053d576000805461ff0019166101001790555b610545611e15565b61054d611e44565b6001600160a01b0382166105a35760405162461bcd60e51b815260206004820152601a60248201527f496e76616c696420636f6d6d697373696f6e206164647265737300000000000060448201526064016103a6565b609780546001600160a01b0319166001600160a01b03841617905560005b83518110156106a75760006001600160a01b03168482815181106105e7576105e76125ce565b60200260200101516001600160a01b031614156106465760405162461bcd60e51b815260206004820152601860248201527f496e76616c696420636f6e74726163742061646472657373000000000000000060448201526064016103a6565b609b84828151811061065a5761065a6125ce565b60209081029190910181015182546001810184556000938452919092200180546001600160a01b0319166001600160a01b039092169190911790558061069f816125fa565b9150506105c1565b5080156106ee576000805461ff0019169055604051600181527f7f26b83ff96e1f2b6a682f133852f6798a09c465da95921460cefb38474024989060200160405180910390a15b505050565b6000805b609b5481101561075457826001600160a01b0316609b828154811061071e5761071e6125ce565b6000918252602090912001546001600160a01b031614156107425750600192915050565b8061074c816125fa565b9150506106f7565b50600092915050565b610765611dbb565b61076f6000611e73565b565b60606099805480602002602001604051908101604052809291908181526020016000905b828210156108095760008481526020908190206040805160a0810182526004860290920180546001600160a01b03908116845260018083015491821685870152600160a01b90910460ff16151592840192909252600281015460608401526003015460808301529083529092019101610795565b50505050905090565b61081a611ec5565b6001600160a01b0383166000908152609860209081526040808320858452909152902060010154600160a01b900460ff16156108985760405162461bcd60e51b815260206004820152601a60248201527f54686973204e465420697320616c7265616479206c697374656400000000000060448201526064016103a6565b826108a2816106f3565b6108be5760405162461bcd60e51b81526004016103a690612615565b6040516331a9108f60e11b81526004810184905233906001600160a01b03831690636352211e9060240160206040518083038186803b15801561090057600080fd5b505afa158015610914573d6000803e3d6000fd5b505050506040513d601f19601f820116820180604052508101906109389190612665565b6001600160a01b03161461095e5760405162461bcd60e51b81526004016103a690612682565b60405163020604bf60e21b81526004810184905230906001600160a01b0383169063081812fc9060240160206040518083038186803b1580156109a057600080fd5b505afa1580156109b4573d6000803e3d6000fd5b505050506040513d601f19601f820116820180604052508101906109d89190612665565b6001600160a01b0316146109fe5760405162461bcd60e51b81526004016103a6906126b1565b8360986000866001600160a01b03166001600160a01b03168152602001908152602001600020600085815260200190815260200160002060000160006101000a8154816001600160a01b0302191690836001600160a01b03160217905550600160986000866001600160a01b03166001600160a01b03168152602001908152602001600020600085815260200190815260200160002060010160146101000a81548160ff0219169083151502179055503360986000866001600160a01b03166001600160a01b03168152602001908152602001600020600085815260200190815260200160002060010160006101000a8154816001600160a01b0302191690836001600160a01b031602179055508160986000866001600160a01b03166001600160a01b031681526020019081526020016000206000858152602001908152602001600020600201819055508260986000866001600160a01b03166001600160a01b03168152602001908152602001600020600085815260200190815260200160002060030181905550609960986000866001600160a01b03166001600160a01b03168152602001908152602001600020600085815260200190815260200160002090806001815401808255809150506001900390600052602060002090600402016000909190919091506000820160009054906101000a90046001600160a01b03168160000160006101000a8154816001600160a01b0302191690836001600160a01b031602179055506001820160009054906101000a90046001600160a01b03168160010160006101000a8154816001600160a01b0302191690836001600160a01b031602179055506001820160149054906101000a900460ff168160010160146101000a81548160ff02191690831515021790555060028201548160020155600382015481600301555050609a6040518060a00160405280336001600160a01b03168152602001866001600160a01b0316815260200185815260200184815260200160405180604001604052806004815260200163131a5cdd60e21b815250815250908060018154018082558091505060019003906000526020600020906005020160009091909190915060008201518160000160006101000a8154816001600160a01b0302191690836001600160a01b0316021790555060208201518160010160006101000a8154816001600160a01b0302191690836001600160a01b0316021790555060408201518160020155606082015181600301556080820151816004019080519060200190610db6929190612244565b505060408051858152602081018590523392506001600160a01b038716917f355c67a44a9e7ad44dbeb878463f794aec6b06c2c96c3f44526cd977acef500e910160405180910390a3506106ee6001606555565b610e12611ec5565b81610e1c816106f3565b610e385760405162461bcd60e51b81526004016103a690612615565b6040516331a9108f60e11b81526004810183905233906001600160a01b03831690636352211e9060240160206040518083038186803b158015610e7a57600080fd5b505afa158015610e8e573d6000803e3d6000fd5b505050506040513d601f19601f82011682018060405250810190610eb29190612665565b6001600160a01b031614610ed85760405162461bcd60e51b81526004016103a690612682565b6001600160a01b0383166000908152609860209081526040808320858452909152902060010154600160a01b900460ff16610f255760405162461bcd60e51b81526004016103a6906126f5565b6000610f318484611f26565b9050610f3c81611fc3565b6001600160a01b03808516600081815260986020908152604080832088845282528083206001908101805460ff60a01b19169055815160a0810183523381528084019586528083018a815260608201868152845180860190955260068552651119531a5cdd60d21b8587015260808301948552609a805494850181559096528151600590930260008051602061283383398151915281018054948a166001600160a01b031995861617815597516000805160206128138339815191528201805491909a16941693909317909755955160008051602061287383398151915282015592516000805160206128938339815191528401555180516110539360008051602061285383398151915201929190910190612244565b50506040518491506001600160a01b038616907fb13b3fa5a495ffbc07fa282fd9a34e3a9f4f7184ef7e89c47d83a38894f2c2cd90600090a350506110986001606555565b5050565b6060609a805480602002602001604051908101604052809291908181526020016000905b828210156108095760008481526020908190206040805160a0810182526005860290920180546001600160a01b039081168452600182015416938301939093526002830154908201526003820154606082015260048201805491929160808401919061112b9061271e565b80601f01602080910402602001604051908101604052809291908181526020018280546111579061271e565b80156111a45780601f10611179576101008083540402835291602001916111a4565b820191906000526020600020905b81548152906001019060200180831161118757829003601f168201915b505050505081525050815260200190600101906110c0565b6111c4611ec5565b826111ce816106f3565b6111ea5760405162461bcd60e51b81526004016103a690612615565b6040516331a9108f60e11b81526004810184905233906001600160a01b03831690636352211e9060240160206040518083038186803b15801561122c57600080fd5b505afa158015611240573d6000803e3d6000fd5b505050506040513d601f19601f820116820180604052508101906112649190612665565b6001600160a01b03161461128a5760405162461bcd60e51b81526004016103a690612682565b60405163020604bf60e21b81526004810184905230906001600160a01b0383169063081812fc9060240160206040518083038186803b1580156112cc57600080fd5b505afa1580156112e0573d6000803e3d6000fd5b505050506040513d601f19601f820116820180604052508101906113049190612665565b6001600160a01b03161461132a5760405162461bcd60e51b81526004016103a6906126b1565b6001600160a01b0384166000908152609860209081526040808320868452909152902060010154600160a01b900460ff166113775760405162461bcd60e51b81526004016103a6906126f5565b6001600160a01b038416600090815260986020908152604080832086845290915281206002018390556113aa8585611f26565b90506113b581611fc3565b6001600160a01b038581166000818152609860209081526040808320898452825280832060998054600180820190925582547f72a152ddfb8e864297c917af52ea6c1c68aead0fee1a62673fcc7e0c94979d0060049283029081018054928b166001600160a01b031993841617905583850180547f72a152ddfb8e864297c917af52ea6c1c68aead0fee1a62673fcc7e0c94979d0183018054918d168286168117825592546001600160a81b0319909216909217600160a01b9182900460ff16151590910217905560028501547f72a152ddfb8e864297c917af52ea6c1c68aead0fee1a62673fcc7e0c94979d028201556003909401547f72a152ddfb8e864297c917af52ea6c1c68aead0fee1a62673fcc7e0c94979d0390940193909355835160a0810185523381528086019788528085018d8152606082018d815286518088019097529286526311591a5d60e21b8688015260808201958652609a805494850181559097528051600080516020612833833981519152600590940293840180548616918b169190911781559751600080516020612813833981519152840180549095169916989098179092559351600080516020612873833981519152850155516000805160206128938339815191528401555180516115ac9360008051602061285383398151915201929190910190612244565b50505083856001600160a01b03167fd4891e98fa502cb701c2f331397901a048f15a7385581f955ee5f7e1bd59e507856040516115eb91815260200190565b60405180910390a350506106ee6001606555565b6040516331a9108f60e11b81526004810182905233906001600160a01b038416908290636352211e9060240160206040518083038186803b15801561164357600080fd5b505afa158015611657573d6000803e3d6000fd5b505050506040513d601f19601f8201168201806040525081019061167b9190612665565b6001600160a01b0316146116a15760405162461bcd60e51b81526004016103a690612682565b60006116ad3384611f26565b90506116b881611fc3565b33600081815260986020908152604080832087845282528083206001908101805460ff60a01b19169055815160a0810183526001600160a01b038a811682528185019687528184018a815260608301878152855180870190965260068652651119531a5cdd60d21b8688015260808401958652609a8054958601815590975282516005909402600080516020612833833981519152810180549584166001600160a01b031996871617815598516000805160206128138339815191528201805491909416951694909417909155516000805160206128738339815191528301559351600080516020612893833981519152820155905180519394936117d493600080516020612853833981519152909301929190910190612244565b505060405184915033907fb13b3fa5a495ffbc07fa282fd9a34e3a9f4f7184ef7e89c47d83a38894f2c2cd90600090a350505050565b611812611ec5565b6001600160a01b038281166000818152609860209081526040808320868452909152908190206001015490516331a9108f60e11b815260048101859052859391909116918291636352211e9060240160206040518083038186803b15801561187957600080fd5b505afa15801561188d573d6000803e3d6000fd5b505050506040513d601f19601f820116820180604052508101906118b19190612665565b6001600160a01b0316146118fc5760405162461bcd60e51b81526020600482015260126024820152716e6f74206f776e657220616e79206d6f726560701b60448201526064016103a6565b611905846106f3565b6119215760405162461bcd60e51b81526004016103a690612615565b60405163020604bf60e21b81526004810184905230906001600160a01b0384169063081812fc9060240160206040518083038186803b15801561196357600080fd5b505afa158015611977573d6000803e3d6000fd5b505050506040513d601f19601f8201168201806040525081019061199b9190612665565b6001600160a01b0316146119f15760405162461bcd60e51b815260206004820152601c60248201527f4e4654206973206e6f7420617070726f766564206279206f776e65720000000060448201526064016103a6565b6001600160a01b0384166000908152609860209081526040808320868452909152902060010154600160a01b900460ff16611a3e5760405162461bcd60e51b81526004016103a6906126f5565b6001600160a01b03841660009081526098602090815260408083208684529091529020600201543414611ac65760405162461bcd60e51b815260206004820152602a60248201527f596f7520646f6e74206861766520656e6f7567682066756e647320746f2062756044820152691e481d1a1a5cc813919560b21b60648201526084016103a6565b60006064611ad5600534612759565b611adf9190612778565b90506000611aed823461279a565b6001600160a01b0380881660009081526098602090815260408083208a8452909152902060010154919250611b239116826120d4565b609754611b39906001600160a01b0316836120d4565b6001600160a01b0386811660009081526098602090815260408083208984529091529081902060010180546001600160a81b031916339081179091559051632142170760e11b81528583166004820152602481019190915260448101879052908516906342842e0e90606401600060405180830381600087803b158015611bbf57600080fd5b505af1158015611bd3573d6000803e3d6000fd5b505050506000611be38787611f26565b9050611bee81611fc3565b6040805160a0810182523381526001600160a01b0389811660208084019182528385018b815234606086019081528651808801909752600387526242757960e81b8784015260808601968752609a805460018101825560009190915286516005909102600080516020612833833981519152810180549288166001600160a01b0319938416178155955160008051602061281383398151915282018054919098169216919091179095559051600080516020612873833981519152850155516000805160206128938339815191528401559351805193949193611ce69360008051602061285383398151915201929190910190612244565b5050604080518881523460208201523392506001600160a01b0387811692908b16917f53f27bbbbe2791e943dac89f644e5d8f5b16152644f5111604390f09f5f8ba40910160405180910390a450505050506110986001606555565b611d4a611dbb565b6001600160a01b038116611daf5760405162461bcd60e51b815260206004820152602660248201527f4f776e61626c653a206e6577206f776e657220697320746865207a65726f206160448201526564647265737360d01b60648201526084016103a6565b611db881611e73565b50565b6033546001600160a01b0316331461076f5760405162461bcd60e51b815260206004820181905260248201527f4f776e61626c653a2063616c6c6572206973206e6f7420746865206f776e657260448201526064016103a6565b600054610100900460ff16611e3c5760405162461bcd60e51b81526004016103a6906127b1565b61076f6121ed565b600054610100900460ff16611e6b5760405162461bcd60e51b81526004016103a6906127b1565b61076f61221d565b603380546001600160a01b038381166001600160a01b0319831681179093556040519116919082907f8be0079c531659141344cd1fd0a4f28419497f9722a3daafe3b4186f6b6457e090600090a35050565b60026065541415611f185760405162461bcd60e51b815260206004820152601f60248201527f5265656e7472616e637947756172643a207265656e7472616e742063616c6c0060448201526064016103a6565b6002606555565b6001606555565b600080805b609954811015611fbb57846001600160a01b031660998281548110611f5257611f526125ce565b60009182526020909120600490910201546001600160a01b0316148015611f9c57508360998281548110611f8857611f886125ce565b906000526020600020906004020160030154145b15611fa957809150611fbb565b80611fb3816125fa565b915050611f2b565b509392505050565b60998054611fd39060019061279a565b81548110611fe357611fe36125ce565b906000526020600020906004020160998281548110612004576120046125ce565b60009182526020909120825460049092020180546001600160a01b03199081166001600160a01b039384161782556001808501805491840180549384169290951691821785555460ff600160a01b91829004161515026001600160a81b0319909216171790915560028083015490820155600391820154910155609980548061208f5761208f6127fc565b60008281526020812060046000199093019283020180546001600160a01b03191681556001810180546001600160a81b03191690556002810182905560030155905550565b804710156121245760405162461bcd60e51b815260206004820152601d60248201527f416464726573733a20696e73756666696369656e742062616c616e636500000060448201526064016103a6565b6000826001600160a01b03168260405160006040518083038185875af1925050503d8060008114612171576040519150601f19603f3d011682016040523d82523d6000602084013e612176565b606091505b50509050806106ee5760405162461bcd60e51b815260206004820152603a60248201527f416464726573733a20756e61626c6520746f2073656e642076616c75652c207260448201527f6563697069656e74206d6179206861766520726576657274656400000000000060648201526084016103a6565b600054610100900460ff166122145760405162461bcd60e51b81526004016103a6906127b1565b61076f33611e73565b600054610100900460ff16611f1f5760405162461bcd60e51b81526004016103a6906127b1565b8280546122509061271e565b90600052602060002090601f01602090048101928261227257600085556122b8565b82601f1061228b57805160ff19168380011785556122b8565b828001600101855582156122b8579182015b828111156122b857825182559160200191906001019061229d565b506122c49291506122c8565b5090565b5b808211156122c457600081556001016122c9565b6001600160a01b0381168114611db857600080fd5b80356122fd816122dd565b919050565b60006020828403121561231457600080fd5b813561231f816122dd565b9392505050565b6000806040838503121561233957600080fd5b8235612344816122dd565b946020939093013593505050565b634e487b7160e01b600052604160045260246000fd5b6000806040838503121561237b57600080fd5b823567ffffffffffffffff8082111561239357600080fd5b818501915085601f8301126123a757600080fd5b81356020828211156123bb576123bb612352565b8160051b604051601f19603f830116810181811086821117156123e0576123e0612352565b6040529283528183019350848101820192898411156123fe57600080fd5b948201945b8386101561242357612414866122f2565b85529482019493820193612403565b965061243290508782016122f2565b9450505050509250929050565b602080825282518282018190526000919060409081850190868401855b828110156124ae57815180516001600160a01b03908116865287820151168786015285810151151586860152606080820151908601526080908101519085015260a0909301929085019060010161245c565b5091979650505050505050565b6000806000606084860312156124d057600080fd5b83356124db816122dd565b95602085013595506040909401359392505050565b60006020808301818452808551808352604092508286019150828160051b8701018488016000805b848110156125bf57898403603f19018652825180516001600160a01b03908116865289820151168986015287810151888601526060808201519086015260809081015160a091860182905280519186018290529083905b8082101561258d578282018b015187830160c00152908a019061256f565b8082111561259e578460c082890101525b978a0197601f01601f19169590950160c00194505091870191600101612518565b50919998505050505050505050565b634e487b7160e01b600052603260045260246000fd5b634e487b7160e01b600052601160045260246000fd5b600060001982141561260e5761260e6125e4565b5060010190565b60208082526030908201527f5468697320636f6c6c656374696f6e2063616e7420626520736f6c64206f6e2060408201526f74686973206d61726b6574706c61636560801b606082015260800190565b60006020828403121561267757600080fd5b815161231f816122dd565b6020808252601590820152742cb7ba9030b932903737ba103a34329037bbb732b960591b604082015260600190565b60208082526024908201527f506c6561736520617070726f7665204e465420666f72207468697320636f6e746040820152631c9858dd60e21b606082015260800190565b6020808252600f908201526e4e4654206e6f74206f6e2073616c6560881b604082015260600190565b600181811c9082168061273257607f821691505b6020821081141561275357634e487b7160e01b600052602260045260246000fd5b50919050565b6000816000190483118215151615612773576127736125e4565b500290565b60008261279557634e487b7160e01b600052601260045260246000fd5b500490565b6000828210156127ac576127ac6125e4565b500390565b6020808252602b908201527f496e697469616c697a61626c653a20636f6e7472616374206973206e6f74206960408201526a6e697469616c697a696e6760a81b606082015260800190565b634e487b7160e01b600052603160045260246000fdfe44da158ba27f9252712a74ff6a55c5d531f69609f1f6e7f17c4443a8e2089be544da158ba27f9252712a74ff6a55c5d531f69609f1f6e7f17c4443a8e2089be444da158ba27f9252712a74ff6a55c5d531f69609f1f6e7f17c4443a8e2089be844da158ba27f9252712a74ff6a55c5d531f69609f1f6e7f17c4443a8e2089be644da158ba27f9252712a74ff6a55c5d531f69609f1f6e7f17c4443a8e2089be7a2646970667358221220d0f8997c39d5fa4ac56bbd8f8ec05a706485186b95e700afcf5ad3504b51059d64736f6c63430008080033",
  "linkReferences": {},
  "deployedLinkReferences": {}
}