{
  "_format": "hh-sol-artifact-1",
  "contractName": "HamsterMarketPlaceV2",
  "sourceName": "contracts/hamsterMarketPlaceV2.sol",
  "abi": [
    {
      "anonymous": false,
      "inputs": [
        {
          "indexed": true,
          "internalType": "address",
          "name": "collection",
          "type": "address"
        }
      ],
      "name": "AddNewCollectionEvent",
      "type": "event"
    },
    {
      "anonymous": false,
      "inputs": [
        {
          "indexed": true,
          "internalType": "address",
          "name": "collection",
          "type": "address"
        },
        {
          "indexed": true,
          "internalType": "address",
          "name": "_from",
          "type": "address"
        },
        {
          "indexed": true,
          "internalType": "address",
          "name": "_to",
          "type": "address"
        },
        {
          "indexed": false,
          "internalType": "uint256",
          "name": "_tokenID",
          "type": "uint256"
        },
        {
          "indexed": false,
          "internalType": "uint256",
          "name": "_price",
          "type": "uint256"
        }
      ],
      "name": "BuyNFTEvent",
      "type": "event"
    },
    {
      "anonymous": false,
      "inputs": [
        {
          "indexed": true,
          "internalType": "address",
          "name": "collection",
          "type": "address"
        },
        {
          "indexed": true,
          "internalType": "uint256",
          "name": "_tokenID",
          "type": "uint256"
        }
      ],
      "name": "DelistNFTEvent",
      "type": "event"
    },
    {
      "anonymous": false,
      "inputs": [
        {
          "indexed": true,
          "internalType": "address",
          "name": "collection",
          "type": "address"
        },
        {
          "indexed": true,
          "internalType": "uint256",
          "name": "_tokenID",
          "type": "uint256"
        },
        {
          "indexed": false,
          "internalType": "uint256",
          "name": "_price",
          "type": "uint256"
        }
      ],
      "name": "EditNFTPriceEvent",
      "type": "event"
    },
    {
      "anonymous": false,
      "inputs": [
        {
          "indexed": false,
          "internalType": "uint8",
          "name": "version",
          "type": "uint8"
        }
      ],
      "name": "Initialized",
      "type": "event"
    },
    {
      "anonymous": false,
      "inputs": [
        {
          "indexed": true,
          "internalType": "address",
          "name": "collection",
          "type": "address"
        },
        {
          "indexed": true,
          "internalType": "address",
          "name": "_from",
          "type": "address"
        },
        {
          "indexed": false,
          "internalType": "uint256",
          "name": "_tokenID",
          "type": "uint256"
        },
        {
          "indexed": false,
          "internalType": "uint256",
          "name": "_price",
          "type": "uint256"
        }
      ],
      "name": "ListNFTEvent",
      "type": "event"
    },
    {
      "anonymous": false,
      "inputs": [
        {
          "indexed": true,
          "internalType": "address",
          "name": "previousOwner",
          "type": "address"
        },
        {
          "indexed": true,
          "internalType": "address",
          "name": "newOwner",
          "type": "address"
        }
      ],
      "name": "OwnershipTransferred",
      "type": "event"
    },
    {
      "anonymous": false,
      "inputs": [
        {
          "indexed": false,
          "internalType": "string",
          "name": "message",
          "type": "string"
        }
      ],
      "name": "TestingEvent",
      "type": "event"
    },
    {
      "inputs": [
        {
          "internalType": "address",
          "name": "_contractAddress",
          "type": "address"
        },
        {
          "internalType": "uint256",
          "name": "_tokenID",
          "type": "uint256"
        }
      ],
      "name": "BuyNFT",
      "outputs": [],
      "stateMutability": "payable",
      "type": "function"
    },
    {
      "inputs": [],
      "name": "COMMISSION",
      "outputs": [
        {
          "internalType": "uint256",
          "name": "",
          "type": "uint256"
        }
      ],
      "stateMutability": "view",
      "type": "function"
    },
    {
      "inputs": [
        {
          "internalType": "address",
          "name": "_contractAddress",
          "type": "address"
        },
        {
          "internalType": "uint256",
          "name": "_tokenID",
          "type": "uint256"
        }
      ],
      "name": "DelistNFT",
      "outputs": [],
      "stateMutability": "nonpayable",
      "type": "function"
    },
    {
      "inputs": [
        {
          "internalType": "address",
          "name": "_contractAddress",
          "type": "address"
        },
        {
          "internalType": "uint256",
          "name": "_tokenID",
          "type": "uint256"
        },
        {
          "internalType": "uint256",
          "name": "_price",
          "type": "uint256"
        }
      ],
      "name": "EditNFtPrice",
      "outputs": [],
      "stateMutability": "nonpayable",
      "type": "function"
    },
    {
      "inputs": [
        {
          "internalType": "address",
          "name": "_contractAddress",
          "type": "address"
        },
        {
          "internalType": "uint256",
          "name": "_tokenID",
          "type": "uint256"
        },
        {
          "internalType": "uint256",
          "name": "_price",
          "type": "uint256"
        }
      ],
      "name": "ListNFt",
      "outputs": [],
      "stateMutability": "nonpayable",
      "type": "function"
    },
    {
      "inputs": [
        {
          "internalType": "address",
          "name": "_contractAddress",
          "type": "address"
        }
      ],
      "name": "addNFTCollection",
      "outputs": [],
      "stateMutability": "nonpayable",
      "type": "function"
    },
    {
      "inputs": [],
      "name": "getHistory",
      "outputs": [
        {
          "components": [
            {
              "internalType": "address",
              "name": "owner",
              "type": "address"
            },
            {
              "internalType": "address",
              "name": "contractAddress",
              "type": "address"
            },
            {
              "internalType": "uint256",
              "name": "tokenID",
              "type": "uint256"
            },
            {
              "internalType": "uint256",
              "name": "price",
              "type": "uint256"
            },
            {
              "internalType": "string",
              "name": "action",
              "type": "string"
            }
          ],
          "internalType": "struct HamsterMarketPlaceV2.Log[]",
          "name": "",
          "type": "tuple[]"
        }
      ],
      "stateMutability": "view",
      "type": "function"
    },
    {
      "inputs": [],
      "name": "getListed",
      "outputs": [
        {
          "components": [
            {
              "internalType": "address",
              "name": "contractAddress",
              "type": "address"
            },
            {
              "internalType": "address",
              "name": "owner",
              "type": "address"
            },
            {
              "internalType": "bool",
              "name": "isAvailable",
              "type": "bool"
            },
            {
              "internalType": "uint256",
              "name": "price",
              "type": "uint256"
            },
            {
              "internalType": "uint256",
              "name": "tokenID",
              "type": "uint256"
            }
          ],
          "internalType": "struct HamsterMarketPlaceV2.NFTListing[]",
          "name": "",
          "type": "tuple[]"
        }
      ],
      "stateMutability": "view",
      "type": "function"
    },
    {
      "inputs": [
        {
          "internalType": "address[]",
          "name": "_validNFTContracts",
          "type": "address[]"
        },
        {
          "internalType": "address payable",
          "name": "_commissionAddress",
          "type": "address"
        }
      ],
      "name": "initialize",
      "outputs": [],
      "stateMutability": "nonpayable",
      "type": "function"
    },
    {
      "inputs": [
        {
          "internalType": "address",
          "name": "contractAddress",
          "type": "address"
        }
      ],
      "name": "isValidNFTContracts",
      "outputs": [
        {
          "internalType": "bool",
          "name": "",
          "type": "bool"
        }
      ],
      "stateMutability": "view",
      "type": "function"
    },
    {
      "inputs": [
        {
          "internalType": "address",
          "name": "",
          "type": "address"
        },
        {
          "internalType": "uint256",
          "name": "",
          "type": "uint256"
        }
      ],
      "name": "marketPlaceListing",
      "outputs": [
        {
          "internalType": "address",
          "name": "contractAddress",
          "type": "address"
        },
        {
          "internalType": "address",
          "name": "owner",
          "type": "address"
        },
        {
          "internalType": "bool",
          "name": "isAvailable",
          "type": "bool"
        },
        {
          "internalType": "uint256",
          "name": "price",
          "type": "uint256"
        },
        {
          "internalType": "uint256",
          "name": "tokenID",
          "type": "uint256"
        }
      ],
      "stateMutability": "view",
      "type": "function"
    },
    {
      "inputs": [],
      "name": "owner",
      "outputs": [
        {
          "internalType": "address",
          "name": "",
          "type": "address"
        }
      ],
      "stateMutability": "view",
      "type": "function"
    },
    {
      "inputs": [],
      "name": "renounceOwnership",
      "outputs": [],
      "stateMutability": "nonpayable",
      "type": "function"
    },
    {
      "inputs": [],
      "name": "testingFunction",
      "outputs": [],
      "stateMutability": "nonpayable",
      "type": "function"
    },
    {
      "inputs": [
        {
          "internalType": "address",
          "name": "newOwner",
          "type": "address"
        }
      ],
      "name": "transferOwnership",
      "outputs": [],
      "stateMutability": "nonpayable",
      "type": "function"
    }
  ],
  "bytecode": "0x608060405234801561001057600080fd5b506127a9806100206000396000f3fe6080604052600436106100e85760003560e01c806377b3cc9a1161008a578063aa15efc811610059578063aa15efc8146102da578063bb14a4a7146102fc578063ccc0714a1461031c578063f2fde38b1461032f57600080fd5b806377b3cc9a146102505780638773e08c146102725780638da5cb5b14610292578063a12e5a46146102ba57600080fd5b8063562df3d5116100c6578063562df3d5146101d3578063623b2c66146101f65780636e763f7b14610226578063715018a61461023b57600080fd5b806330002eef146100ed5780633068ec7b1461010f578063462d0b2e146101b3575b600080fd5b3480156100f957600080fd5b5061010d610108366004612263565b61034f565b005b34801561011b57600080fd5b5061017561012a366004612287565b609860209081526000928352604080842090915290825290208054600182015460028301546003909301546001600160a01b039283169392821692600160a01b90920460ff16919085565b604080516001600160a01b039687168152959094166020860152911515928401929092526060830191909152608082015260a0015b60405180910390f35b3480156101bf57600080fd5b5061010d6101ce3660046122c9565b610472565b3480156101df57600080fd5b506101e8600581565b6040519081526020016101aa565b34801561020257600080fd5b50610216610211366004612263565b6106e8565b60405190151581526020016101aa565b34801561023257600080fd5b5061010d610752565b34801561024757600080fd5b5061010d6107bb565b34801561025c57600080fd5b506102656107cf565b6040516101aa91906123a0565b34801561027e57600080fd5b5061010d61028d36600461241c565b610870565b34801561029e57600080fd5b506033546040516001600160a01b0390911681526020016101aa565b3480156102c657600080fd5b5061010d6102d5366004612287565b610e68565b3480156102e657600080fd5b506102ef611154565b6040516101aa9190612451565b34801561030857600080fd5b5061010d61031736600461241c565b611274565b61010d61032a366004612287565b611711565b34801561033b57600080fd5b5061010d61034a366004612263565b611ca3565b610357611d1c565b6001600160a01b0381166103a45760405162461bcd60e51b815260206004820152600f60248201526e496e76616c6964206164647265737360881b60448201526064015b60405180910390fd5b6103ad816106e8565b156103fa5760405162461bcd60e51b815260206004820152601e60248201527f436f6e747261637420616c726561647920616464656420696e206c6973740000604482015260640161039b565b609b805460018101825560009182527fbba9db4cdbea0a37c207bbb83e20f828cd4441c49891101dc94fd20dc8efc3490180546001600160a01b0319166001600160a01b03841690811790915560405190917f346170e17c5503e2745c300363be112f4023be046f20d3b0e51fbe552827d47191a250565b600054610100900460ff16158080156104925750600054600160ff909116105b806104ac5750303b1580156104ac575060005460ff166001145b61050f5760405162461bcd60e51b815260206004820152602e60248201527f496e697469616c697a61626c653a20636f6e747261637420697320616c72656160448201526d191e481a5b9a5d1a585b1a5e995960921b606482015260840161039b565b6000805460ff191660011790558015610532576000805461ff0019166101001790555b61053a611d76565b610542611da5565b6001600160a01b0382166105985760405162461bcd60e51b815260206004820152601a60248201527f496e76616c696420636f6d6d697373696f6e2061646472657373000000000000604482015260640161039b565b609780546001600160a01b0319166001600160a01b03841617905560005b835181101561069c5760006001600160a01b03168482815181106105dc576105dc61252f565b60200260200101516001600160a01b0316141561063b5760405162461bcd60e51b815260206004820152601860248201527f496e76616c696420636f6e747261637420616464726573730000000000000000604482015260640161039b565b609b84828151811061064f5761064f61252f565b60209081029190910181015182546001810184556000938452919092200180546001600160a01b0319166001600160a01b03909216919091179055806106948161255b565b9150506105b6565b5080156106e3576000805461ff0019169055604051600181527f7f26b83ff96e1f2b6a682f133852f6798a09c465da95921460cefb38474024989060200160405180910390a15b505050565b6000805b609b5481101561074957826001600160a01b0316609b82815481106107135761071361252f565b6000918252602090912001546001600160a01b031614156107375750600192915050565b806107418161255b565b9150506106ec565b50600092915050565b7f18b6ba345500d989da5f5decc99fd8dead5c03cd82593405684084be05a8d1786040516107b1906020808252601d908201527f54686973206973206120746573742066756e6374696f6e20696e205632000000604082015260600190565b60405180910390a1565b6107c3611d1c565b6107cd6000611dd4565b565b60606099805480602002602001604051908101604052809291908181526020016000905b828210156108675760008481526020908190206040805160a0810182526004860290920180546001600160a01b03908116845260018083015491821685870152600160a01b90910460ff161515928401929092526002810154606084015260030154608083015290835290920191016107f3565b50505050905090565b610878611e26565b6001600160a01b0383166000908152609860209081526040808320858452909152902060010154600160a01b900460ff16156108f65760405162461bcd60e51b815260206004820152601a60248201527f54686973204e465420697320616c7265616479206c6973746564000000000000604482015260640161039b565b82610900816106e8565b61091c5760405162461bcd60e51b815260040161039b90612576565b6040516331a9108f60e11b81526004810184905233906001600160a01b03831690636352211e9060240160206040518083038186803b15801561095e57600080fd5b505afa158015610972573d6000803e3d6000fd5b505050506040513d601f19601f8201168201806040525081019061099691906125c6565b6001600160a01b0316146109bc5760405162461bcd60e51b815260040161039b906125e3565b60405163020604bf60e21b81526004810184905230906001600160a01b0383169063081812fc9060240160206040518083038186803b1580156109fe57600080fd5b505afa158015610a12573d6000803e3d6000fd5b505050506040513d601f19601f82011682018060405250810190610a3691906125c6565b6001600160a01b031614610a5c5760405162461bcd60e51b815260040161039b90612612565b8360986000866001600160a01b03166001600160a01b03168152602001908152602001600020600085815260200190815260200160002060000160006101000a8154816001600160a01b0302191690836001600160a01b03160217905550600160986000866001600160a01b03166001600160a01b03168152602001908152602001600020600085815260200190815260200160002060010160146101000a81548160ff0219169083151502179055503360986000866001600160a01b03166001600160a01b03168152602001908152602001600020600085815260200190815260200160002060010160006101000a8154816001600160a01b0302191690836001600160a01b031602179055508160986000866001600160a01b03166001600160a01b031681526020019081526020016000206000858152602001908152602001600020600201819055508260986000866001600160a01b03166001600160a01b03168152602001908152602001600020600085815260200190815260200160002060030181905550609960986000866001600160a01b03166001600160a01b03168152602001908152602001600020600085815260200190815260200160002090806001815401808255809150506001900390600052602060002090600402016000909190919091506000820160009054906101000a90046001600160a01b03168160000160006101000a8154816001600160a01b0302191690836001600160a01b031602179055506001820160009054906101000a90046001600160a01b03168160010160006101000a8154816001600160a01b0302191690836001600160a01b031602179055506001820160149054906101000a900460ff168160010160146101000a81548160ff02191690831515021790555060028201548160020155600382015481600301555050609a6040518060a00160405280336001600160a01b03168152602001866001600160a01b0316815260200185815260200184815260200160405180604001604052806004815260200163131a5cdd60e21b815250815250908060018154018082558091505060019003906000526020600020906005020160009091909190915060008201518160000160006101000a8154816001600160a01b0302191690836001600160a01b0316021790555060208201518160010160006101000a8154816001600160a01b0302191690836001600160a01b0316021790555060408201518160020155606082015181600301556080820151816004019080519060200190610e149291906121a5565b505060408051858152602081018590523392506001600160a01b038716917f355c67a44a9e7ad44dbeb878463f794aec6b06c2c96c3f44526cd977acef500e910160405180910390a3506106e36001606555565b610e70611e26565b81610e7a816106e8565b610e965760405162461bcd60e51b815260040161039b90612576565b6040516331a9108f60e11b81526004810183905233906001600160a01b03831690636352211e9060240160206040518083038186803b158015610ed857600080fd5b505afa158015610eec573d6000803e3d6000fd5b505050506040513d601f19601f82011682018060405250810190610f1091906125c6565b6001600160a01b031614610f365760405162461bcd60e51b815260040161039b906125e3565b6001600160a01b0383166000908152609860209081526040808320858452909152902060010154600160a01b900460ff16610f835760405162461bcd60e51b815260040161039b90612656565b6000610f8f8484611e87565b9050610f9a81611f24565b6001600160a01b03808516600081815260986020908152604080832088845282528083206001908101805460ff60a01b19169055815160a0810183523381528084019586528083018a815260608201868152845180860190955260068552651119531a5cdd60d21b8587015260808301948552609a80549485018155909652815160059093027f44da158ba27f9252712a74ff6a55c5d531f69609f1f6e7f17c4443a8e2089be481018054948a166001600160a01b031995861617815597517f44da158ba27f9252712a74ff6a55c5d531f69609f1f6e7f17c4443a8e2089be58201805491909a1694169390931790975595517f44da158ba27f9252712a74ff6a55c5d531f69609f1f6e7f17c4443a8e2089be682015592517f44da158ba27f9252712a74ff6a55c5d531f69609f1f6e7f17c4443a8e2089be784015551805161110b937f44da158ba27f9252712a74ff6a55c5d531f69609f1f6e7f17c4443a8e2089be8019291909101906121a5565b50506040518491506001600160a01b038616907fb13b3fa5a495ffbc07fa282fd9a34e3a9f4f7184ef7e89c47d83a38894f2c2cd90600090a350506111506001606555565b5050565b6060609a805480602002602001604051908101604052809291908181526020016000905b828210156108675760008481526020908190206040805160a0810182526005860290920180546001600160a01b03908116845260018201541693830193909352600283015490820152600382015460608201526004820180549192916080840191906111e39061267f565b80601f016020809104026020016040519081016040528092919081815260200182805461120f9061267f565b801561125c5780601f106112315761010080835404028352916020019161125c565b820191906000526020600020905b81548152906001019060200180831161123f57829003601f168201915b50505050508152505081526020019060010190611178565b61127c611e26565b82611286816106e8565b6112a25760405162461bcd60e51b815260040161039b90612576565b6040516331a9108f60e11b81526004810184905233906001600160a01b03831690636352211e9060240160206040518083038186803b1580156112e457600080fd5b505afa1580156112f8573d6000803e3d6000fd5b505050506040513d601f19601f8201168201806040525081019061131c91906125c6565b6001600160a01b0316146113425760405162461bcd60e51b815260040161039b906125e3565b60405163020604bf60e21b81526004810184905230906001600160a01b0383169063081812fc9060240160206040518083038186803b15801561138457600080fd5b505afa158015611398573d6000803e3d6000fd5b505050506040513d601f19601f820116820180604052508101906113bc91906125c6565b6001600160a01b0316146113e25760405162461bcd60e51b815260040161039b90612612565b6001600160a01b0384166000908152609860209081526040808320868452909152902060010154600160a01b900460ff1661142f5760405162461bcd60e51b815260040161039b90612656565b6001600160a01b038416600090815260986020908152604080832086845290915281206002018390556114628585611e87565b905061146d81611f24565b6001600160a01b038581166000818152609860209081526040808320898452825280832060998054600180820190925582547f72a152ddfb8e864297c917af52ea6c1c68aead0fee1a62673fcc7e0c94979d0060049283029081018054928b166001600160a01b031993841617905583850180547f72a152ddfb8e864297c917af52ea6c1c68aead0fee1a62673fcc7e0c94979d0183018054918d168286168117825592546001600160a81b0319909216909217600160a01b9182900460ff16151590910217905560028501547f72a152ddfb8e864297c917af52ea6c1c68aead0fee1a62673fcc7e0c94979d028201556003909401547f72a152ddfb8e864297c917af52ea6c1c68aead0fee1a62673fcc7e0c94979d0390940193909355835160a0810185523381528086019788528085018d8152606082018d815286518088019097529286526311591a5d60e21b8688015260808201958652609a8054948501815590975280517f44da158ba27f9252712a74ff6a55c5d531f69609f1f6e7f17c4443a8e2089be4600590940293840180548616918b1691909117815597517f44da158ba27f9252712a74ff6a55c5d531f69609f1f6e7f17c4443a8e2089be58401805490951699169890981790925593517f44da158ba27f9252712a74ff6a55c5d531f69609f1f6e7f17c4443a8e2089be6850155517f44da158ba27f9252712a74ff6a55c5d531f69609f1f6e7f17c4443a8e2089be78401555180516116be937f44da158ba27f9252712a74ff6a55c5d531f69609f1f6e7f17c4443a8e2089be8019291909101906121a5565b50505083856001600160a01b03167fd4891e98fa502cb701c2f331397901a048f15a7385581f955ee5f7e1bd59e507856040516116fd91815260200190565b60405180910390a350506106e36001606555565b611719611e26565b6001600160a01b038281166000818152609860209081526040808320868452909152908190206001015490516331a9108f60e11b815260048101859052859391909116918291636352211e9060240160206040518083038186803b15801561178057600080fd5b505afa158015611794573d6000803e3d6000fd5b505050506040513d601f19601f820116820180604052508101906117b891906125c6565b6001600160a01b0316146118035760405162461bcd60e51b81526020600482015260126024820152716e6f74206f776e657220616e79206d6f726560701b604482015260640161039b565b61180c846106e8565b6118285760405162461bcd60e51b815260040161039b90612576565b60405163020604bf60e21b81526004810184905230906001600160a01b0384169063081812fc9060240160206040518083038186803b15801561186a57600080fd5b505afa15801561187e573d6000803e3d6000fd5b505050506040513d601f19601f820116820180604052508101906118a291906125c6565b6001600160a01b0316146118f85760405162461bcd60e51b815260206004820152601c60248201527f4e4654206973206e6f7420617070726f766564206279206f776e657200000000604482015260640161039b565b6001600160a01b0384166000908152609860209081526040808320868452909152902060010154600160a01b900460ff166119455760405162461bcd60e51b815260040161039b90612656565b6001600160a01b038416600090815260986020908152604080832086845290915290206002015434146119cd5760405162461bcd60e51b815260206004820152602a60248201527f596f7520646f6e74206861766520656e6f7567682066756e647320746f2062756044820152691e481d1a1a5cc813919560b21b606482015260840161039b565b600060646119dc6005346126ba565b6119e691906126d9565b905060006119f482346126fb565b6001600160a01b0380881660009081526098602090815260408083208a8452909152902060010154919250611a2a911682612035565b609754611a40906001600160a01b031683612035565b6001600160a01b0386811660009081526098602090815260408083208984529091529081902060010180546001600160a81b031916339081179091559051632142170760e11b81528583166004820152602481019190915260448101879052908516906342842e0e90606401600060405180830381600087803b158015611ac657600080fd5b505af1158015611ada573d6000803e3d6000fd5b505050506000611aea8787611e87565b9050611af581611f24565b6040805160a0810182523381526001600160a01b0389811660208084019182528385018b815234606086019081528651808801909752600387526242757960e81b8784015260808601968752609a8054600181018255600091909152865160059091027f44da158ba27f9252712a74ff6a55c5d531f69609f1f6e7f17c4443a8e2089be4810180549288166001600160a01b031993841617815595517f44da158ba27f9252712a74ff6a55c5d531f69609f1f6e7f17c4443a8e2089be5820180549190981692169190911790955590517f44da158ba27f9252712a74ff6a55c5d531f69609f1f6e7f17c4443a8e2089be6850155517f44da158ba27f9252712a74ff6a55c5d531f69609f1f6e7f17c4443a8e2089be78401559351805193949193611c47937f44da158ba27f9252712a74ff6a55c5d531f69609f1f6e7f17c4443a8e2089be8019291909101906121a5565b5050604080518881523460208201523392506001600160a01b0387811692908b16917f53f27bbbbe2791e943dac89f644e5d8f5b16152644f5111604390f09f5f8ba40910160405180910390a450505050506111506001606555565b611cab611d1c565b6001600160a01b038116611d105760405162461bcd60e51b815260206004820152602660248201527f4f776e61626c653a206e6577206f776e657220697320746865207a65726f206160448201526564647265737360d01b606482015260840161039b565b611d1981611dd4565b50565b6033546001600160a01b031633146107cd5760405162461bcd60e51b815260206004820181905260248201527f4f776e61626c653a2063616c6c6572206973206e6f7420746865206f776e6572604482015260640161039b565b600054610100900460ff16611d9d5760405162461bcd60e51b815260040161039b90612712565b6107cd61214e565b600054610100900460ff16611dcc5760405162461bcd60e51b815260040161039b90612712565b6107cd61217e565b603380546001600160a01b038381166001600160a01b0319831681179093556040519116919082907f8be0079c531659141344cd1fd0a4f28419497f9722a3daafe3b4186f6b6457e090600090a35050565b60026065541415611e795760405162461bcd60e51b815260206004820152601f60248201527f5265656e7472616e637947756172643a207265656e7472616e742063616c6c00604482015260640161039b565b6002606555565b6001606555565b600080805b609954811015611f1c57846001600160a01b031660998281548110611eb357611eb361252f565b60009182526020909120600490910201546001600160a01b0316148015611efd57508360998281548110611ee957611ee961252f565b906000526020600020906004020160030154145b15611f0a57809150611f1c565b80611f148161255b565b915050611e8c565b509392505050565b60998054611f34906001906126fb565b81548110611f4457611f4461252f565b906000526020600020906004020160998281548110611f6557611f6561252f565b60009182526020909120825460049092020180546001600160a01b03199081166001600160a01b039384161782556001808501805491840180549384169290951691821785555460ff600160a01b91829004161515026001600160a81b03199092161717909155600280830154908201556003918201549101556099805480611ff057611ff061275d565b60008281526020812060046000199093019283020180546001600160a01b03191681556001810180546001600160a81b03191690556002810182905560030155905550565b804710156120855760405162461bcd60e51b815260206004820152601d60248201527f416464726573733a20696e73756666696369656e742062616c616e6365000000604482015260640161039b565b6000826001600160a01b03168260405160006040518083038185875af1925050503d80600081146120d2576040519150601f19603f3d011682016040523d82523d6000602084013e6120d7565b606091505b50509050806106e35760405162461bcd60e51b815260206004820152603a60248201527f416464726573733a20756e61626c6520746f2073656e642076616c75652c207260448201527f6563697069656e74206d61792068617665207265766572746564000000000000606482015260840161039b565b600054610100900460ff166121755760405162461bcd60e51b815260040161039b90612712565b6107cd33611dd4565b600054610100900460ff16611e805760405162461bcd60e51b815260040161039b90612712565b8280546121b19061267f565b90600052602060002090601f0160209004810192826121d35760008555612219565b82601f106121ec57805160ff1916838001178555612219565b82800160010185558215612219579182015b828111156122195782518255916020019190600101906121fe565b50612225929150612229565b5090565b5b80821115612225576000815560010161222a565b6001600160a01b0381168114611d1957600080fd5b803561225e8161223e565b919050565b60006020828403121561227557600080fd5b81356122808161223e565b9392505050565b6000806040838503121561229a57600080fd5b82356122a58161223e565b946020939093013593505050565b634e487b7160e01b600052604160045260246000fd5b600080604083850312156122dc57600080fd5b823567ffffffffffffffff808211156122f457600080fd5b818501915085601f83011261230857600080fd5b813560208282111561231c5761231c6122b3565b8160051b604051601f19603f83011681018181108682111715612341576123416122b3565b60405292835281830193508481018201928984111561235f57600080fd5b948201945b838610156123845761237586612253565b85529482019493820193612364565b96506123939050878201612253565b9450505050509250929050565b602080825282518282018190526000919060409081850190868401855b8281101561240f57815180516001600160a01b03908116865287820151168786015285810151151586860152606080820151908601526080908101519085015260a090930192908501906001016123bd565b5091979650505050505050565b60008060006060848603121561243157600080fd5b833561243c8161223e565b95602085013595506040909401359392505050565b60006020808301818452808551808352604092508286019150828160051b8701018488016000805b8481101561252057898403603f19018652825180516001600160a01b03908116865289820151168986015287810151888601526060808201519086015260809081015160a091860182905280519186018290529083905b808210156124ee578282018b015187830160c00152908a01906124d0565b808211156124ff578460c082890101525b978a0197601f01601f19169590950160c00194505091870191600101612479565b50919998505050505050505050565b634e487b7160e01b600052603260045260246000fd5b634e487b7160e01b600052601160045260246000fd5b600060001982141561256f5761256f612545565b5060010190565b60208082526030908201527f5468697320636f6c6c656374696f6e2063616e7420626520736f6c64206f6e2060408201526f74686973206d61726b6574706c61636560801b606082015260800190565b6000602082840312156125d857600080fd5b81516122808161223e565b6020808252601590820152742cb7ba9030b932903737ba103a34329037bbb732b960591b604082015260600190565b60208082526024908201527f506c6561736520617070726f7665204e465420666f72207468697320636f6e746040820152631c9858dd60e21b606082015260800190565b6020808252600f908201526e4e4654206e6f74206f6e2073616c6560881b604082015260600190565b600181811c9082168061269357607f821691505b602082108114156126b457634e487b7160e01b600052602260045260246000fd5b50919050565b60008160001904831182151516156126d4576126d4612545565b500290565b6000826126f657634e487b7160e01b600052601260045260246000fd5b500490565b60008282101561270d5761270d612545565b500390565b6020808252602b908201527f496e697469616c697a61626c653a20636f6e7472616374206973206e6f74206960408201526a6e697469616c697a696e6760a81b606082015260800190565b634e487b7160e01b600052603160045260246000fdfea26469706673582212208192ddd338ec2199e4c6939202377d0aa1cd0d0e9e4f1d50012276e95f4fa5fb64736f6c63430008080033",
  "linkReferences": {},
  "deployedLinkReferences": {}
}