{
  "_format": "hh-sol-artifact-1",
  "contractName": "EQXTokenV1",
  "sourceName": "contracts/EQXV1.sol",
  "abi": [
    {
      "anonymous": false,
      "inputs": [
        {
          "indexed": true,
          "internalType": "address",
          "name": "owner",
          "type": "address"
        },
        {
          "indexed": true,
          "internalType": "address",
          "name": "spender",
          "type": "address"
        },
        {
          "indexed": false,
          "internalType": "uint256",
          "name": "value",
          "type": "uint256"
        }
      ],
      "name": "Approval",
      "type": "event"
    },
    {
      "anonymous": false,
      "inputs": [
        {
          "indexed": false,
          "internalType": "uint8",
          "name": "version",
          "type": "uint8"
        }
      ],
      "name": "Initialized",
      "type": "event"
    },
    {
      "anonymous": false,
      "inputs": [
        {
          "indexed": true,
          "internalType": "address",
          "name": "from",
          "type": "address"
        },
        {
          "indexed": true,
          "internalType": "address",
          "name": "to",
          "type": "address"
        },
        {
          "indexed": false,
          "internalType": "uint256",
          "name": "value",
          "type": "uint256"
        }
      ],
      "name": "Transfer",
      "type": "event"
    },
    {
      "inputs": [],
      "name": "admin",
      "outputs": [
        {
          "internalType": "address",
          "name": "",
          "type": "address"
        }
      ],
      "stateMutability": "view",
      "type": "function"
    },
    {
      "inputs": [
        {
          "internalType": "address",
          "name": "",
          "type": "address"
        },
        {
          "internalType": "address",
          "name": "",
          "type": "address"
        }
      ],
      "name": "allowance",
      "outputs": [
        {
          "internalType": "uint256",
          "name": "",
          "type": "uint256"
        }
      ],
      "stateMutability": "view",
      "type": "function"
    },
    {
      "inputs": [
        {
          "internalType": "address",
          "name": "_spender",
          "type": "address"
        },
        {
          "internalType": "uint256",
          "name": "_value",
          "type": "uint256"
        }
      ],
      "name": "approve",
      "outputs": [
        {
          "internalType": "bool",
          "name": "",
          "type": "bool"
        }
      ],
      "stateMutability": "nonpayable",
      "type": "function"
    },
    {
      "inputs": [
        {
          "internalType": "address",
          "name": "",
          "type": "address"
        }
      ],
      "name": "balanceOf",
      "outputs": [
        {
          "internalType": "uint256",
          "name": "",
          "type": "uint256"
        }
      ],
      "stateMutability": "view",
      "type": "function"
    },
    {
      "inputs": [],
      "name": "decimals",
      "outputs": [
        {
          "internalType": "uint8",
          "name": "",
          "type": "uint8"
        }
      ],
      "stateMutability": "view",
      "type": "function"
    },
    {
      "inputs": [
        {
          "internalType": "address",
          "name": "account",
          "type": "address"
        }
      ],
      "name": "excludeFromTax",
      "outputs": [],
      "stateMutability": "nonpayable",
      "type": "function"
    },
    {
      "inputs": [
        {
          "internalType": "address",
          "name": "account",
          "type": "address"
        }
      ],
      "name": "includeInTax",
      "outputs": [],
      "stateMutability": "nonpayable",
      "type": "function"
    },
    {
      "inputs": [
        {
          "internalType": "string",
          "name": "_name",
          "type": "string"
        },
        {
          "internalType": "string",
          "name": "_symbol",
          "type": "string"
        },
        {
          "internalType": "uint8",
          "name": "_decimals",
          "type": "uint8"
        },
        {
          "internalType": "uint256",
          "name": "_taxPercentage",
          "type": "uint256"
        },
        {
          "internalType": "uint256",
          "name": "_initialSupply",
          "type": "uint256"
        }
      ],
      "name": "initialize",
      "outputs": [],
      "stateMutability": "nonpayable",
      "type": "function"
    },
    {
      "inputs": [
        {
          "internalType": "address",
          "name": "",
          "type": "address"
        }
      ],
      "name": "isExcludedFromTax",
      "outputs": [
        {
          "internalType": "bool",
          "name": "",
          "type": "bool"
        }
      ],
      "stateMutability": "view",
      "type": "function"
    },
    {
      "inputs": [],
      "name": "name",
      "outputs": [
        {
          "internalType": "string",
          "name": "",
          "type": "string"
        }
      ],
      "stateMutability": "view",
      "type": "function"
    },
    {
      "inputs": [],
      "name": "owner",
      "outputs": [
        {
          "internalType": "address",
          "name": "",
          "type": "address"
        }
      ],
      "stateMutability": "view",
      "type": "function"
    },
    {
      "inputs": [],
      "name": "redistributeTax",
      "outputs": [],
      "stateMutability": "nonpayable",
      "type": "function"
    },
    {
      "inputs": [],
      "name": "symbol",
      "outputs": [
        {
          "internalType": "string",
          "name": "",
          "type": "string"
        }
      ],
      "stateMutability": "view",
      "type": "function"
    },
    {
      "inputs": [
        {
          "internalType": "address",
          "name": "",
          "type": "address"
        }
      ],
      "name": "tokenHolderIndex",
      "outputs": [
        {
          "internalType": "uint256",
          "name": "",
          "type": "uint256"
        }
      ],
      "stateMutability": "view",
      "type": "function"
    },
    {
      "inputs": [
        {
          "internalType": "uint256",
          "name": "",
          "type": "uint256"
        }
      ],
      "name": "tokenHolders",
      "outputs": [
        {
          "internalType": "address",
          "name": "",
          "type": "address"
        }
      ],
      "stateMutability": "view",
      "type": "function"
    },
    {
      "inputs": [],
      "name": "totalSupply",
      "outputs": [
        {
          "internalType": "uint256",
          "name": "",
          "type": "uint256"
        }
      ],
      "stateMutability": "view",
      "type": "function"
    },
    {
      "inputs": [],
      "name": "totalTaxCollected",
      "outputs": [
        {
          "internalType": "uint256",
          "name": "",
          "type": "uint256"
        }
      ],
      "stateMutability": "view",
      "type": "function"
    },
    {
      "inputs": [
        {
          "internalType": "address",
          "name": "_to",
          "type": "address"
        },
        {
          "internalType": "uint256",
          "name": "_value",
          "type": "uint256"
        }
      ],
      "name": "transfer",
      "outputs": [
        {
          "internalType": "bool",
          "name": "",
          "type": "bool"
        }
      ],
      "stateMutability": "nonpayable",
      "type": "function"
    },
    {
      "inputs": [
        {
          "internalType": "address",
          "name": "_from",
          "type": "address"
        },
        {
          "internalType": "address",
          "name": "_to",
          "type": "address"
        },
        {
          "internalType": "uint256",
          "name": "_value",
          "type": "uint256"
        }
      ],
      "name": "transferFrom",
      "outputs": [
        {
          "internalType": "bool",
          "name": "",
          "type": "bool"
        }
      ],
      "stateMutability": "nonpayable",
      "type": "function"
    }
  ],
  "bytecode": "0x608060405234801561001057600080fd5b50612dd2806100206000396000f3fe608060405234801561001057600080fd5b50600436106101215760003560e01c8063923108d9116100ad578063cb4ca63111610071578063cb4ca6311461031e578063d8454a821461034e578063dd62ed3e1461036c578063e17c4c741461039c578063f851a440146103b857610121565b8063923108d91461026657806395d89b4114610296578063a795575c146102b4578063a9059cbb146102e4578063a9c404e31461031457610121565b806323b872dd116100f457806323b872dd146101ae578063313ce567146101de57806360d1259e146101fc57806370a08231146102185780638da5cb5b1461024857610121565b806306fdde0314610126578063095ea7b31461014457806318160ddd146101745780631f7fd43014610192575b600080fd5b61012e6103d6565b60405161013b9190611ef6565b60405180910390f35b61015e60048036038101906101599190611fc0565b610464565b60405161016b919061201b565b60405180910390f35b61017c610556565b6040516101899190612045565b60405180910390f35b6101ac60048036038101906101a791906121ce565b61055c565b005b6101c860048036038101906101c39190612281565b6108c8565b6040516101d5919061201b565b60405180910390f35b6101e6610ff3565b6040516101f391906122e3565b60405180910390f35b610216600480360381019061021191906122fe565b611006565b005b610232600480360381019061022d91906122fe565b61117e565b60405161023f9190612045565b60405180910390f35b610250611196565b60405161025d919061233a565b60405180910390f35b610280600480360381019061027b9190612355565b6111bc565b60405161028d919061233a565b60405180910390f35b61029e6111fb565b6040516102ab9190611ef6565b60405180910390f35b6102ce60048036038101906102c991906122fe565b611289565b6040516102db9190612045565b60405180910390f35b6102fe60048036038101906102f99190611fc0565b6112a1565b60405161030b919061201b565b60405180910390f35b61031c611879565b005b610338600480360381019061033391906122fe565b611c5b565b604051610345919061201b565b60405180910390f35b610356611c7b565b6040516103639190612045565b60405180910390f35b61038660048036038101906103819190612382565b611c81565b6040516103939190612045565b60405180910390f35b6103b660048036038101906103b191906122fe565b611ca6565b005b6103c0611e1d565b6040516103cd919061233a565b60405180910390f35b600180546103e3906123f1565b80601f016020809104026020016040519081016040528092919081815260200182805461040f906123f1565b801561045c5780601f106104315761010080835404028352916020019161045c565b820191906000526020600020905b81548152906001019060200180831161043f57829003601f168201915b505050505081565b600081600760003373ffffffffffffffffffffffffffffffffffffffff1673ffffffffffffffffffffffffffffffffffffffff16815260200190815260200160002060008573ffffffffffffffffffffffffffffffffffffffff1673ffffffffffffffffffffffffffffffffffffffff168152602001908152602001600020819055508273ffffffffffffffffffffffffffffffffffffffff163373ffffffffffffffffffffffffffffffffffffffff167f8c5be1e5ebec7d5bd14f71427d1e84f3dd0314c0f7b2291e5b200ac8c7c3b925846040516105449190612045565b60405180910390a36001905092915050565b60045481565b60008060019054906101000a900460ff1615905080801561058d5750600160008054906101000a900460ff1660ff16105b806105ba575061059c30611e43565b1580156105b95750600160008054906101000a900460ff1660ff16145b5b6105f9576040517f08c379a00000000000000000000000000000000000000000000000000000000081526004016105f090612494565b60405180910390fd5b60016000806101000a81548160ff021916908360ff1602179055508015610636576001600060016101000a81548160ff0219169083151502179055505b85600190816106459190612660565b5084600290816106559190612660565b5083600360006101000a81548160ff021916908360ff16021790555081600481905550600454600660003373ffffffffffffffffffffffffffffffffffffffff1673ffffffffffffffffffffffffffffffffffffffff16815260200190815260200160002081905550826009819055503373ffffffffffffffffffffffffffffffffffffffff16600073ffffffffffffffffffffffffffffffffffffffff167fddf252ad1be2c89b69c2b068fc378daa952ba7f163c4a11628f55a4df523b3ef6004546040516107259190612045565b60405180910390a333600a60006101000a81548173ffffffffffffffffffffffffffffffffffffffff021916908373ffffffffffffffffffffffffffffffffffffffff16021790555033600560006101000a81548173ffffffffffffffffffffffffffffffffffffffff021916908373ffffffffffffffffffffffffffffffffffffffff160217905550600b339080600181540180825580915050600190039060005260206000200160009091909190916101000a81548173ffffffffffffffffffffffffffffffffffffffff021916908373ffffffffffffffffffffffffffffffffffffffff1602179055506001600b805490506108249190612761565b600c60003373ffffffffffffffffffffffffffffffffffffffff1673ffffffffffffffffffffffffffffffffffffffff1681526020019081526020016000208190555080156108c05760008060016101000a81548160ff0219169083151502179055507f7f26b83ff96e1f2b6a682f133852f6798a09c465da95921460cefb384740249860016040516108b791906127d0565b60405180910390a15b505050505050565b60008073ffffffffffffffffffffffffffffffffffffffff168373ffffffffffffffffffffffffffffffffffffffff1603610938576040517f08c379a000000000000000000000000000000000000000000000000000000000815260040161092f90612837565b60405180910390fd5b6000821161097b576040517f08c379a0000000000000000000000000000000000000000000000000000000008152600401610972906128a3565b60405180910390fd5b81600660008673ffffffffffffffffffffffffffffffffffffffff1673ffffffffffffffffffffffffffffffffffffffff1681526020019081526020016000205410156109fd576040517f08c379a00000000000000000000000000000000000000000000000000000000081526004016109f49061290f565b60405180910390fd5b81600760008673ffffffffffffffffffffffffffffffffffffffff1673ffffffffffffffffffffffffffffffffffffffff16815260200190815260200160002060003373ffffffffffffffffffffffffffffffffffffffff1673ffffffffffffffffffffffffffffffffffffffff168152602001908152602001600020541015610abc576040517f08c379a0000000000000000000000000000000000000000000000000000000008152600401610ab39061297b565b60405180910390fd5b6000606460095484610ace919061299b565b610ad89190612a0c565b905060008184610ae89190612761565b905083600660008873ffffffffffffffffffffffffffffffffffffffff1673ffffffffffffffffffffffffffffffffffffffff1681526020019081526020016000206000828254610b399190612761565b9250508190555080600660008773ffffffffffffffffffffffffffffffffffffffff1673ffffffffffffffffffffffffffffffffffffffff1681526020019081526020016000206000828254610b8f9190612a3d565b9250508190555083600760008873ffffffffffffffffffffffffffffffffffffffff1673ffffffffffffffffffffffffffffffffffffffff16815260200190815260200160002060003373ffffffffffffffffffffffffffffffffffffffff1673ffffffffffffffffffffffffffffffffffffffff1681526020019081526020016000206000828254610c229190612761565b9250508190555081600d6000828254610c3b9190612a3d565b9250508190555080600660008773ffffffffffffffffffffffffffffffffffffffff1673ffffffffffffffffffffffffffffffffffffffff16815260200190815260200160002054148015610ccf57506000600c60008773ffffffffffffffffffffffffffffffffffffffff1673ffffffffffffffffffffffffffffffffffffffff16815260200190815260200160002054145b15610d8d57600b859080600181540180825580915050600190039060005260206000200160009091909190916101000a81548173ffffffffffffffffffffffffffffffffffffffff021916908373ffffffffffffffffffffffffffffffffffffffff1602179055506001600b80549050610d499190612761565b600c60008773ffffffffffffffffffffffffffffffffffffffff1673ffffffffffffffffffffffffffffffffffffffff168152602001908152602001600020819055505b8473ffffffffffffffffffffffffffffffffffffffff168673ffffffffffffffffffffffffffffffffffffffff167fddf252ad1be2c89b69c2b068fc378daa952ba7f163c4a11628f55a4df523b3ef83604051610dea9190612045565b60405180910390a36000821115610fe657600282610e089190612a0c565b60066000600a60009054906101000a900473ffffffffffffffffffffffffffffffffffffffff1673ffffffffffffffffffffffffffffffffffffffff1673ffffffffffffffffffffffffffffffffffffffff1681526020019081526020016000206000828254610e789190612a3d565b92505081905550600282610e8c9190612a0c565b600660003073ffffffffffffffffffffffffffffffffffffffff1673ffffffffffffffffffffffffffffffffffffffff1681526020019081526020016000206000828254610eda9190612a3d565b925050819055503073ffffffffffffffffffffffffffffffffffffffff168673ffffffffffffffffffffffffffffffffffffffff167fddf252ad1be2c89b69c2b068fc378daa952ba7f163c4a11628f55a4df523b3ef600285610f3d9190612a0c565b604051610f4a9190612045565b60405180910390a3600a60009054906101000a900473ffffffffffffffffffffffffffffffffffffffff1673ffffffffffffffffffffffffffffffffffffffff168673ffffffffffffffffffffffffffffffffffffffff167fddf252ad1be2c89b69c2b068fc378daa952ba7f163c4a11628f55a4df523b3ef600285610fd09190612a0c565b604051610fdd9190612045565b60405180910390a35b6001925050509392505050565b600360009054906101000a900460ff1681565b600560009054906101000a900473ffffffffffffffffffffffffffffffffffffffff1673ffffffffffffffffffffffffffffffffffffffff163373ffffffffffffffffffffffffffffffffffffffff1614611096576040517f08c379a000000000000000000000000000000000000000000000000000000000815260040161108d90612ae3565b60405180910390fd5b600860008273ffffffffffffffffffffffffffffffffffffffff1673ffffffffffffffffffffffffffffffffffffffff16815260200190815260200160002060009054906101000a900460ff1615611123576040517f08c379a000000000000000000000000000000000000000000000000000000000815260040161111a90612b75565b60405180910390fd5b6001600860008373ffffffffffffffffffffffffffffffffffffffff1673ffffffffffffffffffffffffffffffffffffffff16815260200190815260200160002060006101000a81548160ff02191690831515021790555050565b60066020528060005260406000206000915090505481565b600560009054906101000a900473ffffffffffffffffffffffffffffffffffffffff1681565b600b81815481106111cc57600080fd5b906000526020600020016000915054906101000a900473ffffffffffffffffffffffffffffffffffffffff1681565b60028054611208906123f1565b80601f0160208091040260200160405190810160405280929190818152602001828054611234906123f1565b80156112815780601f1061125657610100808354040283529160200191611281565b820191906000526020600020905b81548152906001019060200180831161126457829003601f168201915b505050505081565b600c6020528060005260406000206000915090505481565b60008073ffffffffffffffffffffffffffffffffffffffff168373ffffffffffffffffffffffffffffffffffffffff1603611311576040517f08c379a000000000000000000000000000000000000000000000000000000000815260040161130890612837565b60405180910390fd5b60008211611354576040517f08c379a000000000000000000000000000000000000000000000000000000000815260040161134b906128a3565b60405180910390fd5b81600660003373ffffffffffffffffffffffffffffffffffffffff1673ffffffffffffffffffffffffffffffffffffffff1681526020019081526020016000205410156113d6576040517f08c379a00000000000000000000000000000000000000000000000000000000081526004016113cd9061290f565b60405180910390fd5b60006064600954846113e8919061299b565b6113f29190612a0c565b9050600081846114029190612761565b905083600660003373ffffffffffffffffffffffffffffffffffffffff1673ffffffffffffffffffffffffffffffffffffffff16815260200190815260200160002060008282546114539190612761565b9250508190555080600660008773ffffffffffffffffffffffffffffffffffffffff1673ffffffffffffffffffffffffffffffffffffffff16815260200190815260200160002060008282546114a99190612a3d565b9250508190555081600d60008282546114c29190612a3d565b9250508190555080600660008773ffffffffffffffffffffffffffffffffffffffff1673ffffffffffffffffffffffffffffffffffffffff1681526020019081526020016000205414801561155657506000600c60008773ffffffffffffffffffffffffffffffffffffffff1673ffffffffffffffffffffffffffffffffffffffff16815260200190815260200160002054145b1561161457600b859080600181540180825580915050600190039060005260206000200160009091909190916101000a81548173ffffffffffffffffffffffffffffffffffffffff021916908373ffffffffffffffffffffffffffffffffffffffff1602179055506001600b805490506115d09190612761565b600c60008773ffffffffffffffffffffffffffffffffffffffff1673ffffffffffffffffffffffffffffffffffffffff168152602001908152602001600020819055505b8473ffffffffffffffffffffffffffffffffffffffff163373ffffffffffffffffffffffffffffffffffffffff167fddf252ad1be2c89b69c2b068fc378daa952ba7f163c4a11628f55a4df523b3ef836040516116719190612045565b60405180910390a3600082111561186d5760028261168f9190612a0c565b60066000600a60009054906101000a900473ffffffffffffffffffffffffffffffffffffffff1673ffffffffffffffffffffffffffffffffffffffff1673ffffffffffffffffffffffffffffffffffffffff16815260200190815260200160002060008282546116ff9190612a3d565b925050819055506002826117139190612a0c565b600660003073ffffffffffffffffffffffffffffffffffffffff1673ffffffffffffffffffffffffffffffffffffffff16815260200190815260200160002060008282546117619190612a3d565b925050819055503073ffffffffffffffffffffffffffffffffffffffff163373ffffffffffffffffffffffffffffffffffffffff167fddf252ad1be2c89b69c2b068fc378daa952ba7f163c4a11628f55a4df523b3ef6002856117c49190612a0c565b6040516117d19190612045565b60405180910390a3600a60009054906101000a900473ffffffffffffffffffffffffffffffffffffffff1673ffffffffffffffffffffffffffffffffffffffff163373ffffffffffffffffffffffffffffffffffffffff167fddf252ad1be2c89b69c2b068fc378daa952ba7f163c4a11628f55a4df523b3ef6002856118579190612a0c565b6040516118649190612045565b60405180910390a35b60019250505092915050565b600560009054906101000a900473ffffffffffffffffffffffffffffffffffffffff1673ffffffffffffffffffffffffffffffffffffffff163373ffffffffffffffffffffffffffffffffffffffff1614611909576040517f08c379a000000000000000000000000000000000000000000000000000000000815260040161190090612ae3565b60405180910390fd5b6000600660003073ffffffffffffffffffffffffffffffffffffffff1673ffffffffffffffffffffffffffffffffffffffff168152602001908152602001600020541161198b576040517f08c379a000000000000000000000000000000000000000000000000000000000815260040161198290612c07565b60405180910390fd5b6000600b80549050116119d3576040517f08c379a00000000000000000000000000000000000000000000000000000000081526004016119ca90612c99565b60405180910390fd5b6000600660003073ffffffffffffffffffffffffffffffffffffffff1673ffffffffffffffffffffffffffffffffffffffff16815260200190815260200160002054905060005b600b80549050811015611be8576000600b8281548110611a3d57611a3c612cb9565b5b9060005260206000200160009054906101000a900473ffffffffffffffffffffffffffffffffffffffff169050600860008273ffffffffffffffffffffffffffffffffffffffff1673ffffffffffffffffffffffffffffffffffffffff16815260200190815260200160002060009054906101000a900460ff16611bd457600060045484600660008573ffffffffffffffffffffffffffffffffffffffff1673ffffffffffffffffffffffffffffffffffffffff16815260200190815260200160002054611b0b919061299b565b611b159190612a0c565b905080600660008473ffffffffffffffffffffffffffffffffffffffff1673ffffffffffffffffffffffffffffffffffffffff1681526020019081526020016000206000828254611b669190612a3d565b925050819055508173ffffffffffffffffffffffffffffffffffffffff163073ffffffffffffffffffffffffffffffffffffffff167fddf252ad1be2c89b69c2b068fc378daa952ba7f163c4a11628f55a4df523b3ef83604051611bca9190612045565b60405180910390a3505b508080611be090612ce8565b915050611a1a565b5080600660003073ffffffffffffffffffffffffffffffffffffffff1673ffffffffffffffffffffffffffffffffffffffff1681526020019081526020016000206000828254611c389190612761565b9250508190555080600d6000828254611c519190612761565b9250508190555050565b60086020528060005260406000206000915054906101000a900460ff1681565b600d5481565b6007602052816000526040600020602052806000526040600020600091509150505481565b600560009054906101000a900473ffffffffffffffffffffffffffffffffffffffff1673ffffffffffffffffffffffffffffffffffffffff163373ffffffffffffffffffffffffffffffffffffffff1614611d36576040517f08c379a0000000000000000000000000000000000000000000000000000000008152600401611d2d90612ae3565b60405180910390fd5b600860008273ffffffffffffffffffffffffffffffffffffffff1673ffffffffffffffffffffffffffffffffffffffff16815260200190815260200160002060009054906101000a900460ff16611dc2576040517f08c379a0000000000000000000000000000000000000000000000000000000008152600401611db990612d7c565b60405180910390fd5b6000600860008373ffffffffffffffffffffffffffffffffffffffff1673ffffffffffffffffffffffffffffffffffffffff16815260200190815260200160002060006101000a81548160ff02191690831515021790555050565b600a60009054906101000a900473ffffffffffffffffffffffffffffffffffffffff1681565b6000808273ffffffffffffffffffffffffffffffffffffffff163b119050919050565b600081519050919050565b600082825260208201905092915050565b60005b83811015611ea0578082015181840152602081019050611e85565b60008484015250505050565b6000601f19601f8301169050919050565b6000611ec882611e66565b611ed28185611e71565b9350611ee2818560208601611e82565b611eeb81611eac565b840191505092915050565b60006020820190508181036000830152611f108184611ebd565b905092915050565b6000604051905090565b600080fd5b600080fd5b600073ffffffffffffffffffffffffffffffffffffffff82169050919050565b6000611f5782611f2c565b9050919050565b611f6781611f4c565b8114611f7257600080fd5b50565b600081359050611f8481611f5e565b92915050565b6000819050919050565b611f9d81611f8a565b8114611fa857600080fd5b50565b600081359050611fba81611f94565b92915050565b60008060408385031215611fd757611fd6611f22565b5b6000611fe585828601611f75565b9250506020611ff685828601611fab565b9150509250929050565b60008115159050919050565b61201581612000565b82525050565b6000602082019050612030600083018461200c565b92915050565b61203f81611f8a565b82525050565b600060208201905061205a6000830184612036565b92915050565b600080fd5b600080fd5b7f4e487b7100000000000000000000000000000000000000000000000000000000600052604160045260246000fd5b6120a282611eac565b810181811067ffffffffffffffff821117156120c1576120c061206a565b5b80604052505050565b60006120d4611f18565b90506120e08282612099565b919050565b600067ffffffffffffffff821115612100576120ff61206a565b5b61210982611eac565b9050602081019050919050565b82818337600083830152505050565b6000612138612133846120e5565b6120ca565b90508281526020810184848401111561215457612153612065565b5b61215f848285612116565b509392505050565b600082601f83011261217c5761217b612060565b5b813561218c848260208601612125565b91505092915050565b600060ff82169050919050565b6121ab81612195565b81146121b657600080fd5b50565b6000813590506121c8816121a2565b92915050565b600080600080600060a086880312156121ea576121e9611f22565b5b600086013567ffffffffffffffff81111561220857612207611f27565b5b61221488828901612167565b955050602086013567ffffffffffffffff81111561223557612234611f27565b5b61224188828901612167565b9450506040612252888289016121b9565b935050606061226388828901611fab565b925050608061227488828901611fab565b9150509295509295909350565b60008060006060848603121561229a57612299611f22565b5b60006122a886828701611f75565b93505060206122b986828701611f75565b92505060406122ca86828701611fab565b9150509250925092565b6122dd81612195565b82525050565b60006020820190506122f860008301846122d4565b92915050565b60006020828403121561231457612313611f22565b5b600061232284828501611f75565b91505092915050565b61233481611f4c565b82525050565b600060208201905061234f600083018461232b565b92915050565b60006020828403121561236b5761236a611f22565b5b600061237984828501611fab565b91505092915050565b6000806040838503121561239957612398611f22565b5b60006123a785828601611f75565b92505060206123b885828601611f75565b9150509250929050565b7f4e487b7100000000000000000000000000000000000000000000000000000000600052602260045260246000fd5b6000600282049050600182168061240957607f821691505b60208210810361241c5761241b6123c2565b5b50919050565b7f496e697469616c697a61626c653a20636f6e747261637420697320616c72656160008201527f647920696e697469616c697a6564000000000000000000000000000000000000602082015250565b600061247e602e83611e71565b915061248982612422565b604082019050919050565b600060208201905081810360008301526124ad81612471565b9050919050565b60008190508160005260206000209050919050565b60006020601f8301049050919050565b600082821b905092915050565b6000600883026125167fffffffffffffffffffffffffffffffffffffffffffffffffffffffffffffffff826124d9565b61252086836124d9565b95508019841693508086168417925050509392505050565b6000819050919050565b600061255d61255861255384611f8a565b612538565b611f8a565b9050919050565b6000819050919050565b61257783612542565b61258b61258382612564565b8484546124e6565b825550505050565b600090565b6125a0612593565b6125ab81848461256e565b505050565b5b818110156125cf576125c4600082612598565b6001810190506125b1565b5050565b601f821115612614576125e5816124b4565b6125ee846124c9565b810160208510156125fd578190505b612611612609856124c9565b8301826125b0565b50505b505050565b600082821c905092915050565b600061263760001984600802612619565b1980831691505092915050565b60006126508383612626565b9150826002028217905092915050565b61266982611e66565b67ffffffffffffffff8111156126825761268161206a565b5b61268c82546123f1565b6126978282856125d3565b600060209050601f8311600181146126ca57600084156126b8578287015190505b6126c28582612644565b86555061272a565b601f1984166126d8866124b4565b60005b82811015612700578489015182556001820191506020850194506020810190506126db565b8683101561271d5784890151612719601f891682612626565b8355505b6001600288020188555050505b505050505050565b7f4e487b7100000000000000000000000000000000000000000000000000000000600052601160045260246000fd5b600061276c82611f8a565b915061277783611f8a565b925082820390508181111561278f5761278e612732565b5b92915050565b6000819050919050565b60006127ba6127b56127b084612795565b612538565b612195565b9050919050565b6127ca8161279f565b82525050565b60006020820190506127e560008301846127c1565b92915050565b7f496e76616c696420726563697069656e74000000000000000000000000000000600082015250565b6000612821601183611e71565b915061282c826127eb565b602082019050919050565b6000602082019050818103600083015261285081612814565b9050919050565b7f496e76616c6964207472616e7366657220616d6f756e74000000000000000000600082015250565b600061288d601783611e71565b915061289882612857565b602082019050919050565b600060208201905081810360008301526128bc81612880565b9050919050565b7f496e73756666696369656e742062616c616e6365000000000000000000000000600082015250565b60006128f9601483611e71565b9150612904826128c3565b602082019050919050565b60006020820190508181036000830152612928816128ec565b9050919050565b7f496e73756666696369656e7420616c6c6f77616e636500000000000000000000600082015250565b6000612965601683611e71565b91506129708261292f565b602082019050919050565b6000602082019050818103600083015261299481612958565b9050919050565b60006129a682611f8a565b91506129b183611f8a565b92508282026129bf81611f8a565b915082820484148315176129d6576129d5612732565b5b5092915050565b7f4e487b7100000000000000000000000000000000000000000000000000000000600052601260045260246000fd5b6000612a1782611f8a565b9150612a2283611f8a565b925082612a3257612a316129dd565b5b828204905092915050565b6000612a4882611f8a565b9150612a5383611f8a565b9250828201905080821115612a6b57612a6a612732565b5b92915050565b7f4f6e6c79204f776e65722043616e2043616c6c20546869732046756e6374696f60008201527f6e00000000000000000000000000000000000000000000000000000000000000602082015250565b6000612acd602183611e71565b9150612ad882612a71565b604082019050919050565b60006020820190508181036000830152612afc81612ac0565b9050919050565b7f4163636f756e7420616c7265616479206578636c756465642066726f6d20746160008201527f7800000000000000000000000000000000000000000000000000000000000000602082015250565b6000612b5f602183611e71565b9150612b6a82612b03565b604082019050919050565b60006020820190508181036000830152612b8e81612b52565b9050919050565b7f4e6f2074617820617661696c61626c6520666f7220726564697374726962757460008201527f696f6e0000000000000000000000000000000000000000000000000000000000602082015250565b6000612bf1602383611e71565b9150612bfc82612b95565b604082019050919050565b60006020820190508181036000830152612c2081612be4565b9050919050565b7f4e6f20746f6b656e20686f6c6465727320746f2072656469737472696275746560008201527f20746f0000000000000000000000000000000000000000000000000000000000602082015250565b6000612c83602383611e71565b9150612c8e82612c27565b604082019050919050565b60006020820190508181036000830152612cb281612c76565b9050919050565b7f4e487b7100000000000000000000000000000000000000000000000000000000600052603260045260246000fd5b6000612cf382611f8a565b91507fffffffffffffffffffffffffffffffffffffffffffffffffffffffffffffffff8203612d2557612d24612732565b5b600182019050919050565b7f4163636f756e74206e6f74206578636c756465642066726f6d20746178000000600082015250565b6000612d66601d83611e71565b9150612d7182612d30565b602082019050919050565b60006020820190508181036000830152612d9581612d59565b905091905056fea2646970667358221220465b159e04d064484dc9c7d40bd34b37dac63b95b3109d1dd68ff4ccf2b672e064736f6c63430008120033",
  "linkReferences": {},
  "deployedLinkReferences": {}
}